:1006000000300020CD060000150700001161000039
:1006100000000000000000000000000000000000DA
:1006200000000000000000000000000019070000AA
:1006300000000000000000001B0700001D07000074
:1006400021070000290700003107000039070000DA
:10065000410700004907000051070000590700004A
:1006600061070000690700007107000079070000BA
:10067000550B000089070000910700009907000052
:10068000A1070000A9070000B1070000B90700009A
:10069000C1070000C9070000D90B0000450B00008E
:1006A000290F0000E9070000F1070000F90700002A
:1006B000010800000908000014BE000000F0FF1F40
:1006C0006800000068F0FF1FBC19000010B572B68A
:1006D00006F0D0FA0C4C0D4B9C4206D2A268616821
:1006E000206800F095F80C34F5E7094B9C4205D2E0
:1006F0006168206800F098F80834F6E709F0A4FD76
:1007000062B604F031FEFEE7B8060000C406000041
:10071000CC060000FEE7FEE7FEE7FEE7FEE7FEE7A9
:1007200010B5FFF7FCFF10BD10B5FFF7F8FF10BDC7
:1007300010B5FFF7F4FF10BD10B5FFF7F0FF10BDC7
:1007400010B5FFF7ECFF10BD10B5FFF7E8FF10BDC7
:1007500010B5FFF7E4FF10BD10B5FFF7E0FF10BDC7
:1007600010B506F0AFF810BD10B506F0B7F810BD23
:1007700010B506F09BF910BD10B506F09FF910BD3D
:1007800010B506F04DFA10BD10B506F057FA10BDC1
:1007900010B506F061FA10BD10B5FFF7C0FF10BD2F
:1007A00010B5FFF7BCFF10BD10B5FFF7B8FF10BDC7
:1007B00010B5FFF7B4FF10BD10B5FFF7B0FF10BDC7
:1007C00010B5FFF7ACFF10BD10B5FFF7A8FF10BDC7
:1007D00010B5FFF7A4FF10BD10B5FFF7A0FF10BDC7
:1007E00010B5FFF79CFF10BD10B5FFF798FF10BDC7
:1007F00010B5FFF794FF10BD10B5FFF790FF10BDC7
:1008000010B5FFF78CFF10BD10B5FFF788FF10BDC6
:10081000030030B5091ACC181D1AAA4203D91D6865
:1008200004332560F7E730BD0300002210B51C1A21
:10083000A14202D91A600433F9E710BDFFFFFFFFA0
:10084000FFFFFFFFFFFFFFFFFFFFFFFFFFFFFFFFB8
:10085000FFFFFFFFFFFFFFFFFFFFFFFFFFFFFFFFA8
:10086000FFFFFFFFFFFFFFFFFFFFFFFFFFFFFFFF98
:10087000FFFFFFFFFFFFFFFFFFFFFFFFFFFFFFFF88
:10088000FFFFFFFFFFFFFFFFFFFFFFFFFFFFFFFF78
:10089000FFFFFFFFFFFFFFFFFFFFFFFFFFFFFFFF68
:1008A000FFFFFFFFFFFFFFFFFFFFFFFFFFFFFFFF58
:1008B000FFFFFFFFFFFFFFFFFFFFFFFFFFFFFFFF48
:1008C000FFFFFFFFFFFFFFFFFFFFFFFFFFFFFFFF38
:1008D000FFFFFFFFFFFFFFFFFFFFFFFFFFFFFFFF28
:1008E000FFFFFFFFFFFFFFFFFFFFFFFFFFFFFFFF18
:1008F000FFFFFFFFFFFFFFFFFFFFFFFFFFFFFFFF08
:10090000FFFFFFFFFFFFFFFFFFFFFFFFFFFFFFFFF7
:10091000FFFFFFFFFFFFFFFFFFFFFFFFFFFFFFFFE7
:10092000FFFFFFFFFFFFFFFFFFFFFFFFFFFFFFFFD7
:10093000FFFFFFFFFFFFFFFFFFFFFFFFFFFFFFFFC7
:10094000FFFFFFFFFFFFFFFFFFFFFFFFFFFFFFFFB7
:10095000FFFFFFFFFFFFFFFFFFFFFFFFFFFFFFFFA7
:10096000FFFFFFFFFFFFFFFFFFFFFFFFFFFFFFFF97
:10097000FFFFFFFFFFFFFFFFFFFFFFFFFFFFFFFF87
:10098000FFFFFFFFFFFFFFFFFFFFFFFFFFFFFFFF77
:10099000FFFFFFFFFFFFFFFFFFFFFFFFFFFFFFFF67
:1009A000FFFFFFFFFFFFFFFFFFFFFFFFFFFFFFFF57
:1009B000FFFFFFFFFFFFFFFFFFFFFFFFFFFFFFFF47
:1009C000FFFFFFFFFFFFFFFFFFFFFFFFFFFFFFFF37
:1009D000FFFFFFFFFFFFFFFFFFFFFFFFFFFFFFFF27
:1009E000FFFFFFFFFFFFFFFFFFFFFFFFFFFFFFFF17
:1009F000FFFFFFFFFFFFFFFFFFFFFFFFFFFFFFFF07
:100A0000FFFFFFFFFFFFFFFFFFFFFFFFFFFFFEFFF7
:100A1000002804D002384342584180017047044BFB
:100A20001B681A00703212789B189878F6E7C04657
:100A300068F0FF1F02384342584180017047CD23C0
:100A40005B00C35C10B5002B01D0022B0BD1D82367
:100A50005B00C25C511800224C1C03D00A007229B2
:100A600000DD7222C25410BD10B5029C02280ED0C7
:100A7000032816D10868984203DA01300860012083
:100A800010BD00208442FBD00A600130F8E70868FE
:100A9000824201DA0138F1E700208442F0D00B6095
:100AA000F3E70020ECE7204910B50B0044331B7836
:100AB000DBB2012B05D0022B29D0002344310B706F
:100AC00010BD1A4B1A481A5018381C5CE4B2012C9D
:100AD00018D0042CF1D1002A17D1164C1A594032E3
:100AE0001A5108341A5940321A51134C1A59403AC3
:100AF0001A514A6D114CD2B21A550A24104A9C540C
:100B0000052200E002221A54D7E70622FBE70A007A
:100B10006832137ADBB2002B03D0012BCDD1032333
:100B200000E001231372C8E768F0FF1FB4FDFF1F48
:100B3000180A0000080A00000C0A0000140A00004D
:100B4000150A000010B5024800F020FD10BDC04697
:100B50005C080020F7B51E4C20000AF0A3FA2823F9
:100B60000700184215D01B4DE3792E00DBB201932C
:100B7000463630783F21013006F0B8FA2B00473373
:100B80001B78C9B2994204D03378ED18019BAB7140
:100B900031703B061AD580210D48090206F030F865
:100BA0000C4B1A001D008832893511782A78914241
:100BB0000CD02A783F219B1848331B78DBB2E371B5
:100BC0002878013006F092FAC9B22970F7BDC04604
:100BD00000A00640D2070020F7B501224B4B4C4C39
:100BE0001A61636DE06C9B186365230048331A72C9
:100BF000A36DA56D019303685B68984785423FD25A
:100C0000E06C03685B68984700220023A0652266B9
:100C10006366A36D019A5A401300FF22934374D078
:100C2000A56D3C4C2D0A230058331B78012B06D0B0
:100C3000022B1BD123005933DB7F002B16D0616FB1
:100C4000280006F053FA002910D126005836337CCC
:100C5000002B3FD101220531022005F093FB012337
:100C600033747378022B33D1236EE36623007C3315
:100C700018780138032839D806F0B4F83430343005
:100C8000E06C266E676E0368DB68984702000B0015
:100C90003000390006F0F6FC0F00060008F0CAF834
:100CA000A36D0500C318E06C009303689B68984728
:100CB000009B8342ADD2A365280008F0F1F8020042
:100CC0000B003000390007F06DFD20666166A0E77B
:100CD000E36DCAE7236F01332367C7E77C3463788A
:100CE000002B03D0F8210C4800F004FE1821280046
:100CF00006F0FCF9002908D1084D0231AB68012249
:100D0000DCB2080005F03EFB2C70F7BDFC70034020
:100D100068F0FF1FE8F0FF1FD207002068F1FF1FF7
:100D20000122044B044933331A70E0235B00CA5498
:100D30007047C04668F1FF1F48F2FF1F8F23F7B5C9
:100D40006D4A05001B0102380C00D35C0E2800D947
:100D5000CEE006F047F808CD61CD19191919BAB4DB
:100D600019C019C019008022D201914207D0634BEB
:100D7000994200D1B6E0022000F0A6F96EE0002B07
:100D800000D0B2E01C0008255D4822002900483050
:100D900000F026FE072D37D100235A4A10008D306F
:100DA00007781000A1300078D9B20090B5208446B1
:100DB00094446046007801907920844694446046CB
:100DC0000078884202D140264F488660B94203D15C
:100DD00080204D4F0005B8600098814203D18027E4
:100DE0004948FF0487600198814203D18020464929
:100DF000400588601421594344482031411800209F
:100E000001330870042BC9D1220029003A4804F0AC
:100E100057FA220029005AE0802904D03C4B99421D
:100E200032D00420A8E73B4B38331A78013A012A24
:100E300015D800221A70384BFC241800493001786C
:100E40001A712140DA619A60DA601A6101705A629F
:100E5000991C9A62DA620133CA77DA77F7BD012208
:100E6000D82114202B4B490038331A702B4B5B5080
:100E7000043158540021A530FF3019500430195066
:100E8000C131FF315A52E9E7224B38331A78022A2E
:100E9000E5D0022222491A70204BAF32FF3299501E
:100EA0001021043299540022A931FF315A500431E3
:100EB0005A50C132BC39FF32FF399952CEE70A008D
:100EC00016480B2104F0BEF8C8E70A000A211248B0
:100ED00003F082FFC2E70B4800221249103009F0EC
:100EE000B9FCBBE7002406254EE7002407254BE7A5
:100EF0002100280040E7C046BCF4FF1F024000006C
:100F000068F0FF1F68F1FF1F00F00F40B0F1FF1FF6
:100F100080800000E8F1FF1F0CF4FF1F48F2FF1F64
:100F200038F3FF1FB2B8000073B50820194B9A6858
:100F3000024226D004229968174C0A439A60174B44
:100F40005E6D631CDA7F022A1CD1A569AE4213D9FB
:100F5000E06807F0DFFF751B00900191280007F0A3
:100F6000D9FF02000B000098019906F0A7FEAD0022
:100F700020616161AD19E561A368E268A6619B1813
:100F8000A36073BD00210222E161DA77FFF7D6FE8C
:100F9000F2E7C04600900740E8F0FF1F68F0FF1F2F
:100FA000174B70B51C78002C17D05D78A84201D083
:100FB000102D12D18E2045331B7880001B1811484C
:100FC0009B001B58032C03D0052C09D0012C04D105
:100FD000FE20FF30002A01D0195470BD1A54FCE7DE
:100FE000002AFAD00A00243A302A03D8D4223C3905
:100FF0005200995200210B20FFF7A0FEEDE7C046FA
:101000000CF4FF1FBCF4FF1F2D4BF7B5F8385D6DD6
:1010100004282CD805F0E6FE032B343E4700294C6B
:10102000E36A226C9B18E362230028335B7D002B6C
:1010300007D0012B1CD0022B1FD023000022283305
:101040005A75A36B01939D4210D9206C07F062FF83
:10105000019B0600E81A0F0007F05CFF02000B007E
:101060003000390006F02AFE20636163A563F7BDF6
:1010700000210620FFF762FEDFE700210820F9E7E4
:10108000104B1A003C321178012228331142EED065
:101090005A75ECE70B4B1A003C321278D207E6D5B2
:1010A00028330222F4E7074B1A003C321278D207A9
:1010B000DDD50021283307205975FFF73FFED6E71D
:1010C00068F0FF1FE8F0FF1F094B10B538331B789D
:1010D0000A00002B06D0022B08D80100054803F0B7
:1010E000B1FF03E00100044803F076FE10BDC046E6
:1010F000E8F1FF1F48F2FF1F0CF4FF1FF8B50600D0
:10110000502328363371584D584B0400EB58036375
:101110000223337300238362A0231B01E85C0138A0
:1011200005282CD805F05EFE03515B48185F0123AB
:1011300073714F4BA563EB58E363210000234D4AC5
:101140004D4805F049FB210032004B4805F06EFB8D
:101150000123403423701DE0484AAF5CFFB2002FEA
:1011600019D047484749436D6F5CDBB2BB4206D09C
:10117000436DDBB26B54AB5C013BDBB2AB5440491B
:101180000B0068331A7AD2B2012A4AD0002A2ED034
:10119000032A4AD0F8BD364BEB58002B08DC3A4BFB
:1011A0000E20E958FFF7CAFDA0231B01EF54E6E724
:1011B000A02204231201AB5400237371A1231B014D
:1011C000EB58ED18A5634023B6E70C202E4BE958E9
:1011D000FFF7B4FDA02300221B01EA54CFE72A4BFE
:1011E0000D20E958F4E7284B0F20E958F0E78F224B
:1011F0001A700123E363002360226831A3621E4852
:101200007371327123631B4A3373A163210005F0AC
:10121000E3FA21003200184805F008FB40340223AD
:1012200098E7CF201870E263E5E70F201A8A1512BD
:101230000540D2B21D705A70DA8915120540D2B23B
:101240009D70DA709A8915120540D2B21D715A71DB
:101250005A8915122840D2B29871DA710822E263D5
:10126000063A1A72C7E7C046B4FDFF1F080A00001D
:101270000C0A0000A70A000000600640150A0000E2
:1012800068F0FF1F140A0000040A0000F7B50024EC
:1012900026002500144B48330193019B1B7A002B39
:1012A000FBD0FA2700227F006F43019B02211A72B4
:1012B0000E483A0000F0CCFD3A0003210B4800F044
:1012C000C7FD0B4B01359D4200DD00250134322C5A
:1012D000E3DD724256410748F6B24830320003213E
:1012E00000F048FE0024D8E768F0FF1FB0F1FF1FB0
:1012F000FF0F000068F1FF1F70B52B4B2B4C2C49E2
:10130000238020224831A01C09F0E2FE2948210058
:10131000020048321278E31CDA77274B2331DA6C6B
:10132000150A4D700A70150C120ECA7022008D70CD
:1013300019790832D1771A00583212887C33228505
:1013400022001B782A32137022001C4B2B321B68A0
:10135000190A13705170190C1B0ED3700023917071
:101360001A00A15C0132CB18DBB22F2AF9D122007E
:101370002F321370A0221201A35CDBB2002B0ED11E
:1013800001250F496D4265500E49313563500E49B4
:1013900063500E496550043163500433A354043044
:1013A00003F0CCFF70BDC046AA030000B4FDFF1FD0
:1013B00068F1FF1F68F0FF1FE8F0FF1F0CF4FF1F2C
:1013C000180A0000040A0000080A00000C0A0000C5
:1013D000A02270B52F4C1201A35CDBB2002B0CD104
:1013E00001202D49404260502C4963502C496350E4
:1013F0002C212C4BE1500123A3542B4E301D03F024
:101400009DFF00231A00A15C01325B18DBB22B2A7E
:10141000F9D12278AA2A3BD16278032A38D1250053
:101420002B352A789A4233D12048A11C20224830FB
:1014300009F04EFE20002330417802780902114362
:101440008278E31C12041143DB7FC2784836337084
:101450001206174B0A43DA6422000832D27F218D2C
:101460001A711A002A345832118022787C331A708B
:101470006A782B7812021A43AB7800211B041A43B6
:10148000EB7810201B0613430A4A1360FFF756FC43
:1014900070BDC046B4FDFF1F180A0000040A00001A
:1014A000080A00000C0A000068F0FF1F68F1FF1F27
:1014B000E8F0FF1F0CF4FF1F074B4D22022806D156
:1014C00054215A701970002218009A7070472E30FB
:1014D0001A705870F7E7C046150A002070B50D0065
:1014E000CD21040049008078595C4006400E002957
:1014F00010D0012901D1002A01D0401905E00A21AC
:1015000005F00EFD45190A2068430023984217DBB9
:101510007F2211E0B221FF315B5CDB07EDD5002AB1
:10152000EBD10B4B1B6818184C3000782818C0B250
:101530001818CC3380781A780300904200DD13002D
:101540007F21A2780B408A431343A37070BDC0462D
:1015500068F0FF1F10B50400102910D1406807F093
:101560009FFC0022064B06F0ABFE0022054B06F066
:10157000A7FE0022044B06F0A1FBA060E16010BDB5
:101580000000384000007040004CED40F7B50121EC
:101590009B4B04001962DA698A43DA619C2252008B
:1015A000825C01938A425BD0002A09D0022A00D1D2
:1015B00087E0019BDA6901231343019AD361F7BDE8
:1015C0000700FC37BB6B8F4D0093002B14D1060036
:1015D000A0363378002B07D001008022A8311030CC
:1015E00009F076FD009B3370802380229B059202D8
:1015F0006B60AA606A60AB60F82380201F219C4664
:10160000000163460726BA6B0E401340334307269A
:10161000324066460E40324380263606D6400433BA
:101620009B001B59334219D068608023DB00AB60FC
:101630006B600139E5D28022022392026B60AA60BE
:101640006A6080225202AA606A600122AB6037336E
:10165000FF33E2543B6B019A5361AAE7A860E4E7C9
:101660000222684B80265A6005321F2094463601BC
:101670002500F8226746FC35A96B07400A403A432B
:1016800067463940F8270740394380273F06CF4057
:101690001432920012593A4211D05E608022D20078
:1016A0009A605A600138E3D2802252029A605A60EE
:1016B00002229A609C235B00E254EB6ACBE79E60B7
:1016C000ECE7504B1F205A6080221201F827944605
:1016D0002100FC318A6B0091072116000A400100AD
:1016E00039400A43802107250906D14005403E4084
:1016F0002E43B600A6193569366D0D4062462E425E
:101700003FD05A608022D2009A605A600138DFD2FE
:10171000802252029A605A60022280209A601A69DE
:10172000400402405042424118695200810101D4F4
:1017300001200243200090300578954231D02500E9
:1017400091352E7896422CD026009236032A21D14C
:101750000778022F05D12F78002F02D13778012F7B
:1017600011D00778012F15D12F78002F12D137789B
:10177000022F0FD194218C46A44461460F68013F8B
:1017800007E09A60BEE794218C46A44461460F6846
:1017900001370F602F78FFB237700678F6B22E70DF
:1017A0000270009A1869926B410207D41600012555
:1017B000083EB5402088284380B220801B69DB04A6
:1017C00005D401209040638803439BB263800132BB
:1017D0000F2A08DC009B9A639C2300225B00E254E2
:1017E000009B5B6B37E70023009A9363628892B299
:1017F0006260228860680243626023806380EBE756
:10180000FC70034000F00F40F0B585B00A9D0B9EC0
:101810002E295BD047DC24295CD009DC1A2423293B
:101820000BD008003038092856D810390C0004E0D5
:101830002B2949D02A242D29F3D10721A14389003E
:1018400001911C2149428C46591D0291E11014243A
:1018500061439800264C091A64181C2194448A1A82
:101860000392002B3FDB0C9999423CDD019F2158EC
:101870006246F9400F2739400F00D740002A02DAAC
:10188000039A91400F00002D02D029583943295066
:10189000002E02D0325817433750029A01330430D9
:1018A0009342DED11FE03E2912D005DC3A2909D04F
:1018B0001D243D29C1D0B4E73F2916D02F247E290D
:1018C000BBD0AEE71C24B8E72E24B6E72B24B4E740
:1018D0002C24B2E72D24B0E70C00413C192CACD9E4
:1018E00061391929A2D905B0F0BD1B24A5E7C0466E
:1018F000E0B3000070B505000400883528780E00BC
:1019000001303F2105F0F2FB230089331B788B4225
:1019100005D02B78C9B2E41848342670297080218C
:101920000248090205F05AF970BDC04600A0064001
:10193000802370B59B010C4CD2180500A24202DC3A
:10194000D443E4171440E02328001943FFF7D2FFE3
:101950007F2128002140E411FFF7CCFF2800E1B2ED
:10196000FFF7C8FF70BDC046FF3F00001FB5054927
:1019700004000E227831684609F0AAFB6B46185D18
:1019800004B010BDE0B3000082B0054A01AB1A807C
:1019900001229A705B5C01711B02C36002B0704748
:1019A0000C06000010B50D4B02290CD0032913D0F2
:1019B000012910D11A003C33283242601A788A4338
:1019C0001A70017010BD1A002832426001223C33A7
:1019D0001C782243F4E748334360F2E7E8F0FF1F46
:1019E00073B50D001600092903D010291ED0062951
:1019F00005D100230022036100238261C361334CBF
:101A00003200200029004830FFF7A4FD20003200FA
:101A1000290008F08DFEA81F0A2814D805F0E2F965
:101A20002D322D0A13131313131336000178FFF709
:101A3000B9FFE4E722000023583213742200593220
:101A4000E3662367D377200032002830290008F0AE
:101A500018FE072D25D0082D30D0062D0CD12300DF
:101A60007C331B78033B012B03D8FA211848FFF77E
:101A700041FF01237C34637073BD2300012259337D
:101A8000DA77E0E7230000225933F9E72300114910
:101A900058335A7801AB1980012199709B5C6367B8
:101AA000D1E723007C331B78033B012B03D8FC21B7
:101AB0000748FFF71FFF7C340023DCE723007C335B
:101AC0001B78FB21033B012BD3D8CFE7E8F0FF1FA6
:101AD000D20700200C060000F0B50024471C44602B
:101AE0008460C460046144610460FB7F85B00500CC
:101AF000A3422ED0C21CD27F022A12D0032A02D1C6
:101B00001034E41A640080221206E2402000002112
:101B10009B001B19013B834207DD11430130520832
:101B2000F9E70824E41AA400EDE700262960FB7F0A
:101B3000B2001219B3420CDDAB19197E05230293D2
:101B40000023281D009001930348FFF75DFE013636
:101B5000EDE705B0F0BDC0465C080020F8B5CD2328
:101B60005B00CF5C060015003F4C012F00D16CE0FC
:101B7000002F07D0022F61D020003168103008F00C
:101B800027FEF8BD2300D5B2012230331A7023009E
:101B9000223229331A700C21280005F0BDF9C8B291
:101BA00001380A280BD8022305F01CF90627242B3C
:101BB000322F3936403D440022003032137023006A
:101BC000432228331A700C21280005F01FF9C1B2F6
:101BD000200001220139103008F0D7FD2300012236
:101BE00033331A702300022232331A70FA239B0017
:101BF0006363C1E72200303213702300442228338C
:101C0000E0E7230045222833DCE72200303213705E
:101C1000230046222833D5E72200303213702300F8
:101C200047222833CEE722003032137023004122AE
:101C30002833C7E7230042222833C3E711002000DE
:101C40004039103008F0E7FD96E72300002220001D
:101C500030331A7010306432290008F096FD2300EA
:101C600033331F70BEE7C04668F1FF1F70B50E002A
:101C70000500094C002210342000084908F0EAFD54
:101C80003178012289062000090F08F0B0FD29688B
:101C9000200008F09DFD70BD68F1FF1F6FB80000C7
:101CA00070B50E000500094C0022103420000849D0
:101CB00008F0D0FD7178012209072000090F08F013
:101CC00096FD2968200008F083FD70BD68F1FF1FB4
:101CD00085B80000F8B5204C060020001F491030E0
:101CE000002208F0B7FD8E23B2251D4F1B01FB58C3
:101CF000FF355B5D1B495B0700D41B4920000122B7
:101D0000103008F0A7FD194B1949FB585B5D5B07C4
:101D100000D4154920000122103008F09BFD154B1E
:101D20001549FB585B5D5B0700D40F492000012279
:101D3000103008F08FFD114B1149FB585B5D5B07BC
:101D400000D4094910340122200008F083FD3168D5
:101D5000200008F03DFDF8BD68F1FF1F89B90000C3
:101D6000BCF4FF1F8AB800008CB80000E408000033
:101D700074BA0000E80800008EB80000EC0800000B
:101D80006DB8000070B50D00084C01001034200043
:101D9000002208F02CFD20000122054908F05AFD20
:101DA00029000122200008F022FD70BD68F1FF1F0C
:101DB00053B7000070B50E000500094C0022103426
:101DC0002000084908F046FD72780123120920001E
:101DD000054908F05AFD2968200008F0F9FC70BD9B
:101DE00068F1FF1F74B8000079B8000073B56A4647
:101DF000154B06000093154BCC369380012393714D
:101E0000002302784478337061B200291ADB3178FC
:101E1000492917D84518AC701D004C3545199C420E
:101E200004D301332970DBB20135F8E76D46AD5CB0
:101E300001326419D2B2E4B2062A00D9002201317B
:101E40003170E1E773BDC0460202010202020000E8
:101E5000F0B50024174D68350A276743C7193B00C2
:101E600030331B788B4220D180266300C358760123
:101E70009B1953439C46DB171B05E6001B0DBF1B3C
:101E80003F6963441B13DB190B4FBB4202DCDF438A
:101E9000FF171F40BBB22F197E899E4205D07B8160
:101EA0002B7A022B01D101332B720234082CD3D1AF
:101EB000F0BDC04668F0FF1FFF0F000070B5CCB248
:101EC0000912CDB2482939D00C21280005F024F898
:101ED000C8B201380A2807D804F084FF331C1E203A
:101EE000222426282A2C2E00FA20C000F423434363
:101EF0005C43241524180C21280004F087FFC0B28D
:101F0000031C052800D9052305222000DBB2D31AC3
:101F1000184170BD0C48E9E70C48E7E70C48E5E7D5
:101F20000C48E3E70C48E1E70C48DFE70C48DDE745
:101F30000C48DBE70C48D9E70C48D7E7FA2000014A
:101F4000D4E70B48D2E7C046C50800004A090000A4
:101F5000D80900006E0A00000C0B0000B50B000051
:101F6000670C0000240D0000EC0D0000BF0E000007
:101F700047080000142370B500254B43C3189C1C70
:101F8000E5770133DB7F934205D0012A60D0AA4276
:101F900002D0022A27D070BD050003003135453339
:101FA0002D781C781A7D28331B788D4202D140266B
:101FB0003D4DAE60A14203D180253B4C2D05A5606F
:101FC000914203D18024384AE4049460994203D1B9
:101FD0008022354B52059A60142359430023401840
:101FE0000130C377D7E7012B32D10500030031352B
:101FF00045332D781C781A7D28331B788D4202D109
:102000004026294DAE60A14203D18025264C2D05E6
:10201000A560914203D18024234AE404946099424C
:1020200003D18022204B52059A6014235943401853
:10203000123B421CD3770122C018C3770521100040
:102040001A4C236CDDB2383404F09CF92570A2E7F9
:1020500005000300313545332D781C781A7D28336F
:102060001B788D4202D140260F4D6E60A14203D1F4
:1020700080250D4C2D056560914203D180240A4ACC
:10208000E4045460994203D18022074B52055A6000
:102090001423594341180120044C0131236CC877A3
:1020A000DDB202000521CEE700F00F4068F1FF1F0E
:1020B000F0B587B003900D001700541A00D52034F6
:1020C000002C46DD032633006B43039A7743D31875
:1020D00098784006400E06F01DFF039B009001918A
:1020E000DF19B87837004006400E06F0D9FE009A96
:1020F000019B06F057FB04900591200006F0D0FEEE
:1021000002000B000498059905F0D8FD0490059194
:102110007C36013C002C1CD001351F2D00DD002534
:10212000049A059B0098019905F0ACFA00220A4B2D
:102130000090019105F0A6FA05F028F83B006B43EA
:10214000039AD318020098783240B0431043987035
:10215000DFE707B0F0BDC0460000E03FE223FF220A
:102160005B00E42110B5C254002349004350043100
:10217000435404314250BD328350FE22FF32835417
:10218000040008F0A8FCD9235B00E25C12494E333E
:10219000002A14D1E25CED3BFF3B5343CB1878336C
:1021A0001A70B423FF33E25C4D33E05CED3BFF3B40
:1021B0004343002A0AD1CA187932107010BDE05C7E
:1021C00014234343CB187833013AE9E7CB1879332A
:1021D000013A1A70F2E7C04668F1FF1F70B5CD24CE
:1021E0006400045D002C0AD1B224FF34045DE407CE
:1021F00005D50F4CC9B2246861184C310978D8262E
:102200007600855D002A06D00A00083AD443E41718
:102210001440845570BD2C00CA1AAA42F6DBCA18B5
:102220000C35AA42F5DD0A000C3AD218EEE7C0469A
:1022300068F0FF1FF8B5CD235B000400C05C0D0003
:10224000FEF7E6FB002162230E000A0003275D4330
:102250003B0053435B19E3189B787F2B03D95B0644
:102260005B0EF618013101321F2AF1D100290AD084
:10227000300004F055FE06F013FE0022054B05F079
:1022800001FA06F0D7FD0100032301222000FFF729
:10229000A5FFF8BD0000E03F10B50400081F1A2894
:1022A00028D804F09FFD0E6B4F607533373D3F41DA
:1022B0004345565C30734B4D476D6F497D8F9FAEE4
:1022C000BC00D2B2012A16D0002A01D0022A07D1BE
:1022D000B0230121FF33E154A6230731FF33E1543A
:1022E000CD235B002000E25408F0C1FB0021200058
:1022F000FFF7A0FF10BDB0230221FF33E154A62356
:102300004918FF33EBE79C23FF3301E0CE235B004A
:10231000E254EFE79E23FF33E25401333222F7E722
:10232000CF23F4E7D023F2E7D123F0E7A423EBE7B0
:10233000D223ECE7A623E7E7D523E8E7D623E6E7B1
:10234000AE23E1E7B023FF33E254200008F08FFB17
:10235000D0E7364B18680270FFF748FDCAE7334BE9
:1023600018684270F8E7B22101230220FF311340C0
:10237000625C5B0082431A436254BBE7AC23C3E751
:10238000D323C4E7D4235B00E252B3E7A223BBE725
:10239000B2210120FF31531E9A41635C8343EAE777
:1023A000D923D1B214225B00E1544E33E05C204BC0
:1023B00042439B187833002901D118709AE70139FC
:1023C000197097E7B4231421FF33D2B2E2544D338E
:1023D000E05C174B41435B187933002AEDD0013A9A
:1023E0001A7087E7FE235B00E254D3B2FA22520050
:1023F0005A4380239B00E15C0D484830FFF728FDDD
:1024000078E780239B00E15C09488B00C3189A643D
:10241000FE23FA225B00E35C52005A43EDE780237F
:102420009B00E15C02480B1D9B00EFE768F0FF1F7B
:1024300068F1FF1FCD23F0B50026A7B001910292ED
:102440005B00C75C0400B74207D1B223FF33C35C13
:102450003E00DB0701D5304B1E68B0230025FF335B
:10246000E35C38000393FEF7E5FA62232A00019942
:102470000490594305910323534305995B18E318CE
:102480009B7891007F2B43D95B065B0E06A84350D7
:10249000002E33D0F3184C331B7802981B1831D41C
:1024A000CC208446B4446046007883422ADAF3188C
:1024B0009B78012506A843500132202ADBD1002D4C
:1024C00022D06220019B002258437F239C46032395
:1024D000910006AE8E596146674653431B18E318B8
:1024E0000E4099780132B94331439970202AEED1D8
:1024F0002018049A039908F005FA06E00298C31818
:102500007F2BD6D9012FD7D00025280027B0F0BDCA
:10251000002306A84350CFE768F0FF1FF8B5CF238C
:102520005B000400C05C16000F0006F0B9FC00223E
:102530001E4B06F037F91E4B002205F0BFFB06F0DC
:102540001BFD9E23FF33E35C051C0020032B2CD8CE
:10255000180004F047FC0222021BB222FF32A25CE8
:10256000920707D5DA225200A158533AC9B2FF3A6E
:102570004A43A41860342078381A002801DA04305D
:10258000FBE70127384010D0022B06D107F092FF5D
:10259000310004F0ABFD080000E0300005F028F841
:1025A000291C04F0D3FE05F003F8F8BD00004940F3
:1025B00000003A40E0235B00F7B5C65C0400B307B7
:1025C00004D0C423FF33C35C9B0705D5F2235B0013
:1025D000E358002B5DD0F7BDF0235B00C05880238B
:1025E0001B02C118CB179BB25B181B14DAB2019205
:1025F000AE22FF32A15C0D1E09D0DBB21B04C01A53
:10260000400304F08DFCC517ADB22D182D14D62350
:102610005B00E05C2300C133FF335B781B09022BB6
:1026200045D0032B48D0012B07D106F039FC0022FE
:10263000354B05F045FE06F0FDFBE6235B007F28E9
:102640003CDD7F22E254E2235B00E25CB30701D56C
:10265000FF2A35D1D123E4272C4E5B00E15C30000A
:102660007F0008F054F8E359AB4207D0D1235B0058
:10267000E15C2A003000FFF75BF9E551E623D12247
:102680005B005200A15CE35C019A300008F02BF87B
:1026900035E0E2256D00625DFF2A9CD0D1235B000E
:1026A000E15C1A4808F033F8FF23635593E706F01E
:1026B000F7FB0022164BBCE74000BEE7E054C2E740
:1026C000019B93420ED0E623D126104F76005B008B
:1026D000A15D3800E35C08F006F8A15D019A3800BE
:1026E00008F015F8E4267600A359AB4207D0D123B1
:1026F0005B00E15C2A000548FFF71AF9A551E223C7
:10270000019A5B00E25466E70000F43FD207002024
:102710000000F83FF7B58E22002312018718354AD2
:1027200001908418009326000B239B3EFF3E3E60E1
:10273000A370322323712B3B0025A37101212300B9
:1027400061702570E5706574657166331A78812350
:1027500000989B00434301982272C318A020800078
:102760006172A5721B185878033101435970052115
:10277000022021735F31E5812574A174E5745978D5
:1027800081435970E57159780138014359701A49EC
:1027900013300B00504348331B18190031333031CC
:1027A000257601200A7065761A7008236075E37239
:1027B0002570300008F05BF929003000FFF73AFD82
:1027C000300008F06AF93000FFF7C8FC8023009958
:1027D00004CF9B00D1540B000133009381239B0055
:1027E000E418009B042B9ED18F23019A1B01D55422
:1027F000F7BDC0466A02000068F1FF1F8F23F0B5E5
:102800008FB004901B01C35C002B00D14CE2B74C8D
:10281000606D07F0F9FD07F01BFEB54B1840019005
:10282000031E05DA1020013B40421843431C01936C
:102830008E2212019446A36D10320893049B6344C8
:1028400094460393049B63440993039B02930023E0
:102850000593C4270122029BFF371C68E35D934365
:102860001D000732E355154002D09343E35552E073
:10287000FC225200A2580899914200D2B5E00422ED
:102880009343E355DA235B00E3585E32DBB25A43ED
:10289000A218DC21100049006130067863580696C2
:1028A000B3422AD1CC235B00E05C00280ED0243355
:1028B000E358421E0133DBB2934200DB2B00E318E6
:1028C0008933FF331A78DA235B00E250DA235B00A6
:1028D0009C46E358DAB262235343E31860331A7814
:1028E000DC235B00E2509A23FF33E25C002A00D035
:1028F000C5E00423E25D1343B8E760321678B446BE
:10290000069EB44500D8ADE0013B6350002B00DBD0
:102910009FE01F236350B223FF33E35C5B0700D4C7
:10292000DEE0CE23FF205B00E65C1C33E158043B75
:10293000E3580322014018406223514343430CAD46
:10294000C9186118280008F0C3FB2B880BAA138054
:10295000A978664891700DAA91702100C131FF31AC
:1029600013800B80937848308B70310007F0F7FEAE
:10297000F42301225B00E050E35D1343921893437C
:10298000E355E0235B00E35C9B061B0F05D0019938
:10299000994202DBE35D1A43E255CE235B00E05C23
:1029A000FEF7E4FF0502089806F0B4FA06900791D6
:1029B000280006F0AFFA02000B000698079905F010
:1029C0007DF900224B4B04F05DFE06F033FADC2368
:1029D00068435B00E15806006A0801312000FFF7F8
:1029E0009DFDFC2386195B00E650E35DDB0701D506
:1029F00001230593029B04330293029A099B93429D
:102A000000D026E7059B002B00D14DE10026039B5B
:102A10001C68FE235B00E35C002B00D020E1AC23AC
:102A2000FF33E55CAB1E012B66D82300C133FF33B7
:102A30009B787F2B60D8F0235B00E650D5235B00AA
:102A4000E35C012B00D1CDE0022B00D1C4E00026D5
:102A5000CBE01278934201DD62505CE7027893424A
:102A6000FADB58E7013363501F2B01DD655052E755
:102A70000078834201DD60504DE71278EFE7DE21F8
:102A8000C425490063586D00E6180693634676191D
:102A90003678E650022A11D0032A19D0012A00D034
:102AA00027E7635DAE320133DBB26355FF32A25CD0
:102AB0009A4200D31DE7002363551AE707F0FAFC9A
:102AC000D7235B00E15C013104F010FB615510E796
:102AD000069B0133834201DA63500AE70023FBE7D8
:102AE0000223E25D1343E35557E7C04668F0FF1F3A
:102AF0000F0000800000F83FC423FF33E35C9B0716
:102B000022D4FE23FF33E35C002B05D12300C13325
:102B1000FF339B785B065B0ECD22EE275200A25C52
:102B20007F00022A00D1403B1B04E351A623FF3360
:102B3000E05C072808D8E359013043430C207F218B
:102B4000584304F0EDF9E0510222EE2395435B0077
:102B5000DF32E358FF32012D30D19E19A650D32326
:102B60005B00E15C052906D0C02305391B034B43FC
:102B7000A1585B18A350D4235B00E35EF0225200FF
:102B8000A1581B045B189C21A350FF31615C0129F3
:102B900016D0022900D051E7002B01DA0023A35000
:102BA000BE4BA0581968C3179BB21B181B14DBB28D
:102BB000CB184C331B78C9188B780AE0A350CEE7AA
:102BC000002B01DA0023A350A158CB179BB25B184E
:102BD0001B141B04A35031E7E0225200A25C002624
:102BE0001A4202D0F4235B00E658802300209B00A9
:102BF000E75C203BE158AA4D814221DDA623FF334B
:102C0000E35C090A092B08D00A2B15D0A54B994281
:102C100000D98EE0FA20400005E0A34B994200D98C
:102C200087E096208000C0234843C021DB00C01805
:102C3000090104F0EBF803E028004830FFF73EF903
:102C400001041423002E76D05F43ED19EB6E296743
:102C5000C81A310004F064F96867F0235B00E65895
:102C6000C423FF33E35CDA0716D5F62200215200B5
:102C7000A15002310B4269D0F2235B00E2581C33B1
:102C8000002A00D1AEE0A223FF33E35C012B00D188
:102C9000CAE0022B00D1CBE0039B04330393039AD9
:102CA000029B934200D0B2E68E22049B12019D1833
:102CB00010329446F2266344019376002C68A259A0
:102CC000002A1CD0013AA251002A18D1802374484E
:102CD0009B00E15C4830FFF74DF9A223FF33E35C32
:102CE000012B0CD1E2277F00E25DFF2A07D0A2333F
:102CF000FF33E15C6D4807F00AFDFF23E355EC204C
:102D000040002758002F00D1E5E0E8225200A358E8
:102D100019148C46EA21FB18A35049006158002F72
:102D200000DCC7E08B4200DCC7E00023A150235049
:102D3000C3E05F4884E77B43EB184835D96602005F
:102D40005E6739002800FFF783F886E7E023012259
:102D50005B00E35C1940134206D12300C133FF330B
:102D60005B781B071B0F36D0FA256D0000293CD17C
:102D7000D0277F00E35D002B3AD00F2B3AD1615171
:102D8000FA235B00E258103BE2502300C133FF33CB
:102D90005D782D072D0F3ED0CE2340485B00E15CCF
:102DA000483007F0DCFC10235D1B4543013BE8176E
:102DB00018404019DE330011FF33E050F6235B006A
:102DC000E2580433E25002221033E15C34484830C8
:102DD000FFF7D0F857E7F220400000291FD023501A
:102DE00080239B00E15C2E48F1E700236351C7E795
:102DF0000F23FBE7CE2329485B00E15C483007F056
:102E0000AEFC0F22E35D01334343D8171040C018D6
:102E100000116051B4E7F6235B00E550CEE722587D
:102E2000002A00D02FE7DBE72000FFF7C3FB33E7E2
:102E3000F0235B00E15880231B02C9187F23CA17C7
:102E400092B2521812149A4203DC00239A4200DB19
:102E5000D3B2EA22D225E82152001804A0506D0016
:102E6000655D49006258002D09D0F4235B00E158EC
:102E7000801A04F055F8EC235B00E0500CE7904218
:102E800000D109E76050A422D121FF324900A25CA1
:102E9000615C064807F013FCFEE6C04668F0FF1FC1
:102EA00068F1FF1F48620000E4510000D2070020D3
:102EB000FF0F00008B4200DA37E7A3581B149C4534
:102EC00009D0A422D121FF324900DBB2A25C615CAF
:102ED000224807F0F4FBF6235B00E358002B06D0F2
:102EE000F8225200A358002B0FD0013BA350F4222C
:102EF0005200A358002B2ED0013BA350019B043558
:102F0000AB4200D0DAE60FB0F0BD802314489B003E
:102F1000E15C02224830FFF72DF8FA235B00E3580A
:102F2000A351A223FF33E35C002B0ED0E2235B000E
:102F3000E25CFF2A09D00833E35C002B05D0D121E5
:102F40004900615C054807F0CEFBF6235B00E258C0
:102F50000433E250CBE7F6225200CEE7D20700203E
:102F600068F1FF1FF0B52C4B2C4D85B00400029189
:102F70002B80010002222A4808F0AAF88E231B01A8
:102F8000E7181033E318274C039322003B689C4654
:102F90008933FF3343CB43C243CB43C243CB43C20A
:102FA000260003CB03C26346B5360193FF362C34AB
:102FB00020006222019908F08BF8019B6234623391
:102FC0000193A642F4D1039B0437BB42DDD1002319
:102FD0001A001549A85C0132C318DBB28A42F9D144
:102FE000AB54A02200201201AB5C834212D101211C
:102FF0000E4B4942E95002990D4BE9500B005343E7
:103000000C496B500C4B0D49E9500433E850042334
:103010000130AB5405B0F0BD12400000B4FDFF1FFD
:10302000B6FDFF1FB8FDFF1FD4060000180A000000
:10303000040A0000080A00000C0A0000D50600007F
:10304000F8B5070003004537134C3A7813492600BA
:1030500031320A70002246331B78103641330500A6
:1030600030004B708A7007F0F5FB8E223B7892009F
:103070009B180B4A9B009A58B223FF33D35C5B0723
:1030800004D401220749300007F0E4FB2000A969BD
:10309000103007F09DFBF8BD68F1FF1F180A0020F3
:1030A000BCF4FF1F8CB80000436A70B504000C4DDF
:1030B000002B0FD02E00103619000022300007F030
:1030C000C9FB01233000E269A16A07F0DEFB00239F
:1030D0006B6370BD2800E2691030A16AF5E7C04655
:1030E00068F1FF1FF8B50600501E0025052816D808
:1030F00003F078FE031720537BC20025AB420ED0AD
:103100006224463633785C43CD235B00C85C0C19DF
:10311000FDF790FC0100200007F086FC0135280037
:10312000F8BD0025AB42FAD00800463607F0B5FCE2
:103130003570F3E70025AB42F1D00322013BDF17E6
:1031400017405F4CFF18BF102340AB4204DA042441
:10315000013B6442234301333200DCB23300453289
:1031600010784633FAB21B78904202D100259C4277
:10317000D5D0622253434D36C918300007F0A8FF5E
:103180008E23FFB29B00FF184E4BBF003200210080
:10319000F85807F0C2FD0125C1E70025AB42BED0BB
:1031A0004536013B3278DBB29A42B8D08E24A40077
:1031B0001B19121943499B0092005858515803009B
:1031C0000A0089338932FF33FF3270CA70C370CA74
:1031D00070C370CA70C3B530B53130CA30C3FF3167
:1031E0004A22FF3007F074FFD5E7002B44D03000AF
:1031F0004530591E0278C9B28A423DD08E24A400BF
:10320000304B1419A400E4589600A4460436022A50
:1032100009DC8E279C193F01E7192B4D3F68641983
:1032200001322760F2E70324A1420ADA8E25013C2D
:10323000A2009A182D015619244D366852191660AD
:10324000F2E78E22644692008A1892009C508E22E9
:1032500012019C588022002502269200A5541B4C86
:1032600001351C59A5541A4C1C59A654194C1B590C
:1032700003249C54017052E747363578002D00D165
:103280004DE7012B15D1A020134A0001115CC9B2F2
:1032900000290CD10126114C76421651104C1551C3
:1032A0004543104C1551104C104D15511354002529
:1032B00035E7022BFBD129000248FFF753FEF6E762
:1032C00003000080BCF4FF1FDC080000E4080000DD
:1032D000E8080000EC080000B4FDFF1F180A000019
:1032E000040A0000080A00000C0A0000D5060000CD
:1032F0000300F0B546338BB003931B78032602938B
:1033000083690C00D9B262231700029A71435343B8
:10331000C91832006118050007A807F0D9FE02ABF2
:103320009B8A08A90B8002AB9B7D32008B7006A89C
:1033300007F0CEFE02AB1B8A05AE338002AB9B7C4E
:10334000781EB37005280DD8002103F04BFDC70E81
:103350000E0B03DAB17803234906490E0022200040
:10336000FEF73CFF00200BB0F0BD2A690A2A27D0E7
:10337000122A09D0062A73D10121022F00D1494215
:103380002000FDF75CFBEDE70122022F0FD1524236
:1033900002992000FFF74EF8002802D0EB69013BAC
:1033A000EB616548E969103007F035FADAE7029910
:1033B0002000FFF73FF80028F3D0EB690133EFE777
:1033C000009120222900202352421C313800FDF7B1
:1033D0004BFB0028E5D0039B03211B7809A802932F
:1033E000022F20D107F074FA029B60375F43E61981
:1033F0003100032209A807F06BFE300026005D367D
:10340000F619C71C0322390007F062FE3800B742E4
:10341000F7D16220029B584320185D30032209A98E
:1034200007F056FEBDE7622707F052FA029B03221F
:103430005F433E00E1195D3109A807F049FE5A36A5
:10344000E31EA619DF19F01C31000322033E07F02A
:103450003FFEB742F7D16220029B58432018DDE7B8
:10346000B3787F2B43D8622700220321029B5F435E
:103470000B005343DB19E3189B787F2B0ED80132E6
:103480001F2AF5D1CD235B00E05CFDF7C1FA7F2256
:103490000300B078134090431843B0708023B27893
:1034A0005B421343B370AB789B0703D5012332789B
:1034B00013433370AB690327DAB2039B20001978FA
:1034C000002300970193330007F030FBB1783B00F5
:1034D0004906490E00222000FEF780FE2800B2783F
:1034E00018305206520E2100FEF738FB3AE7012150
:1034F00023000A40032F00D002393000FDF7EEFF11
:10350000D8E72B69122B09D0422B0FD00A2B00D001
:1035100028E700220848EA61084903E00022E9613F
:1035200005480749103007F095F91BE7029920007C
:10353000FEF780FE16E7C04668F1FF1F95B8000051
:1035400090B800000300F0B5463397B0029106939F
:103550001B780325039383691700DBB20493836907
:10356000039ADBB207931900622369435343C918D6
:10357000029B0BAE59182A000400300007F0A8FD8A
:1035800033880CA90B80B3780AAE8B702A00300008
:1035900007F09EFD338809AD2B80B378781EAB70A1
:1035A00006280AD803F028FC0700730073000900FE
:1035B000E4010B00AC000023E36117B0F0BD236908
:1035C000212B20D00BD8032B25D0112BF5D1022392
:1035D0002000E36318302900FEF748FBEDE7412B9C
:1035E00021D0812BE9D1CF23029A5B00DF4DD15C42
:1035F0001035E1612800002207F0F9F82800A169E0
:1036000007F0E6F8D9E703232000E3631830290028
:10361000FEF746FBD1E701232000E36318302900C1
:10362000FEF7C8FBC9E7B223029AFF33D35C9B07BE
:1036300024D56223039A5343029AD3181A006032A6
:10364000127861331B78934202DB190013000A00E1
:103650006227039D00206F430125AC46511CC91A07
:10366000934210DA1F2B0EDC03255D43029EED19F9
:10367000AD5D6646354040190133F1E7029B60338A
:103680001A78029BDDE7E061FEF77CFB95E726698F
:10369000212E00D17EE035D8032E00D19FE0112EDF
:1036A00050D0E569032F00D02BE1049B5D19EDB2EA
:1036B0001E2D22D839006223039A69435343C91847
:1036C000029B0EAE59183A00300007F001FD328817
:1036D0000FAB1A80B17899700DAB1A80997009AB55
:1036E000997002211A800A431A70002200970192F1
:1036F00003992A00029807F019FAE3690133E3619C
:10370000002345E0412E00D18EE0812EC9D1002555
:10371000210000954B2319221C313800FDF7A4F934
:10372000A84200D149E7CF23E26902998F4E5B009E
:10373000CA541036E16930002A0007F058F8A16930
:1037400030005DE700262B7832009B061B0F159397
:1037500015A90F2300963800FDF786F90F233C21A9
:10376000159A029813409A002B788B4313432B70C1
:10377000A369DAB2069B19780323019600932B0004
:1037800007F0D4F9200029001830FEF76FFA022361
:10379000E36312E700266B7832001B071B0F1593BB
:1037A00000960F2315A93800FDF75EF90F216B78FD
:1037B000159A8B430A4013436B70A3690298DAB2DF
:1037C000069B1978019603362B00009607F0AEF998
:1037D000200029001830FEF763FAE663EDE66B7807
:1037E00000221B091593002315A90093380033000C
:1037F000FDF73AF90F216B78159A0B40120113432C
:1038000021006B700023A26946310978D2B201937E
:1038100002982B00009607F089F920002900183043
:10382000FEF7C8FA0123B3E7B223029AFF33D35C51
:103830009B075ED56223039A5343029AD3181A005A
:103840006032127861331B78934202DB1900130057
:103850000A000132D31A210000221C3100923800E4
:103860000393FDF701F9002800D1A6E66227069B25
:10387000E5691B785F430693029BDE196033DF190D
:1038800030000221033607F023F8B742F8D1039B3A
:10389000002B33DD002D31DD180005F001FB0600A3
:1038A00028000F0005F0FCFA62250B000200390029
:1038B000300004F003FA00260027069B04900591CF
:1038C0005D433000390005F0B5FA1E2816DC0323ED
:1038D00001225843029B4019C35C39001343029AEA
:1038E00083543000049A059B03F0CCFE06000F00C1
:1038F000E7E7029B60331A78029BA3E70399E0692C
:10390000C2E6002D00DAFBE60326049B31005D19B8
:103910006223039AEDB253436943C918029B11AF66
:1039200059183200380007F0D3FB3B8812A90B80EE
:10393000BB7810AF8B703200380007F0C9FB3A88B3
:1039400009AB1A80B9789970FD210A401A700022DB
:103950000096019203992A00029807F0E7F8E369BC
:10396000002B00DCCCE6013BC9E6C04668F1FF1F36
:10397000E66B002E00D020E603246223039A079909
:1039800053436143C918029B14AD59182200280003
:1039900007F09EFB2A8815AB1A80A978997013ABA3
:1039A0001A80997012AB9970012108001A80D2B266
:1039B00090438A4302431A70039901960094049A33
:1039C000029807F0B3F8F8E5F0B50400501E8DB08A
:1039D0000E001500062824D803F004FA04626223BE
:1039E0002530BC00A3690325D9B2230046331A78D9
:1039F00062236943534307AFC91871182A0038007E
:103A000007F066FB3B8808A90B80BB782A008B7007
:103A100006A807F05DFB20002A004A3006A907F03F
:103A200057FB0DB0F0BD230044331A78002A00D0B4
:103A300096E0A269226401221A70F2E72369442BFE
:103A400014D0842BEDD10422A31CDA7743331A78E7
:103A50004C21531CE3610523E362434B31325A701E
:103A6000002219709A706362404B14E00322A31C79
:103A7000DA77433319785A788B0001339B18E36166
:103A80001123E3623A4B41325A70002231311970EE
:103A90009A706362374BA3622000FFF705FBC0E713
:103AA000022223690392052B05D0013A0392062BCB
:103AB00001D00323039323002700443305931B788D
:103AC0004637002B11D129002000012207F07DF993
:103AD00001202300A2693978019003984A330090AD
:103AE000D2B2300007F022F89BE73B780322049320
:103AF000236C0498D9B26223514343430AAFC918D7
:103B00007118380007F0E4FA39880BAB1980BA78DD
:103B100001279A7009AB19809A7008AB19809A70C6
:103B2000A2690399D2B2009130000499019706F07E
:103B3000FDFF3A002900200007F047F921001F236C
:103B40000022403100972800FCF78EFF0223059ADF
:103B5000137066E7230044331B78022B00D060E724
:103B60000023443423705CE71B0A00205BB800008C
:103B7000180A002017B8000070B50400901E0D0050
:103B8000160005280CD803F02DF926260B030C3E51
:103B9000A3694634DAB221780323280007F028F815
:103BA00070BD2369482B07D0882BF9D10223A21CB2
:103BB000D3770022E26105E00122A31CDA7700231B
:103BC000E3610233E362184B20006362174BA36288
:103BD000FFF76AFAE4E7230046331978A369DAB2FB
:103BE0002369092B0BD00A2B0BD1093B280006F0C7
:103BF000FFFF01223100200007F0E7F8D0E70223A1
:103C0000F4E70323F2E7230049331B789B07C7D46B
:103C1000A3692800DAB2230046331978032306F09B
:103C2000E7FF01220721E6E709B800000FB800000E
:103C3000F0B50400501EA3B00D001700062814D8DC
:103C400003F0D0F80415151313A3E8002300622233
:103C50002000463319784D305143691807F038FA7F
:103C6000704B5B6D23630023E36123B0F0BD210043
:103C7000002623691C310096302B26D134333200C4
:103C80003800FCF7F1FEB04208D0236BE26928004F
:103C90009A1823004633197806F0CAFFE169624C8E
:103CA00000222300200030331A701030643206F0F6
:103CB0006CFD2300012233331A7023009218323333
:103CC0001A70FA239B006363CFE764226423524295
:103CD0003800FCF7C9FE0028E0D027002200463754
:103CE00039784D32280007F018F83B7862275F4397
:103CF000EB190493B023E269FF330392EB5C059365
:103D0000CD235B00E85CFCF795FE0790206B06F086
:103D10007BFB029703237343029A9B18EB18987856
:103D20004006430E069306F093FB070006F090FB57
:103D3000FF21039B0F400840381A584303F0F0F866
:103D4000069BC0187F281CDD7F2003227243029B44
:103D5000D218AA1897787906490E814208D0802394
:103D60007F215B423B43DBB208408B43184390709A
:103D70000136202ECED1079A0599049806F0C2FD8F
:103D80008CE7C343DB171840DFE72369142B3BD0D4
:103D90001ED8112B3AD00026122B00D065E7270041
:103DA00046373B78B34200D15FE709A806F09CFD97
:103DB0006222397809A85143691807F089F909AADC
:103DC0002800F1B206F0A9FF174D0022103512E0CD
:103DD000182B1DD0502B00D047E723006222200073
:103DE000463319784D305143691807F071F90022B4
:103DF0000D4DE261103528000C4906F02BFDA1693C
:103E0000280006F0E5FC30E70226C8E70126C6E7F1
:103E10000326C4E7220046344D322178280006F0FC
:103E20007CFF22E768F0FF1F68F1FF1F04B8000065
:103E300070B50500501E0C001100062811D802F0C4
:103E4000D1FF041111100724A500AB696B6308E0D2
:103E50002B0046331A78DA235B00E250AA69043358
:103E6000E25070BD2800002206F0AFFFA9696B6B1D
:103E7000A9636348994206DDC91A00220131103056
:103E800006F0B5FCEDE7591AF7E72B69282B69D046
:103E900007D8222B23D0242B62D0212BE1D1012360
:103EA0001EE0602B40D0A02B4DD0302BD9D1CC239D
:103EB000544A5B00E25206F0FDFAD7235B00E15C56
:103EC000013103F013F9C42300225B00E1544C4894
:103ED00034334D49E250103006F0BCFCC1E70023FA
:103EE000D722297D5200DBB2A25C454801293BD88C
:103EF000CC21C0250026AD0049006552453DFF3D5F
:103F000066519A423ED3012262548832FF32A35452
:103F1000103000223D49050006F09CFCCC235B00DC
:103F2000E15C01222800ABE7C42300225B00E254DD
:103F30001033E2522433E25046352978083BE150F1
:103F40002F483349C7E7C423002202215B00E25413
:103F5000FF311033E1522433E25029482D49BAE7AA
:103F60000223BDE70323BBE79A420BD3CC214900D0
:103F7000625C0F2A06D8551CA2188932FF3265549C
:103F80001370C5E7103000222349A5E7AB6B002B67
:103F900020DBB221FF316B6B605CDAB283071DD48A
:103FA000230060331A7062331A7092235B00E2546C
:103FB0006233E254AB6B625CDBB2920717D422002F
:103FC00061321370623213702622FF32A3548822AA
:103FD000FF32A35401235B42AB6337E72B00463328
:103FE000187862234343E31860331A70E2E72A002B
:103FF0004632117862224A43A41861342370E9E7FB
:1040000068F1FF1F0102000055B7000064B700000F
:104010005AB700005FB7000066B70000F0B50400B3
:10402000501E85B00D001600062809D802F0DAFEF1
:10403000040A0A0880248400D7235B00CB5CE36178
:1040400005B0F0BD230049331B789B0707D500223C
:104050002100009203231C313000FCF705FD474D81
:10406000002310352800E269454906F00EFCA169DD
:10407000280006F0ADFBE3E72369442B47D01CD8AA
:10408000412B46D00026422BDAD1D7277F00EB5DAB
:104090009E4240DD62220133DBB25343EB180293B0
:1040A000CD235B00E85CFCF7C5FC0100029806F03C
:1040B000BBFCEB5D0133EB55E9E7482B1FD0C02B70
:1040C000BED105220021A31CDA77A16243331B78FD
:1040D000E262581CE0614C202A4A1070180031300E
:1040E000507091706262022B0BD0032B0BD0012B0E
:1040F0000BD1254BA3622000FEF7D6FFA0E70326D5
:10410000C3E7224BF6E7224BF4E7224BF2E7022605
:10411000BBE70126B9E7230046331E70EB5DE36180
:104120009A23FF33EB5C002B02D1B533FF33EE5003
:104130002000FEF785FF83E7D7266227E369760034
:104140000293A95D029B8B420DDD4B1CDBB2180074
:1041500079437843691828186222039306F0B8FF60
:10416000039BAB55EDE7029BAB55E36946342278E0
:10417000934200DB64E7237062E7C04668F1FF1FEB
:104180007CB700001B0A002090B70000ADB700000C
:10419000CAB70000E7B7000010B50400042A02D037
:1041A000062A0DD010BD473420780228FAD9FDF731
:1041B00083F9010029480022103006F04BFBF1E79B
:1041C0000100002347310B700369254883423FD02B
:1041D00023D82448834234D017D8234A934233D07B
:1041E00008780028DED00622A31CDA770023A36219
:1041F0000133E3610233E362FDF75EF91B4B60625A
:10420000A3622000FEF750FFCCE7194883421DD07F
:1042100018488342E4D10A70E2E781229201934276
:1042200018D004D8144A9342DAD108230AE0822233
:104230009201934210D0A02212029342D0D10223C5
:1042400000E003230B70CBE70423FBE70523F9E72A
:104250000723F7E70923F5E70A23F3E768F1FF1FD0
:104260001020000002200000012000006BB70000B9
:1042700004200000082000002020000000B50329D1
:104280002ED01FD8012923D0022926D08E224530D6
:10429000037892009B183D4A9B00081F9B58002101
:1042A0001A2818D802F09EFD234F404A592A2C2E76
:1042B00030323436424626573C3E3851533A5D5FE1
:1042C00061636B001F2910D02029DFD1417802E003
:1042D000807840080140080000BD81780120F9E79E
:1042E000493001784907C90FF5E70178F3E7CD2296
:1042F000520001E09C22FF32995CECE7CE22F7E706
:104300009E22F8E7CF22F3E7D022F1E7D122EFE7B0
:10431000A422F0E7D222EBE7A622ECE7D522E7E7DA
:10432000D622E5E7AE22E6E7B022E4E7184B1B68A9
:104330001978D0E7164B1B685978CCE7B222FF32C8
:10434000995C8907CFE7AC22D5E7D322D0E7D42206
:104350005200995EBFE7A222CDE7B222FF32995CFC
:10436000BCE7D922C4E7B422C5E7FE22C0E7802219
:1043700092009A5C074B9200D318996CABE78022AD
:1043800092009B5C034A04339B00F5E7BCF4FF1FDB
:1043900068F0FF1F68F1FF1F10B5032923D00ED866
:1043A000012912D0022919D0453003788E208000CF
:1043B0001B1812489B001858FDF76EFF0DE01F29CF
:1043C00019D02029F0D1427007E0531E9A410221F2
:1043D000837852008B431A43827010BD531E9A415A
:1043E00001218378F6E7531E9A410421493003786E
:1043F00092008B431A430270EFE7C046BCF4FF1FE4
:1044000007B51100062A07D0072A3DD0012A02D19C
:1044100000230130C37707BD0369204A934222D0AD
:104420000DD81F4A934218D01E4A9342F3D102235B
:10443000082100931C4A1D4B06F0D2FCEBE71C4AF6
:10444000934215D01B4A934218D01B4A9342E2D1A3
:1044500002211A4B00911A4AEEE70223194A0093EF
:104460000121194BE8E70323184A0093184BE3E7AF
:104470000223184A00930721174BDDE70223174A4E
:1044800000930321164BD7E70023421CD377FA226F
:1044900043628362134B92005A63BCE704800000BE
:1044A000018000000280000006B70000FEB6000098
:1044B0002080000040800000088000002CB7000031
:1044C00034B7000014B700000CB7000026B7000096
:1044D0001AB7000042B700003AB7000050B700001A
:1044E00048B7000068F1FF1F03008E22F0B5453386
:1044F0001B7892009B18BC4CBC4A9B009D588FB007
:10450000060080220021200006F0EBFDCD235B0099
:10451000EB5C0493B378DB0731D5049B002B11D0FF
:10452000022B29D0012700237F42B149B1480F2F28
:1045300025DC0C2F02D8BA00E8328850002B1ED0A0
:10454000FF18F4E7D8235B00EF5CB2233800FF3399
:10455000EB5C0F30DB0707D5072102F0E1FC0723F6
:1045600058433F1A0C37E0E70C2102F0D9FC0C232A
:104570005843181AC719D8E700234027D5E78022E7
:10458000B3691206DA409A4BD7431800DC30216831
:1045900039402160216C04341143E163A042F6D11B
:1045A000320044321278002A0DD080221800316C7B
:1045B0001206CA40DC300168114301601900FC3169
:1045C000086A02430A62DC225200AA5818000692C6
:1045D000802206991206CA40E4300168FC33114378
:1045E0000160996A0A439A62B36B0193002B7EDBE8
:1045F000736B039300238024029324060093039B90
:10460000019A934200DC90E01300009A93420FDC81
:10461000039B93420CDB0321029A754B0A4200D0A4
:104620007EE0E4331A6822431A60029B013B029346
:10463000330046331B78032105936223059A0CAFA0
:104640005343009A38005143C9186918032206F0F1
:104650003FFD3B880DA90B80BA788A700BA90B80AF
:104660008A709906090F0791190A08070909089124
:10467000000F0AA909900B808A70049B5006400E17
:10468000012B6CD10A2102F0C1FB0C23C0B2181A15
:10469000069A009900238A420DD18F2253491201B4
:1046A0008A5C9A4207D0B533FF33059AEB589B1AC0
:1046B0005A425341DBB20C280DD8002B63D00100C5
:1046C0004B4A3A3189008F582A3027438F50800057
:1046D0008158214311500AAA11780322F06B0A4035
:1046E000032800D98FE002F07DFB6AB889B6B223B7
:1046F000FF33EB5C9B070DD5330046331A786223FA
:104700005343EB181A0060321278039261331B781E
:1047100001936FE72B0060331B7803932B00F5E7C1
:10472000FC339A6A22439A627FE7039B009A934282
:1047300000DD7DE7019B934200DA79E70321029ACD
:104740002B4B0A4206D1E4331A6822431A60029BBB
:1047500001336CE7FC339A6A22439A62F7E7049BC1
:10476000002B09D1B223FF33EB5CDB0704D5224BCE
:104770001B6818184C3000780C23181AA533FF3327
:10478000EB5C181884E7E24305920AAA9778184A66
:104790007F2F0CD907002A37BF00D1593A30214367
:1047A000D151E743800011580F40390092E70700CC
:1047B0003A37BF00D1592A302143D151F1E70222C3
:1047C0000A40C9071DD5002A00D080E0084A100021
:1047D000E0321768FC30416A2743002B00D076E0B6
:1047E000A143176041620EE004090020BCF4FF1FE2
:1047F0005C0800201111111168F0FF1F07990029B2
:10480000E1D1002A5AD1009B640801330093202B88
:1048100000D0F4E648363378002B24D0314B032205
:104820001900FC31486A10434862886A1043886264
:1048300019001800E0310C68E43094430C60016802
:104840009143B232FF320160A85803280BD802F01E
:10485000C9FA06272A2E0999D1E70899CFE702223B
:10486000E03322431A60A0231F4A1B01D35C002BB4
:1048700014D01C4B03221800A830016811430160BA
:104880001800AC300168114301601800E83001687D
:10489000EC331143016019680A431A600FB0F0BD90
:1048A000E0330122DDE70222E4330A43DAE7E433AE
:1048B0000122FAE7A04338605162A4E7094A1700D1
:1048C000FC32516AE03738682143002BF2D0054BA7
:1048D0001900E0310A68FC3322430A605A6A224315
:1048E0005A6290E75C080020B4FDFF1F10B5202835
:1048F00006D801001248FFF7C1FC0300180010BDE4
:1049000000232728FAD822380528F7D802F06AFAB7
:1049100003060A0D10140B4BDB6CEFE70A4B483310
:104920001B78EBE7074B1B79E8E7064B5833F7E7B3
:10493000044B58335B78E1E7024B7C33F0E7C04629
:104940000CF4FF1FE8F0FF1F68F0FF1F0300202892
:104950003BD8002807D00120022B26D9202B02D1DA
:10496000244B18781FE08E21224A890045321278A4
:1049700052182149920052580F2B07D80E2B1CD2E7
:10498000052B1FD00D2B0BD001200EE0142BFBD3D9
:10499000152B0BD91D3B012BF6D8FE235B0001E044
:1049A000A223FF33D05C431E98417047A223FF33FC
:1049B000D05C013843425841F7E7A223FF33D05C73
:1049C0000238F7E780239B00ECE70020272BECD888
:1049D000242B07D0262B0AD0222BD5D1074B4833C6
:1049E0001878E7E7054B483318780338E2E7044BBB
:1049F0005833B6E70CF4FF1FBCF4FF1F68F0FF1F2D
:104A0000E8F0FF1F013870B50C00082854D802F0F8
:104A1000E9F90F212D322D283E3030001378002B7C
:104A200013D0002C06D07C3B59424B410132E41A92
:104A3000002AF3D10023224CD15C002905D07C2927
:104A400003D00133581E2154F6E700211C4AD154EB
:104A50001B4870BD00230222481C194906F0E1F9E9
:104A6000F6E70023022216492000F7E7002303227D
:104A7000F9E70123F6E7124D002301222900200067
:104A800006F0CFF956236B700023AB70E0E7CB172D
:104A900007210B401B190A4ADB100A4841331370E7
:104AA000044004D50820013C404204430134002363
:104AB000313454709370CBE70022014B1A70C7E772
:104AC0000C0A002007000080F0B58DB005920600AA
:104AD0000F001422002107A806F003FB00208742E4
:104AE00070DBDA235B00F35CBB426BDD0C25D82363
:104AF0007D435B00F3585D192C68844200D170E05F
:104B0000DC235B00F3580490BB421CD1C22301227A
:104B1000FF33F35C0492022B15D1BC32FF32B6583E
:104B20000493A7073F1B2178E219920000290FD0B8
:104B300005230293002307A8009001932E48FCF759
:104B400063FE0134EFE72879FFF7D0FE0600E8E7BF
:104B50006879AA683100FFF755FF10240500052683
:104B6000297800290DD07C290BD0002307AA0092B8
:104B70000296220001932048FCF746FE01350434DA
:104B8000EEE7059B01259A00002318009C461A4C6D
:104B9000059959180F2911D8142602A880199900CF
:104BA0004158049801280FD0022815D0A0180600FB
:104BB000E83631606146A8300160280001330432D4
:104BC000052BE5D10DB0F0BDA01807000E0CE8379D
:104BD00036043E60A830EFE7A0180600E8363160E2
:104BE000F8E7059B0F2BEDD801213A33024A9B00D1
:104BF000494299500120E5E75C080020E023F7B521
:104C00005B00C35C0400002B5ED0802200212F4893
:104C100006F067FADC23052601275B00E558013D15
:104C2000002D1DDB002F1BD0D8235B00E358009321
:104C30000C236B43009AD3181A68002A07D01879FE
:104C4000FFF784FE0623002802D1013DE8E7022396
:104C5000F61A320029002000FFF736FF0700F4E7BC
:104C6000DC230C26D8275B00E558B43B6E43FF3BA2
:104C70000093043B01937F00DA235B00E35CAB42CB
:104C80001EDD019B002B1BD0E3599B191A68002ADB
:104C900004D01879FFF75AFE00280ED0009A290098
:104CA0002000FFF711FFE35901909A590623002ACB
:104CB00000D1043B009AD318009301350C36DBE792
:104CC000E02300225B00E254F7BDC0460409002047
:104CD00037B50400A51C1000EA7F002A29D002285D
:104CE00003D3032802D907280ED037BD00222100A4
:104CF000E36A0092013B1C31FBF7B6FE0028F4D0BA
:104D00002000FEF7D1F9F0E7E3692000FEF7EAF9A9
:104D10002F4B002808D01033180000222D4905F031
:104D200099FD0023EB77E0E730331870FBF7F8FFCD
:104D3000F7E7A368102B36D012D8022B29D006D85B
:104D4000012BD2D102002000FEF7FCFBCDE7042BA3
:104D500024D0082BC9D102002000FEF70DFFC4E7C4
:104D6000802B2AD008D8202B22D0402BBDD1020086
:104D70002000FFF753F9B8E780229201934221D037
:104D8000802212029342B0D102002000FFF738FBCC
:104D9000ABE702002000FEF7ABFAA6E70200200016
:104DA000FEF712FEA1E702002000FEF741FF9CE79C
:104DB00002002000FFF73CF897E70200200000F017
:104DC0008FF892E702002000FFF7E6F98DE7C04672
:104DD00068F1FF1F04B8000070B50400250008004A
:104DE0008E2145352B7889005B183B4E9B0001389E
:104DF00099590B2818D801F0F5FF37061E322D17E8
:104E000017171752176BA06800280ED1002A0BD075
:104E1000A2602200022549321378AB4313700122AD
:104E200020752000FFF754FF70BD237D2261013300
:104E300023750622F5E72369134201D0002323617D
:104E4000A3689342F0D107222000FFF741FF00231F
:104E5000A360E9E7A3689342E6D10422E1E7A368EF
:104E60009342E1D10522DCE7D343A268DB0F023392
:104E7000002A09D01A002000FFF72AFF0223493434
:104E8000227813432370CFE719002000012205F098
:104E90009CFF1248A169103005F09AFCC4E7032A70
:104EA000C2D88E239B00D3189B00F1589A232A70F6
:104EB000FF33CA5C00239A4203D1B533FF33CB588A
:104EC000DBB22200463213702000FEF7B9F8ABE7E0
:104ED000002346342B70D5E7BCF4FF1F68F1FF1F99
:104EE0000300501E70B50C00052809D801F07AFFA8
:104EF00003090F080811012149331A788A431A70EF
:104F000070BD012149422000FBF799FDF8E701211E
:104F1000F9E7180049300478012125001A690D408D
:104F200029D0842A12D009D8812A10D00021822ABF
:104F30000DD018331800FCF7CDFEE1E7882A18D011
:104F4000C02AF6D11A004532117800E002218E22E3
:104F5000B220042592008918124A89008C58FF302B
:104F6000215C4A07D21701329200A9430A43225416
:104F7000DFE70321EBE7842A10D008D8812A02D08A
:104F80002900822ABCD10A20FBF7D8FEB8E7882A7C
:104F900006D0C02AB4D121430170CAE70221F2E74A
:104FA0000321F0E7BCF4FF1F37B5223903001400DA
:104FB0000800052917D801F015FF03172025293609
:104FC000100003F06DFF0022194B03F079F9002265
:104FD000184B03F075F90022174B02F06FFE174DC6
:104FE00028656965EC6437BDD1B21800FCF7DAFCBE
:104FF00000210920FBF7A2FEF5E7D1B20F48FCF72C
:10500000C3FCF5E70D4B58331A70F1E70C4A01ABBE
:105010001A8001229A70094A110058314C70E4B28A
:105020001B5D5367E4E7054B7C331A70DBE7C04632
:105030000000384000007040004CED40E8F0FF1FD9
:105040000C060000F8B50400481E16000A2858D8BF
:1050500001F0C8FE067689AD575757575757BB0022
:10506000DC235B00E558C223FF33E35C013B012BEB
:105070001ED9D8277F00002E60DA013D002D40DBCD
:10508000DA235B00E35CAB423BDD0C236B43E2596C
:10509000D3181A68002AEED01879FFF757FC0028B9
:1050A000E9D0DC235B00E55008330122E25428E01C
:1050B000DE235B00E058B13BFF3B5D43A533FF338C
:1050C000E35816185D1968790022431FDBB2042BE0
:1050D00002D8424A0632D256964212DB01380828DC
:1050E00028D801F07FFE0F05291C1E27212325004B
:1050F0000F239E4205DCDE23394A5B00E650043371
:10510000E252F8BD0023A9680029F2D00A78002AEB
:10511000EFD07C3A5042424101319B18F4E708231A
:10512000E7E796235B00E4E72723E2E76323E0E772
:105130001823DEE70023DCE77F23DAE701359DE76C
:10514000022ADED1DC230C225B00E158083B4A43F3
:10515000E3589B181879FFF7C9FBDE235B00E0508A
:10516000C223FF33A1E7C225FF35635D022B14D1B3
:105170000C22B733FF33E158083B4A43E3589B18EE
:105180001979DE235B00E258202909D81548FFF77A
:1051900003F9E02301225B00E25400236355B0E7EA
:1051A0002729F6D810484830FFF7FEFEF1E7100037
:1051B0008138072809D801F015FE0B04080D0808EE
:1051C000080F00210A20FBF7B9FDE0235B006CE724
:1051D0000121F7E70221F5E70321F3E760B40000BE
:1051E000010200000CF4FF1F68F0FF1FF0B585B04E
:1051F0000191002105000B002A4A2B4C0392D05C40
:1052000001334118C9B2A342F9D11078122842D112
:10521000507840283FD1D35C8B423CD1234B03A92B
:105220002800039305F09CFD8E231B01EC182E0033
:1052300000232700D03600938023009A9B00F318A8
:105240003E601A7001CFFCF789FF009B0133009389
:1052500081239B00F618009B042BEDD1019B002BB2
:105260000FD0022B13D18F231B01ED1801CC05F0B9
:1052700014FCAC42FAD100220D480E49103005F062
:10528000E9FA00210920FBF759FD05B0F0BD0848F7
:1052900000220949F2E7019B002BF2D004480022CA
:1052A0000649EBE7B4FDFF1FD4060000B6FDFF1F63
:1052B00068F1FF1F9AB800009FB80000A6B8000070
:1052C00070B50400881F0E0008280AD801F08AFD76
:1052D000051B0509090928091F008F2301221B014D
:1052E000E2548E231B01E5181033E4182868092EB8
:1052F00003D00C2E1BD0062E01D105F0ECFB04359B
:10530000A542F3D170BD8F2300221B01E8E7002ADC
:10531000E7D0084800220849103005F09BFAE0E782
:10532000002ADED011002000FFF760FFD9E7FCF76C
:1053300015FFE4E768F1FF1FACB8000070B5A026C8
:1053400004003601250040352B78002B02D12000C7
:10535000FBF7D4FE2B78002BF4D1024B9B5D002B86
:10536000F0D170BDB4FDFF1FF0B50224012687B057
:1053700005F0A3FE05F09CFE05F09EFECD4ACE484A
:105380001368CE4F2343136002AB19001E7001F067
:10539000EFFA8023CA4DDB033B60EB682343EB60ED
:1053A00005F009FEFA21890001F030FD6860EB6824
:1053B00003AC3343EB6000232100C24823726360D7
:1053C000039601F097FA32003100002000F0DAFF76
:1053D000BD4BBD4AFC33DB6AA4321360802302213B
:1053E0001B043B60EB690B43EB61136800226B61AC
:1053F000EB691E43EE610F250197161C0021B3488F
:10540000B34B0C301E700090AF4F00988B001858B3
:10541000FB18A827BC469C446746E8333860A9427D
:1054200000DAA9E0186001311029EDD10123A84963
:105430000B70A849313348310E72A748007A002812
:10544000FBD0013B002BF7D1013DD7D20122022135
:10545000042000F097FF200001F012F89F4B02207B
:10546000636005F0ACFD9E4E21000200300001F0AB
:1054700051F88022B37820001343B370012605F061
:1054800001FE984B02200393E671267205F097FD0A
:1054900021000200944801F02FFB8A219248090361
:1054A00001F09CFB8023019A5B0113608F48FDF79C
:1054B00031F9FBF78DFF844B5B689B070FD4A0226B
:1054C0008B4B1201995C002909D18A498A485D50A9
:1054D0008A495E508A495A508A4958509E547D4B99
:1054E0000224181DFFF72AFF874B01251800002210
:1054F00049300178DA61A143A9431A719A60DA60F0
:105500001A6101705A6219199A62DA625B19CA77D4
:10551000DA77704B48331A7A002A00D1CCE10021A7
:105520007A4C19726B4B586D631CDA7F022A09D1D1
:10553000E2698A4206D0904204D90720E161DD7712
:10554000FBF7FCFB26005836307C01282CD00228C3
:1055500015D1E36E013BE366002B10D1236F002BC6
:105560000CD02A00052100F00DFF236F3574013B9C
:105570002367E36DE36602E01A6054E733740026A4
:105580005A48FDF73BF9624C6834E168002921D0A4
:105590006368A268CB186360002912DA934212DCB8
:1055A00000236260E3600EE0E36E5A1EE266002AAA
:1055B000E5D10521022000F0E5FE02233374636E7D
:1055C000D8E79342ECDA636851481A14F1B24830D4
:1055D000FCF73EFC2378022B2ED16378002B2BD0D6
:1055E000013BDBB26370002B26D1494F25703A0096
:1055F0008D3210783A00A13211783A007937B532FD
:1056000012783F78F3B200929F4202D14027414A7C
:105610005760834203D180273E483F0547608B4255
:1056200003D180203B49C0044860009A934203D1D3
:105630008022384B52055A6001361434042EA4D10E
:105640000B36354C23002200473346321978127846
:10565000914200D18CE01B78E3189B79DBB21A00F1
:10566000B243F02A5AD11800F0380C280BD801F0B8
:10567000B9FB1C1313130A0A0A1E070A07070700BF
:105680001800FBF7C1FC473420783F21013001F0BE
:105690002DFDC9B22170D4E700222370F23B2271A4
:1056A0005A42534101336370EDE76571EBE7002324
:1056B0006371E8E7148004400070034000E100E0FB
:1056C000FC700340009007405C08002060B40000BC
:1056D000FC08002068F0FF1FB0F0FF1F20A10700AA
:1056E00000600640127A000000A00640BCF4FF1FD4
:1056F000B4FDFF1F180A0000D5060000040A0000D0
:10570000080A00000C0A00000CF4FF1FE8F0FF1F5D
:1057100068F1FF1F00F00F40D207002059B20029A6
:105720000ADA0021237061712171C02A02D002239C
:10573000D02AB8D16570A6E76279002AA3D1207873
:105740000028A0D02779791CE719BB706378C9B20B
:1057500021718B4297D803002271B343802B02D072
:10576000902B90D1E278A1783040FBF719FC8AE7C2
:105770005E4E8E22330045331B7892009B185C4AA4
:105780009B00D3589A22FF329A5C002A08D0C42288
:10579000FF329B5C320048325B0720D564231370D4
:1057A000544805F06EFB544C636B002B08D0013B52
:1057B0006363002B04D1220030321370FBF7B0FA80
:1057C00000224C4BA0331A704C4B38331B78934259
:1057D0000AD0022B0BD84A48FFF710FA07E01378DB
:1057E000002BDDD0013BDAE73000FEF77DFE26001E
:1057F00033363378002B05D020001030FCF76CF9DD
:10580000002333702069313423783A4A2A339B00CD
:10581000D31810229446C7430021374CA44466464F
:105820001A68761876683A4032431A601A6C043166
:1058300002431A6404331429F1D12E4B1339A033D7
:1058400004201D7000F0D4FD061E3FD02B4E330007
:105850003C331A78002A08D0013AD2B21A70002AD2
:1058600003D10321022000F08DFD230038331A7884
:10587000002A08D0013AD2B21A70002A03D10521B9
:10588000280000F07FFD2278002A08D0013AD2B229
:105890002270002A03D10221080000F073FD4C366B
:1058A0003278002A08D0013AD2B23270002A03D1ED
:1058B0000521022000F066FD124B181D44331B78B1
:1058C000002B00D025E6FBF719FC22E6FBF714FDC0
:1058D00001210748FDF746FB0A4B181DFFF72EFD77
:1058E00032000221042000F04DFDFEE70CF4FF1F02
:1058F000BCF4FF1F5C08002068F1FF1FE8F1FF1FE8
:1059000048F2FF1F68F0FF1FF0B50024012685B0A4
:1059100003AD2A00052103202E706C7000F046FDB7
:105920002A00310002202E706C7000F03FFD2A002A
:10593000210002202E706C7000F038FD2A0030002B
:1059400003212E706C7000F031FD2A00300002211E
:105950002E706C7000F02AFD2A00310020002E709D
:105960006C7000F023FD2A00062102202C706C7060
:1059700000F01CFD2A00300004212C706C7000F037
:1059800015FD2A00210003202C706C7000F00EFD24
:105990002A00310003202C706C7000F007FDFC4ED3
:1059A0000122300052423480210074801030746033
:1059B000B2608132347305F094FB30002100032281
:1059C000903005F08EFB3000943004603000983049
:1059D000046030009C3004603000A0300470370058
:1059E00030009C23FC375B00A430F454BC633C645F
:1059F0007C64BC64046005F0DEFA322200232100DE
:105A000001F09AFBE34A002301F076FBF86205F00F
:105A1000D2FA962200235200210001F08DFBDD4ACC
:105A2000002301F069FB386305F0C5FAC8220023A2
:105A30005200210001F080FBD64A002301F05CFBFC
:105A400001230A22C8217863D34F18003A6479648D
:105A50002A00C3391E002B70FB636C7000F0A6FC9B
:105A6000C8210A22F960C6390800BA602A002E70DF
:105A70006C707E6000F09AFC0A22C8210123C74E98
:105A800002207264B1642A00C53933642B706C70D3
:105A900000F08CFCC24B2A0018004630047018003D
:105AA0004730047018008830047018008930047082
:105AB000210020001C705C701C715C712C706C707B
:105AC00000F074FC0A22C82101237265B1652A0026
:105AD000C339022033652B706C7000F067FCB14E47
:105AE000B14B300001213360FBF74EFFAF4B32006A
:105AF000B362802301213C325B00336413780020C1
:105B00000B431370330028335C75A94BA94AB36467
:105B1000A94B0021326573657823F364693BF36513
:105B20000A3B3366033B73663300012258335A70D5
:105B30000623736733005933DC7733007C331C70E2
:105B40005C709E4B30637163B463F46248365C658D
:105B5000DE6448331C72994B08229C6518665966AE
:105B600096486833210072301C7205F0BAFA0121A0
:105B700038000126924B934A49429C50924A7C63DA
:105B80009C5004329C50914A14309C54904A995035
:105B90008A4B210044331C708E4B14223B6305F06A
:105BA000A0FA2A00200006212E706C703C6100F0E3
:105BB000FDFB03212A0008002E706C7000F0F6FB3C
:105BC0002A00022103202E706C7000F0EFFB2A00E7
:105BD000042103202E706C7000F0E8FB3D003800BB
:105BE000210048355022683005F07BFA2100202240
:105BF000280005F076FA3B0002224E33FF32DA87A6
:105C00003B00754AA0331A803B00744A744EB4338B
:105C10001A806A4B3470747030001E60FCF7E6F82E
:105C20008E231B01F4180F236E4D00932B002E00C2
:105C30008933FF330193300004F056FE3300002710
:105C4000009A60331F705A70019B6236B342F2D1E2
:105C50002800C130FF30032104F03AFE81239B006D
:105C6000ED18AC42E2D103215F4804F031FE5F48F9
:105C700004F03AFE5E4B00991A00AD3217701A001C
:105C80000125AE3202201170190004249A7849319E
:105C90002A4302439A700A781026A2438243AA43F9
:105CA0000A701A18D7770122524C5242DF611F70D6
:105CB0005E709F611F719F60DF601F615F629F6206
:105CC000DF621F635A639A63DF631F645F64390096
:105CD0005B19A01DE732DF7705F003FA21000A20E7
:105CE00028310870210029310D704349434BE1628E
:105CF000434923600423216321002371414B343144
:105D000005380870A36021003F4B3531E3600C2358
:105D10000D703E4923743E4BA1633E4963613E4B87
:105D2000A1642100A361162009233C4A4C31226260
:105D30003B4A65716574237765776262087021005C
:105D40004D310D70374904382165374922006165AE
:105D50002100583108702000643006702600653636
:105D60003570260031487036A06631482100E06663
:105D700030001126067026007136357026002D4839
:105D80007C3660672C485931A0673000172655E0F3
:105D90005C08002040420F0068F1FF1FE8F1FF1F80
:105DA000D2070020E8F0FF1FA0B30000B8B3000046
:105DB000D0B30000FA7E6ABC7493284068F0FF1FDD
:105DC000B4FDFF1F080A00000C0A0000140A0000BE
:105DD000180A000000020200020200000303000093
:105DE000BCF4FF1F8CF5FF1F56F4FF1F59F4FF1F73
:105DF0000CF4FF1F48F2FF1F2EB90000B8B80000D6
:105E000042B90000BCB80000CAB8000046B90000A2
:105E1000CEB8000058B90000FEB8000002B900007A
:105E20002AB900005CB9000079B900008BB9000004
:105E3000AEB90000B2B90000CFB900000D709149B1
:105E40000670E165904991482166211DC867904917
:105E50000832D1672200182188321170220089325D
:105E60001370260023008B4A7D36903335701A60FC
:105E70002300192294331A70230095331D702300D8
:105E8000854A98331A602300844AA8331A60230095
:105E90001322AC331A702300AD331D702300804AE7
:105EA000B0331A6023007F4AB4331A6023000D22F6
:105EB000B8331A702300B9331D7023007A4ABC33FB
:105EC0001A602300794AC0331A6023000E22C433BB
:105ED0001A7022000323C532137022007449CC3299
:105EE000116022000099D03211702200D132157059
:105EF00022007049D432116022006F49D8321160FB
:105F000022001426DC3216702200DD3213702300CA
:105F10006A4AE4331A6023001522E8331A7023001A
:105F2000E9331D702300664AEC331A602300F63310
:105F300039001800BA2205F0D4F82300614AF03382
:105F40001A6023002322F4331A702300F5331D70E6
:105F500023005D4AF8331A6023005C4AFC331A6060
:105F600022002221FF32517059490520D960242195
:105F700051735849907059612521957351769576E2
:105F8000554A56481A629222986158622620520059
:105F9000A0542622FF32A5544E4A0231DA62504AFA
:105FA00022381A6398225200A1543222FF32A5549B
:105FB0004C4A08399A634C4A9A64A4225200A1546C
:105FC0004A22FF32A554494A49191A65354A5A6589
:105FD000AA225200A1545622FF32A554444A06393F
:105FE000DA65444ADA66B6225200A1546E22FF32C4
:105FF000A5544149414A99675A67BC231B215B005C
:10600000E1547A23FF33E5540333E2503C4A103322
:10601000E2501C220433E25492233A4AFF33E554FF
:106020000333E250384A0433E2501D220433E25471
:106030009E22953BFF3BFF32A35434490732A150C7
:106040001E210432A154AA22FF32A354A933FF33E4
:10605000E4500433E6540433E7500433E750043388
:10606000E55203AC22001C392570677000F09EF9E0
:106070002200290004202770677000F097F905B00E
:10608000F0BDC0467DB9000002B70000D3B90000E2
:10609000F4B90000F8B90000FCB9000008BA00002B
:1060A0000CBA000019BA00001DBA000016BA0000B0
:1060B00044BA000048BA00004FBA000053BA0000CA
:1060C00057BA000076BA00007ABA00008CBA000015
:1060D00090BA000094BA0000A2BA00009EBA000074
