:1006000000300020CD06000015070000816A0000C0
:1006100000000000000000000000000000000000DA
:1006200000000000000000000000000019070000AA
:1006300000000000000000001B0700001D07000074
:1006400021070000290700003107000039070000DA
:10065000410700004907000051070000590700004A
:1006600061070000690700007107000079070000BA
:10067000990B00008907000091070000990700000E
:10068000A1070000A9070000B1070000B90700009A
:10069000C1070000C90700001D0C0000890B000005
:1006A00095110000E9070000F1070000F9070000BC
:1006B000010800000908000098CC000000F0FF1FAE
:1006C0006800000068F0FF1FF41A000010B572B651
:1006D00006F082FF0C4C0D4B9C4206D2A26861686A
:1006E000206800F095F80C34F5E7094B9C4205D2E0
:1006F0006168206800F097F80834F6E70AF006FB16
:1007000062B605F0CFFBFEE7B8060000C4060000A5
:10071000CC060000FEE7FEE7FEE7FEE7FEE7FEE7A9
:1007200010B5FFF7FCFF10BD10B5FFF7F8FF10BDC7
:1007300010B5FFF7F4FF10BD10B5FFF7F0FF10BDC7
:1007400010B5FFF7ECFF10BD10B5FFF7E8FF10BDC7
:1007500010B5FFF7E4FF10BD10B5FFF7E0FF10BDC7
:1007600010B506F05FFD10BD10B506F067FD10BDB9
:1007700010B506F04DFE10BD10B506F051FE10BDCF
:1007800010B506F0FFFE10BD10B506F009FF10BD54
:1007900010B506F013FF10BD10B5FFF7C0FF10BD78
:1007A00010B5FFF7BCFF10BD10B5FFF7B8FF10BDC7
:1007B00010B5FFF7B4FF10BD10B5FFF7B0FF10BDC7
:1007C00010B5FFF7ACFF10BD10B5FFF7A8FF10BDC7
:1007D00010B5FFF7A4FF10BD10B5FFF7A0FF10BDC7
:1007E00010B5FFF79CFF10BD10B5FFF798FF10BDC7
:1007F00010B5FFF794FF10BD10B5FFF790FF10BDC7
:1008000010B5FFF78CFF10BD10B5FFF788FF10BDC6
:10081000002330B55C181D18934203D22D680433B1
:100820002560F7E730BD002310B51C001A188B4275
:1008300002D214600433F9E710BDFFFFFFFFFFFF92
:10084000FFFFFFFFFFFFFFFFFFFFFFFFFFFFFFFFB8
:10085000FFFFFFFFFFFFFFFFFFFFFFFFFFFFFFFFA8
:10086000FFFFFFFFFFFFFFFFFFFFFFFFFFFFFFFF98
:10087000FFFFFFFFFFFFFFFFFFFFFFFFFFFFFFFF88
:10088000FFFFFFFFFFFFFFFFFFFFFFFFFFFFFFFF78
:10089000FFFFFFFFFFFFFFFFFFFFFFFFFFFFFFFF68
:1008A000FFFFFFFFFFFFFFFFFFFFFFFFFFFFFFFF58
:1008B000FFFFFFFFFFFFFFFFFFFFFFFFFFFFFFFF48
:1008C000FFFFFFFFFFFFFFFFFFFFFFFFFFFFFFFF38
:1008D000FFFFFFFFFFFFFFFFFFFFFFFFFFFFFFFF28
:1008E000FFFFFFFFFFFFFFFFFFFFFFFFFFFFFFFF18
:1008F000FFFFFFFFFFFFFFFFFFFFFFFFFFFFFFFF08
:10090000FFFFFFFFFFFFFFFFFFFFFFFFFFFFFFFFF7
:10091000FFFFFFFFFFFFFFFFFFFFFFFFFFFFFFFFE7
:10092000FFFFFFFFFFFFFFFFFFFFFFFFFFFFFFFFD7
:10093000FFFFFFFFFFFFFFFFFFFFFFFFFFFFFFFFC7
:10094000FFFFFFFFFFFFFFFFFFFFFFFFFFFFFFFFB7
:10095000FFFFFFFFFFFFFFFFFFFFFFFFFFFFFFFFA7
:10096000FFFFFFFFFFFFFFFFFFFFFFFFFFFFFFFF97
:10097000FFFFFFFFFFFFFFFFFFFFFFFFFFFFFFFF87
:10098000FFFFFFFFFFFFFFFFFFFFFFFFFFFFFFFF77
:10099000FFFFFFFFFFFFFFFFFFFFFFFFFFFFFFFF67
:1009A000FFFFFFFFFFFFFFFFFFFFFFFFFFFFFFFF57
:1009B000FFFFFFFFFFFFFFFFFFFFFFFFFFFFFFFF47
:1009C000FFFFFFFFFFFFFFFFFFFFFFFFFFFFFFFF37
:1009D000FFFFFFFFFFFFFFFFFFFFFFFFFFFFFFFF27
:1009E000FFFFFFFFFFFFFFFFFFFFFFFFFFFFFFFF17
:1009F000FFFFFFFFFFFFFFFFFFFFFFFFFFFFFFFF07
:100A0000FFFFFFFFFFFFFFFFFFFFFFFFFFFFFEFFF7
:100A100080221206C24003000020994203DD1043E9
:100A200001335208F9E7704700B5032808D80A4B8C
:100A300006F08CFE0207090C4022002909D05A60FA
:100A400000BD8022F9E78022D204F6E78022520519
:100A5000F3E79A60F4E7C04600F00F40002804D0A6
:100A600002384342584180017047044B1B681A000A
:100A7000713212789B189878F6E7C04668F0FF1F2D
:100A8000CD235B00C35C10B5002B01D0022B0BD132
:100A9000D8235B00C25C511800224C1C03D00A0012
:100AA000722900DD7222C25410BD30B5039D0400CE
:100AB00002280ED00020032C0AD10C689C4203DAD5
:100AC00001340C60013003E0002D01D00A600120E8
:100AD00030BD0868824202DA01380860F7E700207A
:100AE0008542F5D00B60EDE7204910B50B0044338B
:100AF0001B78DBB2012B05D0022B29D00023443117
:100B00000B7010BD1A4B1B481A5018381C5CE4B20D
:100B1000012C18D0042CF1D1002A17D1164C1A59E7
:100B200040321A5108341A5940321A51134C1A598A
:100B3000403A1A514A6D124CD2B21A550A24114A3F
:100B40009C54052200E002221A54D7E70622FBE754
:100B50000A007032137ADBB2002B03D0012BCDD107
:100B6000032300E001231372C8E7C04668F0FF1FAB
:100B7000E8FEFF1F180A0000080A00000C0A000027
:100B8000140A0000150A000010B5024800F004FF26
:100B900010BDC04694090020F7B51E4C20000BF094
:100BA0005DF928230700184215D01B4DE3792E006C
:100BB000DBB20193493630783F21013006F04AFF1D
:100BC0002B004A331B78C9B2994204D03378ED1810
:100BD000019B6B7231703B0615D50F4B1A001D003F
:100BE0008B328C3511782A7891420DD02A783F21AA
:100BF0009B184B331B78DBB2E3712878013006F089
:100C000029FFC9B22970F7BD80210248090206F008
:100C1000A9FCF8E700A0064005090020F7B501226D
:100C20003C4B3D4C1A61636DE06C9B18636523007F
:100C300048331A72A36DA56D019303685B689847EA
:100C4000854226D2E06C03685B6898470022002347
:100C5000A06522666366A36D019A5A401300FF22C5
:100C6000934355D0A56D2D482D0A290060300AF018
:100C7000B2FB2B4C2900200008300AF0ACFB23000B
:100C8000303318780138032834D806F05FFD2F2F51
:100C90002A2AE06C266E676E0368DB6898470200BC
:100CA0000B003000390007F095F90F00060008F03E
:100CB000F1FDA36D0500C318E06C009303689B6809
:100CC0009847009B8342C6D2A365280008F018FE0F
:100CD00002000B003000390008F040FA206661661F
:100CE000B9E7230030335B78002B03D0F8210D489F
:100CF00001F02AF81821280006F0ACFE002907D1DF
:100D0000636C3434DDB2013120000AF05AFA2576E2
:100D1000F7BDC046FC70034068F0FF1FE8F0FF1FFE
:100D200068F1FF1F0509002000B51B2800D96FE0FE
:100D3000574B022809D0032800D190E0012807D1A1
:100D40005B785B080340180000BD5B780120F9E781
:100D5000892251331B7892009B184E4A9B0004381D
:100D60009A5800231728EED806F0F0FC0C31292BF6
:100D70003B131517191B1D1F0F3925272133352349
:100D80003F41434BCD235B0001E09C23FF33D35C09
:100D9000D9E7CE23F7E79E23F8E7CF23F3E7D02365
:100DA000F1E7D123EFE7A423F0E7D223EBE7A62373
:100DB000ECE7D523E7E7D623E5E7AE23E6E7B02364
:100DC000E4E7B223FF33D35C9B07DB0FBBE7AC2325
:100DD000DCE7D323D7E7D4235B00D35EB3E7A223BA
:100DE000D4E7B223FF33D35CB0E7D923CBE7B423F6
:100DF000CCE7F6235B00D25C274B9200D3185B69EB
:100E0000A1E7F6235B00D35C234A04339B00F5E79C
:100E1000212810D81D380023042800D993E71D4B42
:100E200006F094FC05031D2107001C4AAFE71C4A8D
:100E3000ADE71C4AABE700232B2800D983E7233812
:100E4000082800D97FE706F081FC05081013161F5B
:100E5000191C0C00144B5B6D75E7144B48331B7861
:100E600071E7124B48335B786DE70F4B1B7B6AE7EA
:100E70000D4B6033F3E70C4B6033F4E70C4B1B7AFC
:100E800061E70B4B5B7A5EE7094B3033E7E7C0461F
:100E900054F5FF1F20F6FF1FE8F1FF1FC5080000F3
:100EA000C4080000C7080000E8F0FF1F68F0FF1F3B
:100EB00068F1FF1F00B5012300280ED01B2836D88B
:100EC00000280CD0022808D903001A3B012B06D8B1
:100ED0002A4A2B4B9B5C581E8341180000BD892277
:100EE000284B920051331B7805389B18234A9B00EE
:100EF0009B580E2840D806F029FC173F3F3F3F3F44
:100F00003F3F0812123F3F0B0B00A222FF32E1E7E6
:100F1000A222FF329B5C013B58424341DDE7A22203
:100F2000FF329B5C023BF7E7F6225200D2E7012337
:100F30002128D2D900232B28CFD8233807281BD823
:100F400006F004FC041A081A0D1A1A170E4B48333F
:100F50001B78E1E70C4B48331B78033BDCE70B4B7A
:100F600060331A7800230121013AD2B291425B41E9
:100F7000B3E7074B1A7AF5E70123AEE720F6FF1F28
:100F8000C708000054F5FF1F68F0FF1FE8F0FF1FBF
:100F900068F1FF1F0122044B04495433DA77FE2322
:100FA0005B00CA547047C04668F1FF1F54F3FF1F2F
:100FB00070B52A4D04002B0074331A78002A09D129
:100FC000274B596A002905D05A62264B5133DA77EC
:100FD000FFF7E0FF74352C70012C19D063B2002BA1
:100FE00002D0022C25D070BD1D4A032410005530BC
:100FF00001781371A1439360D36013610170536250
:101000009362D362D36113841749184A8B54EAE779
:10101000F6221421164B52009B50043299540022A0
:10102000E131FF315A5004315A50FD32FF329C52A7
:10103000D9E7F6220E4B0F49520099501521043280
:1010400099540022E031FF315A5004315A50FD3298
:10105000F839FF32FF399952C5E7C046E8F1FF1F62
:1010600054F5FF1F68F1FF1F20F6FF1FC70800009F
:1010700054F3FF1F44F4FF1FF8B5050002380C00BD
:10108000112800D96FE006F061FB096E146E474726
:10109000474147332D6E4739473968478023DB0185
:1010A000994232D0314B994254D0022000F084F959
:1010B00010E0802904D02E4B99420CD00420F5E793
:1010C0002C4B002074331B78013B012B00D90120ED
:1010D000FFF76EFFF8BD274B022074331B78022BFD
:1010E000F6D1F4E70A0024480C2103F087FFF1E76A
:1010F0000A000B21214804F0DFF9EBE72048002229
:10110000204950300AF01AFAE4E700241E4B1F4A27
:10111000D55C6B425D4107351D48220029004830EF
:1011200000F07AFE072D0DD10026124F3437F0B2B1
:101130000021FFF779FC00223301DB1901361A7018
:10114000042EF4D122002900104804F0FDFA2200F8
:101150002900CFE700240625DEE70A000B4812210C
:1011600004F0F2FAB6E7210028009FE702400000F1
:1011700080800000E8F1FF1F54F3FF1F54F5FF1FAC
:1011800068F1FF1F69C60000BC08000020F6FF1FC1
:1011900068F0FF1FF7B508201F4B9A68024233D052
:1011A000DA689968170004220A439A603B00DB075B
:1011B00023D51A4B1A4C5E6D230028331A78022A65
:1011C00023D1256AAE4213D9606908F0D5FB751B9F
:1011D00000900191280008F0CFFB02000B0000985E
:1011E000019907F06DFAAD00A061E161AD1965628A
:1011F0002369626926629B1823613B001B0203D5A9
:10120000064A936E01339366F7BD002102226162A4
:101210001A70FFF731FFEBE70090074068F0FF1FFF
:10122000E8F0FF1FF7B5324C05002300783408338F
:1012300020000121DE6F09F0C4FF28002D4BF6B21B
:101240005B6DF83826760193042836D806F07EFACE
:10125000033528364400284C230030335A7D012AB8
:101260001BD0636BA06C1B186363022A13D0256C20
:10127000019BAB420FD908F07FFB019B0600581B76
:101280000F0008F079FB02000B003000390007F076
:1012900017FAA063E163019B23643034002319E053
:1012A000154C0125230044331B782B4205D0002127
:1012B00006203034FFF7E0FE6575F7BD0E4C2300C5
:1012C00044331B78DB07F8D500210820FFF7D4FE54
:1012D000022330346375F0E7074C230044331B7856
:1012E000DB07EAD500210720FFF7C6FED5E7C04699
:1012F000E8F1FF1F68F0FF1FE8F0FF1F10B50A00BC
:101300001B2827D8264B02280CD0032810D00128F0
:1013100014D1511E8A4151005A78013082430A4348
:101320005A7010BD0120511E8A4159788143F6E759
:1013300019700D200021FFF79FFEF2E7892151333C
:101340001B7889005B18010016489B00185803F0B1
:1013500053FDE6E721281AD81D380428E1D8114B9F
:1013600006F0F4F90603080D0F000F495A54D8E7A8
:101370000E49FBE71970180000F0DAFED1E759704A
:10138000F9E70B4918005A5401F05CFBC9E72B2818
:10139000C7D8084B01004833180003F0D9FDC0E757
:1013A00054F5FF1F20F6FF1FC5080000C408000009
:1013B000C708000068F0FF1F094B10B574331B7895
:1013C0000A00002B06D0022B08D80100054803F0C4
:1013D00015FE03E00100044804F06EF810BDC0469D
:1013E000E8F1FF1F54F3FF1F54F5FF1FF7B54E4EF2
:1013F000070033000833DB6F7836DBB20C003000B7
:1014000001211500019309F0DCFE019B3376474B67
:101410001A78974201D0102A3ED1196E002D3CD087
:101420000020434A884204DA155CA54201D301300A
:10143000F8E7092901DC013119661A6E90422BDAAE
:10144000911E54329A18884204DC1578013955707F
:10145000013AF8E71A185632147000281CD18C2172
:101460005133344A1B78090153503349545433499A
:10147000515C022910D12100243930290CD889214E
:1014800089005B189B009A58D4233C3C5B00D452E3
:1014900000210C20FFF7F0FDF7BD2F002A008A4243
:1014A00017DA981856300078A0420CD155425541B1
:1014B00010005630EDB24F1E181801328A4204D186
:1014C00039000127013A0132E9E746780670013018
:1014D000F3E7002F00D01966002DDDD0196E00292A
:1014E000BDD18C23134C1B01E358002B12DB134A94
:1014F000A25C022A0ED1124AA25C012A0AD08922D9
:1015000092009B189B001A59D4235B00D1520C20E7
:10151000FFF7B2FD8C2301221B015242E250002250
:10152000054BE254B8E7C046E8F1FF1F54F5FF1F32
:10153000AAF5FF1F20F6FF1FC6080000C408000020
:10154000C5080000F7B5002426002500144B4833D9
:101550000193019B1B7A002BFBD0FA2700227F000E
:101560006F43019B02211A720E483A0000F012FEEE
:101570003A0003210B4800F00DFE0B4B01359D4254
:1015800000DD00250134322CE3DD7242564107486C
:10159000F6B214303200032100F026FE0024D8E712
:1015A00068F0FF1FFCF1FF1FFF0F0000E8F1FF1FB5
:1015B000024B034AD05C431E98417047C7080000A5
:1015C00020F6FF1FE62370B52E492F4C5B002380C9
:1015D000202214312D480AF057FCBC232C4EFF3337
:1015E000638433002B4D483329001B885431A38476
:1015F000042229480AF048FC2300290020002A7B05
:101600002A331A70603102222B300AF03DFC234D40
:101610002000290002222D3008310AF035FC2A0072
:101620002300303212782F331A7000231A00A15C85
:101630000132CB18DBB2302AF9D1220030321370DC
:10164000301D04F0BDF9A0221201A35CDBB2002B17
:101650000ED101201249404260501249323063508D
:101660001149635011496050043163500433A3544D
:10167000301D04F0A5F92800002250300C4909F073
:101680005DFF70BDE8F1FF1FE8FEFF1FEAFEFF1FD0
:1016900068F0FF1FE8F0FF1F0EFFFF1F68F1FF1F3C
:1016A000180A0000040A0000080A00000C0A0000E2
:1016B0006FC60000F7B5264D01932B000833DF6F8E
:1016C000783504000E00280001210092FFB209F0D5
:1016D00078FD2048204B2F76C25C002A0CD0009960
:1016E000019A002900D05242012C06D0002C03D0D0
:1016F00021001539032905D9F7BD642EFCD1FFF768
:1017000061FFF9E7622E0ED0632E18D00F2E05D19F
:10171000511E072902D8C25401F094F900210C206F
:10172000FFF7AAFCE8E713006333C62BF6D81A21AB
:101730000A4BE418A400005903F05EFBEEE7130027
:101740006333C62BEAD8054B1B21E418A400F2E74B
:10175000E8F1FF1F20F6FF1FC70800000F0200007E
:10176000A02270B5364C1201A35CDBB2002B0CD169
:10177000012034494042605033496350334963503B
:101780003121334BE1500123A354324D281D04F085
:1017900017F923783048CC2B0ED06378012B0BD06F
:1017A0002022002114300AF078FB00222B482C491B
:1017B000503009F0C3FE3EE02300143030332022C5
:1017C00028491E780AF060FBE31CDB7FBB2B33D17A
:1017D000231DDB7F012B2FD100231A00A15C0132D6
:1017E0005B18DBB2302AF9D19E4225D1A38C483553
:1017F0002B801D4D2C3A28001C4954300AF044FB24
:101800002300210028002A331B782B312B7302225E
:1018100060300AF039FB114D210028002D310830CD
:1018200002222F340AF030FB237830352B70002150
:101830001320FFF721FC70BD084800220C49B7E7D0
:10184000E8FEFF1F180A0000040A0000080A000052
:101850000C0A000068F0FF1FE8F1FF1F68F1FF1F8E
:1018600078C60000EAFEFF1FE8F0FF1F0EFFFF1F13
:1018700080C60000F0B5002401250F23261C6D4210
:1018800000210F4A16700F4A15608B4216DC156452
:10189000013104321029F7D10B4A0F39A0321170EF
:1018A0000A4A3131483217001672387A0028FCD0C3
:1018B00001390029F8D1013BE2D2F0BD1464E7E719
:1018C000340A00203C0A00209409002068F0FF1F21
:1018D000F8B500241E4D00221E4B28001A7009F096
:1018E00099FC20212000091BFFF792F81F21661C9C
:1018F0000700891B3000FFF78BF86310E20F141903
:1019000019006410644222003A314934A40089006D
:101910004F516751104C78400F3201339A4202DD2B
:1019200099006050F9E72B000122A0331A700B4B8D
:1019300013324833190000201872087A0028FCD0AE
:10194000013A002AF7D13400102EC4D1F8BDC046A8
:1019500094090020340A00207C0A002068F0FF1F50
:1019600010B50400132910D1406807F0C9FF002208
:10197000064B07F081F90022054B07F07DF90022A4
:10198000044B06F09DFEA060E16010BD00003840F1
:1019900000007040004CED40F7B50121A04B07005E
:1019A0001962DA698A43DA619C225200825C0193EF
:1019B0008A425FD0002A09D0022A00D18FE0019B21
:1019C000DA6901231343019AD361F7BD0500FC35A1
:1019D000AB6B944C0093002B14D10600A0363378E7
:1019E000002B07D001008022A83110300AF04CFAF9
:1019F000009B3370802380229B0592026360A2606B
:101A00006260A360F82380261F219C4607203601D0
:101A10006246AB6B13400A000240134304339B0041
:101A2000DB59AA6B0093634602400B401A438023A4
:101A30001B06D3401A00009B134219D06660802316
:101A4000DB00A36063600139E2D2802202239202AC
:101A50006360A260626080225202A2606260012222
:101A6000A3603733FF33FA542B6B019A5361A6E717
:101A7000A660E4E702226B4B80265A60F6321F20F4
:101A80009446072536013C006146FC34A26B0A40AF
:101A9000010029400A4314329200D259A16B0092EE
:101AA000624629400240114380221206CA401100BA
:101AB000009A0A4211D05E608022D2009A605A6079
:101AC0000138E0D2802252029A605A6002229A6063
:101AD0009C235B00FA54E36AC7E79E60ECE7802131
:101AE00009011F248C464F4B5A603800FC30816B33
:101AF0000090F82607200E400140F13020400143BD
:101B0000802007250006C84025402E43B600BE1998
:101B10003569366D054061462E4241D059608021BD
:101B2000C90099605960013CDFD280214902996067
:101B300059600221802499601969640421404C4253
:101B4000614149420A401969890102D401210A43CD
:101B5000D2B2390090310C78944231D03C009134AB
:101B6000257895422CD03D009235032A21D10E785C
:101B7000022E05D12678002E02D12E78012E11D00A
:101B80000E78012E15D12678002E12D12E78022E35
:101B90000FD194208446BC4460460668013E07E0AD
:101BA0009960BCE794208446BC44604606680136D0
:101BB00006602678F6B22E700D78EDB225700A70A8
:101BC000009A1969926B490207D415000124083D57
:101BD000AC403988214389B239801B69DB0405D4C4
:101BE000012191407B880B439BB27B8001320F2AFD
:101BF00008DC009B9A639C2300225B00FA54009B44
:101C00005B6B32E70023009A93637A8892B27A6022
:101C10003A8879680A437A603B807B80EBE7C0466C
:101C2000FC70034000F00F40F0B585B00A980B9CA3
:101C30002E2960D046DC24295FD009DC1A2523290F
:101C40000BD00D00303D092D4BD810390D0004E0AC
:101C50002B2954D02A252D29F3D10721A943890006
:101C600001911421ED104D432949170049195D1DBB
:101C700002951C25AA1A1C3F0392002B39DB0C9DF0
:101C80009D4236DD019D0E68EE400F252E40350049
:101C9000FD40002F02DA3500039A9540002805D058
:101CA0009E00B446624686592E438650002C03D0CF
:101CB0009E00A2591543A551029A01330431934263
:101CC000DBD116E03E291CD005DC3A291BD01D25AE
:101CD0003D29C2D0B5E73F2917D02F257E29BCD09A
:101CE000AFE70D00413D192DB7D961390D00192914
:101CF000B3D905B0F0BD2B25AFE72D25ADE72E25D7
:101D0000ABE72C25A9E71C25A7E71B25A5E7C046BF
:101D100098C10000F0B5142285B00F000021050025
:101D200000240AF0BAF805260023A200395D0296C5
:101D30000193009503480134FFF776FF042CF3D19B
:101D400005B0F0BD9409002070B5050004008B3586
:101D500028780E0001303F2105F07CFE23008C33F3
:101D60001B788B4205D02B78C9B2E4184B3426700F
:101D7000297080210248090205F0E2FB70BDC046CF
:101D800000A006401FB5054904000E2278316846C0
:101D90000AF07AF86B46185D04B010BD98C10000D7
:101DA00082B0054A01AB1A8001229A705B5C017116
:101DB0001B02C36002B070470C06000082B0054AE7
:101DC00001AB1A8001229A705B5C4170C36102B062
:101DD0007047C0460C06000010B50E4B02290FD00C
:101DE00003290AD0012913D11A004433303242604A
:101DF0001A788A431A70017010BD08334360FAE7FD
:101E00001A0030324260012244331C782243F1E749
:101E10005033F3E7E8F0FF1FF8B50C0017000A296C
:101E200003D013293CD0062905D1002300220361E9
:101E300000238261C361284E3A00300021005030F7
:101E4000FFF78EFD30003A000830210009F022FA39
:101E500030003A006030210009F064FA1F4D3A006A
:101E600028002100083009F05DFA30003A003030D7
:101E7000210009F078F9072C16D0082C22D0062C66
:101E80000DD12B0030331B78022B01D0042B03D152
:101E9000FA211348FFF758FF012330356B70F8BD66
:101EA0000178FFF799FFC6E72B0030331B78022B30
:101EB00001D0042B03D1FC210948FFF745FF303541
:101EC0000023EBE72B0030331B78022B01D0042BCF
:101ED000E2D1FB21DDE7C046E8F0FF1F68F1FF1FFC
:101EE00005090020F0B50024471C44608460C460EC
:101EF000046144610460F97F85B00500A14222D0ED
:101F0000C31CDB7F022B20D0032B02D11034641AB8
:101F100064008900091901392000FEF779FD0026C7
:101F200028602B001833995D052302930023B2002B
:101F3000281D0193009012190648FFF775FEFB7FDC
:101F40000136B342EDDC05B0F0BD0824641AA400EC
:101F5000DFE7C04694090020F8B5CD235B00CB5CD9
:101F6000060015003F4C012B00D16CE0002B07D080
:101F7000022B61D020003168503009F0A3FAF8BD7F
:101F8000D5B22200012151322300D17723225033D0
:101F90005A760B31280005F073FCC8B201380A28C4
:101FA0000BD805F0D3FB06252129312D3935413DCC
:101FB0004500230002225133DA77230043225033B5
:101FC0001A760C21280005F0D5FB2500C1B250354A
:101FD00001390122280009F052FA81235B006B8449
:101FE000FA239B006367C5E7230002225133DA77A7
:101FF000230044225033E3E7230045225033DFE738
:10200000230002225133DA77230046225033D7E7E8
:10201000230002225133DA77230047225033CFE7DF
:10202000230002225133DA77230041225033C7E7DD
:10203000230042225033C3E71100200040395030C2
:1020400009F060FA96E72700230000225133503749
:10205000DA7729006432380009F011FA81235B0035
:102060007B84BDE768F1FF1F70B50E000500094CC9
:10207000002250342000084909F060FA317801222A
:1020800049062000090F09F02CFA2968200009F000
:1020900019FA70BD68F1FF1F29C6000070B50E0067
:1020A0000500094C002250342000084909F046FA86
:1020B0007178012209072000090F09F012FA296836
:1020C000200009F0FFF970BD68F1FF1F3DC6000058
:1020D0000B7870B5074905005B0700D40649074C2B
:1020E00000225034200009F029FA2968200009F064
:1020F000E9F970BD2EC6000035C6000068F1FF1F6B
:1021000070B50D00084C010050342000002209F089
:10211000E8F920000122054909F010FA29000122FE
:10212000200009F0DEF970BD68F1FF1FEEC4000069
:1021300073B56A46154B06000093154BCD36938058
:1021400001239371002302784478337061B200292F
:102150001ADB31784A2917D84518AC701D004D3567
:1021600045199C4204D301332970DBB20135F8E7ED
:102170006D46AD5C01326419D2B2E4B2062A00D9D0
:10218000002201313170E1E773BDC0460202010255
:102190000202000010B580248B00C018036864019F
:1021A0001B195343DA171205120DD21803691213C3
:1021B000D2180B4B9A4202DCD343DB1713409AB27E
:1021C000084B04317033490059184888904205D0B3
:1021D0004A801A7A022A01D101321A7210BDC04611
:1021E000FF0F000068F0FF1FF7B504000B010800A7
:1021F0000021E418A31CD9770134E67F1500019370
:10220000964206D0012A1DD057B28F4202D0022A30
:1022100005D0F7BD3900FEF707FCE777F9E7012E97
:1022200010D1FEF701FCE577019B0C4CDD77230014
:10223000310088331D687834EDB2200008F0C1FF0A
:102240002576E6E70121FEF7EFFB0121E177034C5C
:10225000230088331D687834EDB2EEE768F1FF1F84
:10226000F0B587B003900D001700541A00D5203444
:10227000002C46DD032633006B43039A7743D318C3
:1022800098784006400E07F077FB039B0090019181
:10229000DF19B87837004006400E07F031FB009A8E
:1022A000019B06F05BFF04900591200007F028FBDE
:1022B00002000B000498059906F002FA04900591BB
:1022C0007C36013C002C1CD001351F2D00DD002583
:1022D000049A059B0098019905F07CFE00220A4BA8
:1022E0000090019105F076FE05F004FC3B006B4385
:1022F000039AD318020098783240B0431043987084
:10230000DFE707B0F0BDC0460000E03F30B5CD24A8
:102310006400045D002C0AD1B224FF34045DE4079C
:1023200005D5104CC9B2246864184D342178D824DE
:102330006400055D002A08D00A00083AD443E41777
:102340001440D8235B00C45430BD2C00CA1AAA42E2
:10235000F4DBCA180C35AA42F3DD0A000C3AD21895
:10236000ECE7C04668F0FF1FF8B5CD235B00040022
:10237000C05C0D00FEF772FB002162230E000A0014
:1023800003275D433B0053435B19E3189B787F2B86
:1023900003D95B065B0EF618013101321F2AF1D119
:1023A00000290AD0300005F06FFA07F0A9FA0022E0
:1023B000054B05F00FFE07F06DFA01000323012223
:1023C0002000FFF7A3FFF8BD0000E03FF62370B543
:1023D0005B00C25C4A3BC254A4228021A23BFF3B6B
:1023E000FF32835409010132815205210025023256
:1023F000815402321349855004328152B022802127
:10240000FF3283544900153A81520F4902328150FC
:10241000082104328152B221FF310400425C0720BE
:10242000824313436354D9235B00E552200009F033
:1024300090F929002000FFF797FF200009F0ECFA3F
:1024400070BDC046647F00000B003200CD23F0B5A4
:102450000025A7B0019102925B00C65CAE4207D195
:10246000B223FF33C35C3500DB0701D52F4B1D685A
:10247000B023FF33C35CB21E039353425A4100247E
:102480009301049362232700019906AA4B43059305
:1024900003237B4305995B18C3189B787F2B42D994
:1024A0005B065B0E1360002D33D0EB184D331B78A9
:1024B00002995B1831D4CD218C46AC446146097831
:1024C0008B422ADAEB189B7801241360013704321F
:1024D000202FDDD1002C22D0622301990022594304
:1024E0001D339C460323950006AEAE5965466746EC
:1024F00053435B18C3182E409D780132BD433543CA
:102500009D70202AEED14018049A039909F06BF8C7
:1025100006E00299CB187F2BD6D9012ED6D0002405
:10252000200027B0F0BD00231360CFE768F0FF1F45
:1025300070B5E9256D00425D0400FF2A07D0D12364
:102540005B00C15C024808F094FEFF23635570BD38
:102550000509002070B5E82504006D00002917D09A
:10256000E9235B00425DC35C93420BD0D223D121AF
:10257000FF334900C35C415C0C4808F066FE200054
:10258000FFF7D6FFE8235B00E25C0233E25470BD44
:10259000FFF7CEFFD223D121FF334900E35C625D18
:1025A000615C024808F051FEECE7C04605090020D6
:1025B000F62310B55B000400C15C0748002214300C
:1025C000FFF712FEEE2200235200A3500432A35064
:1025D0002000FFF7ADFF10BDE8F1FF1FCF23F7B5D7
:1025E0005B0001910500C05C170007F089F900222B
:1025F000264B06F0B3FD264B002206F061F807F0EB
:10260000EBF99E23FF33EB5C061C022B1CD0032B43
:1026100025D00024012B20D1B223FF33EB5C9B0794
:1026200007D5DA235B00EA58533BD2B2FF3B534352
:10263000ED1860352C78019B1C1B002C01DA04344A
:10264000FBE701231C4008D0380005F079FC311C61
:1026500005F040FB05F054FC04002000FEBD08F02E
:102660008BFC390005F0F6F9080005F069FC8023C1
:102670001B06F11805F02EFB05F042FC040008F0E3
:102680007BFCC307E9D56442E7E7C0460000494048
:1026900000003A40F0B58BB00492E0225200029361
:1026A000835C03911D00022104000D4002D08B4386
:1026B000A35451E0F42149004158039E2800B1423F
:1026C00000D9CFE001218B43A354DA2362225B00BF
:1026D000E358B831DBB25A43A2181000FF31613021
:1026E00063580678B3422BD1CC235B00E05C002812
:1026F0000ED02433E358421E0133DBB2934200DB99
:102700002B00E3188933FF331A78DA235B00E25099
:10271000DA277F00E359DAB262235343E3186033C8
:102720001A78DC235B00E2509A23FF33E25C002A34
:1027300000D0B1E0E02201235200A15C0B43B7E7D7
:1027400060321778B74200D899E0013B6350002B04
:1027500000DB8AE01F236350DC27DA23FF227F009F
:102760005B00E358E1590325114005931A406223A9
:102770006943534308AEC91861182A00300009F0B4
:1027800083FB328809A90A80B3788B7007A90A8075
:102790008B702A00109809F077FB029B002B1CD04D
:1027A0001B78012B19D17F21029B9A78109B0A403C
:1027B0009B788B431343109A9370029B5B78012B99
:1027C0000BD13631FF31E25961580193D2B2C9B20F
:1027D0000095109B200008F0FCFFCE2345485B00CD
:1027E000E15C483008F035FEEC235B00E050109BC4
:1027F0001B785B061B0F0CD0049A934209DA032165
:10280000109808F0D6FE109B5A7810231343109AA4
:102810005370CE235B00E05CFFF7B4FA0502039827
:1028200007F0AAF8060028000F0007F0A5F802003C
:102830000B003000390005F043FF00222E4B05F05D
:10284000C9FB07F027F8DC2368435B00E15806006A
:102850006A0801312000FFF7C1FEF42380195B00F4
:10286000E0500120C0B20BB0F0BD1278934201DD00
:10287000625071E70278934200DB6DE7F8E70133BD
:1028800063501F2B01DD655066E70078834201DD50
:10289000605061E71278EEE7DE21C42549006358F5
:1028A0006D00E61876193678E651022A11D0032A0F
:1028B00019D0012A00D03DE7635DAE320133DBB2AF
:1028C0006355FF32A25C9A4200D333E7002363557D
:1028D00030E708F051FBD7235B00E15C013105F0E4
:1028E000B9F8615526E70133834201DA635021E7E5
:1028F0000023FBE768F0FF1F0000F83FD523F7B582
:102900005B00C35C012B06D00024022B06D1127899
:1029100000241A4202D0EC235B00C458F6230022A4
:102920005B00C55C914241DDA623FF33C35C090A0D
:10293000092B07D00A2B14D02C4B99424AD8FA20E5
:10294000400004E02A4B994244D896208000C023DE
:102950004843C021DB00C018090104F00BFF02004E
:1029600024E0CBB209120193CEB248292FD00C211A
:10297000300004F085FF1F4FC9B249000637CF5F12
:10298000F422019878435043C2171203120B121815
:102990001215BF180520472E04D80C21300004F072
:1029A000E9FEC0B205233A00181A02411104124888
:1029B0002E01AB1C002C0FD01B01C318861998697F
:1029C000F163081A210004F05FFF3064F7BDFA27B5
:1029D0003F01D5E7094AE9E71B01C3188619996148
:1029E000346414302900FFF7D5FBEFE7486200009C
:1029F000E451000018C20000E8F1FF1FFF0F0000C3
:102A0000F8B589230400070000251B01D034C6183F
:102A100034602000FFF7DAFC200008F0B1FEF62257
:102A200008CE52009D54F1340135FF34042DEFD10E
:102A30000023024ABB54024ABB54F8BDBC08000044
:102A4000C7080000F7B50D4BC35C002B15D0FA2664
:102A500076005E438923F6271B01C418084D103306
:102A6000C31801937F00143508CC3200D95D2800CB
:102A7000FFF790FB019B9C42F6D1F7BDC708000011
:102A8000E8F1FF1FF0B5D34B8BB0C35C0700002B00
:102A900000D14CE20023099308F03CFACE4B1840D9
:102AA00004D5102301385B42184301300024431C35
:102AB0000493CA4B03949B6D059308AD2800032132
:102AC00008F077FD89231B01FE18A300F0588C2322
:102AD0001B01FB5800950693A34200D040E1C04B78
:102AE000FB18049A0599FFF7D5FD002811D0102294
:102AF00008A94B7813420CD10D3A13008A20634386
:102B000000013818C01809F0BFF9012309AA1355AC
:102B100003930134042CD0D1039B002B00D106E297
:102B20000024049606940594AC233568FF33EB5CCF
:102B30000793023B012B09D803238A226343120126
:102B4000FB189B189B7806987F2B23D903238A2296
:102B500063431201FB189B18CD229B7852005B0641
:102B6000AA5C5B0E1804022A01D1403B1804A6237C
:102B7000FF33EB5C072B06D8013358430C237F212E
:102B8000584304F081FE0222079B9343012B01D19D
:102B9000069BC018B223F061FF33EA5C079353072A
:102BA00013D4B423FF33EA5C531E002A02D1F62368
:102BB0005B00EB5C032253438A22FB1812019B1833
:102BC0001B785B0701D5039B0593013404360690FF
:102BD000042CA9D1834B1A0060321278082A04D140
:102BE00008330599D86F08F0ECFA7F4B1A7A082A57
:102BF00003D10599D86A08F0E4FA8A231B01FB186F
:102C00000593049B1C68079BE35C5B0700D586E18A
:102C1000B426FF36A35D5A1E0392002B03D1ED3379
:102C2000FF33E35C0393D9235B00E25C531E002A6D
:102C300002D1F6235B00E35CD4225200A55E6B4A0E
:102C40002D049B189B00FB185B68ED189C23FF3339
:102C5000E35C012B00D185E0022B00D188E0D32377
:102C60005B00E35C052B04D0C022053B12035343F9
:102C7000ED185F4BFB5C002B0AD10322039B29005C
:102C80005A438A231B01D218BA182000FFF736FED8
:102C9000A223FF33E35C022B22D1564A7D339542B7
:102CA0000BDC554A0023954207DB80231B02E91801
:102CB000CB179BB25B181B14DBB2E4221804520042
:102CC000A050043AA158203AA25C002A5DD0EC231F
:102CD0005B00401AE15804F0D7FDE6235B00E050AA
:102CE000A25D531E002A02D1F6235B00E35C09AA11
:102CF000D35C002B00D112E1EE2300225B00E250F6
:102D0000039ADA3BFF3B53438A22FB1812019B18BC
:102D10005978CA0648D5EA235B00E2581833002ADE
:102D200077D0A223FF33E35C012B00D0F7E003222E
:102D30008A21039B09015343FB185B181B7813423C
:102D400000D1B7E0002D00DBBDE02C4BEA18D51711
:102D5000ADB2AD182D14002D00DDB8E00C35FAE74A
:102D60000023BEE6EB43DB171D402D142D0476E750
:102D7000EA431A4BD21715401B682D14EDB25D19AA
:102D80004D352A789B189D78F0E78842A8D0E2223A
:102D90005200A050D121A4224900FF32A25C615C04
:102DA000174808F03EFA9BE7022001221B781840E2
:102DB000134202D10B071B0F24D0F2267600002805
:102DC0002AD1D0235B00E35C002B57D0102B57D1C6
:102DD000A05123E0BC0800000F00008068F0FF1F36
:102DE000C4080000E8F0FF1F68F1FF1F2A0200007E
:102DF000C7080000FF7F7F000180FEFF0080FFFF0B
:102E000005090020EA21490000284ED06350F6232E
:102E10005B00E15C89482DE00023A351F2235B00B5
:102E2000E258103BE250039AD23BFF3B53438A22C5
:102E3000FB1812019B185E783607360F31D0CE236F
:102E40007F485B00E15C483008F003FB10239E1BC9
:102E50004643013BF01718408019CE330011FF3371
:102E6000E050EE235B00E2580433E25002220C33C0
:102E7000E15C72481430FFF7B7F952E70523CCE75D
:102E8000CE236F485B00E15C483008F0E2FAD023C3
:102E90000F225B00E35C4343D8171040C0180011B9
:102EA00096E7EE235B00E650DBE76258002A00D08D
:102EB00037E7ACE7EA235B00E358002B2FD1200073
:102EC000FFF736FB2BE080231B02ED1842E77F2D36
:102ED00001DD0C3DFBE7E8235B00E554039ACE3BA4
:102EE000FF3B53438A22FB1812019B181B785B0798
:102EF00054D5AE23FF33D222E35CFF32A354032325
:102F0000039A002153438A22FB1812019B181B7855
:102F10009A0701D5013199432000FFF71BFB049B61
:102F200004330493049A059B934200D069E68923F5
:102F3000EA261B01FD181033FB1803937600B22319
:102F400004222C68FF33E35C13424DD1A259002ABE
:102F50000DD0013AA251002A09D1F62337485B006F
:102F60001430E15CFFF740F92000FFF7E1FAE620BA
:102F700040002758002F24D0E2225200A3581914F1
:102F80008C46E421FB18A35049006158002F08DD4E
:102F90008B4208DD0023A150235004E0D6235B00C0
:102FA000A9E78B42F6DBA3581B149C4509D0A42249
:102FB000D121FF324900DBB2A25C615C214808F0FC
:102FC00030F9EE235B00E358002B06D0F0235B00C2
:102FD000E758002F0ED0013FE750EC225200A358D3
:102FE000002B27D0013BA350039B0435AB42A6D155
:102FF0000BB0F0BDF62311485B00E15C02221430F7
:10300000FFF7F2F8F2235B00E358A351A223FF334A
:10301000E35C012B08D1D033FF33E35CFF2B03D0FB
:1030200039002000FFF796FAEE235B00E2580433E4
:10303000E250D2E7EE225200D5E7C046E8F1FF1F8A
:1030400068F0FF1F05090020D523F0B5284C85B096
:103050005B0005000191238001000222254808F051
:1030600013FF89231B01EF181033EB18224D039334
:103070003E68280031008931FF312C2208F004FF1E
:1030800002952C3531002800622208F0FDFE029BDB
:103090006235B533FF3362369D42F3D1039B04376B
:1030A0009F42E5D100231A001449A05C0132C318E5
:1030B000DBB28A42F9D1A0210020A3540901635C4C
:1030C000DBB2834211D10E4A0138A05001980D4A5B
:1030D000A05002004A430C4822500C4A0C48A05011
:1030E0000432A35004230120635405B0F0BDC04650
:1030F000E8FEFF1FEAFEFF1FECFEFF1FD4060000E4
:10310000180A0000040A0000080A00000C0A000067
:10311000D5060000F8B5224C0700200021495030A8
:10312000002208F00BFA8923B2251F4E1B01F35829
:10313000FF355B5D1D495B0700D41D49200001225E
:10314000503008F0FBF91B4B1849F3585B5D5B07E7
:1031500000D4194920000122503008F0EFF9174B34
:103160001249F3585B5D5B0700D41549200001222A
:10317000503008F0E3F9134B0C49F3585B5D5B07E3
:1031800000D41149250050352800012208F0D6F955
:10319000B969280008F096F900236367F8BDC046B6
:1031A00068F1FF1F69C7000020F6FF1F42C600003C
:1031B00044C600009408000004C7000098080000FE
:1031C00046C600009C08000027C60000F8B50700AE
:1031D00051373B78134931330B70134C03002600F1
:1031E000002252331B7850364133050030004B70BB
:1031F0008A7008F0A3F989223B7892009B180B4A49
:103200009B009A58B223FF33D35C5B0704D501229D
:103210000749300008F092F92000A969503008F001
:1032200051F9F8BD440B002068F1FF1F20F6FF1F85
:1032300042C6000070B588780C00CD211500049AB4
:103240004900515C4006400E002915D0012901D1EA
:10325000002B01D0401905E00A2104F015FB4519A7
:103260000A206843002398421FDA7F21A2780B408E
:103270008A431343A37070BDB221FF31525CD20761
:10328000E8D5002BE6D10B4B1B6818184D300078A1
:103290002818C243D21710401A00CD321278824249
:1032A00000DC501EC0B21818807803007F28DCDDD7
:1032B0007F23DAE768F0FF1F70B5436A04000C4D06
:1032C000002B0FD02E00503619000022300008F0DD
:1032D00035F901233000E269A16A08F047F90023BB
:1032E0006B6770BD2800E2695030A16AF5E7C046FF
:1032F00068F1FF1FF8B50500501E0E0017001C00F6
:10330000052806D804F022FA0317275580C4002B9D
:1033100001D100270DE0622052352B785843CD2390
:103320005B000818C95C02394B425941890108F019
:10333000EDF93800F8BD002BEBD00800FFF738F9A5
:103340003000FFF743F8300008F01AFA0023523536
:103350002B700127EDE7002BDBD00323013CE7179F
:103360001F405F4B3F19BF101C4004D50423013C94
:103370005B421C4301342B0052331978013B1A780D
:10338000FBB2E4B29A4201D18C42C2D062225143D4
:1033900067357118280008F077FD8923FFB29B007C
:1033A000FF18504BBF002A002100F85808F012FB0C
:1033B000CFE7002BADD05135013C2B78E4B2A342CE
:1033C000A7D08927BF00474EE419A400A059FFF7F2
:1033D000EFF82B78A059DB199B00995903000A00DC
:1033E00089338932FF33FF3270CA70C370CA70C329
:1033F00070CA70C3B530B53130CA30C3FF3138221E
:10340000FF3008F041FDA4E7002B00D181E75135E2
:10341000013C2B78E4B2A34200D17AE78927BF00B0
:10342000304EDB199B009859E719FFF7C1F8BB0034
:103430009859FFF7BDF8892329789B00CB189B008A
:103440009A599B19022908DD0321274B8C4208DA7F
:10345000186801395860043BF8E75868013101C326
:10346000F0E78923BF00F2511B01F258F623002137
:1034700001275B00D1541D4A0231B258D7541C4A6F
:10348000B258D1541B4AC919B258D1542C7050E7C4
:1034900053352978002900D13BE7012B19D1114878
:1034A00008F0DFFAA021144B09015F5CFFB2002F86
:1034B00000D02EE72A78012510486D421D50104893
:1034C0001A504A430F481A500F4A104898505C54FB
:1034D0002FE7022B00D01CE70248FFF7B5FD18E7E5
:1034E0000300008020F6FF1FB8FEFF1F94080000B5
:1034F000980800009C080000E8FEFF1F180A000062
:10350000040A0000080A00000C0A0000D5060000AA
:103510000300F0B5523389B0029203931F78836998
:1035200003220C00D9B2622351437B4305AEC91874
:1035300061180500300008F0A7FC328806A90A804F
:10354000B37804AE8B7002A98A828B753280B37017
:10355000029B581E05281CD8002204F001F9060021
:10356000260026001A001D00F600CD235B00E35C58
:10357000002B00D0CCE06222032157430A005A43BB
:10358000D219A21892787F2A00D9C1E001331F2BEB
:10359000F4D1002009B0F0BDB17803234906490EEB
:1035A00000222000FEF7B2FEF3E72B690A2B29D098
:1035B000122B0AD0062B74D1029B0121022B00D1C1
:1035C00049422000FDF75CFAE3E7029B0122022B4F
:1035D0000FD1524239002000FEF738FF002802D0F8
:1035E000EB69013BEB616648E969503007F08AFFFF
:1035F000CFE739002000FEF729FF0028F3D0EB6960
:103600000133EFE7009229002022202352421C318F
:103610000298FDF74AFA0028E5D0039B03211F78A2
:10362000029B07A8022B1ED162267E4307F0C1FF32
:10363000A119032207A808F027FC33005D33029389
:10364000E11CA0198919032208F01EFC029B033615
:10365000B342F5D16220784320185D30032207A9D8
:1036600008F012FCBFE762267E4307F0A2FFA11913
:103670005D31032207A808F007FC33005D3B02938D
:10368000200021005D305A3180198919032208F089
:10369000FBFB029B033E9E42F2D16220784320183E
:1036A000DCE7B2787F2A44D86223002203215F43FB
:1036B0000B005343DB19E3189B787F2B0ED80132A4
:1036C0001F2AF5D1CD235B00E05CFDF7C7F97F220F
:1036D0000300B078134090431843B0708023B27851
:1036E0005B421343B3706B789B0705D53388254A3B
:1036F0001A40012313433380AB690327DAB2039BDB
:1037000020001978002300970193330008F061F836
:10371000B17820004906490E03230022FEF7F6FD8A
:103720002800B27818305206520E2100FEF714FC21
:103730002FE70122029913400094032900D0023A96
:1037400031002800FFF776FDD6E72B69122B09D050
:10375000422B0FD00A2B00D01BE700220848EA6159
:10376000094903E0EA61002205480849503007F0A2
:10377000E5FE0EE739002000FEF7F6FD09E7C0463A
:1037800068F1FF1FFEF0FFFF4DC6000048C60000B5
:103790000300F0B59DB002AF523379627B611B78B4
:1037A00085693B62EBB21600FB610322BB616223B9
:1037B0000400386AE9B251434343C9187B6A2820A0
:1037C000591808233818C01808F05EFB3223362138
:1037D0003A8EFB18BA861B78791828200B703C218A
:1037E000381841180A808B70BA852E22701EBA18BC
:1037F000137007280CD803F0B3FF08007800780096
:103800000B00C1020E00BD00BD0000232564E36172
:10381000BD461BB0F0BD2369212B21D00CD8032B52
:1038200027D0112BF4D102232000E3632A33183070
:10383000F918FEF719FCEBE7412B23D0812BE7D1D8
:10384000CF237A6A5B00D14DD15C5035E16128000D
:10385000002207F046FE2800A16907F033FED7E7F3
:1038600003232000E36329331830F918FEF716FC10
:10387000CEE701232000E3632B331830F918FEF75D
:1038800027FCC5E7B2237A6AFF33D35C9B0723D5B5
:1038900062223B6A5A437B6A9A18130060331B7892
:1038A00061321278934202DD190013000A0062258A
:1038B0003E6A00206E43B446511CC91A934210DC84
:1038C0001F2B0EDC03255D437E6A6544AD5D01263A
:1038D000354040199B19F1E77B6A7A6A60331B789F
:1038E000DEE7E061FEF70CFC92E72369212B00D1B3
:1038F00095E041D8032B00D1C7E0112B5CD0E369E0
:10390000032E00D0B8E1002B00DC79E11E2D31DC64
:10391000622301353A6AE9B253437143C9187B6A9D
:1039200028205918102338183200C018A56108F053
:10393000ABFA3A223E213B8FBA18BB87127879182E
:1039400028200A703C21381841180B808A702E21DB
:103950007918BB850A70022213432A32BA181370F1
:103960000023009601932C33EAB2FB18396A786A77
:1039700007F02FFF002350E0412B00D1A4E0812B62
:10398000BDD10025210000954B2319221C313000A8
:10399000FDF78BF8A84200D13AE7CF23E269796AB4
:1039A0007A4E5B00CA545036E16930002A0007F0B5
:1039B00098FDA169300050E72C23282000253C21E8
:1039C000FB181B7838185B061B0F7B6641180F230A
:1039D0002A0000953000FDF768F80F237A6E7821F1
:1039E0001340DA002C23FB181B788B4313432C2243
:1039F000BA181370A369DAB27B69197803230195A9
:103A000000932933FB18786A07F0E3FE2C2320008B
:103A1000F9181830FEF728FB0223E363F8E62D239C
:103A20000022FB181B7830001B071B0F7B660092DF
:103A30000F23FDF73AF82D230F22FB181B78796E20
:103A4000934311400B432D2179180B70134207D07B
:103A50002C23FB181A78012313432C22BA18137055
:103A6000A3690325DAB27B691978002300950193D5
:103A70002C33FB18786A07F0ACFE2C232000F918D1
:103A80001830FEF70BFBE563C2E6033E2C217242C1
:103A900056417918B2000E7804218E4316432C2229
:103AA000BA181670002200932C230192FB18FA69B1
:103AB000396A786A07F08DFE2C232000F918183037
:103AC000FEF706FB0123A8E7B2237A6AFF33D35C33
:103AD0009B072FD562233A6A53437A6AD3181A0098
:103AE000603212783A6261331B783A6A9A4201DD99
:103AF0003B621300002521003A6A01339B1AFB61E7
:103B00000095FB692A001C313000FCF7CEFFA8426B
:103B100000D17DE62300523319786B46BB60FB6908
:103B2000E269AB4201DBAA420ADABB68F9699D4649
:103B3000E069D7E67B6A60331B783B627B6AD2E739
:103B40006846FB69013BBB61FB690733DB08DB00AF
:103B5000C31A9D46092002AB3B611D70FB69684496
:103B6000023B002B03DB0570013B0130F9E7002627
:103B700001203300FD69B5420AD09B189D4202DC4A
:103B80005B1B3D69A8550136F4E7C04668F1FF1F8D
:103B900062234B43FB6020237B61FB687B60032532
:103BA0003B6A02215D43FB68E8187B6A181807F03E
:103BB00000FD7B68BA69ED183B69995C7B6A4A1E17
:103BC00091410122EB5C93437A6A0B43AB54551944
:103BD0000F226B7893436B703B6A01333B621F2B60
:103BE00001DD00233B62BB690133BB619E4201DC06
:103BF0000023BB617B69013B7B61002BCFD194E744
:103C0000236C9D4235D162233A6AB96953437143AB
:103C1000C9187B6A28205918182338183200C01890
:103C200008F032F940234422FB181B88BA1813808D
:103C300042224621BA181278791828200A703C21AD
:103C4000381841180B808A702E217918BB850A70AC
:103C5000022213432A32BA181370002300960193EC
:103C6000396A1300786AFA6907F0B3FD0123E3614A
:103C700080E60135A5617DE6002B37DA002D00DCFA
:103C800078E6282220230325BA18D618B9693A6A9B
:103C9000423353436943C9187B6A2A0059183000DC
:103CA00008F0F2F824232822BA18D11833882820E3
:103CB0000B80B27838188A703C2141180B808A70CA
:103CC0002E217918BB850A70FD221340D13ABA180B
:103CD0001370002300950193396A1300786AFA691A
:103CE00007F077FDA369013BA36143E6226C6223E1
:103CF000954231D128220325B9188E183A6AB9693C
:103D000053436943C9187B6A2A005918300008F0E8
:103D1000BBF828222C23BA18D118338828200B800E
:103D2000B27838188A703C2141180B808A702E2195
:103D30007918BB850A70FD221340D13ABA18137066
:103D4000002300950193396A1300786AFA6907F035
:103D500040FD01235B428AE72821302203257918A0
:103D60008E183A6AB96953436943C9187B6A2A00B5
:103D70005918300008F088F8342394E7E66B002ED9
:103D800000D045E5282238230324BA18D518B9698C
:103D90003A6A2A3353436143C9187B6A220059188F
:103DA000280008F071F828223C23BA18D3182A8872
:103DB00028201A80A978381899703423C31828202D
:103DC0001A809970012530233818C318280099707B
:103DD000D1B28843A943014319700F21120A8A43C3
:103DE0005A7001960094FA69396A786A07F0F1FC12
:103DF0000EE5C046F0B504008BB0501E03911600CE
:103E000007281AD803F0A2FC046161191B2F19C5F9
:103E1000A3690322D9B22300523318786223514395
:103E20004343C918039B06AD5918280008F02CF825
:103E30002A88AB7864342280A3700BB0F0BD2300D5
:103E400050331A78D2070CD42200513212786264AF
:103E5000220052321278A264A269E26405221A702A
:103E6000EBE70022FBE72369442B14D0842BE4D139
:103E70000422A31CDA774F331A784C21531CE361D8
:103E80000523E362474B31325A70002219709A7051
:103E90006362454B14E00322A31CDA774F33197891
:103EA0005A788B0001339B18E3611123E3623F4B87
:103EB00041325A700022313119709A7063623C4B62
:103EC000A3622000FFF7F8F9B7E723690227052B63
:103ED00003D0013F062B00D00237230001255033C9
:103EE00004931B782B4210D12A003100200007F0E8
:103EF000C4FD2300A269523421786433D2B2019503
:103F00000097039807F065FC97E78922636C92009D
:103F10009B18284A9B009858FF23E16CA26C19401B
:103F20001A4094460B0003225343622105936346D3
:103F30005943059B5918411808A807F0A5FF04AA82
:103F4000118A09AB1980927C9A7007AB19809A701C
:103F500006AB198021009A70A26952310978D2B259
:103F600003980195009707F034FC2A0031002000E7
:103F700007F083FD21001F2300224C310095300003
:103F8000FCF793FD049B1A7802231343049A1370E1
:103F900053E750342278930700D54EE704231343A8
:103FA00023704AE7470B002015C60000440B002091
:103FB000D1C5000020F6FF1F70B50400901E0D0053
:103FC000160006280DD803F0C1FB27270C040D0CA2
:103FD0003F00A3695234DAB221780323280007F0A6
:103FE0005BFC70BD2369482B07D0882BF9D10223D5
:103FF000A21CD3770022E26105E00122A31CDA773C
:104000000023E3610233E362184B20006362184B24
:10401000A362FFF751F9E4E72200523211782369D5
:10402000A269D2B2092B0BD00A2B0BD1093B280075
:1040300007F032FC01223100200007F01EFDD0E71E
:104040000223F4E70323F2E7230055331B789B0791
:10405000C7D4A3692800DAB22300523319780323A6
:1040600007F01AFC01220821E6E7C046C3C500009C
:10407000C9C50000F0B50400501EA5B00F00150022
:10408000072818D803F06CFB080019001900170066
:104090001700B0001700F500230062222000523301
:1040A000197867305143791807F0EEFE754B5B6D58
:1040B00023630023E36125B0F0BD210000262369BE
:1040C0001C310096302B22D1343332002800FCF70B
:1040D000ECFCB04208D0236BE26938009A18230048
:1040E0005233197807F0F2FBE169674C0022250092
:1040F000230050355133DA772800643207F0BFF9D6
:1041000081235B006B84FA239B006367D3E76422FF
:10411000642352422800FCF7C8FC0028E4D02500A4
:104120002200523529786732380007F053FC2B788B
:1041300062255D437B190693B023FF33FB5C226B42
:104140000793CD235B00FB5C0392E269023B05927F
:104150005A4253419B01089306F0DCFE09900398F4
:1041600006F0B4FE039604950323039A5343049A7E
:104170009B18FB189E7806F0CDFE050006F0CAFEDF
:10418000FF21059B0D400840281A584303F07CFB93
:104190007606760E86197F2E22DD7F260323039A6C
:1041A0005343049A9B18FB1899784A06520EB24260
:1041B00008D080207F2240420843C0B2164090437E
:1041C00006439E70039B01330393202BCCD10698AA
:1041D000089A079907F007FA099806F077FE83E72F
:1041E000F043C0170640D9E72369142B3BD01ED8F3
:1041F000112B3AD00025122B00D05CE72600523656
:104200003378AB4200D156E70BA807F0DEF9622203
:1042100031780BA85143791807F036FEE9B20BAAA2
:10422000380007F0D7FB184D0022503512E0182B4C
:104230001DD0502B00D03EE72300622220005233D5
:10424000197867305143791807F01EFE00220E4D91
:10425000E261503528000D4907F070F9A169280086
:1042600007F030F927E70225C8E70125C6E703254F
:10427000C4E72200523467322178380007F0AAFBE5
:1042800019E7C04668F0FF1F68F1FF1FBEC50000B8
:1042900070B50500501E0C001100072811D803F05E
:1042A00055FA04111110072410BFAB696B6308E0C5
:1042B0002B0052331A78DA235B00E250AA690433E8
:1042C000E25070BD2800002207F0D7FBA9696B6B94
:1042D000A9637048994206DDC91A002201315030A5
:1042E00007F0FFF8EDE7591AF7E72B69282B5CD0A8
:1042F00007D8222B7ED0242B7ED0212BE1D1012385
:1043000054E0602B19D0A02B42D0302BD9D1624A77
:104310006933FF33E25206F02FFED7235B00E15CE6
:10432000013103F097FBC42300225B00E15459489C
:1043300034335A49E250503014E09A23DE21FF33DF
:10434000E65C52355348013B4900002E0DD0C4268F
:1043500000227600A255E252625029781C33E150C7
:104360004F49503007F0EAF8ABE72A78C025AD0096
:10437000E5526650D7214900615C914204D3012186
:10438000E154C4235B00E254503000224549E9E780
:10439000C423002202215B00E254FF311033E152BA
:1043A0002433E2503B484049C5E70323D722297D07
:1043B0005200DBB2A25C374801291FD8CC21C025AE
:1043C0000026AD0049006552453DFF3D66519A42C9
:1043D00022D3012262548832FF32A354503000228B
:1043E0003249050007F0AAF8CC235B00E15C01220A
:1043F000280075E70023D9E70223D7E79A420BD3B9
:10440000CC214900625C0F2A06D8551CA2188932BB
:10441000FF3265541370E1E7503000222449A1E7D0
:10442000AB6B002B20DBB221FF316B6B605CDAB22F
:1044300083071DD4230060331A7062331A709223ED
:104440005B00E2546233E254AB6B625CDBB2920716
:1044500017D4220061321370623213702622FF32A9
:10446000A3548822FF32A35401235B42AB631DE7B0
:104470002B005233187862234343E31860331A70D9
:10448000E2E72A005232117862224A43A4186134CA
:104490002370E9E768F1FF1F010200000AC5000070
:1044A0000FC5000014C5000019C500001EC500009E
:1044B00020C50000F0B50400501E85B00D001600A8
:1044C000072809D803F042F9040E0E080A28088CC0
:1044D000D7235B00CB5CE36105B0F0BD2000FEF7A5
:1044E00075FEF9E7230055331B789B0707D500229B
:1044F0002100009203231C313000FCF7D6FA484D0E
:10450000002350352800E269464907F02FF8A169D9
:10451000280006F0D7FFDFE72369442B33D00AD801
:10452000412B48D00026422B2ED004235034227831
:1045300013432370D0E7482B3FD0C02BF5D1052281
:104540000021A31CDA77A1624F331B78E262581C6A
:10455000E0614C20344A1070180031305070917076
:104560006262022B09D0032B09D0012B09D12F4BFA
:10457000A3622000FEF7A0FED7E72D4BF8E72D4BF6
:10458000F6E72D4BF4E70226D7277F00E85D864249
:1045900015DD62230130C0B258433933FF33E95C83
:1045A000281802394B425941890107F0AFF8EB5DF9
:1045B0000133EB55EAE70126E6E70326E4E72300AB
:1045C00052331E70EB5DE3619A23FF33EB5C002BEB
:1045D00002D1B533FF33EE502000FEF7F7FDA4E71C
:1045E000D7266227E36976000293A95D029B8B427E
:1045F0000DDD4B1CDBB2180079437843691828188D
:104600006222039307F040FC039BAB55EDE7029B4E
:10461000AB55E36952342278934200DB5CE788E7CC
:1046200068F1FF1F36C50000470B00204AC5000097
:1046300067C5000084C50000A1C5000010B5042AAC
:1046400002D0062A10D010BD53300378022BFAD9BD
:104650004D22314931480A7000222E3350304B70C0
:104660008A7006F06BFFEEE70100002353310B70F8
:1046700003692B4CA34245D029D82A4CA3423AD0F7
:104680001DD8294A934239D00A78002ADBD0062166
:10469000831CD977002383620133C3610233C36271
:1046A00047311D4B022A33D152321A705970002201
:1046B00043629A701D4B8362FEF7FEFDC3E71C4CFC
:1046C000A3421DD01B4CA342DED10A70DCE781223D
:1046D0009201934218D004D8174A9342D4D10823A8
:1046E0000AE082229201934210D0A0221202934249
:1046F000CAD1022300E003230B70C5E70423FBE7C4
:104700000523F9E70723F7E70923F5E70A23F3E78A
:104710002E3219705A70CAE7410B002068F1FF1F52
:1047200010200000022000000120000025C500002C
:10473000042000000820000020200000030089223F
:10474000F0B5070001248DB0513302931B7892001D
:104750009B18BE4ABE4D9B009B582800019306F053
:1047600059FD7B78234234D0CD23019A5B00D35C82
:10477000002B10D0022B29D0012600237642B54A07
:10478000B5490F2E25DC0C2E01D8B0001150002B9E
:104790001FD0F618F5E7D823019A5B00D65CB22348
:1047A0003000FF33D35C0F30DB0707D5072103F060
:1047B0006BF807235843361A0C36E0E70C2103F058
:1047C00063F80C23241A5C43A619D8E7002340267B
:1047D000D5E78022BB691206DA400021D4439F4B03
:1047E0001868013120401860186C04331043D863F6
:1047F0000D29F5D13B003A0050331B785232DB07CC
:1048000016D5029B796C1B78994211D11378B96C3B
:1048100099420DD180232800F96C1B06CB40DC3077
:104820000168194301602900FC31086A03430B62E7
:10483000DC2301995B00C958802328001B06CB406C
:10484000E4300168FC3519430160A96A0B43AB628F
:10485000BB6B0393002B00DA7FE07B6B0593002397
:104860008024049324060293059B039A934200DC60
:1048700090E01300029A93420FDC059B93420CDBFD
:104880000321049A724B0A4200D07EE0E4331A6896
:1048900022431A60049B013B04933B0052331E7871
:1048A00003216223029A73435143C918019B0AAD45
:1048B00059180322280007F0E7FA2A880BAB1A8060
:1048C000A978997009AB1A80997053061B0F06934B
:1048D00013051B0F079308AB1A809970CD23019A1B
:1048E0005B00D25C4806400E012A6DD10A2102F01D
:1048F00041FF0C23C0B2181ADC23019A5B00D25886
:10490000029900238A420CD15049554A8A5C9A4246
:1049100007D0B533019AFF33D3589B1B5E427341D6
:10492000DBB20C280DD8002B64D00100484A3A3184
:1049300089008D582A3025438D50800081582143AD
:10494000115008AA11780322F86B0A40032800D9F5
:104950008FE002F0FBFE68B989B7B2230199FF33FB
:10496000CB5C9B070BD5622312785343CB181A00FC
:1049700060321278059261331B7803936FE7019BD5
:1049800060331B780593019BF5E7FC339A6A224359
:104990009A627FE7059B029A934200DD7DE7039BC5
:1049A000934200DA79E70321049A294B0A4206D19F
:1049B000E4331A6822431A60049B01336CE7FC332A
:1049C0009A6A22439A62F7E70300002A0AD1B222C8
:1049D0000199FF328A5CD20704D5224A1068C018B8
:1049E0004D3003780C20C01AD823019A5B00D35CA9
:1049F000181881E708AA9578E143154A7F2D0AD94E
:104A000005002A35AD0056593A30264356518000EC
:104A10001558294094E705003A35AD0056592A301B
:104A200026435651F3E702220A40C9071FD5002A40
:104A30004DD1074A1000E0321568FC30416A254329
:104A4000002B44D1A1431560416212E020F6FF1F04
:104A5000940900207C0A0020111111113C0A002049
:104A6000BC08000068F0FF1F06990029DFD1002A6A
:104A700063D1029B640801330293202B00D0F3E63C
:104A800054373B78002B31D0324B03221900FC31D4
:104A9000486A10434862886A104388621900180007
:104AA000E0310C68E43094430C600168914301608C
:104AB000B2320198FF328058032817D802F046FE20
:104AC0001233363A0799D0E74907D0D5AFE7214BE3
:104AD0001900E0310A68FC3322430A605A6A224313
:104AE0005A62C6E70222E03322431A60A0231A4A20
:104AF0001B01D35C002B14D0164B03221800A830E6
:104B00000168114301601800AC3001681143016075
:104B10001800E8300168EC331143016019680A435A
:104B20001A600DB0F0BDE0330122DDE70222E4336C
:104B30000A43DAE7E4330122FAE7064A1000FC32BE
:104B4000556AE03001682543002BC0D1A1430160C4
:104B500055628EE794090020E8FEFF1F013870B50A
:104B60000C00082852D802F0F1FD0A1F2B302B262A
:104B70003C2E2E007C3B59424B410132E41A002A64
:104B800004D01378002B01D0002CF3D1002321484E
:104B9000D15C002904D07C2902D0C1540133F7E74D
:104BA0000022C2541B4870BD00230222481C194930
:104BB00006F06EFFF6E70023022216492000F7E711
:104BC00000230322F9E70123F6E7124D0023012217
:104BD0002900200006F05CFF56236B700023AB70A9
:104BE000E0E7CB1707210B401B190A4ADB100A48E4
:104BF00041331370044004D50820013C4042044373
:104C000001340023313454709370CBE70022014B00
:104C10001A70C7E7380B002007000080F0B58DB090
:104C200006000F0014000021142207A807F035F930
:104C30000020874269DBF8235B00F35CBB4264DD44
:104C40000C25F6237D435B00F3585D192B68059313
:104C5000834261D0FA235B00F3580490BB421CD11D
:104C6000FE230122FF33F35C0492022B15D1F832AC
:104C7000FF32B75804930026059BB200013B013672
:104C8000995D00290ED005230293002307A8009008
:104C900001932648FCF7C8FFEEE72879FCF744F8B3
:104CA0000700E8E76879AA683900FFF757FF102581
:104CB0000600052731781D4800290CD07C290AD030
:104CC000002307AA009202972A000193FCF7ACFF89
:104CD00001360435EEE7230000222A339B00C31877
:104CE00001251000170007AEA1180F2909D8049854
:104CF0009100895901280AD0196402280AD01F603E
:104D0000280001320433052AEED10DB0F0BD080CA5
:104D1000000418641960F3E70F2CF6D801223A3426
:104D2000024BA4005242E2500120EEE79409002019
:104D3000FE23F7B55B00C35C0700002B59D02D485C
:104D400006F068FAFA2305265B00FC58F43BFF3BAB
:104D5000013C0093002C1CDB009B002B19D00C2580
:104D6000F62365435B00FB5801935D192879FCF736
:104D7000A1F800280BD02A680623002A00D1043BA2
:104D8000F61A320021003800FFF748FF0090013C7E
:104D9000E0E7FA2305255B00FC58F43BFF3B00935A
:104DA000F8235B00FB5CA3421FDD009B002B1CD0A3
:104DB0000C23F626634376000193019ABB599B1896
:104DC0001879FCF777F800280DD02A002100380068
:104DD000FFF724FFBB59019A00909A580623002A36
:104DE00000D1043BED180134DAE7FE2300225B001A
:104DF000FA54F7BD9409002070B50400081F15008F
:104E0000172826D802F0A2FC0C785057803134368F
:104E1000383F484A2E3A44464C7A7C4E8A8C8E9AC9
:104E2000D5B2012D16D0002D01D0022D07D1B0230F
:104E30000122FF33E254A6230732FF33E254CD238D
:104E40005B002000E55406F084FC00212000FDF703
:104E50008BFA70BDB0230222FF33E254A6239218CE
:104E6000FF33EBE79C23FF3356E0CE235B0053E098
:104E70009E23F8E7CF23F9E7D023F7E72000FDF7DB
:104E800057FBA223EFE72000FDF752FBD123EDE70C
:104E9000D623EBE7AE23E6E7A423E4E7D223E5E756
:104EA000A623E0E7D523E1E7B023FF33E254200057
:104EB00006F04FFCCDE7002A13D023002100603319
:104EC0001A7801331B78C2310A704B709221490065
:104ED00062542621FF316354613162548822FF32CB
:104EE000A354B22201230221FF322B40A55C5B00B8
:104EF0008D431D43A554ACE7AC23B4E7D323B5E7FA
:104F0000D4235B00E252A4E7B2230121551EAA413B
:104F1000FF33E55C8D431543E5549AE7D923A5E7B4
:104F2000B423A0E7F6235B00E25C084B9200D318A1
:104F30005D6100211220FCF79FF88AE7F6235B00F1
:104F4000E35C024A04339B00F1E7C046E8F1FF1F2F
:104F5000233970B5030014000800082919D802F09D
:104F6000F5FB0519242A303E363A2200100004F0E1
:104F7000C7FC00221C4B03F07FFE00221B4B03F0FA
:104F80007BFE00221A4B03F09BFB1A4DA865E965D6
:104F90006C6570BDD1B21800FCF71EFF00210A201D
:104FA000FCF76AF8F5E75A70F3E71248D1B2083017
:104FB000FCF7F6FEF2E70F48D1B2603006F081F957
:104FC000ECE70C48D1B26030FCF7F8FEE6E70A489F
:104FD000D1B20830F2E70848D1B20830F4E7064B06
:104FE00030331A70D5E7C0460000384000007040EA
:104FF000004CED40E8F0FF1F68F1FF1FF8B504001A
:10500000481E16000B2858D802F0A0FB067689A38C
:1050100057575757575757B1FA235B00E558FE23A8
:10502000FF33E35C013B012B1ED9F6277F00002EE6
:1050300060DA013D002D40DBF8235B00E35CAB420E
:105040003BDD0C236B43E259D3181A68002AEED0DB
:105050001879FBF72FFF0028E9D0FA235B00E55011
:1050600008330122E25428E0FC235B00E058ED3BCA
:10507000FF3B5D43E133FF33E35816185D19687950
:105080000022431FDBB2042B02D83D4A1E32D25607
:10509000964212DB0138082828D802F057FB0F2966
:1050A000051C1E27212325007F239E4205DCFC23AF
:1050B000344A5B00E6500433E252F8BD0023A9688D
:1050C0000029F2D00A78002AEFD07C3A50424241BF
:1050D00001319B18F4E70823E7E796235B00E4E738
:1050E0002723E2E76323E0E71823DEE70023DCE77A
:1050F0000F23DAE701359DE7022ADED1FA230C22DD
:105100005B00E158083B4A43E3589B181879FBF7CA
:105110000BFEFC235B00E050FE23FF33A1E7FE25DE
:10512000FF35635D022B11D10C22F333FF33E158BD
:10513000083B4A43E3589B181879FC235B00E1586D
:10514000FCF7DCF8FE2301225B00E25400236355E8
:10515000B3E710008138072809D802F0F7FA0B04EA
:10516000080D0808080F00210B20FBF785FFFE2320
:105170005B0076E70121F7E70221F5E70321F3E77A
:1051800018C200000102000007B51100062A07D06E
:10519000082A46D0012A02D100230130C37707BD77
:1051A0000369254A93422BD00ED8244A93421AD041
:1051B000234A93421FD0234A9342F0D10223224A2A
:1051C00000930121214B13E0214A93421DD0214A33
:1051D000934220D0204A9342E1D103231F4A0093F7
:1051E0001D211F4B04E00223082100931D4A1E4B82
:1051F00006F07EFCD3E703231C4A00931C4BF7E721
:1052000002211C4B00911C4AF2E702231B4A009327
:1052100007211B4BECE702231A4A00931E211A4B6D
:10522000E6E70023421CD377FA2243628362174BDE
:1052300092005A67B3E7C046088000000280000071
:105240000480000001800000B8C40000B0C4000069
:10525000208000004080000010800000EBC40000AF
:10526000DEC40000AAC40000A2C40000CAC400003A
:10527000BEC40000D0C40000D8C40000F8C40000C0
:10528000F0C4000005C50000FEC4000068F1FF1F67
:10529000F7B50400501E0B0007280AD802F056FA92
:1052A00004151B09091D090A01225534237893436B
:1052B0002370F7BD55342378DB07FAD50022314B34
:1052C0005133DA77FBF766FEF3E701214942180014
:1052D000FBF7D6FBEDE70121F9E725000121553564
:1052E00028782369084001902AD0842B1FD008D841
:1052F000812B0DD00021822B0AD02000FDF70AFF60
:10530000D7E7882B15D0C02BF7D12300513319785C
:1053100089239B00C9181C4B8900C858B221FF3152
:10532000435C04225D0706D593434354E5E702211D
:10533000EEE70321ECE713434354FDF739F9DCE7CB
:105340000427260038005036327810433070842B02
:1053500013D008D8812B02D00199822BA9D10B2020
:10536000FBF78AFEA5E7882B09D0C02BA1D1BA4351
:1053700032702B7819432970BFE70221EFE7032130
:10538000EDE7C04668F1FF1F20F6FF1F73B504006C
:105390001500012A05D102000420503213788343FE
:1053A0001370A61CF27F002A30D0022D37D3032DB4
:1053B00002D9082D0FD073BD00222100E36A1C31F1
:1053C000013B00922800FBF770FB0028F3D020007F
:1053D000FDF772FFEFE7E3692000FDF78BFF344B29
:1053E00000280ED0503318000022324906F0A6F8EB
:1053F0000023F3770422503423781340DBD1237049
:10540000D9E75133D877FBF7C5FDF1E7A368102B37
:1054100039D010D8022B27D004D8012B29D0082D41
:10542000C9D1E7E7042B29D0082BF8D12A002000A6
:10543000FEF7C2FDF3E7802B2FD008D8202B27D012
:10544000402BECD12A002000FFF734F8E7E7802258
:105450009201934226D0802212029342DFD12A0089
:105460002000FFF791FEDAE72A002000FEF750F84F
:10547000D5E72A002000FEF78BF9D0E72A002000AC
:10548000FEF7B8FCCBE72A002000FEF7F3FDC6E7E5
:105490002A002000FEF7FCFEC1E72A002000FFF7EB
:1054A000F7FEBCE72A002000FFF7C8F8B7E7C046C0
:1054B00068F1FF1FBEC50000F8B51500020004002A
:1054C00089205132137880001B18414F9B00481EE1
:1054D000DE590D281AD802F039F93F07203A35195C
:1054E000191919195A197773A268002A0FD1002DBA
:1054F0000CD021000220A56055310B7883430B703E
:105500002275013231002000FFF740FFF8BD237DF6
:105510002561013323750622F4E723692B4206D067
:10552000072231002000FFF731FF00232361A36829
:10553000AB42EBD1082231002000FFF727FF002308
:10554000A360E3E7A3680422AB42DFD1DAE7A368F4
:105550000522AB42DAD1D5E7E943A368C90F02318E
:10556000002B0AD00A0020003100FFF70FFF0223B2
:105570005534227813432370C8E72000012206F037
:105580007CFA1448A169503005F09CFFBEE7032D5A
:10559000BCD889239B00EB189B00F9589A231570FF
:1055A000FF33CA5C00239A4203D1B533FF33CB5893
:1055B000DBB22200523213702000FDF707FEA5E790
:1055C000002352341370D6E7002323669EE7C046BB
:1055D00020F6FF1F68F1FF1F00221300F0B585B011
:1055E00002914E4C4E490090C85C01338218D2B2F1
:1055F000A342F9D10878AA2800D07CE04878012895
:1056000000D078E0CB5C934200D074E002224549A0
:10561000009806F039FC8922434B12010193009B4C
:105620009C18009A8A23944627001B016344039325
:105630003D6801992800B5398930FF302C22FF39A7
:1056400006F022FC019E893EFF3E310028006222C6
:1056500006F01AFC019B623662359E42F5D1B536E2
:10566000039BFF36043701969F42E1D1AF2227000A
:105670000025009B92009E183300ED3BFF3B3B60F2
:10568000357001CFF136013506F07AF8FF36042D7A
:10569000F2D18C23012200991B015242CA500023EF
:1056A000224A8B52224A8B54029B002B1BD0022B86
:1056B0000DD0B223FF332268D25C520719D4039A6B
:1056C00004349442F7D11B491B48002208E001CC66
:1056D00006F0A2F9039B9C42F9D100221648174913
:1056E000503005F02BFF00210A20FBF7C5FC05B068
:1056F000F0BD1349E8E7029B002BF4D00E4C022BBF
:1057000007D10098FDF77CF92000002250300B49AA
:10571000E7E72000002250300A49E2E7D406000003
:10572000E8FEFF1FEAFEFF1FA0000020C4080000E3
:10573000C60800005BC6000068F1FF1F5EC60000DF
:1057400052C6000063C60000F8B58C1F06000C2C82
:1057500010D8200001F0FAFF0B200B0E0E0E0E0EDB
:105760002C0E230E07003000FDF76CF9F8BD012266
:10577000284BF2548923F4271B01F5181033F6182F
:105780007F002B68082C38D8200001F0DFFF183A82
:105790003636183636363E001E4B0022E9E7002A20
:1057A000E8D01D4800221D49503005F0C7FEE1E752
:1057B000002ADFD011003000FFF70EFFDAE7DC210E
:1057C0000022E02049005A50BA39FF39D951D63168
:1057D000FF315A5004315A5024395A5028315A5006
:1057E00004315A5004315A5040001A5CE239FF39F2
:1057F0008A43110002220A431A540435AE42C0D132
:10580000B4E71800FCF7D4FEF7E7180005F0B8FF7E
:10581000F3E7C046BC08000068F1FF1F5BC600004C
:10582000F7B5070040373B780500DBB2002B4BD1C2
:105830000600502228363271574C584AA25802634B
:10584000022232738362A0231B01E05C0138052829
:105850002FD801F07BFF03555E4C17620123737153
:105860004F4BAC63E358EB634E4A002329004E488C
:1058700001F062FC320029004B4801F087FC012353
:105880003B7021E0494AA35CDBB20193002B1CD0A2
:1058900047484849436D0193635C9C466B461B79BE
:1058A000634506D0436DDBB26354A35C013BDBB2BE
:1058B000A3543F490B0070331A7AD2B2012A48D060
:1058C000002A2ED0032A48D0F7BD354BE358002BD1
:1058D00009DC394B1020E158FBF7CEFBA023019ADD
:1058E0001B01E254E5E7A02204231201A354002384
:1058F0007371A1231B01E358E418AC634023B2E7A2
:105900000E202D4BE158FBF7B7FBA02300221B0113
:10591000E7E7294B0F20E158F5E7274B1120E15825
:10592000F1E78F221A700123EB63002360227031AC
:10593000AB622B63AA85214833731A4AA9632900F5
:1059400001F0FAFB320029001C4801F01FFC022381
:1059500096E7CF201870EA63E7E70F20DA89141280
:105960000440D2B21C705A701A8A14120440D2B287
:105970009C70DA709A8914120440D2B21C715A7168
:105980005A8914122040D2B29871DA710822EA635F
:10599000063A1A72C9E7C046E8FEFF1F080A00006F
:1059A0000C0A0000E90A000000700640150A000019
:1059B00068F0FF1F140A0000040A0000006006409F
:1059C00070B5A02504002D012000FFF729FF23005A
:1059D00040331B78002BF7D1024B5B5D002BF3D1DA
:1059E00070BDC046E8FEFF1FF7B52B4FA026381D3F
:1059F000FFF7E6FF00253601032200236A43274C08
:105A0000D2B2D118E1540133B342FAD1A35DDBB273
:105A1000002B0FD10121224A4942A150214A22499B
:105A2000A55032006A436250204AA6500432A35067
:105A30000433A355381D0135FFF7C2FF0C2DDBD110
:105A4000A0260025360103236B43DBB20193A35D3F
:105A5000002B0DD10122124B5242E250114B124A3F
:105A6000E55033006B43A350104BE6500123A35580
:105A7000381DFFF7A5FF0023019AE15CD218D2B2CE
:105A8000914207D10133B342F6D101350C2DDAD161
:105A90000120FEBD0020FCE768F0FF1FE8FEFF1FAD
:105AA000180A0000040A0000080A00000C0A00009E
:105AB000F0B593B00790082200210BA806F0EDF98D
:105AC000CE490DA8FCF726F9002304930293CC4B92
:105AD00048330693069B1B7A002B00D179E1002402
:105AE000069B09AD0822210028001C7206F0D5F99A
:105AF0000223C44E77681F40A74206D0200003212E
:105B0000FAF786FF070001342C70012273681342F4
:105B100007D007210420FAF77BFF012207436A70B0
:105B2000A41873685B0707D50B210820FAF770FFEC
:105B300001230743AB70E41873681B0707D50F21D7
:105B40000C20FAF765FF01230743EB70E4181020DF
:105B50007368034206D01321FAF75AFF0123002489
:105B600007432B7173689B0607D517211420FAF79A
:105B70004FFF0123002407436B7173685B0607D551
:105B80001B211820FAF744FF012300240743AB71BF
:105B900073681B0607D51F211C20FAF739FF012364
:105BA00000240743EB7100250BAE09ABEB5C0093BF
:105BB000009A337893420DD02A00009B2432D2B24F
:105BC0009148002B00D109E17F23002105F03DFB26
:105BD000009B337001350136082DE6D18022894BB8
:105BE000920159681140009100D1FBE0874A0134CD
:105BF0000592874A009201225B6801925B040AD5F4
:105C0000824B009A00241A430092814B059A1A4352
:105C10000123059201937B4B5A6880231B021A4093
:105C2000039200D0E1E0052C00D000247948002642
:105C3000143005F0DCFAB04204D117211420FAF731
:105C4000E7FE060073481C3005F0D1FA002804D1A5
:105C50001B211830FAF7DCFE06436F4805F0C7FA3F
:105C6000002804D11F211C30FAF7D2FE0643654AF2
:105C70001100983294310B68106809681B1A116082
:105C8000049A9B18002B00DAB5E01F2213400493FE
:105C9000002C05D061490DA8FCF73CF800230193C6
:105CA000584D00222B002800A0331A7005F0B2FADC
:105CB000019B002B00D1C3E00026594B039A02360A
:105CC0001A605A60009A08339A63059ADA63102EB4
:105CD000F4D14C4D01222B00A0331A70002C09D0B6
:105CE0000798FFF781FE4F49002800D14E490DA8C3
:105CF000FCF710F8C027444805F0B2FF280005F073
:105D000017FF029B494EBF001F4030007C1EFF3C26
:105D100063425C4179427941343005F052FA44489B
:105D2000E4B27830210005F04CFA424B3000FD1807
:105D30006B425D41EDB27830290005F042FA354EF4
:105D4000794279413000243005F03BFA30002100DF
:105D5000303005F036FA4022374B002F00D09DE05E
:105D60005A6021000120FAF75FFE29000220FAF7AD
:105D70005BFE324B0320F9184B425941C9B2FAF786
:105D800053FE029B2A4D1A061435120D00212800DD
:105D90001C01FCF7FFF98023DB00E2181205120D4D
:105DA00001212800FCF7F6F980231B01E2181205F7
:105DB000120D02212800FCF7EDF9C0231B01E218A7
:105DC0001205120D03212800FCF7E4F9029B0133B0
:105DD00002930B480430FFF723FD7BE6009905F0A2
:105DE00048FAF5E6009A059206E701235B42039321
:105DF0000233019319E7203344E7C0468EC4000004
:105E000068F0FF1F940900200509002055555555DD
:105E1000AAAAAAAA68F2FF1FC0F2FF1F93C400003B
:105E20003C0A002098C400009DC4000068F1FF1FD8
:105E3000E8F1FF1F00FEFFFF00F00F4000FDFFFF35
:105E40002A000F99B03211602A001099B432116003
:105E50002A0000911199B832116029000D9AA831D9
:105E600032430A602A000E9BAC32334313602A008F
:105E7000E0321368E4353B4313602B683B432B60EF
:105E8000049B074D591C1800FAF7C2FD019B2A68B4
:105E90000133024304C5102BF9D11AE79A6060E779
:105EA0007C0A0020F0B5022685B005F0E2FF05F07F
:105EB000DBFF05F0DDFFDD4A01241368694633434B
:105EC00013606B46DA481C7001F002FA8023D94A4D
:105ED000D94DDB031360EB6800273343EB6005F01B
:105EE00049FFFA21890001F045FC6860EB68D3485E
:105EF0002343EB6001ACD24B210027720193029740
:105F000001F0A8F9CF4B01213C33180005F059F9F5
:105F1000CD4E022133003200FC33DB6AA432136021
:105F20008023C4481B040360EB690B43EB611368D7
:105F300001226B61EB691343EB61FBF79BFCC149E9
:105F4000802548310800012105F03BF9BF483A009F
:105F5000BF49503005F0F2FA200000F047FFBD4B7A
:105F60000220636005F00AFFBB4F020021003800E9
:105F700000F080FFBB786D422B43DBB2BB70022088
:105F800005F0FCFEB54F02002100380000F072FF62
:105F9000BB7820001D43EDB2BD7005F052FFB04B41
:105FA000022001930123E371237205F0E7FE210033
:105FB0000200AC4801F052FA8A21AA48090301F014
:105FC000BFFA80239B48A84C5B0103602000FCF7CC
:105FD00017FDFBF7C5FBA5480430FFF7F1FC73681C
:105FE0009B0409D573685B0406D573681B0403D54D
:105FF00094485430FFF75CFD9D4A002310000325B0
:10600000FA265530017813719360D360136153629F
:106010009362D362D3611384964AA9430170A35457
:106020007600924C230048331A7A002A00D1F7E018
:106030000021914D19722B0028331A78606D022AC5
:106040000AD16A6A8A4207D0904205D90122072004
:1060500069621A70FBF710F82800603005F0D0F97B
:106060007A4D2800083005F0CBF9A36E002B0FD035
:10607000230048335B78022B1FD0032B20D0012B49
:1060800003D100210920FAF7F7FFA36E013BA366B5
:1060900000277548FCF7F6FC784C3434E168002999
:1060A0001AD06368A268CB18636000290BDA9342A8
:1060B0000BDC00236260E36007E000210820E2E7D8
:1060C00000210620DFE79342F3DA63686B481A1475
:1060D000F9B21430FCF75EF82378022B0DD1637807
