:1006000000300020CD0600001507000059590000F9
:1006100000000000000000000000000000000000DA
:1006200000000000000000000000000019070000AA
:1006300000000000000000001B0700001D07000074
:1006400021070000290700003107000039070000DA
:10065000410700004907000051070000590700004A
:1006600061070000690700007107000079070000BA
:10067000290C00008907000091070000990700007D
:10068000A1070000A9070000B1070000B90700009A
:10069000C1070000C9070000AD0C0000190C0000E4
:1006A000F50E0000E9070000F1070000F90700005F
:1006B0000108000009080000A4B5000000F0FF1FB9
:1006C0006800000068F0FF1FF818000010B572B64F
:1006D00005F0F4FE0C4C0D4B9C4206D2A2686168FA
:1006E000206800F095F80C34F5E7094B9C4205D2E0
:1006F0006168206800F098F80834F6E709F0C8F956
:1007000062B604F0CBFAFEE7B8060000C4060000AB
:10071000CC060000FEE7FEE7FEE7FEE7FEE7FEE7A9
:1007200010B5FFF7FCFF10BD10B5FFF7F8FF10BDC7
:1007300010B5FFF7F4FF10BD10B5FFF7F0FF10BDC7
:1007400010B5FFF7ECFF10BD10B5FFF7E8FF10BDC7
:1007500010B5FFF7E4FF10BD10B5FFF7E0FF10BDC7
:1007600010B505F0D3FC10BD10B505F0DBFC10BDD5
:1007700010B505F0BFFD10BD10B505F0C3FD10BDEF
:1007800010B505F071FE10BD10B505F07BFE10BD73
:1007900010B505F085FE10BD10B5FFF7C0FF10BD08
:1007A00010B5FFF7BCFF10BD10B5FFF7B8FF10BDC7
:1007B00010B5FFF7B4FF10BD10B5FFF7B0FF10BDC7
:1007C00010B5FFF7ACFF10BD10B5FFF7A8FF10BDC7
:1007D00010B5FFF7A4FF10BD10B5FFF7A0FF10BDC7
:1007E00010B5FFF79CFF10BD10B5FFF798FF10BDC7
:1007F00010B5FFF794FF10BD10B5FFF790FF10BDC7
:1008000010B5FFF78CFF10BD10B5FFF788FF10BDC6
:10081000030030B5091ACC181D1AAA4203D91D6865
:1008200004332560F7E730BD0300002210B51C1A21
:10083000A14202D91A600433F9E710BDFFFFFFFFA0
:10084000FFFFFFFFFFFFFFFFFFFFFFFFFFFFFFFFB8
:10085000FFFFFFFFFFFFFFFFFFFFFFFFFFFFFFFFA8
:10086000FFFFFFFFFFFFFFFFFFFFFFFFFFFFFFFF98
:10087000FFFFFFFFFFFFFFFFFFFFFFFFFFFFFFFF88
:10088000FFFFFFFFFFFFFFFFFFFFFFFFFFFFFFFF78
:10089000FFFFFFFFFFFFFFFFFFFFFFFFFFFFFFFF68
:1008A000FFFFFFFFFFFFFFFFFFFFFFFFFFFFFFFF58
:1008B000FFFFFFFFFFFFFFFFFFFFFFFFFFFFFFFF48
:1008C000FFFFFFFFFFFFFFFFFFFFFFFFFFFFFFFF38
:1008D000FFFFFFFFFFFFFFFFFFFFFFFFFFFFFFFF28
:1008E000FFFFFFFFFFFFFFFFFFFFFFFFFFFFFFFF18
:1008F000FFFFFFFFFFFFFFFFFFFFFFFFFFFFFFFF08
:10090000FFFFFFFFFFFFFFFFFFFFFFFFFFFFFFFFF7
:10091000FFFFFFFFFFFFFFFFFFFFFFFFFFFFFFFFE7
:10092000FFFFFFFFFFFFFFFFFFFFFFFFFFFFFFFFD7
:10093000FFFFFFFFFFFFFFFFFFFFFFFFFFFFFFFFC7
:10094000FFFFFFFFFFFFFFFFFFFFFFFFFFFFFFFFB7
:10095000FFFFFFFFFFFFFFFFFFFFFFFFFFFFFFFFA7
:10096000FFFFFFFFFFFFFFFFFFFFFFFFFFFFFFFF97
:10097000FFFFFFFFFFFFFFFFFFFFFFFFFFFFFFFF87
:10098000FFFFFFFFFFFFFFFFFFFFFFFFFFFFFFFF77
:10099000FFFFFFFFFFFFFFFFFFFFFFFFFFFFFFFF67
:1009A000FFFFFFFFFFFFFFFFFFFFFFFFFFFFFFFF57
:1009B000FFFFFFFFFFFFFFFFFFFFFFFFFFFFFFFF47
:1009C000FFFFFFFFFFFFFFFFFFFFFFFFFFFFFFFF37
:1009D000FFFFFFFFFFFFFFFFFFFFFFFFFFFFFFFF27
:1009E000FFFFFFFFFFFFFFFFFFFFFFFFFFFFFFFF17
:1009F000FFFFFFFFFFFFFFFFFFFFFFFFFFFFFFFF07
:100A0000FFFFFFFFFFFFFFFFFFFFFFFFFFFFFEFFF7
:100A100000B5032806D8084B05F008FE0205080BB0
:100A200040225A6000BD80221205FAE78022D204DB
:100A3000F7E780225205F4E700F00F4000B50328E5
:100A400006D8084B05F0F2FD0205080B40229A601B
:100A500000BD80221205FAE78022D204F7E7802247
:100A60005205F4E700F00F40002804D0023843425A
:100A7000584180017047044B1B681A00703212788D
:100A80009B189878F6E7C04668F0FF1F023843428B
:100A9000584180017047CD235B00C35C10B5002B2B
:100AA00001D0022B0BD1AE23FF33C25C51180022C0
:100AB0004C1C03D00A00722900DD7222C25410BD02
:100AC00010B5029C02280ED0032816D1086898425F
:100AD00003DA01300860012010BD00208442FBD001
:100AE0000A600130F8E70868824201DA0138F1E76C
:100AF00000208442F0D00B60F3E70020ECE710B553
:100B0000C2B20321022005F061F810BD70B5254C7A
:100B1000230044331B78DBB2012B05D0022B34D0E9
:100B200000234434237070BD1F4B20495A5018399C
:100B30005D5CEDB2012D03D0042D07D0002220E032
:100B400002225A540020FFF7DAFFE9E7002A1AD1FF
:100B5000174D585940305851083558594030585160
:100B600014481D58403D1D501858002802DC06202E
:100B70005854E7E70A20626D0F4A9A5C0F4A98546E
:100B800005225A54CCE70722FBE722006832137A89
:100B9000DBB2002B03D0012BC2D1032300E00123E1
:100BA0001372BDE768F0FF1FF4FCFF1F180A000076
:100BB000080A00000C0A0000140A0000150A0000D0
:100BC000A022002170B50E4B12019C5C8C4215D105
:100BD00001250C4C6D421D510B4C18515043040023
:100BE0000A481C500A480B4C1C50012418009C5405
:100BF00009F084FE2000FFF782FF2100080070BD8D
:100C0000F4FCFF1F180A0000040A0000080A000094
:100C10000C0A0000C506000010B5024800F074FC84
:100C200010BDC04698070020F7B51E4C200009F003
:100C300046FE28230700184215D01B4EE3793500E5
:100C4000DBB20193403528783F21013005F072FE78
:100C5000330041331B78C9B2994204D02B78019AF2
:100C6000DBB2F25429703B061AD580210D480902E7
:100C700005F0EAFB0C4B1A001D0082328335117817
:100C80002A7891420CD02A783F219B1842331B7856
:100C9000DBB2E3712878013005F04CFEC9B229704F
:100CA000F7BDC04600A0064012070020F7B501229C
:100CB0004B4B4C4C1A61636DE06C9B1863652300D1
:100CC00048331A72A36DA56D019303685B6898475A
:100CD00085421BD2E06C03685B68984700220023C2
:100CE000A06522666366A36D019A5A401300FF2235
:100CF000934374D0A56D3C4C2D0A230058331878CB
:100D0000032844D805F092FC2F2F2A2AE06C266E87
:100D1000676E0368DB68984702000B0030003900FB
:100D200006F0D4F80F00060007F0A8FCA36D05003C
:100D3000C318E06C009303689B689847009B83424C
:100D4000D1D2A365280007F0CFFC02000B003000D1
:100D5000390007F04BF920666166C4E72300583379
:100D60001B7F002B13D0216F280005F0E3FD002925
:100D70000DD126005836337B002B12D101220531CC
:100D8000022004F023FF01233373E36DA3662300E5
:100D9000783318780138032810D805F047FC0B0683
:100DA0000B06E36E0133E366F1E7230078335B78EB
:100DB000002B03D0F8210D4800F05AFD182128001F
:100DC00005F0B8FD00290AD123000833DD6F023198
:100DD000EDB2012208007C3404F0F8FE2570F7BD66
:100DE000FC70034068F0FF1FE8F0FF1F12070020AF
:100DF0000122044B04492F331A709A235B00CA5412
:100E00007047C04668F1FF1F34F2FF1F8D23F7B50E
:100E1000314F05001B0102380C00FB5C0D2858D82F
:100E200005F004FC07573457161616164B161616FF
:100E300016168022D201914206D0284B994242D008
:100E4000022000F0F3F831E0002B3FD11C00082510
:100E5000234822002900483000F07EFD072D0FD1E5
:100E60000026204B44330193F0B2FFF7E7FD330136
:100E7000019A2033D318002201361A70042EF3D1C0
:100E800022002900380001F077FE0FE0802912D1FE
:100E90009620154A154B0532D17F4000012906D016
:100EA0000121D17700221A54FE33D986F7BD0024E0
:100EB000D4771C54F8E70420C3E70A000C480A2141
:100EC00003F0FAFCF2E700240625C1E70024072519
:100ED000BEE721002800B4E71CF4FF1F0240000019
:100EE00068F0FF1F68F1FF1FE8F1FF1F34F2FF1FDA
:100EF0006CF3FF1F73B50820194B9A68024226D085
:100F000004229968174C0A439A60174B5E6D631C64
:100F1000DA7F022A1CD1A569AE4213D9E06807F036
:100F20001DFC751B00900191280007F017FC0200C2
:100F30000B000098019906F0E5FAAD0020616161AF
:100F4000AD19E561A368E268A6619B18A36073BD53
:100F500000210222E161DA77FFF758FFF2E7C0468D
:100F600000900740E8F0FF1F68F0FF1F2D4BF7B51A
:100F7000F8385D6D04282CD805F058FB032B343E5F
:100F80004700294CE36A226C9B18E3622300283354
:100F90005B7D002B07D0012B1CD0022B1FD0230020
:100FA000002228335A75A36B01939D4210D9206CFF
:100FB00007F0D4FB019B0600E81A0F0007F0CEFBF8
:100FC00002000B003000390006F09CFA20636163D8
:100FD000A563F7BD00210620FFF718FFDFE700211A
:100FE0000820F9E7104B1A003C321178012228330F
:100FF0001142EED05A75ECE70B4B1A003C321278D6
:10100000D207E6D528330222F4E7074B1A003C3218
:101010001278D207DDD50021283307205975FFF754
:10102000F5FED6E768F0FF1FE8F0FF1F094B10B58B
:101030000533DB7F0A00002B02D0012B05D010BD49
:101040000100054803F038FCF9E70100034803F00C
:1010500055FDF4E7E8F1FF1F6CF3FF1F34F2FF1FAB
:10106000F8B50600502328363371524D524B040018
:10107000EB5803630223337300238362A0231B0115
:10108000E85C013806282CD805F0D0FA04424C3927
:101090001950540001237371484BA563EB58E36367
:1010A00021000023464A474804F0BAFF21003200DD
:1010B000444804F0DFFF0123403423701CE0424A1F
:1010C000A95C002919D041484149436D6F5CDBB2EE
:1010D000BB4206D0436DDBB26B54AB5C013BDBB271
:1010E000AB543A490B0068331A7AD2B2012A3FD086
:1010F000002A23D0032A3FD0F8BD0422EA5400235B
:101100007371A1231B01EB58ED18A5634023C6E7BB
:101110000B20304BE958FFF779FEA02300221B017A
:10112000EA54DEE72B4B0C20E958F4E7294B0D205D
:10113000E958F0E7274B0E20E958ECE78F221A70A8
:101140000123E363002360226831A3621D487371A9
:10115000327123631A4A3373A163210004F060FFE4
:1011600021003200174804F085FF40340223A4E731
:10117000CF201870E263E5E70F201A8A15120540A8
:10118000D2B21D705A70DA8915120540D2B29D7024
:10119000DA709A8915120540D2B21D715A715A89B6
:1011A00015122840D2B29871DA710822E263063A29
:1011B0001A72C7E7F4FCFF1F080A00000C0A0000BF
:1011C0000D0B000000600640150A000068F0FF1FCC
:1011D000140A0000040A00000022F8B514001500EB
:1011E0000326174B19004831087A0028FCD000204C
:1011F000087218006830C789A9B28F4204D0077AF4
:10120000C181022F00D106726833188A884204D047
:101210001982197A022900D11E720A4B01359D42AA
:1012200000DD00250132322ADBDD63425C410648E5
:10123000E4B222003100443000F0B8FD0022D0E7D3
:1012400068F0FF1FFF0F000068F1FF1F7FB5282324
:101250002E4C02932E498333FF33238020224431C6
:10126000A01C09F042FB2B4D21002A0048321278C5
:10127000E31CDA77284B2331DA6C100A0A704870C5
:10128000100C120ECA702200887019790832D177BA
:101290001900220058310978283211702200783361
:1012A0001B78293213702A2300220393130002991A
:1012B0000231914204DDA05C0132C318DBB2F8E7D1
:1012C0006A46D3712300A021073212782A331A709C
:1012D0000901029A635CDBB2002B12D101260F4890
:1012E000764226500E48033223500E4823500E48B3
:1012F0002250A1221201A350012004336354FFF7AE
:10130000FEFB281D03F0B4FC7FBDC046F4FCFF1FAC
:1013100068F1FF1F68F0FF1FE8F0FF1F180A0000C8
:10132000040A0000080A00000C0A000037B5282350
:10133000A022314C01931201019BA15CC9B200298A
:1013400012D101252D486D4225502D4803332150DF
:101350002C48023521502C4823502000A55409F078
:10136000CDFA2800FFF7CBFB284D281D03F080FCA9
:101370000022130001990231914204DDA05C013288
:10138000C318DBB2F8E76A46D37023780332AA2B7E
:1013900031D16378012B2ED101981D4913780A5C55
:1013A0009A4228D11B482022443009F09EFA20009E
:1013B000233041780278090211438278E31C120439
:1013C0001143DB7FC27848352B701206124B0A435B
:1013D000DA6422000832D27F21001A711A00283103
:1013E00009785832293411702278783300210F207F
:1013F0001A70FFF70BFD37BDF4FCFF1F180A000041
:10140000040A0000080A00000C0A000068F0FF1F30
:10141000F6FCFF1F68F1FF1FE8F0FF1F70B50D001D
:10142000CD21040049008078595C4006400E002917
:1014300010D0012901D1002A01D0401905E00A216C
:1014400005F092F945190A2068430023984217DBFA
:101450007F2211E0D72149005B5CDB07EDD5002A34
:10146000EBD10B4B1B6818184C3000782818C0B211
:101470001818CC3380781A780300904200DD1300EE
:101480007F21A2780B408A431343A37070BDC046EE
:1014900068F0FF1F10B504000F2910D1406807F055
:1014A00023F90022064B06F02FFB0022054B06F025
:1014B0002BFB0022044B06F025F8A060E16010BD74
:1014C0000000384000007040004CED4037B509295D
:1014D00006D00F290DD0062901D10023836037BD26
:1014E000002200240025431CDA77046145618261F3
:1014F000F3E70449027901AB19809B5C1B02C360CE
:10150000EDE7C046060C0000F7B501219B4B040037
:101510001962DA698A43DA619C225200825C019383
:101520008A425BD0002A09D0022A00D187E0019BC1
:10153000DA6901231343019AD361F7BD0700FC3731
:10154000BB6B8F4D0093002B14D10600A03633786F
:10155000002B07D001008022A831103009F0C5F916
:10156000009B3370802380229B0592026B60AA60EF
:101570006A60AB60F82380201F219C46000163460F
:101580000726BA6B0E4013403343072632406646A7
:101590000E40324380263606D64004339B001B594A
:1015A000334219D068608023DB00AB606B60013987
:1015B000E5D28022022392026B60AA606A608022D8
:1015C0005202AA606A600122AB603733FF33E254F3
:1015D0003B6B019A5361AAE7A860E4E70222684BDB
:1015E00080265A6005321F20944636012500F822D5
:1015F0006746FC35A96B07400A403A4367463940C5
:10160000F8270740394380273F06CF401432920025
:1016100012593A4211D05E608022D2009A605A601C
:101620000138E3D2802252029A605A6002229A6004
:101630009C235B00E254EB6ACBE79E60ECE7504BE7
:101640001F205A6080221201F82794462100FC31A5
:101650008A6B0091072116000A40010039400A43B5
:10166000802107250906D14005403E402E43B600A3
:10167000A6193569366D0D4062462E423FD05A603C
:101680008022D2009A605A600138DFD28022520252
:101690009A605A60022280209A601A6940040240CF
:1016A0005042424118695200810101D40120024395
:1016B000200090300578954231D0250091352E7864
:1016C00096422CD026009236032A21D10778022F89
:1016D00005D12F78002F02D13778012F11D007784C
:1016E000012F15D12F78002F12D13778022F0FD16B
:1016F00094218C46A44461460F68013F07E09A603C
:10170000BEE794218C46A44461460F6801370F6000
:101710002F78FFB237700678F6B22E700270009AFA
:101720001869926B410207D416000125083EB540A6
:101730002088284380B220801B69DB0405D4012067
:101740009040638803439BB2638001320F2A08DC18
:10175000009B9A639C2300225B00E254009B5B6B1E
:1017600037E70023009A9363628892B2626022880E
:1017700060680243626023806380EBE7FC70034093
:1017800000F00F40F0B585B00A9D0B9E2E295BD06E
:1017900047DC24295CD009DC1A2423290BD008005B
:1017A0003038092856D810390C0004E02B2949D0CC
:1017B0002A242D29F3D10721A143890001911C215D
:1017C00049428C46591D0291E1101424614398004E
:1017D000264C091A64181C2194448A1A0392002B7F
:1017E0003FDB0C9999423CDD019F21586246F9404C
:1017F0000F2739400F00D740002A02DA039A9140A0
:101800000F00002D02D0295839432950002E02D054
:10181000325817433750029A013304309342DED1D5
:101820001FE03E2912D005DC3A2909D01D243D29AC
:10183000C1D0B4E73F2916D02F247E29BBD0AEE714
:101840001C24B8E72E24B6E72B24B4E72C24B2E7F7
:101850002D24B0E70C00413C192CACD96139192971
:10186000A2D905B0F0BD1B24A5E7C046FCAB000023
:1018700070B505000400823528780E0001303F2144
:1018800005F058F8230083331B788B4205D02B7862
:10189000C9B2E41842342670297080210248090236
:1018A00004F0C0FD70BDC04600A00640802370B5A6
:1018B0009B010C4CD2180500A24202DCD443E41771
:1018C0001440E02328001943FFF7D2FF7F212800AE
:1018D0002140E411FFF7CCFF2800E1B2FFF7C8FF79
:1018E00070BDC046FF3F00001FB5054904000E2231
:1018F0007831684608F0F9FF6B46185D04B010BDFA
:10190000FCAB0000044B82B0019301AB5B5C017047
:10191000836102B07047C046060C060C10B50D4B33
:1019200002290CD0032913D0012910D11A003C330D
:10193000283242601A788A431A70017010BD1A006A
:101940002832426001223C331C782243F4E74833BA
:101950004360F2E7E8F0FF1F70B50D00160009299B
:1019600003D00F291DD0062905D1002300220361D1
:1019700000238261C3612F4C3200200029004830CF
:10198000FFF788FD200032002900FFF79FFDA81F08
:10199000092811D804F04AFE2A2F2A091010101025
:1019A00010330178FFF7BAFFE5E722000023583231
:1019B0001373A366E36613772000320028302900F2
:1019C00008F083FA072D20D0082D2BD0062D0CD13E
:1019D000230078331B78033B012B03D8FA211648E8
:1019E000FFF746FF01237834637070BD23000122A6
:1019F00058331A77E0E7230000225833F9E7200034
:101A000058300178FFF77EFFD6E7230078331B7844
:101A1000033B012B03D8FC210748FFF729FF78344B
:101A20000023E1E7230078331B78FB21033B012BE4
:101A3000D8D8D4E7E8F0FF1F12070020F0B5002443
:101A4000471C44608460C460046144610460FB7F9F
:101A500085B00500A3422ED0C21CD27F022A12D02C
:101A6000032A02D11034E41A640080221206E240F4
:101A7000200000219B001B19013B834207DD11431D
:101A800001305208F9E70824E41AA400EDE7002623
:101A90002960FB7FB2001219B3420CDDAB19197E2D
:101AA000052302930023281D009001930348FFF7AC
:101AB00069FE0136EDE705B0F0BDC046980700208D
:101AC000F8B5CD235B00CF5C060015003A4C012F22
:101AD00064D0002F07D0022F59D0200031680C307D
:101AE00008F083FAF8BD2300D5B201222C331A7016
:101AF000A31D2232DA770C21280004F031FEC8B28F
:101B000001380A280BD8022304F090FD0626232969
:101B10002F2C35323B383E0022002C3213704322EA
:101B2000631DDA770C21280004F094FDC1B2200077
:101B3000012201390C3008F035FA230001222F333D
:101B40001A70230002222E331A70FA239B0023639B
:101B5000C3E722002C321370631D4422E1E7631DAA
:101B60004522DEE722002C321370631D4622D8E79F
:101B700022002C321370631D4722D2E722002C3240
:101B80001370631D4122CCE7631D4222C9E7110097
:101B9000200040390C3008F04BFA9EE72300002269
:101BA00020002C331A700C306432290008F0FAF946
:101BB00023002F331F70C4E768F1FF1F70B50E00BC
:101BC0000500094C00220C342000084908F04FFAA7
:101BD0003178012289062000090F08F015FA2968DA
:101BE000200008F002FA70BD68F1FF1F69B0000024
:101BF00070B50E000500094C00220C342000084985
:101C000008F035FA7178012209072000090F08F061
:101C1000FBF92968200008F0E8F970BD68F1FF1FA2
:101C20007FB0000070B5234C06002000002222493E
:101C30000C3008F01CFA8C23204D1B01EA58D723E6
:101C40005B00D35C1E495B0700D41E4920000122C3
:101C50000C3008F00CFA1C4B1C49EA58D7235B00E7
:101C6000D35C5B0700D41749200001220C3008F038
:101C7000FEF9174B1749EA58D7235B00D35C5B0783
:101C800000D41049200001220C3008F0F0F9124B6A
:101C90001249EA58D7235B00D35C5B0700D409499B
:101CA0000C340122200008F0E2F93168200008F02D
:101CB0009CF970BD68F1FF1F91B100001CF4FF1F7B
:101CC00084B0000086B00000C408000078B20000B4
:101CD000C808000088B00000CC08000067B0000011
:101CE00070B50D00084C01000C342000002208F0F3
:101CF0008BF920000122054908F0B9F929000122D9
:101D0000200008F081F970BD68F1FF1F50AF00009E
:101D100070B50E000500094C00220C342000084963
:101D200008F0A5F97278012312092000054908F08E
:101D3000B9F92968200008F058F970BD68F1FF1F53
:101D40006EB0000073B0000073B56A46154B060014
:101D50000093154BCC3693800123937100230278B6
:101D60004478337061B200291ADB3178492917D8D9
:101D70004518AC701D004C3545199C4204D3013305
:101D80002970DBB20135F8E76D46AD5C01326419AC
:101D9000D2B2E4B2062A00D9002201313170E1E763
:101DA00073BDC0460202010202020000F8B5040041
:101DB0000B01E4180023A71CFB770134E67F080021
:101DC0001500964205D0012A19D09A4202D0022A63
:101DD00004D0F8BDFEF732FEE577FAE7012E0ED10A
:101DE000FEF72CFE320005213000E577094CFD7727
:101DF000E36BDDB2343403F0E9FE2570E9E7FEF76A
:101E000007FE0120E077034C0200E36B0521DDB201
:101E1000F0E7C04668F1FF1FF0B587B003900D00F2
:101E20001700541A00D52034002C46DD0326330059
:101E30006B43039A7743D31898784006400E06F018
:101E40008DFC039B00900191DF19B87837004006A4
:101E5000400E06F049FC009A019B06F0C7F804907A
:101E60000591200006F040FC02000B000498059943
:101E700005F048FB049005917C36013C002C1CD0F9
:101E800001351F2D00DD0025049A059B009801995E
:101E900005F01CF800220A4B0090019105F016F89D
:101EA00004F098FD3B006B43039AD3180200987826
:101EB0003240B04310439870DFE707B0F0BDC04632
:101EC0000000E03F70B5CD246400045D002C0AD111
:101ED000AF34FF34045DE40705D50F4CC9B2246864
:101EE00061184C310978AE26FF36855D002A06D090
:101EF0000A00083AD443E4171440845570BD2C00FE
:101F0000CA1AAA42F6DBCA180C35AA42F5DD0A0045
:101F10000C3AD218EEE7C04668F0FF1FF8B5CD23A3
:101F20005B000400C05C0D00FEF79EFD00216223F3
:101F30000E000A0003275D433B0053435B19E3187F
:101F40009B787F2B03D95B065B0EF61801310132BB
:101F50001F2AF1D100290AD0300004F005FC06F058
:101F6000C3FB0022054B04F0B1FF06F087FB010024
:101F7000032301222000FFF7A5FFF8BD0000E03F8A
:101F8000CD23F0B50026A7B0019102925B00C75C9B
:101F90000400B74206D11433C35C3E00DB0701D511
:101FA000304B1E68D62300255B00E35C38000393AA
:101FB000FEF76CFD62232A000199049059430591B4
:101FC0000323534305995B18E3189B7891007F2BFB
:101FD00043D95B065B0E06A84350002E33D0F3189E
:101FE0004C331B7802981B1831D4CC208446B4445F
:101FF0006046007883422ADAF3189B78012506A808
:1020000043500132202ADBD1002D22D06220019BD7
:10201000002258437F239C460323910006AE8E592D
:102020006146674653431B18E3180E409978013206
:10203000B94331439970202AEED12018049A0399AC
:1020400008F06DF806E00298C3187F2BD6D9012F4F
:10205000D7D00025280027B0F0BD002306A84350A4
:10206000CFE7C04668F0FF1FF8B5CF235B00040040
:10207000C05C16000F0006F037FB00221E4B05F077
:10208000B5FF1E4B002205F03DFA06F099FB9E239A
:10209000FF33E35C051C0020032B2CD8180004F050
:1020A000C5FA0222021BD7225200A25C920707D572
:1020B000D8225200A1584F3AC9B2FF3A4A43A41855
:1020C00060342078381A002801DA0430FBE7012751
:1020D000384010D0022B06D107F010FE310004F07A
:1020E00029FC080000E0300004F0A6FE291C04F0E2
:1020F00051FD04F081FEF8BD0000494000003A4067
:10210000F8B5D4235B00C65C0400B31E0D00012BA0
:1021100011D80300BD33FF339B787F2B0BD8EE2300
:102120005B00E150A823FF33E35C012B6DD0022B51
:1021300065D000266CE0C023FF33E35C9B071DD411
:102140002300CD22EC27BD33FF339B785200A25CE5
:102150005B065B0E7F00022A00D1403B1B04E3516B
:10216000A623FF33E05C072808D8E3590130434336
:102170000C207F21584304F0F7FAE051EC235B0078
:10218000E258D73BFF3B9E43DB33FF33012E28D180
:10219000AD18E550D3225200A15C052906D0C0221B
:1021A000053912034A43E1585218E2509C22FF328B
:1021B000A05CE1584132012815D00228B2D1002993
:1021C00001DA0021E150384BA0581968C3179BB2BF
:1021D0001B181B14DBB2CB184C331B78C9188B7837
:1021E0000AE0E250D6E7002901DA0021E150A158C7
:1021F000CB179BB25B181B141B04A35092E7DE2283
:102200005200A25C00261A4202D0F2235B00E6587C
:10221000FC235B00E55C1C3BE758A6230020FF3352
:10222000E25C874217DD3B0A092A07D00A2A12D04E
:102230001E4A934221D8FA20400004E01C4A9342EF
:102240001BD8962080005843C023C021DB00C01853
:10225000090104F0FFF90104164A2C01AB1C002E01
:102260000DD01B011419D218906CE166081A3100C8
:1022700004F07AFA20673800F8BD0F48EBE71B013D
:10228000D3189964084B043568336D005D1914192F
:102290006A8880B226678242EDD068801A7A022A64
:1022A000E9D101321A72E6E768F0FF1F48620000C8
:1022B000E451000068F1FF1FFF0F0000DE235B0008
:1022C000F7B5C65C0400B30704D0C023FF33C35C7A
:1022D0009B0705D5F0235B00E358002B5DD0F7BDCD
:1022E000EE235B00C05880231B02C118CB179BB2A2
:1022F0005B181B14DAB20192D5225200A15C0D1EAC
:1023000009D0DBB21B04C01A400304F02DFAC51734
:10231000ADB22D182D14AA23FF33E05C2300BD338A
:10232000FF335B781B09022B45D0032B48D0012BD0
:1023300007D106F0D9F90022354B05F0E5FB06F090
:102340009DF9E4235B007F283CDD7F22E254E023FB
:102350005B00E25CB30701D5FF2A35D1D123E22728
:102360002C4E5B00E15C30007F0007F0F4FDE35988
:10237000AB4207D0D1235B00E15C2A003000FFF7BD
:1023800095FAE551E423D1225B005200A15CE35CA5
:10239000019A300007F0CBFD35E0E0256D00625D6D
:1023A000FF2A9CD0D1235B00E15C1A4807F0D3FDE3
:1023B000FF23635593E706F097F90022164BBCE71D
:1023C0004000BEE7E054C2E7019B93420ED0E423F5
:1023D000D126104F76005B00A15D3800E35C07F06A
:1023E000A6FDA15D019A380007F0B5FDE226760052
:1023F000A359AB4207D0D1235B00E15C2A0005481A
:10240000FFF754FAA551E023019A5B00E25466E716
:102410000000F43F120700200000F83F8D23F0B5C4
:102420008FB004901B01C35C002B00D12AE1D74C74
:10243000606D07F00DFC07F02FFCD54B18400190A4
:10244000031E05DA1020013B40421843431C019350
:102450008C2212019446A36D10320893049B6344AE
:1024600094460393049B63440993039B02930023C4
:102470000593C0270122029BFF371C68E35D93434D
:102480001D000732E355154002D09343E35552E057
:10249000FA225200A2580899914200D2B5E00422D3
:1024A0009343E355D8235B00E3585E32DBB25A43D3
:1024B000A218DA21100049006130067863580696A8
:1024C000B3422AD1CC235B00E05C00280ED020333D
:1024D000E358421E0133DBB2934200DB2B00E318CA
:1024E0008933FF331A78D8235B00E250D8235B008E
:1024F0009C46E358DAB262235343E31860331A78F8
:10250000DA235B00E2509A23FF33E25C002A00D01A
:1025100013E10423E25D1343B8E760321678B44652
:10252000069EB44500D8FBE0013B6350002B00DB66
:10253000EDE01F236350D7235B00E35C5B0700D40F
:1025400036E1CE23FF205B00E65C1833E158043B04
:10255000E3580322014018406223514343430CAD2A
:10256000C9186118280008F0C0F92B880BAA13803D
:10257000A978864891700DAA91702100BD31FF3174
:1025800013800B80937848308B70310007F0F4FC97
:10259000F22301225B00E050E35D13439218934362
:1025A000E355DE235B00E35C9B061B0F05D001991E
:1025B000994202DBE35D1A43E255CE235B00E05C07
:1025C000FFF792F90502089806F0C8F806900791FF
:1025D000280006F0C3F802000B000698079904F0E3
:1025E00091FF00226B4B04F071FC06F047F8DA23F0
:1025F00068435B00E15806006A0801312000FFF7DC
:1026000033FDFA2386195B00E650E35DDB0701D555
:1026100001230593029B04330293029A099B934280
:1026200000D026E7059B002B2CD00023F4250227A1
:1026300001936D00039B01991C682000FFF760FD6A
:10264000C023FF33E35C0190DA0714D50022625106
:102650003B4200D1B1E0F0235B00E2581833002A7E
:1026600000D1F4E0A223FF33E35C012B00D110E1A1
:10267000022B00D111E1039B04330393039A029BC5
:102680009342D7D18C22049B12019D18103294469C
:10269000F0266344019376002C68A259002A1CD0CE
:1026A000013AA251002A18D1FC233B485B00E15CAF
:1026B0004430FFF77BFBA223FF33E35C012B0CD1FB
:1026C000E0277F00E25DFF2A07D0A233FF33E15C01
:1026D000324807F040FCFF23E355EA20400027582A
:1026E000002F00D11FE1E6225200A35819148C4696
:1026F000E821FB18A35049006158002F00DC01E1DC
:102700008B4200DC01E10023A1502350FDE0127850
:10271000934201DD62500EE702789342FADB0AE74A
:10272000013363501F2B01DD655004E700788342BD
:1027300001DD6050FFE61278EFE7DC21C425490097
:1027400063586D00E6180693634676193678E650AE
:10275000022A11D0032A23D0012A00D0D9E6AC22C4
:10276000635DFF320133DBB26355A25C9A4200D352
:10277000CFE600236355CCE607F0C0FAAC23FF3365
:10278000E15C013104F0D6F86155C2E668F0FF1F44
:102790000F0000800000F83F68F1FF1F12070020C3
:1027A000069B0133834201DA6350B2E60023FBE764
:1027B0000223E25D1343E355FFE6DE235B00E35CA7
:1027C000012219003940134206D12300BD33FF33E3
:1027D0005B781B071B0F33D0F8267600002939D110
:1027E000D0235B00E35C002B37D00F2B37D1A151F6
:1027F000F8235B00E258103BE2502300BD33FF3367
:102800005E783607360F3DD0CE2368485B00E15C2A
:10281000483007F0B1FB10239E1B4643013BF017E5
:102820001840801900116051F62362595B00E25094
:102830003A000C33E15C5E484430FFF7B7FA11E729
:10284000F020400000291FD02350FC235B00E15CF6
:102850005748F1E70023A351CAE70F23FBE7CE2334
:1028600052485B00E15C483007F086FBD0230F2222
:102870005B00E35C01334343D8171040C0180011DC
:10288000A051B5E76651CFE72258002A00D0E9E60B
:10289000DBE72000FFF712FDEDE6EE235B00E158D9
:1028A00080231B02C9187F23CA1792B25218121430
:1028B0009A4203DC00239A4200DBD3B2E822D226FC
:1028C000E62152001804A0507600A65D4900625827
:1028D000002E09D0F2235B00E158801A03F044FF78
:1028E000EA235B00E050C6E6904200D1C3E66050A8
:1028F000A422D121FF324900A25C615C2D4807F07F
:1029000002FBB8E68B4200DAFDE6A3581B149C4597
:1029100009D0A422D121FF324900DBB2A25C615C64
:10292000244807F0F0FAF4235B00E358002B06D0AC
:10293000F6225200A358002B0FD0013BA350F222E5
:102940005200A358002B2ED0013BA350019B04350D
:10295000AB4200D0A0E60FB0F0BDFC2314485B00F2
:10296000E15C02224430FFF721FAF8235B00E358D0
:10297000A351A223FF33E35C002B0ED0E0235B00C6
:10298000E25CFF2A09D00833E35C002B05D0D1219B
:102990004900615C074807F0CAFAF4235B00E2587B
:1029A0000433E250CBE7F4225200CEE768F0FF1F79
:1029B00068F1FF1F12070020F0B52E4B2E4D85B099
:1029C000040002912B80010002222C4807F08DFFA9
:1029D0008C231B01E7181033E318294C03932200C2
:1029E0003B689C468933FF3343CB43C243CB43C24E
:1029F00043CB43C21B68260013606346B136019384
:102A0000FF36283420006222019907F06EFF019BF7
:102A1000623462330193B442F4D1039B0437BB4266
:102A2000DDD100231A001749A85C0132C318DBB2BC
:102A30008A42F9D1AB54A02200201201AB5C834240
:102A400015D10121104B4942E95002990F4BE95031
:102A50000B0053430E496B500E4B0F49E9500433A2
:102A6000E85004230130AB54FEF749F8012005B0CB
:102A7000F0BDC04612340000F4FCFF1FF6FCFF1F3F
:102A8000F8FCFF1FC4060000180A0000040A00003A
:102A9000080A00000C0A0000C50600000022F0B57C
:102AA0002E4B87B0059313000500019105982C4922
:102AB00002300491904204DD8C5C0132E318DBB2F9
:102AC000F8E702AAD3710B780732122B2ED14B787C
:102AD000342B2BD10599234B1278595C914225D187
:102AE00004A92800049307F053FD8C231B01EC1864
:102AF0002E0000232700D03600933300009AF933CC
:102B0000FF333E601A7001CF07F0F4FB009BFD36E7
:102B100001330093FF36042BEFD1019B002B1AD019
:102B2000022B0AD010480022104911E0019B002B13
:102B300011D00D4800220E490AE08D231B01ED182B
:102B400001CC07F0B9FBAC42FAD100220648094992
:102B50000C3007F08CFA07B0F0BDC046C20600008A
:102B6000F4FCFF1FF6FCFF1F68F1FF1FA7B0000079
:102B7000AEB00000A2B00000F7B50400881F0E0040
:102B800008280AD803F052FD0549050909565D4D8C
:102B90005D008D2301221B01E2548C231B01E518EB
:102BA0001033E31801932C68092E03D00B2E4ED05E
:102BB000062E2DD12000BD30FF30032107F095FAFD
:102BC000C0210123FF31625CDA209A430023FA27F7
:102BD00040002350B638FF387F00E051E230FF302C
:102BE00023500430235034382350AF38FF38824309
:102BF000DB30FF3023500438235010302350043092
:102C000023500430235004339A4304331343635452
:102C1000019B04359D42C6D1F7BD8D2300221B01C7
:102C2000BAE7002AB9D000220B480C490C3007F053
:102C30001EFAB2E7002AB0D011002000FFF72EFFE5
:102C4000ABE7022AA9D9044800220549EEE7200093
:102C500007F050FBDCE7C04668F1FF1FB4B000008E
:102C6000BAB00000F8B5070003004537134C3A78B6
:102C70001349260031320A70002246331B780C3685
:102C80004133050030004B708A7007F0F0F98C2258
:102C90003B7892009B180B4A9B009A58D7235B0005
:102CA000D35C5B0704D401220749300007F0DFF949
:102CB0002000A9690C3007F098F9F8BD68F1FF1FF2
:102CC000560900201CF4FF1F86B00000436A70B54F
:102CD00004000C4D002B0FD02E000C3619000022E2
:102CE000300007F0C4F901233000E269A16A07F05F
:102CF000D9F900232B6370BD2800E2690C30A16A6A
:102D0000F5E7C04668F1FF1FF8B50600501E002524
:102D1000052816D803F08AFC031720537BC300252F
:102D2000AB420ED06224463633785C43CD235B0041
:102D3000C85C0C19FDF7AAFE0100200007F081FA1B
:102D400001352800F8BD0025AB42FAD00800463610
:102D500007F0B2FA3570F3E70025AB42F1D0032259
:102D6000013BDF171740574CFF18BF102340AB4201
:102D700004DA0424013B6442234301333200DCB211
:102D80003300453210784633FAB21B78904202D1B4
:102D90000025A342D5D0622253434C36C9183000D7
:102DA00007F0A3FD8C23FFB29B00FF18464BBF002A
:102DB00032002100F85807F0C8FB0125C1E70025C3
:102DC000AB42BED04536013B3278DBB29A42B8D036
:102DD0008C24A4001B1912193B499B0092005858DF
:102DE000515803000A0089338932FF33FF3270CA19
:102DF00070C370CA70C370CA70C31268B130B13189
:102E00001A60FF314822FF3007F06FFDD5E7002B35
:102E100045D030004530591E0278C9B28A423ED0B2
:102E20008C241300A400284A1C19A400A4589E0056
:102E3000A4460436022B09DC8C2794193F01E719BC
:102E4000224D3F68641901332760F2E70324A14251
:102E50000ADA8C25013CA300D3182D015E191C4D04
:102E600036685B191E60F2E78C2364469B00CB1822
:102E70009B00D4508C231B01D458FC230025022630
:102E80005B00E554124C01351459E554114C1459AA
:102E9000E654114C12590324D454017051E74736BB
:102EA0003578002D00D14CE7012B04D12800FDF727
:102EB00087FE002545E7022BFBD129000248FFF7DA
:102EC0007BFDF6E7030000801CF4FF1FBC08000038
:102ED000C4080000C8080000CC0800000300F0B5DA
:102EE00046338BB003931B780326029383690C004F
:102EF000D9B262231700029A71435343C9183200B2
:102F00006118050007A807F0F0FC02AB9B8A08A92E
:102F10000B8002AB9B7D32008B7006A807F0E5FCAE
:102F200002AB1B8A05AE338002AB9B7C781EB3706C
:102F300005280DD8002103F079FBC70E0E0B03DA2C
:102F4000B17803234906490E00222000FEF7BAFF9C
:102F500000200BB0F0BD2A690A2A27D0122A09D016
:102F6000062A73D10121022F00D149422000FDF72A
:102F700092FDEDE70122022F0FD15242029920006B
:102F8000FEF7FEFF002802D0EB69013BEB616548CC
:102F9000E9690C3007F04CF8DAE702992000FEF7F7
:102FA000EFFF0028F3D0EB690133EFE70091202217
:102FB0002900202352421C313800FDF781FD0028F2
:102FC000E5D0039B03211B7809A80293022F20D18F
:102FD00007F08BF8029B60375F43E619310003224C
:102FE00009A807F082FC300026005D36F619C71CE0
:102FF0000322390007F079FC3800B742F7D162208C
:10300000029B584320185D30032209A907F06DFC8C
:10301000BDE7622707F069F8029B03225F433E0089
:10302000E1195D3109A807F060FC5A36E31EA619C4
:10303000DF19F01C31000322033E07F056FCB742B3
:10304000F7D16220029B58432018DDE7B3787F2B2D
:1030500043D8622700220321029B5F430B005343A6
:10306000DB19E3189B787F2B0ED801321F2AF5D18C
:10307000CD235B00E05CFDF7F7FC7F220300B07816
:10308000134090431843B0708023B2785B421343DF
:10309000B3702B789B0703D5012332781343337029
:1030A000AB690327DAB2039B20001978002300974D
:1030B0000193330007F052F9B1783B004906490EFD
:1030C00000222000FEF7FEFE2800B27818305206DB
:1030D000520E2100FEF7F4FC3AE7012123000A40DA
:1030E000032F00D002393000FEF798F9D8E72B699A
:1030F000122B09D0422B0FD00A2B00D028E7002238
:103100000848EA61084903E00022E96105480749E7
:103110000C3006F0ACFF1BE702992000FEF7FEFE24
:1031200016E7C04668F1FF1F9DB0000098B0000090
:103130000300F0B5463397B0029106931B78032540
:10314000039383691700DBB204938369039ADBB2AC
:1031500007931900622369435343C918029B0BAEBE
:1031600059182A000400300007F0BFFB33880CA96F
:103170000B80B3780AAE8B702A00300007F0B5FBE5
:10318000338809AD2B80B378781EAB7006280AD837
:1031900003F056FA0700730073000900E4010B0006
:1031A000AC000023E36117B0F0BD2369212B20D0D0
:1031B0000BD8032B25D0112BF5D102232000E3637C
:1031C00018302900FEF7FAFCEDE7412B21D0812BC6
:1031D000E9D1CF23029A5B00DF4DD15C0C35E16170
:1031E0002800002206F010FF2800A16906F0FDFE6D
:1031F000D9E703232000E36318302900FEF7F8FC29
:10320000D1E701232000E36318302900FEF780FD99
:10321000C9E7D723029A5B00D35C9B0724D56223BE
:10322000039A5343029AD3181A006032127861331A
:103230001B78934202DB190013000A006227039DEA
:1032400000206F430125AC46511CC91A934210DA85
:103250001F2B0EDC03255D43029EED19AD5D664616
:10326000354040190133F1E7029B60331A78029B25
:10327000DDE7E061FEF734FD95E72669212E00D1F8
:103280007EE035D8032E00D19FE0112E50D0E569A5
:10329000032F00D02BE1049B5D19EDB21E2D22D827
:1032A00039006223039A69435343C918029B0EAE47
:1032B00059183A00300007F018FB32880FAB1A801B
:1032C000B17899700DAB1A80997009AB9970022191
:1032D0001A800A431A7000220097019203992A006B
:1032E000029807F03BF8E3690133E361002345E00E
:1032F000412E00D18EE0812EC9D1002521000095FC
:103300004B2319221C313800FDF7DAFBA84200D10B
:1033100049E7CF23E26902998F4E5B00CA540C360D
:10332000E16930002A0006F06FFEA16930005DE718
:1033300000262B7832009B061B0F159315A90F232F
:1033400000963800FDF7BCFB0F233C21159A02982C
:1033500013409A002B788B4313432B70A369DAB286
:10336000069B19780323019600932B0006F0F6FFC5
:10337000200029001830FEF721FC0223E36312E746
:1033800000266B7832001B071B0F159300960F2346
:1033900015A93800FDF794FB0F216B78159A8B4324
:1033A0000A4013436B70A3690298DAB2069B19783E
:1033B000019603362B00009606F0D0FF200029006E
:1033C0001830FEF715FCE663EDE66B7800221B096A
:1033D0001593002315A9009338003300FDF770FB07
:1033E0000F216B78159A0B401201134321006B706B
:1033F0000023A26946310978D2B2019302982B00CA
:10340000009606F0ABFF200029001830FEF780FC84
:103410000123B3E7D723029A5B00D35C9B075ED5F9
:103420006223039A5343029AD3181A006032127827
:1034300061331B78934202DB190013000A0001324A
:10344000D31A210000221C31009238000393FDF7AB
:1034500037FB002800D1A6E66227069BE5691B78AA
:103460005F430693029BDE196033DF1930000221AF
:10347000033606F03AFEB742F8D1039B002B33DD4A
:10348000002D31DD180005F02FF9060028000F008F
:1034900005F02AF962250B0002003900300004F023
:1034A00031F800260027069B049005915D4330000B
:1034B000390005F0E3F81E2816DC032301225843E7
:1034C000029B4019C35C39001343029A83543000B5
:1034D000049A059B03F0FAFC06000F00E7E7029B45
:1034E00060331A78029BA3E70399E069C2E6002DD6
:1034F00000DAFBE60326049B31005D196223039A80
:10350000EDB253436943C918029B11AF59183200F9
:10351000380007F0EAF93B8812A90B80BB7810AF9E
:103520008B703200380007F0E0F93A8809AB1A8056
:10353000B9789970FD210A401A7000220096019214
:1035400003992A00029806F009FFE369002B00DCCA
:10355000CCE6013BC9E6C04668F1FF1FE66B002ED2
:1035600000D020E603246223039A07995343614362
:10357000C918029B14AD59182200280007F0B5F9AC
:103580002A8815AB1A80A978997013AB1A809970A4
:1035900012AB9970012108001A80D2B290438A437D
:1035A00002431A70039901960094049A029806F057
:1035B000D5FEF8E5F0B50400501E8DB00E001500E4
:1035C000062824D803F032F8046262232530BC00B8
:1035D000A3690325D9B2230046331A7862236943CD
:1035E000534307AFC91871182A00380007F07DF956
:1035F0003B8808A90B80BB782A008B7006A807F0CF
:1036000074F920002A00493006A907F06EF90DB0C0
:10361000F0BD230044331A78002A00D096E0A26956
:10362000226401221A70F2E72369442B14D0842B00
:10363000EDD10422A31CDA7743331A784C21531CB2
:10364000E3610523E362434B31325A700022197063
:103650009A706362404B14E00322A31CDA77433371
:1036600019785A788B0001339B18E3611123E362C8
:103670003A4B41325A700022313119709A706362AC
:10368000374BA3622000FFF721FBC0E7022223692A
:103690000392052B05D0013A0392062B01D0032398
:1036A000039323002700443305931B784637002BF0
:1036B00011D129002000012206F09FFF01202300E4
:1036C000A26939780190039849330090D2B2300052
:1036D00006F044FE9BE73B7803220493236C049896
:1036E000D9B26223514343430AAFC9187118380055
:1036F00007F0FBF839880BAB1980BA7801279A706C
:1037000009AB19809A7008AB19809A70A269039965
:10371000D2B2009130000499019706F01FFE3A00E2
:103720002900200006F069FF21001F2300224031FC
:1037300000972800FDF7C4F90223059A137066E785
:10374000230044331B78022B00D060E7002344346D
:1037500023705CE75909002055B00000560900208D
:1037600011B0000070B50400901E0D001600052871
:103770000CD802F05BFF26260B030C3EA3694634EF
:10378000DAB221780323280006F04AFE70BD2369CF
:10379000482B07D0882BF9D10223A21CD377002213
:1037A000E26105E00122A31CDA770023E361023322
:1037B000E362174B20006362164BA362FFF786FAA1
:1037C000E4E7230046331978A369DAB22369092BA9
:1037D0000BD00A2B0BD1093B280006F021FE012259
:1037E0003100200006F009FFD0E70223F4E70323AD
:1037F000F2E7237D002BC9D1A3692800DAB22300A8
:1038000046331978032306F00BFE01220721E8E76F
:1038100003B0000009B00000F0B50400501EA3B0D2
:103820000D001700062814D802F000FF0415151328
:1038300013A3E800230062222000463319784C309D
:103840005143691807F051F8704B5B6D23630023F7
:10385000E36123B0F0BD2100002623691C310096EE
:10386000302B26D1343332003800FDF729F9B0422D
:1038700008D0236BE26928009A1823004633197890
:1038800006F0EEFDE169624C0022230020002C339B
:103890001A700C30643206F085FB230001222F33AE
:1038A0001A70230092182E331A70FA239B00236398
:1038B000CFE76422642352423800FDF701F9002863
:1038C000E0D027002200463739784C32280006F035
:1038D0003CFE3B7862275F43EB190493D623E269F1
:1038E0005B000392EB5C0593CD235B00E85CFDF786
:1038F000CDF80790206B06F0ABF9029703237343D2
:10390000029A9B18EB1898784006430E069306F02F
:10391000C3F9070006F0C0F9FF21039B0F400840E0
:10392000381A584302F020FF069BC0187F281CDD80
:103930007F2003227243029BD218AA189778790637
:10394000490E814208D080237F215B423B43DBB29A
:1039500008408B43184390700136202ECED1079A31
:103960000599049806F0DBFB8CE7C343DB1718408E
:10397000DFE72369142B3BD01ED8112B3AD0002649
:10398000122B00D065E7270046373B78B34200D1C1
:103990005FE709A806F0B5FB6222397809A8514310
:1039A000691806F0A2FF09AA2800F1B206F0CDFDC1
:1039B000174D00220C3512E0182B1DD0502B00D0D3
:1039C00047E7230062222000463319784C305143E8
:1039D000691806F08AFF00220D4DE2610C352800BF
:1039E0000C4906F044FBA169280006F0FEFA30E716
:1039F0000226C8E70126C6E70326C4E722004634AC
:103A00004C322178280006F0A0FD22E768F0FF1F65
:103A100068F1FF1FFEAF000070B50500501E0C00DE
:103A20001100062811D802F001FE0411111007241C
:103A3000A500AB696B6308E02B0046331A78D823E6
:103A40005B00E250AA690433E25070BD28000022F6
:103A500006F0D3FDA9696B6BA9636448994206DD42
:103A6000C91A002201310C3006F0CEFAEDE7591ADE
:103A7000F7E72B69282B69D007D8222B23D0242BDA
:103A800062D0212BE1D101231EE0602B40D0A02B7E
:103A90004DD0302BD9D1CC23554A5B00E25206F0F1
:103AA0002DF9AC23FF33E15C013102F043FFC42365
:103AB00000225B00E1544D4830334E49E2500C3057
:103AC00006F0D5FAC1E70023AC22697DFF32DBB2F4
:103AD000A25C464801293BD8CC21C0250026AD0078
:103AE00049006552493DFF3D66519A423ED301224D
:103AF00062548832FF32A3540C3000223E49050044
:103B000006F0B5FACC235B00E15C01222800ABE7AC
:103B1000C42300225B00E2541033E2522033E2500F
:103B200046352978083BE15030483449C7E7C4237B
:103B3000002202215B00E254FF311033E1522033B6
:103B4000E2502A482E49BAE70223BDE70323BBE728
:103B50009A420BD3CC214900625C0F2A06D8551C2F
:103B6000A2188932FF3265541370C5E70C30002269
:103B70002449A5E7AB6B002B22DB6B6BDAB2D723B2
:103B80005B00E35C9B071FD4230060331A70623331
:103B90001A7092235B00E2546233E254D72252003F
:103BA000AB6BA25CDBB2920717D4220061321370B8
:103BB000623213702622FF32A3548822FF32A354AC
:103BC00001235B42AB6335E72B0046331978622350
:103BD0004B43E31860331A70E0E72A00463211784D
:103BE00062224A43A41861342370E9E768F1FF1F99
:103BF0000102000060AF00006FAF000065AF000081
:103C00006AAF000071AF0000F0B50400501E85B02F
:103C10000D001600062809D802F008FD040A0A085B
:103C20007E228200AC23FF33CB5CE36105B0F0BDA4
:103C3000237D002B07D000222100009203231C319A
:103C40003000FCF73DFF474D00230C352800E269AA
:103C5000454906F027FAA169280006F0C6F9E5E70C
:103C60002369442B47D01CD8412B46D00026422B39
:103C7000DCD1AC27FF37EB5D9E4240DD6222013391
:103C8000DBB25343EB180293CD235B00E85CFCF7F7
:103C9000FDFE0100029806F0D4FAEB5D0133EB550E
:103CA000E7E7482B1FD0C02BC0D105220021A31C61
:103CB000DA77A16243331B78E262581CE0614C2042
:103CC0002A4A107018003130507091706262022BD5
:103CD0000BD0032B0BD0012B0BD1254BA362200063
:103CE000FEF7F4FFA2E70326C3E7224BF6E7224BD9
:103CF000F4E7224BF2E70226BBE70126B9E72300EF
:103D000046331E70EB5DE3619A23FF33EB5C002BBF
:103D100002D1B133FF33EE502000FEF7A3FF85E759
:103D20006227E3690293AC26FF36A95D029B8B42B2
:103D30000DDD4B1CDBB21800794378436918281855
:103D40006222039306F0D1FD039BAB55EBE7029B88
:103D5000AB55E36946342278934200DB66E7237073
:103D600064E7C04668F1FF1F76AF000059090020E4
:103D70008AAF0000A7AF0000C4AF0000E1AF0000B1
:103D800000B501291AD002291CD08C2245300378B5
:103D900092009B18294A9B00C81E9B58002114289A
:103DA00035D802F043FC12402F3A46191B1D1F2143
:103DB0002325313616442B2D274229000078400850
:103DC000014024E001780120FAE7CD225200995CFD
:103DD0001DE09C22FF32FAE7CE22F7E79E22F9E7A8
:103DE000CF22F3E7D022F1E7D122EFE7A422F1E7D7
:103DF000D222EBE7A622EDE7A822EBE7AA22E9E729
:103E0000D522E3E7D622E1E70D4B1B6819780800BD
:103E100000BD0B4B1B685978F9E7D7225200995C1B
:103E20008907C90FF3E7D422D0E7D322CEE7A22235
:103E3000D0E7D7225200995CC5E7C0461CF4FF1FAB
:103E400068F0FF1F10B5012919D0022920D0453094
:103E500003788C2080001B1846489B001C58C81E05
:103E6000142814D802F0E2FB1A785C6D7E40434AB5
:103E70004C4E505263693D7C585A547A5600531E3A
:103E80009A410221530002788A431A43027010BDFE
:103E9000130001215A1E93410278F5E7D2B2012A9C
:103EA00017D0002A0CD0022A0AD0CD235B002000B4
:103EB000E25406F0E9F900212000FEF72FF8E6E7CA
:103EC000D62301215B00E154A6230731FF33E154DF
:103ED000EBE7D62302215B00E154A6234918FF3308
:103EE000F5E79C23FF3307E0CE235B0004E09E232D
:103EF000FF33E25432220133E254C8E7CF23F4E720
:103F0000D023F2E7D123F0E7A423EBE7D223ECE7B9
:103F1000A623E7E7A823E5E7AA23E3E7D523E4E719
:103F2000D6235B00E254200006F0AEF9AFE7124B57
:103F300018680270FDF708FFA9E70F4B1868427078
:103F4000F8E7D7210123022049001340625C5B009F
:103F500082431A4362549AE7D423C6E7D323C4E7C3
:103F6000A223BFE7D72101204900531E9A41635C79
:103F70008343EEE71CF4FF1F68F0FF1F07B5110035
:103F8000062A07D0072A34D0012A02D100230130A3
:103F9000C37707BD03691C4A93421FD00DD81B4A43
:103FA000934215D01A4A9342F3D10223072100937A
:103FB000184A194B06F02CFBEBE7184A934213D032
:103FC000174A9342E5D10223164A0093164BF1E7B4
:103FD0000223164A00930121154BEBE70323154AF0
:103FE00000930521144BE5E70221144B0091144A7C
:103FF000E0E70023421CD377FA2243628362114B2D
:1040000092001A63C5E7C0460480000001800000EA
:10401000028000001EAF000016AF00000880000004
:10402000208000005AAF000052AF00002CAF00000B
:1040300024AF00003EAF000032AF000044AF0000EC
:104040004CAF000068F1FF1F03008C22F0B5453330
:104050001B7892009B18BB4CBB4A9B009D588FB0AD
:10406000060080220021200006F048FCCD235B00E2
:10407000EB5C04933378DB0730D5049B002B11D025
:10408000022B28D0012700237F42B049B0480F2FD0
:1040900024DC0C2F02D8BA00E8328850002B1DD047
:1040A000FF18F4E7AE23FF33EF5C01333800EB5C1D
:1040B0000F30DB0707D5072102F056FB07235843D3
:1040C0003F1A0C37E1E70C2102F04EFB0C2358435A
:1040D000181AC719D9E700234027D6E78022B36909
:1040E0001206DA40994BD7431800DC30216839407A
:1040F0002160216C04341143E163A042F6D1320007
:1041000044321278002A0DD080221800316C120639
:10411000CA40DC300168114301601900FC31086AB3
:1041200002430A62DA225200AA581800069280223C
:1041300006991206CA40E4300168FC33114301605D
:10414000996A0A439A62B36B0193002B7EDB736B0F
:10415000039300238024029324060093039B019A77
:10416000934200DC90E01300009A93420FDC039B23
:1041700093420CDB0321029A744B0A4200D07EE08A
:10418000E4331A6822431A60029B013B0293330016
:1041900046331B78032105936223059A0CAF5343E2
:1041A000009A38005143C9186918032206F09DFB94
:1041B0003B880DA90B80BA788A700BA90B808A7096
:1041C0009906090F0791190A080709090891000FB4
:1041D0000AA909900B808A70049B5006400E012B9F
:1041E0006CD10A2102F036FA0C23C0B2181A069AD2
:1041F000009900238A420DD18D22534912018A5C15
:104200009A4207D0B133FF33059AEB589B1A5A42B2
:104210005341DBB20C280DD8002B63D001004B4A70
:104220003A3189008F582A3027438F5080008158B7
:10423000214311500AAA11780322F06B0A40032887
:1042400000D98EE002F0F2F96AB788B5D7235B0097
:10425000EB5C9B070DD5330046331A78622353433A
:10426000EB181A0060321278039261331B780193C5
:104270006FE72B0060331B7803932B00F5E7FC33CB
:104280009A6A22439A627FE7039B009A934200DD79
:104290007DE7019B934200DA79E70321029A2B4BD9
:1042A0000A4206D1E4331A6822431A60029B0133A2
:1042B0006CE7FC339A6A22439A62F7E7049B002B6F
:1042C00009D1AF33FF33EB5CDB0704D5214B1B680F
:1042D00018184C3000780C23181AAE23FF33EB5C0F
:1042E000181884E7E24305920AAA9778174A7F2FA5
:1042F0000CD907002A37BF00D1593A302143D15198
:10430000E743800011580F40390092E707003A3721
:10431000BF00D1592A302143D151F1E702220A408E
:10432000C9071CD5002A65D1084A1000E032176879
:10433000FC30416A2743002B5CD1A14317604162E6
:104340000FE0C046400800201CF4FF1F9807002023
:104350001111111168F0FF1F07990029E2D1002AFD
:104360003FD1009B640801330093202B00D0F5E679
:1043700048363378002B24D0244B03221900FC311B
:10438000486A10434862886A10438862190018001E
:10439000E0310C68E43094430C6001689143AE3224
:1043A000FF320160A85803280BD802F03FF9060C31
:1043B0000F130999D1E70899CFE70222E03322438E
:1043C0001A600FB0F0BDE0330122F8E70222E433B7
:1043D0000A43F5E7E4330122FAE7A043386051626B
:1043E000BFE70A4A1700FC32516AE03738682143B8
:1043F000002BF2D0054B1900E0310A68FC33224350
:104400000A605A6A22435A62ABE7C0469807002006
:1044100010B5172806D801001048FFF7B1FC0300BB
:10442000180010BD00231D28FAD819380428F7D821
:1044300002F0FCF803060A0D1000094BDB6CEFE7F5
:10444000084B48331B78EBE7054B1B79E8E7044B37
:104450005833F7E7024B7833F4E7C0466CF3FF1F9D
:10446000E8F0FF1F68F0FF1F00B517282FD8431E84
:10447000012B33D98C221F4B920045331B78043813
:104480009B181D4A9B009B58102827D802F0CEF895
:104490001C26262626262626091717262626261017
:1044A0001000A222FF329B5C581E8341180000BD01
:1044B000A222FF329B5C013B58424341F6E7A22215
:1044C000FF329B5C023BF7E7FC225200EBE7002344
:1044D0001D28EBD8192803D01B2805D00123E5E7B8
:1044E000064B48331B78E7E7044B48331B78033B04
:1044F000E2E7C0466CF3FF1F1CF4FF1F68F0FF1FCC
:10450000013810B50B0006284ED802F08FF80E21A6
:104510002B2D2B2738001178002913D0002B06D023
:104520007C394842414101325B1A002AF3D1002311
:104530001F4CD15C002906D07C2904D00133581EC1
:104540002154F6E70B000021194AD154184810BD38
:104550000222481C164906F07CF8F7E702221449AB
:104560001800F8E70322FAE7114C18000122210095
:1045700006F06FF8562363700023A370E6E7072068
:10458000DA170240D2180A49D2100A4841320A709A
:10459000034004D50820013B40420343013331333B
:1045A0004B7000238B70D1E70022014B1A70CDE7CE
:1045B0004809002007000080F0B58FB00592040084
:1045C0000F001422002109A806F098F90020182FE6
:1045D0006ED80C257D4365192E68864200D176E0A1
:1045E00096235B00E35C0490BB421FD1362301227B
:1045F000FF33E35C0492022B18D12200FC32526B91
:1046000004930692B3079B1B0793079B3178F2181C
:10461000920000290FD005230293002309A80090DF
:1046200001933048FDF7AEF80136EEE72879FFF741
:10463000EFFE0690E6E70C235F43E4196879A26871
:104640000699FFF75DFF102405000526297800294B
:104650000DD07C290BD0002309AA009202962200DB
:1046600001932048FDF78EF801350434EEE7059BF1
:1046700001259A00002318009C461A4C05995918E8
:104680000F2911D8142604A88019990041580498BC
:1046900001280FD0022815D0A0180600E836316096
:1046A0006146A8300160280001330432052BE5D1B2
:1046B0000FB0F0BDA01807000E0CE83736043E60BE
:1046C000A830EFE7A0180600E8363160F8E7059B50
:1046D0000F2BEDD801213A33024A9B0049429950F1
:1046E0000120E5E79807002073B50400A51C100021
:1046F000EA7F002A29D0022803D3032802D90728F9
:104700000ED073BD00222100E36A0092013B1C31F0
:10471000FCF7D6F90028F4D02000FEF7D7FAF0E72E
:10472000E3692000FEF7F0FA594B002808D00C335B
:1047300018000022574905F09AFC0023EB77E0E7C8
:104740002C331870FCF754FBF7E7A368102B36D016
:1047500012D8022B29D006D8012BD2D1020020007A
:10476000FEF7E6FCCDE7042B24D0082BC9D10200CC
:104770002000FEF7F7FFC4E7802B2AD008D8202BB3
:1047800022D0402BBDD102002000FFF73DFAB8E750
:104790008026B601B34221D0802212029342B0D1CA
:1047A00002002000FFF7EAFBABE702002000FEF763
:1047B00095FBA6E702002000FEF7FCFEA1E7020041
:1047C0002000FFF729F89CE702002000FFF724F9FA
:1047D00097E70200200000F0E5F892E7062800D0F5
:1047E0008FE7210047310A7023692B4A934245D055
:1047F00029D82A4A93423AD01DD8294A934239D01F
:104800000A78002A00D17CE70623EB770023A36215
:104810000133E3610233E3624D21224B022A33D19B
:1048200052321A7059703A229A7000226362DA701A
:104830001D4BA36270E71D4A93421DD01C4A934250
:10484000DED1062314E081229201934218D004D8CD
:10485000184A9342D4D108230AE08222920193425B
:1048600010D0A02212029342CAD1022300E00323F7
:104870000B70C5E70423FBE70523F9E70723F7E7F8
:104880000923F5E70A23F3E72E3219705A70CAE7B5
:1048900068F1FF1FFEAF00001020000002200000A2
:1048A00001200000520900208AB00000042000000E
:1048B000082000002020000070B50400250008003A
:1048C0008C2145352B7889005B18344E9B000138CC
:1048D0009959092811D801F0A9FE3005172B261087
:1048E00010101048A368002B08D1002A05D0A26040
:1048F0000122A3822000FFF7F7FE70BD637D2261D5
:10490000013363750622F5E72369134201D00023C2
:104910002361A3689342F0D107222000FFF7E4FE51
:104920000023A360E9E7A3689342E6D10422E1E70C
:10493000A3689342E1D10522DCE7D343A268DB0FF1
:104940000233002A06D01A002000FFF7CDFE012313
:104950002375D2E719002000012205F04EFE104811
:10496000A1690C3005F041FBC7E7032AC5D88C23A9
:104970009B00D3189B00F1589A232A70FF33CA5C1E
:1049800000239A4203D1B133FF33CB58DBB222006C
:10499000463213702000FEF765F9AEE71CF4FF1FE6
:1049A00068F1FF1F70B50400501E0B00052807D8E2
:1049B00001F03CFE03070D06060F0022294B1A707A
:1049C00070BD012149421800FCF765F8F8E70121A4
:1049D000F9E7244A2369117800292BD0842B12D0BF
:1049E00009D8812B24D00022822B0DD02000183032
:1049F000FDF718F9E4E7882B18D0C02BF6D1230077
:104A000045331A7800E002228C23D72104259B002D
:104A1000D218154B9200D0584900425C5307DB175F
:104A200001339B00AA4313434354DFE70322EBE720
:104A30000122E9E7842B11D007D8812B0CD0822BDF
:104A4000BED10A20FCF7E2F9BAE7882B08D0C02BC8
:104A5000B6D101231370C9E70121F2E70221F0E783
:104A60000321EEE7510900201CF4FF1F37B5193967
:104A7000030014000800042917D801F0D7FD03171C
:104A8000202A3000100003F02FFE0022164B03F006
:104A90003BF80022154B03F037F80022144B02F0CC
:104AA00031FD144D28656965EC6437BDD1B218003D
:104AB000FCF734FF00210920FCF7A8F9F5E70E4ABE
:104AC00001AB1A800B4A1471E4B21B5D1B02D36068
:104AD000F0E70848D1B25830FCF714FFEAE7054B7D
:104AE00078331A70E1E7C04600003840000070409B
:104AF000004CED40E8F0FF1F060C0000F8B5040084
:104B0000481E160003282AD801F090FD025B6D9024
:104B100036229623FF32A25C5B00013AE55C0C274B
:104B2000012A35D82200FC32516B761839006943CE
:104B300061184879052800D18FE0002E0FDB01387D
:104B4000062821D801F072FD0C04221C20201E0032
:104B50000F239E4203DC434BFE345663E386F8BDCD
:104B60000C235D4300236519A8680028F1D0017863
:104B70000029EED07C394D42694101305B18F4E7E1
:104B80000823E6E72723E4E70023E2E77F23E0E7C3
:104B9000002E14DA013D182DE1D83B006B43E318D9
:104BA0001A68002AF4D01879FFF75EFC0028EFD0CD
:104BB00096235B00E55408330122E254CFE7013528
:104BC000E9E7022ACBD196235B00E25C213BFF3B65
:104BD0005343E3181879FFF71BFC2300FC33586399
:104BE0003623FF33E8E73625FF35635D022B13D10B
:104BF0002B33FF33E25C213BFF3B5343E31819792E
:104C00002300FC335A6B172909D81748FFF71AF904
:104C10009A2301225B00E254002363559FE71D297C
:104C2000F6D812484830FFF721FFF1E7100081382D
:104C3000072809D801F0FAFC0B04080D0808080F32
:104C400000210A20FCF7E2F89A235B00B4E7012177
:104C5000F7E70221F5E70321F3E71D2E00DC7EE7ED
:104C600077E7C046010200006CF3FF1F68F0FF1FEA
:104C700070B5A02604003601250040352B78002BA6
:104C800002D12000FCF7ECF92B78002BF4D1024B79
:104C90009B5D002BF0D170BDF4FCFF1FF0B502242A
:104CA000012687B005F016FE05F00FFE05F011FE97
:104CB000D04AD1481368D14F2343136002AB190087
:104CC0001E7001F079FA8023CD4DDB033B60EB6869
:104CD0002343EB6005F07CFDFA21890001F0BAFC6A
:104CE0006860EB6803AC3343EB6000232100C548E8
:104CF00023726360039601F021FA32003100002034
:104D000000F064FFC048022103000200FC33DB6AAC
:104D1000A432136080231B043B60EB690B43EB61FF
:104D200013680D316B61EB691E430023EE61009344
:104D30000022B64BB64D1A70002208350195019D30
:104D400093005E59A825AC46C3189C446546E833D9
:104D50002E60914200DDE1E01E600132102AEED1AA
:104D600001233226A94A1370AA4B483300221A7233
:104D7000A94A127A002AFBD0013E002EF6D1013951
:104D8000D6D201220221042000F020FF200000F0F2
:104D90009BFFA24B0220636005F01EFDA04D210089
:104DA0000200280000F0DAFF8022AB7820001343D5
:104DB000AB70012505F073FD9A4B02200393E5715A
:104DC000257205F009FD21000200974801F0B8FAAC
:104DD0008A219548090301F025FB80235B013B6094
:104DE0003700924C00958C222600BB0012019B18C4
:104DF0008F4A9B3EFF3E9B181E600193009B00253F
:104E000063700B23A370322323712B3BA371230008
:104E10002570E570A57365715E331B78A5722372EA
:104E2000009B30006372FE235B007B43D3189E22FD
:104E300092009B18042299790A439A710822022150
:104E4000E272033A22735F32E273009A657325744B
:104E5000A2749A798A439A71E5719A790099FD341E
:104E60000A439A7105F010FA29003000FDF756F850
:104E7000300005F021FA300005F03CFA019BFF34C8
:104E80001A68FC235B00D7540137042FABD18D2364
:104E9000674A1B01D554FCF749FA02225A4B10000D
:104EA0005B68134200D10120FBF78AFE594B0127B2
:104EB000181DFFF7DDFE574B48331A7A002A00D140
:104EC0005AE100215B4C1972524B586D631CDA7F1A
:104ED000022A09D1E2698A4206D0904204D9072009
:104EE000E161DF77FBF792FF25005835287B012829
:104EF0002DD0022816D1A36E013BA366002B11D141
:104F0000E36E002B0DD03A00052100F05FFEE36E4A
:104F10002F73013BE366E36DA36603E0009D1D6014
:104F20001BE72B7300254248FDF778FA424C6434A6
:104F3000E168002929D06368A268CB186360002962
:104F400012DA934212DC00236260E3600EE0A36E8B
:104F50005A1EA266002AE5D10521022000F036FE85
:104F600002232B73236ED7E79342ECDA6368294957
:104F70001A0C68316B00CB185889904205D05A81C1
:104F80000B7A022B01D101330B722378022B0BD148
:104F90006378002B08D0013BDBB26370002B03D198
:104FA0002770E8B2FBF734FD01351034042DBFD172
:104FB0001935224C230022004133403219781278EF
:104FC00091423DD01B78DBB2E05CC0B203000833F5
:104FD000DBB2042B05D83A009A402A4201D0FBF7F5
:104FE000C5FF413420783F21013001F0A3FCC9B254
:104FF0002170DEE7148004400070034000E100E00F
:10500000FC700340009007409807002038080020FB
:105010007CAC000068F0FF1FB0F0FF1F20A107006C
:1050200000600640127A000000A0064086F6FF1FCE
:105030001CF4FF1FE8F0FF1F68F1FF1F120700209C
:105040008E4C8C22230045331B7892009B188C4A8F
:105050009B00D3589A22FF329A5C002A09D0C022C2
:10506000FF329B5C220048325B0700D48EE0642351
:105070001370844805F012FB834A136B002B07D092
:10508000013B1363002B03D12C321370FBF7B0FEEE
:1050900000217C4BA03319707C4B0533DB7F8B42A6
:1050A0007AD0012B7CD0784804002F342378002B51
:1050B00004D00C30FCF7C2FC00232370724B724CFE
:1050C000D8682600C34300219C466F4B6D4A2D33A0
:1050D0001B780C362A339B00D31865461A682A4081
:1050E00075186D6804312A431A601A6C0433024340
:1050F000DA631429F1D1634B1339A03304201F70F4
:1051000000F09AFD051E00D1A7E0604D2B0028336A
:105110001A78002A08D0013AD2B21A70002A03D1B4
:105120000321022000F052FD34342278002A08D0F6
:10513000013AD2B22270002A03D10521380000F0D2
:1051400045FD534B7C331A78002A08D0013AD2B27D
:105150001A70002A03D10221080000F037FD38350B
:105160002A78002A08D0013AD2B22A70002A03D144
:105170000521022000F02AFD464B181D44331B7800
:10518000002B00D097E6FBF76BFF94E61378002B1B
:1051900000D16EE7013B6BE72000FEF755FF82E789
:1051A0009A233D4D5B00EB5C002B00D17BE7802216
:1051B0003A4805F0A3FB96230C245B00EB5C0197B7
:1051C0005C435E1E05230C3C64190093731C19D0CC
:1051D000019B002B16D02368002B08D02079FFF705
:1051E00043F90623002803D1013E0C3CEEE70223DD
:1051F000009A3100D31A1A0027480093FFF7DCF910
:105200000190F1E7962305265B00EC5C213BFF3B18
:1052100063430097ED18182C19DC009B002B16D067
:105220002B68002B04D02879FFF71EF900280BD03B
:10523000320021001848FFF7BFF92A6800900223C6
:10524000002A00D00433F61801340C35E3E79A2322
:105250000021114A5B00D15425E7FBF7F7FF01213C
:105260000748FDF7A9FB0B4B181DFFF701FD2A00AE
:105270000221042000F0AAFCFEE7C0466CF3FF1FE9
:105280001CF4FF1F9807002068F1FF1FE8F1FF1FC3
:10529000E8F0FF1F68F0FF1F34F2FF1F40080020F6
:1052A000F0B50025012685B003AC220005210320BE
:1052B0002670657000F09EFC2200310002202670EE
:1052C000657000F097FC22002900022026706570AE
:1052D00000F090FC2200300003212670657000F081
:1052E00089FC2200300002212670657000F082FCEB
:1052F0002200310028002670657000F07BFC22003F
:10530000062102202570657000F074FC2200300038
:1053100004212570657000F06DFC22002900032037
:105320002570657000F066FC2200310003202570B6
:10533000657000F05FFCFB4E012330005B422900EA
:1053400080221030358075807560B360357305F04C
:10535000D5FA300029000322903005F0CFFA33004F
:1053600094331D60330098331D6033009C331D60FF
:105370003300A0331D703300A4331D6030009C2324
:10538000FC305B000700F554856305644564856463
:1053900005F01EFA32220023290001F0F1FAE24A58
:1053A000002301F0CDFAF86205F012FA96220023EC
:1053B0005200290001F0E4FADB4A002301F0C0FAB0
:1053C000386305F005FAC82200235200290001F0D5
:1053D000D7FAD54A002301F0B3FA0A237863C8222A
:1053E0000127D24805218763C36302642200380085
:1053F0002770657000F0FEFBCD4E3A00331DDF676D
:1054000037000A210837F9673700C820083988377C
:105410003860227008002200657000F0EBFB0A2162
:10542000C8200123C34F2200396378630739C63887
:10543000FB622370657000F0DDFBBF4B29001A0092
:10544000403215701A00413215701A008232157000
:105450008333220028001D702570657000F0CAFBA0
:105460000A21C82001233964786422000539C6382E
:10547000FB6323701F00657000F0BCFBAF4B320074
:105480003360C023DB00F360AD4B3C32B36280235A
:105490005B00336413780F203B43137033002833D1
:1054A0005D750022002332637363A64BF0650D38EF
:1054B000B3643066A44AA54B300032657365782327
:1054C000583007002900F3643571B563F562FCF7C5
:1054D00019FA33003D779E4F78331D705D703B00A5
:1054E00048337D6500221D720023BD6538003A6691
:1054F0007B663B00290068334836082272301D72F3
:10550000FE6405F0FBF90121924B934A49429D50FC
:10551000924A01269D5004329D50914A9D54914AD1
:1055200099503B00814A443310001D708E4B156327
:10553000D36229001422103005F0E0F97B4B2200E1
:1055400028000621DD606570267000F053FB032102
:10555000220008006570267000F04CFB220002213A
:1055600003206570267000F045FB22000421032013
:105570006570267000F03EFB6C48290040226430C4
:1055800005F0BCF9794C2570657020003C60FCF793
:10559000DBFB8C231B01E4180F23754D00932B00BC
:1055A0002E008933FF330193300004F0AAFD33004D
:1055B0000027009A60331F705A70019B6236B34215
:1055C000F2D12800FD35BD30FF300321FF3504F056
:1055D0008CFDA542E3D10321664804F086FD6648B0
:1055E00004F08FFD654BF0211A000125AC32090152
:1055F000118002211A78624C2A430A431A705A1801
:10560000D7775A19D777012252425A639A632E32BA
:105610005F629F62DF621F63DF631F645F64390044
:10562000FF3220001F719F60DF601F611F759F6147
:10563000DF6105F063F921000920524A2831087022
:10564000A2602100504A2931E2600B220D704F49BF
:1056500022744F4AE1624F4962614F4A216321003F
:105660000426A261082234310E70227721004B4AB1
:105670004B4B22624B4A2360626222000323353186
:105680000D7049490832A1634849237165716574F9
:1056900065770192A16421000C304C310870210023
:1056A0004D310D704249043821654249009A6165C7
:1056B00021005831087020006430027020006530ED
:1056C00005703D481022A0663C482100E06620009D
:1056D0007030027020007130057039480632606702
:1056E00038485931A06720007C30027020000D70CE
:1056F00035497D30E1653549057035482166A11988
:10570000019AC86733493000D167220017218832D7
:10571000117022008932157022002F498C321160DD
:1057200022005BE09807002040420F0068F1FF1F55
:10573000E8F0FF1FE8F1FF1F12070020BCAB0000DC
:10574000D4AB0000ECAB0000FA7E6ABC7493284036
:1057500068F0FF1FF4FCFF1F080A00000C0A00009D
:10576000140A0000180A0000000202001CF4FF1FC7
:10577000ECF4FF1FB5F3FF1FB8F3FF1F6CF3FF1F1F
:1057800034F2FF1FC4B00000D2B0000036B10000F8
:10579000D6B000004AB1000006B100000AB1000016
:1057A000C0B0000032B100004EB1000060B1000096
:1057B00064B1000081B1000093B10000B6B10000F7
:1057C000BAB10000D7B1000085B100001AAF0000E7
:1057D000DBB10000FCB1000000B200004B499C327C
:1057E000116022001221A03211702200A132157026
:1057F00022004749A432116022004649A8321160B4
:1058000022000C21AC3211702200AD321570220042
:105810004149B032116022004049B4321160220087
:105820000D21B83211702200B932137022003C49A8
:10583000C032116022000E21C43211702200C53224
:10584000157022003749C832116022003649CC3227
:10585000116022001321D03211702200D132137056
:105860002300324AD8331A6023001422DC331A7022
:105870002300DD331D7023002D4AE0331A6023001E
:105880002C4AF0331A6023001A22F4331A702300D2
:10589000F5331D702300284AF8331A602300274A85
:1058A000FC331A6022000631FF32517014399170B6
:1058B00023499573D9601B2151732249957659610B
:1058C000214999611C215176204A49191A62204ABE
:1058D0005A6292225200A1542622FF32A5541D4A38
:1058E0001B39DA6296235B00E754FE34E58603AC8D
:1058F00022002570677000F07DF922002900300039
:105900002770677000F076F905B0F0BD0CB20000AA
:1059100010B200001DB2000021B200001AB2000057
:1059200048B200004CB2000053B2000057B2000071
:105930005BB200007AB200007EB2000090B20000BC
:1059400094B2000098B200009DB20000A1B2000025
:10595000AFB20000B3B2000004207146084202D08A
:10596000EFF3098001E0EFF3088081690A88044BB6
:105970009A4200D0FEE70231816120210160704728
:10598000ABBE0000084B186800280CD0074B084A33
:105990001B7812789B065B0FD840520703D5063B55
:1059A000012B00D940097047EC0800200040064058
:1059B000005006400020044B1B785BB2834201DAA2
:1059C000024B18687047C04600500640EC080020A3
:1059D000C0228021037892051B07134042784904B6
:1059E00012060A40802113438278490312050A40B7
:1059F0001343054A5362C378E0205168C0021B0478
:105A000003400B435360704700800440102310B5DF
:105A1000074A00205178194207D112791A4205D15C
:105A2000FFF7B0FFA023DB00584310BD0148F9E7A2
:105A3000004006407C92000010B50B4C23791B07F8
:105A40009B0F012B05D0002B08D0022B09D0002082
:105A500000E0064863785B09D84010BDFFF7D6FF29
:105A6000F8E7034B1868F5E7004006407C92000019
:105A7000EC08002010B5084CFFF7DEFF616A8900D2
:105A8000890F013100F0E6FD616AC901C90F0131DA
:105A900000F0E0FD10BDC0460080044010B5FFF7E7
:105AA000CBFF044B596A8900890F013100F0D2FD08
:105AB00010BDC0460080044010B5FFF7BDFF044B89
:105AC000596AC902C90F013100F0C4FD10BDC046BA
:105AD00000800440054B1878022318404342584187
:105AE000034B40421840034BC0187047004006402B
:105AF000846DFFFF7C92000010B5094B1B79DB061B
:105B000006D4FFF73FFF041E03D10024200010BD80
:105B1000044CFFF791FF8008A042F6D3F6E7C04699
:105B2000004006407C92000030B549250D490479BB
:105B300043790A7823432A401343802200681202E3
:105B4000824292415242920013430B70002C07D0C4
:105B50000B785BB2002B03DA01230A781A42FCD0DF
:105B600030BDC0460050064010B53824154AC90063
:105B700013782140353C2340194311701F2153787D
:105B800040010B401843C0B20F4950700878130011
:105B9000C20603D5012208781042FCD010221979E0
:105BA0001142FCD103211A7992080A42FBD140220A
:105BB00019791142FCD080211A7900200A431A7108
:105BC00010BDC0460040064000500640830810B596
:105BD000074C9B001C59032318409840023B411876
:105BE0008B40002A01D1A36010BD6360FCE7C04672
:105BF000C4AC000070B583080E4C9B001C590323F5
:105C000001250340DB005B189D401378002B07D172
:105C1000EA43636913406361A5691540A56170BDDE
:105C20005278FFF7D3FF63692B436361A3691D4378
:105C3000F4E7C046C4AC0000064A83089B009B58AA
:105C40000322104090401B694118CB4018000123EB
:105C500018407047C4AC00001023194202D0C37032
:105C6000044870470120084003490138034B0840AD
:105C7000C018F6E74F040000B2FBFFFF4E0400001F
:105C8000C37810B5DB0602D483789B0605D5044B98
:105C90001B689847BFF34F8F10BD024BF8E7C04613
:105CA000F8080020FC080020054A0023904204D098
:105CB000044BC018431E9841431C18007047C0464F
:105CC000006006400090F9BF10B504000C220021CE
:105CD00004F014FE034B63600023637023720133EE
:105CE000237010BDA0860100F0B500240126270016
:105CF00085B0029001910392009476420025164AE5
:105D00006B00D15A0398A14000F0A4FC019B98427B
:105D100010D2181AB04213D30135402DEFD1022C06
:105D200017D13C00009DA4012543029BEDB25D709C
:105D300005B0F0BD019BC01AB042EDD2002803D0DF
:105D4000009527000600E7E7022CECD1009527001C
:105D5000E7E70134D2E7C0462CAE0000F8B50400F6
:105D60000D001700FFF7A0FF1B4B8000C1581B4B15
:105D70000A0CD218012389B28B4010687F26034396
:105D800013600022FF2322706270A270E370AF3BA9
:105D90006271A371E271A27820003240A270A279F0
:105DA0001A43A271A2791343A3711223E3703A003C
:105DB0006968FFF799FF0F216A78A379D201334010
:105DC00013432A7ADBB28B430A401343A3712B7827
:105DD000DB01DBB2A370F8BDD0AC00000080044052
:105DE00070B505000E00140004F049FD2023184092
:105DF0000BD1AA7810331343013CAB7063425C4172
:105E000076003443E4B22C7170BD0148FCE7C04613
:105E10004C04000070B505000E00140004F02FFDC6
:105E20002023184202D0AA781A4218D03F226B7859
:105E3000DBB21A406A701422A9780A43AA706B7008
:105E4000C046C046C046C046C046C046013C63424C
:105E50005C41002076003443E4B22C7170BD0148EF
:105E6000FCE7C0464C04000002230022F0B5C370DA
:105E7000C37885B0DBB2019302ABDF1D3A700B7FB4
:105E800005000C00032B42D14B695A425A41009243
:105E90003B7801990133DBB228003B70FFF7DCFE51
:105EA0005D4B0600984202D1009B013B1E40207FC3
:105EB000012852D1019B034200D0ABE0237B002B91
:105EC0002BD002232377002E50D023685B0705D503
:105ED000514B9E4202D0514B9E4209D1AB789B065A
:105EE00006D5280004F0C1FC002801D08A26F6005F
:105EF000002340212377280004F0AAFC276A002F02
:105F00003FD0636A320021002800B84739E0009290
:105F1000052BBDD14B69013BB7E76379002B07D156
:105F200003332377002ED0D16369002B31D034E0C6
:105F300004232377002EC8D11822AB789343AB708B
:105F40006369012B03D1AA7807331343AB702B7914
:105F5000DBB23B700523237713E0002EB5D1023866
:105F600003280ED800F058FB02E0E82F237B002B1B
:105F700009D0013BDBB2A2682373DB00DA40D3B265
:105F80002B7105B0F0BD6379002B10D16369002B34
:105F900001D1002699E70323237723691B782B710E
:105FA0002369013323616369013B6361E9E7217977
:105FB00001222800FFF72EFF042306002377002E7E
:105FC00000D082E7DDE763695A1E6261002BD8D0FA
:105FD000002362699A4207D123685B0715D4280021
:105FE00004F043FC060001236269012A03D1A97869
:105FF00007320A43AA702269297911702269013295
:106000002261002B00D060E7D9E71023AA78134360
:10601000AB70E8E7014E58E74E0400005104000061
:10602000F8B50C001E001700FFF73EFE0500282201
:106030000021200004F062FC094BAA00D450094B57
:10604000094A27621A60094B66625B57002B06DB20
:106050001F2213401E3A9A401300054A1360F8BDF0
:10606000F0080020F8080020695E0000C8B20000B7
:1060700000E100E0F7B50B7F040094460193002B8C
:106080003FD1080065465279C8CDC8C0C8CDC8C048
:1060900063460D7B58698861002D03D05B79012B25
:1060A00000D1019A012650230E77A0791843A071E0
:1060B000A0790343A3711223E3700B68334214D019
:1060C0000223002D03D10420002A16D103230B77CD
:1060D000E3785BB2002BFBDA2000FFF7C5FE20005F
