:1006000000300020CD06000015070000AD6A000094
:1006100000000000000000000000000000000000DA
:1006200000000000000000000000000019070000AA
:1006300000000000000000001B0700001D07000074
:1006400021070000290700003107000039070000DA
:10065000410700004907000051070000590700004A
:1006600061070000690700007107000079070000BA
:10067000B10B0000890700009107000099070000F6
:10068000A1070000A9070000B1070000B90700009A
:10069000C1070000C9070000350C0000A10B0000D5
:1006A000B1110000E9070000F1070000F9070000A0
:1006B000010800000908000018CE000000F0FF1F2C
:1006C0006800000068F0FF1FF81A000010B572B64D
:1006D00006F098FF0C4C0D4B9C4206D2A268616854
:1006E000206800F095F80C34F5E7094B9C4205D2E0
:1006F0006168206800F097F80834F6E70AF01CFB00
:1007000062B605F0D3FBFEE7B8060000C4060000A1
:10071000CC060000FEE7FEE7FEE7FEE7FEE7FEE7A9
:1007200010B5FFF7FCFF10BD10B5FFF7F8FF10BDC7
:1007300010B5FFF7F4FF10BD10B5FFF7F0FF10BDC7
:1007400010B5FFF7ECFF10BD10B5FFF7E8FF10BDC7
:1007500010B5FFF7E4FF10BD10B5FFF7E0FF10BDC7
:1007600010B506F075FD10BD10B506F07DFD10BD8D
:1007700010B506F063FE10BD10B506F067FE10BDA3
:1007800010B506F015FF10BD10B506F01FFF10BD27
:1007900010B506F029FF10BD10B5FFF7C0FF10BD62
:1007A00010B5FFF7BCFF10BD10B5FFF7B8FF10BDC7
:1007B00010B5FFF7B4FF10BD10B5FFF7B0FF10BDC7
:1007C00010B5FFF7ACFF10BD10B5FFF7A8FF10BDC7
:1007D00010B5FFF7A4FF10BD10B5FFF7A0FF10BDC7
:1007E00010B5FFF79CFF10BD10B5FFF798FF10BDC7
:1007F00010B5FFF794FF10BD10B5FFF790FF10BDC7
:1008000010B5FFF78CFF10BD10B5FFF788FF10BDC6
:10081000002330B55C181D18934203D22D680433B1
:100820002560F7E730BD002310B51C001A188B4275
:1008300002D214600433F9E710BDFFFFFFFFFFFF92
:10084000FFFFFFFFFFFFFFFFFFFFFFFFFFFFFFFFB8
:10085000FFFFFFFFFFFFFFFFFFFFFFFFFFFFFFFFA8
:10086000FFFFFFFFFFFFFFFFFFFFFFFFFFFFFFFF98
:10087000FFFFFFFFFFFFFFFFFFFFFFFFFFFFFFFF88
:10088000FFFFFFFFFFFFFFFFFFFFFFFFFFFFFFFF78
:10089000FFFFFFFFFFFFFFFFFFFFFFFFFFFFFFFF68
:1008A000FFFFFFFFFFFFFFFFFFFFFFFFFFFFFFFF58
:1008B000FFFFFFFFFFFFFFFFFFFFFFFFFFFFFFFF48
:1008C000FFFFFFFFFFFFFFFFFFFFFFFFFFFFFFFF38
:1008D000FFFFFFFFFFFFFFFFFFFFFFFFFFFFFFFF28
:1008E000FFFFFFFFFFFFFFFFFFFFFFFFFFFFFFFF18
:1008F000FFFFFFFFFFFFFFFFFFFFFFFFFFFFFFFF08
:10090000FFFFFFFFFFFFFFFFFFFFFFFFFFFFFFFFF7
:10091000FFFFFFFFFFFFFFFFFFFFFFFFFFFFFFFFE7
:10092000FFFFFFFFFFFFFFFFFFFFFFFFFFFFFFFFD7
:10093000FFFFFFFFFFFFFFFFFFFFFFFFFFFFFFFFC7
:10094000FFFFFFFFFFFFFFFFFFFFFFFFFFFFFFFFB7
:10095000FFFFFFFFFFFFFFFFFFFFFFFFFFFFFFFFA7
:10096000FFFFFFFFFFFFFFFFFFFFFFFFFFFFFFFF97
:10097000FFFFFFFFFFFFFFFFFFFFFFFFFFFFFFFF87
:10098000FFFFFFFFFFFFFFFFFFFFFFFFFFFFFFFF77
:10099000FFFFFFFFFFFFFFFFFFFFFFFFFFFFFFFF67
:1009A000FFFFFFFFFFFFFFFFFFFFFFFFFFFFFFFF57
:1009B000FFFFFFFFFFFFFFFFFFFFFFFFFFFFFFFF47
:1009C000FFFFFFFFFFFFFFFFFFFFFFFFFFFFFFFF37
:1009D000FFFFFFFFFFFFFFFFFFFFFFFFFFFFFFFF27
:1009E000FFFFFFFFFFFFFFFFFFFFFFFFFFFFFFFF17
:1009F000FFFFFFFFFFFFFFFFFFFFFFFFFFFFFFFF07
:100A0000FFFFFFFFFFFFFFFFFFFFFFFFFFFFFEFFF7
:100A100080221206C24003000020994203DD1043E9
:100A200001335208F9E7704700B5032808D80A4B8C
:100A300006F0A2FE0207090C4022002909D05A60E4
:100A400000BD8022F9E78022D204F6E78022520519
:100A5000F3E79A60F4E7C04600F00F40002804D0A6
:100A600002384342584180017047034B1B68587855
:100A70002430C0B2F8E7C04668F0FF1FCD235B000A
:100A8000C35C30B5002B03D0022B17D1722409E0D0
:100A9000B223FF33C35C7224DB0703D5084B1B680A
:100AA000BF331C78D8235B00C25C511800224D1C58
:100AB00003D00A00A14200DD2200C25430BDC0466E
:100AC00068F0FF1F30B5039D040002280ED00020FF
:100AD000032C0AD10C689C4203DA01340C6001300B
:100AE00003E0002D01D00A60012030BD0868824279
:100AF00002DA01380860F7E700208542F5D00B6084
:100B0000EDE7204910B50B0044331B78DBB2012B15
:100B100005D0022B29D0002344310B7010BD1A4B95
:100B20001A481A5018381C5CE4B2012C18D0042C56
:100B3000F1D1002A17D1164C1A5940321A510834F3
:100B40001A5940321A51134C1A59403A1A514A6DE7
:100B5000114CD2B21A550A24104A9C54052200E0C6
:100B600002221A54D7E70622FBE70A007032137AF2
:100B7000DBB2002B03D0012BCDD1032300E00123F6
:100B80001372C8E768F0FF1FECFEFF1F180A000091
:100B9000080A00000C0A0000140A0000150A0000F0
:100BA00010B5024800F0FEFE10BDC04698090020B6
:100BB000F7B51E4C20000BF0F9F928230700184266
:100BC00015D01B4DE3792E00DBB201934936307806
:100BD0003F21013006F054FF2B004A331B78C9B285
:100BE000994204D03378ED18019B6B7231703B064B
:100BF00015D50F4B1A001D008B328C3511782A78D1
:100C000091420DD02A783F219B184B331B78DBB2E1
:100C1000E3712878013006F033FFC9B22970F7BDBF
:100C200080210248090206F0B3FCF8E700A0064064
:100C300009090020F7B501223C4B3D4C1A61636D58
:100C4000E06C9B186365230048331A72A36DA56D91
:100C5000019303685B689847854226D2E06C03687D
:100C60005B68984700220023A06522666366A36D37
:100C7000019A5A401300FF22934355D0A56D2D4889
:100C80002D0A290060300AF0CFFB2B4C29002000F0
:100C900008300AF0C9FB23003033187801380328E4
:100CA00034D806F069FD2F2F2A2AE06C266E676E75
:100CB0000368DB68984702000B003000390007F03A
:100CC0009FF90F00060008F0FBFDA36D0500C31897
:100CD000E06C009303689B689847009B8342C6D2F0
:100CE000A365280008F022FE02000B003000390046
:100CF00008F04AFA20666166B9E7230030335B7872
:100D0000002B03D0F8210D4801F024F81821280009
:100D100006F0B6FE002907D1636C3434DDB2013130
:100D200020000AF064FA2576F7BDC046FC70034047
:100D300068F0FF1FE8F0FF1F68F1FF1F090900209E
:100D400000B51B2800D96FE0574B022809D00328B3
:100D500000D190E0012807D15B785B0803401800C0
:100D600000BD5B780120F9E7892255331B7892009A
:100D70009B184E4A9B0004389A5800231728EED837
:100D800006F0FAFC0C31292B3B131517191B1D1FFC
:100D90000F392527213335233F41434BCD235B00BA
:100DA00001E09C23FF33D35CD9E7CE23F7E79E23F2
:100DB000F8E7CF23F3E7D023F1E7D123EFE7A4232C
:100DC000F0E7D223EBE7A623ECE7D523E7E7D6232A
:100DD000E5E7AE23E6E7B023E4E7B223FF33D35CD5
:100DE0009B07DB0FBBE7AC23DCE7D323D7E7D42398
:100DF0005B00D35EB3E7A223D4E7B223FF33D35C17
:100E0000B0E7D923CBE7B423CCE7F6235B00D25C71
:100E1000274B9200D3185B69A1E7F6235B00D35CF4
:100E2000234A04339B00F5E7212810D81D380023FE
:100E3000042800D993E71D4B06F09EFC05031D21F5
:100E400007001C4AAFE71C4AADE71C4AABE700238A
:100E50002B2800D983E72338082800D97FE706F03C
:100E60008BFC05081013161F191C0C00144B5B6D2E
:100E700075E7144B48331B7871E7124B48335B78A6
:100E80006DE70F4B1B7B6AE70D4B6033F3E70C4BB1
:100E90006033F4E70C4B1B7A61E70B4B5B7A5EE740
:100EA000094B3033E7E7C04654F5FF1F24F6FF1F18
:100EB000E8F1FF1FC5080000C4080000C7080000D3
:100EC000E8F0FF1F68F0FF1F68F1FF1F00B5012366
:100ED00000280ED01B2836D800280CD0022808D9AC
:100EE00003001A3B012B06D82A4A2B4B9B5C581E49
:100EF0008341180000BD8922284B920055331B788E
:100F000005389B18234A9B009B580E2840D806F0B2
:100F100033FC173F3F3F3F3F3F3F0812123F3F0B1D
:100F20000B00A222FF32E1E7A222FF329B5C013BD1
:100F300058424341DDE7A222FF329B5C023BF7E7C8
:100F4000F6225200D2E701232128D2D900232B28F0
:100F5000CFD8233807281BD806F00EFC041A081A2D
:100F60000D1A1A170E4B48331B78E1E70C4B483328
:100F70001B78033BDCE70B4B60331A78002301211D
:100F8000013AD2B291425B41B3E7074B1A7AF5E7D7
:100F90000123AEE724F6FF1FC708000054F5FF1F2A
:100FA00068F0FF1FE8F0FF1F68F1FF1F0122044BEC
:100FB00004495433DA77FE235B00CA547047C046B5
:100FC00068F1FF1F54F3FF1F70B52A4D04002B007A
:100FD00074331A78002A09D1274B996A002905D061
:100FE0009A62264B5133DA77FFF7E0FF74352C70A5
:100FF000012C1AD063B2002B02D0022C26D070BD77
:101000001D4A03241000593001781371A1439360E5
:10101000D3601361536101709362D36213631362EF
:1010200093841749174A8B54E9E7F6221421164B8B
:1010300052009B50043299540022E131FF315A5042
:1010400004315A50FD32FF329C52D8E7F6220E4B43
:101050000E49520099501521043299540022E03172
:10106000FF315A5004315A50FD32F839FF32FF39FE
:101070009952C4E7E8F1FF1F54F5FF1F68F1FF1F05
:1010800024F6FF1FC708000054F3FF1F44F4FF1F9E
:10109000F8B5050002380C00122800D970E006F0FF
:1010A0006BFB0A6F156F6F4848484248342E6F48F3
:1010B0003A483A6948008023DB01994232D0324BEA
:1010C000994254D0022000F07DF910E0802904D02C
:1010D0002E4B99420CD00420F5E72D4B00207433A1
:1010E0001B78013B012B00D90120FFF76DFFF8BDF4
:1010F000274B022074331B78022BF6D1F4E70A0049
:1011000024480D2103F086FFF1E70A000C21224854
:1011100004F0EAF9EBE721480022214950300AF0B7
:1011200036FAE4E700241F4B1F4AD55C6B425D4151
:1011300008351E4822002900483000F073FE082DB3
:101140000DD10026124F3437F0B20021FFF76CFCAE
:1011500000223301DB1901361A70042EF4D122006B
:101160002900114804F012FB22002900CFE70024D7
:101170000725DEE70A000C48132104F007FBB6E759
:10118000210028009FE7C046024000008080000048
:10119000E8F1FF1F54F3FF1F54F5FF1F68F1FF1F15
:1011A000B9C70000BC08000024F6FF1F68F0FF1F4D
:1011B0001C4B73B59A6812072AD50422D96898681F
:1011C00002439A60CB0723D5174B184C5E6D230062
:1011D00028331A78022A1CD1256AAE4213D96069D5
:1011E00008F0E0FB751B00900191280008F0DAFB85
:1011F00002000B000098019907F078FAAD00A06199
:10120000E161AD1965622369626926629B182361F9
:1012100073BD00210222092061621A70FFF738FFB6
:10122000F1E7C0460090074068F0FF1FE8F0FF1F9D
:10123000F7B5324C05002300783408332000012133
:10124000DE6F09F0D4FF28002D4BF6B25B6DF83845
:1012500026760193042836D806F08EFA0335283610
:101260004400284C230030335A7D012A1BD0636B85
:10127000A06C1B186363022A13D0256C019BAB4240
:101280000FD908F08FFB019B0600581B0F0008F0D8
:1012900089FB02000B003000390007F027FAA06339
:1012A000E163019B23643034002319E0154C0125D0
:1012B000230044331B782B4205D000210720303413
:1012C000FFF7E6FE6575F7BD0E4C230044331B782F
:1012D000DB07F8D500210920FFF7DAFE02233034BE
:1012E0006375F0E7074C230044331B78DB07EAD52E
:1012F00000210820FFF7CCFED5E7C046E8F1FF1F2C
:1013000068F0FF1FE8F0FF1F10B50A001B2827D860
:10131000264B02280CD0032810D0012814D1511ECE
:101320008A4151005A78013082430A435A7010BDF5
:101330000120511E8A4159788143F6E719700E2029
:101340000021FFF7A5FEF2E7892155331B788900BC
:101350005B18010016489B00185803F059FDE6E79A
:1013600021281AD81D380428E1D8114B06F004FAB8
:101370000603080D0F000F495A54D8E70E49FBE742
:101380001970180000F0DAFED1E75970F9E70B493F
:1013900018005A5401F038FBC9E72B28C7D8084B6E
:1013A00001004833180003F0DFFDC0E754F5FF1FCC
:1013B00024F6FF1FC5080000C4080000C70800008D
:1013C00068F0FF1F094B10B574331B780A00002B1F
:1013D00006D0022B08D80100054803F01BFE03E0ED
:1013E0000100044804F080F810BDC046E8F1FF1F7A
:1013F00054F3FF1F54F5FF1FF7B54E4E070033009F
:101400000833DB6F7836DBB20C00300001211500A9
:10141000019309F0ECFE019B3376474B1A78974213
:1014200001D0102A3ED1596E002D3CD00020434AF5
:10143000884204DA155CA54201D30130F8E7092996
:1014400001DC013159665A6E90422BDA911E5832F6
:101450009A18884204DC157801395570013AF8E78A
:101460001A185A32147000281CD18C215533344A72
:101470001B7809015350334954543349515C0229B4
:1014800010D12100243930290CD8892189005B181A
:101490009B009A58D4233C3C5B00D45200210D2081
:1014A000FFF7F6FDF7BD2F002A008A4217DA9818D9
:1014B0005A300078A0420CD15542554110005A30A4
:1014C000EDB24F1E181801328A4204D139000127AB
:1014D000013A0132E9E7467806700130F3E7002F60
:1014E00000D05966002DDDD0596E0029BDD18C2366
:1014F000134C1B01E358002B12DB134AA25C022A97
:101500000ED1124AA25C012A0AD0892292009B18AD
:101510009B001A59D4235B00D1520D20FFF7B8FD70
:101520008C2301221B015242E2500022054BE2545F
:10153000B8E7C046E8F1FF1F54F5FF1FAEF5FF1FE7
:1015400024F6FF1FC6080000C4080000C5080000FC
:10155000F7B5002426002500144B48330193019B66
:101560001B7A002BFBD0FA2700227F006F43019BE0
:1015700002211A720E483A0000F012FE3A000321CE
:101580000B4800F00DFE0B4B01359D4200DD0025A0
:101590000134322CE3DD724256410748F6B2143072
:1015A0003200032100F026FE0024D8E768F0FF1F78
:1015B000FCF1FF1FFF0F0000E8F1FF1F024B034A81
:1015C000D05C431E98417047C708000024F6FF1FF7
:1015D000E62370B52E492F4C5B0023802022143166
:1015E0002D480AF0F9FCBC232C4EFF3363843300F2
:1015F0002B4D483329001B885431A38404222948E9
:101600000AF0EAFC2300290020002A7B2A331A7002
:10161000603102222B300AF0DFFC234D200029002C
:1016200002222D3008310AF0D7FC2A002300303284
:1016300012782F331A7000231A00A15C0132CB18E4
:10164000DBB2302AF9D1220030321370301D04F0A1
:10165000BBF9A0221201A35CDBB2002B0ED101204A
:101660001249404260501249323063501149635070
:1016700011496050043163500433A354301D04F009
:10168000A3F92800002250300C4909F080FF70BDFA
:10169000E8F1FF1FECFEFF1FEEFEFF1F68F0FF1FCB
:1016A000E8F0FF1F12FFFF1F68F1FF1F180A00007C
:1016B000040A0000080A00000C0A0000BFC700006E
:1016C000F7B5264D01932B000833DF6F7835040002
:1016D0000E00280001210092FFB209F088FD204889
:1016E000204B2F76C25C002A0CD00099019A002969
:1016F00000D05242012C06D0002C03D02100153915
:10170000032905D9F7BD642EFCD1FFF761FFF9E786
:10171000622E0ED0632E18D00F2E05D1511E072930
:1017200002D8C25401F070F900210D20FFF7B0FC7F
:10173000E8E713006333C62BF6D81A210A4BE418E6
:10174000A400005903F064FBEEE713006333C62BDB
:10175000EAD8054B1B21E418A400F2E7E8F1FF1FCB
:1017600024F6FF1FC70800000F020000A02270B57A
:10177000364C1201A35CDBB2002B0CD101203449A2
:101780004042605033496350334963503121334BF9
:10179000E1500123A354324D281D04F015F923789C
:1017A0003048CC2B0ED06378012B0BD020220021A7
:1017B00014300AF01AFC00222B482C49503009F052
:1017C000E6FE3EE0230014303033202228491E7804
:1017D0000AF002FCE31CDB7FBB2B33D1231DDB7F34
:1017E000012B2FD100231A00A15C01325B18DBB260
:1017F000302AF9D19E4225D1A38C48352B801D4D2E
:101800002C3A28001C4954300AF0E6FB2300210042
:1018100028002A331B782B312B73022260300AF008
:10182000DBFB114D210028002D31083002222F341E
:101830000AF0D2FB237830352B7000211420FFF7FB
:1018400027FC70BD084800220C49B7E7ECFEFF1FDB
:10185000180A0000040A0000080A00000C0A000030
:1018600068F0FF1FE8F1FF1F68F1FF1FC8C7000005
:10187000EEFEFF1FE8F0FF1F12FFFF1FD0C70000A2
:10188000F0B5002401250F23261C6D4200210F4ACC
:1018900016700F4A15608B4216DC15640131043254
:1018A0001029F7D10B4A0F39A03211700A4A313191
:1018B000483217001672387A0028FCD00139002906
:1018C000F8D1013BE2D2F0BD1464E7E7380A00200A
:1018D000400A00209809002068F0FF1FF8B5002496
:1018E0001E4D00221E4B28001A7009F0A9FC202171
:1018F0002000091BFFF78CF81F21661C0700891BBD
:101900003000FFF785F86310E20F14191900641016
:10191000644222003A314934A40089004F51675192
:10192000104C78400F3201339A4202DD990060502A
:10193000F9E72B000122A0331A700B4B1332483306
:10194000190000201872087A0028FCD0013A002AF9
:10195000F7D13400102EC4D1F8BDC046980900203C
:10196000380A0020800A002068F0FF1F10B504002C
:10197000142910D1406807F0D9FF0022064B07F068
:1019800091F90022054B07F08DF90022044B06F077
:10199000ADFEA060E16010BD000038400000704066
:1019A000004CED40F7B50121A04B07001962DA6940
:1019B0008A43DA619C225200825C01938A425FD0A2
:1019C000002A09D0022A00D18FE0019BDA690123A5
:1019D0001343019AD361F7BD0500FC35AB6B944C02
:1019E0000093002B14D10600A0363378002B07D0CB
:1019F00001008022A83110300AF0EEFA009B33700B
:101A0000802380229B0592026360A2606260A360D3
:101A1000F82380261F219C46072036016246AB6BC7
:101A200013400A000240134304339B00DB59AA6BA6
:101A30000093634602400B401A4380231B06D340A9
:101A40001A00009B134219D066608023DB00A3605C
:101A500063600139E2D28022022392026360A260B5
:101A6000626080225202A26062600122A36037336A
:101A7000FF33FA542B6B019A5361A6E7A660E4E7A3
:101A800002226B4B80265A60F6321F2094460725AF
:101A900036013C006146FC34A26B0A40010029403B
:101AA0000A4314329200D259A16B00926246294037
:101AB0000240114380221206CA401100009A0A42D5
:101AC00011D05E608022D2009A605A600138E0D264
:101AD000802252029A605A6002229A609C235B0024
:101AE000FA54E36AC7E79E60ECE7802109011F24EE
:101AF0008C464F4B5A603800FC30816B0090F826C2
:101B000007200E400140F13020400143802007258E
:101B10000006C84025402E43B600BE193569366D13
:101B2000054061462E4241D059608021C90099602C
:101B30005960013CDFD2802149029960596002213D
:101B4000802499601969640421404C4261414942F2
:101B50000A401969890102D401210A43D2B239002D
:101B600090310C78944231D03C00913425789542E4
:101B70002CD03D009235032A21D10E78022E05D1BA
:101B80002678002E02D12E78012E11D00E78012E4B
:101B900015D12678002E12D12E78022E0FD1942046
:101BA0008446BC4460460668013E07E09960BCE795
:101BB00094208446BC446046066801360660267858
:101BC000F6B22E700D78EDB225700A70009A196980
:101BD000926B490207D415000124083DAC403988B6
:101BE000214389B239801B69DB0405D4012191406E
:101BF0007B880B439BB27B8001320F2A08DC009B61
:101C00009A639C2300225B00FA54009B5B6B32E7D3
:101C10000023009A93637A8892B27A603A8879684E
:101C20000A437A603B807B80EBE7C046FC70034050
:101C300000F00F40F0B585B00A980B9C2E2960D0BB
:101C400046DC24295FD009DC1A2523290BD00D009E
:101C5000303D092D4BD810390D0004E02B2954D00C
:101C60002A252D29F3D10721A943890001911421A7
:101C7000ED104D432949170049195D1D02951C259A
:101C8000AA1A1C3F0392002B39DB0C9D9D4236DDC6
:101C9000019D0E68EE400F252E403500FD40002FBF
:101CA00002DA3500039A9540002805D09E00B4461C
:101CB000624686592E438650002C03D09E00A259BE
:101CC0001543A551029A013304319342DBD116E04A
:101CD0003E291CD005DC3A291BD01D253D29C2D048
:101CE000B5E73F2917D02F257E29BCD0AFE70D00DF
:101CF000413D192DB7D961390D001929B3D905B066
:101D0000F0BD2B25AFE72D25ADE72E25ABE72C2524
:101D1000A9E71C25A7E71B25A5E7C046E8C20000E8
:101D2000F0B5142285B00F000021050000240AF050
:101D30005CF905260023A200395D02960193009507
:101D400003480134FFF776FF042CF3D105B0F0BD52
:101D50009809002070B5050004008B3528780E0026
:101D600001303F2105F08CFE23008C331B788B4221
:101D700005D02B78C9B2E4184B3426702970802125
:101D80000248090205F0F2FB70BDC04600A0064003
:101D90001FB5054904000E22783168460AF01CF987
:101DA0006B46185D04B010BDE8C2000082B0054A61
:101DB00001AB1A8001229A705B5C01711B02C36047
:101DC00002B070470C06000082B0054A01AB1A80D1
:101DD00001229A705B5C4170C36102B07047C046DB
:101DE0000C06000010B50E4B02290FD003290AD0B3
:101DF000012913D11A004433303242601A788A43E1
:101E00001A70017010BD08334360FAE71A003032CF
:101E10004260012244331C782243F1E75033F3E758
:101E2000E8F0FF1FF8B50C0017000B2903D01429A8
:101E30003CD0072905D100230022036100238261E1
:101E4000C361284E3A00300021005030FFF78EFD6C
:101E500030003A000830210009F032FA30003A0030
:101E60006030210009F074FA1F4D3A00280021006B
:101E7000083009F06DFA30003A003030210009F0E6
:101E800088F9082C16D0092C22D0072C0DD12B0054
:101E900030331B78022B01D0042B03D1FA211348D5
:101EA000FFF758FF012330356B70F8BD0178FFF75D
:101EB00099FFC6E72B0030331B78022B01D0042B8F
:101EC00003D1FC210948FFF745FF30350023EBE73C
:101ED0002B0030331B78022B01D0042BE2D1FB21E5
:101EE000DDE7C046E8F0FF1F68F1FF1F0909002089
:101EF000F0B50024471C44608460C4600461446100
:101F00000460F97F85B00500A14222D0C31CDB7FAD
:101F1000022B20D0032B02D11034641A64008900F4
:101F2000091901392000FEF773FD002628602B00F7
:101F30001833995D052302930023B200281D0193F5
:101F4000009012190648FFF775FEFB7F0136B34279
:101F5000EDDC05B0F0BD0824641AA400DFE7C0463C
:101F600098090020F8B5CD235B00CB5C0600150076
:101F70003F4C012B00D16CE0002B07D0022B61D02D
:101F800020003168503009F0C6FAF8BDD5B2220001
:101F9000012151322300D177232250335A760B315D
:101FA000280005F083FCC8B201380A280BD805F0D8
:101FB000E3FB06252129312D3935413D450023001C
:101FC00002225133DA772300432250331A760C2150
:101FD000280005F0E5FB2500C1B25035013901228A
:101FE000280009F075FA81235B006B84FA239B00BB
:101FF0006367C5E7230002225133DA7723004422C6
:102000005033E3E7230045225033DFE72300022269
:102010005133DA77230046225033D7E723000222D8
:102020005133DA77230047225033CFE723000222CF
:102030005133DA77230041225033C7E7230042228D
:102040005033C3E7110020004039503009F083FAC3
:1020500096E727002300002251335037DA77290012
:102060006432380009F034FA81235B007B84BDE7D9
:1020700068F1FF1F70B50E000500094C00225034B6
:102080002000084909F083FA31780122490620002E
:10209000090F09F04FFA2968200009F03CFA70BDD9
:1020A00068F1FF1F79C7000070B50E000500094CEC
:1020B000002250342000084909F069FA71780122A1
:1020C00009072000090F09F035FA2968200009F0F6
:1020D00022FA70BD68F1FF1F8DC700000B7870B544
:1020E000074905005B0700D40649074C002250341D
:1020F000200009F04CFA2968200009F00CFA70BDA4
:102100007EC7000085C7000068F1FF1F70B50D0095
:10211000084C010050342000002209F00BFA200086
:102120000122054909F033FA29000122200009F0B3
:1021300001FA70BD68F1FF1F3EC6000073B56A4624
:10214000154B06000093154BCD36938001239371F8
:10215000002302784478337061B200291ADB3178A9
:102160004A2917D84518AC701D004D3545199C42B9
:1021700004D301332970DBB20135F8E76D46AD5C5D
:1021800001326419D2B2E4B2062A00D90022013128
:102190003170E1E773BDC046020201020202000095
:1021A00010B580248B00C018036864011B195343C9
:1021B000DA171205120DD21803691213D2180B4B3D
:1021C0009A4202DCD343DB1713409AB2084B043126
:1021D0007033490059184888904205D04A801A7ACD
:1021E000022A01D101321A7210BDC046FF0F000051
:1021F00068F0FF1FF7B504000B0108000021E41888
:10220000A31CD9770134E67F15000193964206D0CE
:10221000012A1DD057B28F4202D0022A05D0F7BD45
:102220003900FEF701FCE777F9E7012E10D1FEF740
:10223000FBFBE577019B0C4CDD77230031008833F5
:102240001D687834EDB2200008F0D1FF2576E6E76E
:102250000121FEF7E9FB0121E177034C23008833DC
:102260001D687834EDB2EEE768F1FF1FF0B587B076
:1022700003900D001700541A00D52034002C46DDC1
:10228000032633006B43039A7743D31898784006AC
:10229000400E07F087FB039B00900191DF19B8788F
:1022A00037004006400E07F041FB009A019B06F004
:1022B0006BFF04900591200007F038FB02000B0033
:1022C0000498059906F012FA049005917C36013CB9
:1022D000002C1CD001351F2D00DD0025049A059B24
:1022E0000098019905F08CFE00220A4B00900191A4
:1022F00005F086FE05F014FC3B006B43039AD318EF
:10230000020098783240B04310439870DFE707B07E
:10231000F0BDC0460000E03F30B5CD246400045D50
:10232000002C0AD1B224FF34045DE40705D5104C1B
:10233000C9B2246864184D342178D8246400055D3E
:10234000002A08D00A00083AD443E4171440D823DE
:102350005B00C45430BD2C00CA1AAA42F4DBCA1870
:102360000C35AA42F3DD0A000C3AD218ECE7C0465D
:1023700068F0FF1FF8B5CD235B000400C05C0D00C2
:10238000FEF76CFB002162230E000A0003275D4369
:102390003B0053435B19E3189B787F2B03D95B0603
:1023A0005B0EF618013101321F2AF1D100290AD043
:1023B000300005F07FFA07F0B9FA0022054B05F06E
:1023C0001FFE07F07DFA0100032301222000FFF722
:1023D000A3FFF8BD0000E03FF62370B55B00C25CD0
:1023E0004A3BC254A4228021A23BFF3BFF328354CC
:1023F0000901013281520521002502328154023245
:102400001349855004328152B0228021FF32835417
:102410004900153A81520F49023281500821043295
:102420008152B221FF310400425C072082431343F2
:102430006354D9235B00E552200009F0E7F9290035
:102440002000FFF797FF200009F020FB70BDC04679
:10245000647F00000B003200CD23F0B50025A7B04B
:10246000019102925B00C65CAE4207D1B223FF33FA
:10247000C35C3500DB0701D52F4B1D68B023FF334C
:10248000C35CB21E039353425A4100249301049348
:1024900062232700019906AA4B43059303237B433C
:1024A00005995B18C3189B787F2B42D95B065B0E9E
:1024B0001360002D33D0EB184D331B7802995B1855
:1024C00031D4CD218C46AC44614609788B422ADA5E
:1024D000EB189B780124136001370432202FDDD1E3
:1024E000002C22D062230199002259431D339C46BF
:1024F0000323950006AEAE596546674653435B1805
:10250000C3182E409D780132BD4335439D70202A6B
:10251000EED14018049A039909F08EF806E002996A
:10252000CB187F2BD6D9012ED6D00024200027B07F
:10253000F0BD00231360CFE768F0FF1F70B5E925F9
:102540006D00425D0400FF2A07D0D1235B00C15C0F
:10255000024808F0A4FEFF23635570BD090900205E
:1025600070B5E82504006D00002917D0E9235B0051
:10257000425DC35C93420BD0D223D121FF3349008B
:10258000C35C415C0C4808F076FE2000FFF7D6FFE4
:10259000E8235B00E25C0233E25470BDFFF7CEFF3C
:1025A000D223D121FF334900E35C625D615C0248C4
:1025B00008F061FEECE7C04609090020F62310B5DB
:1025C0005B000400C15C074800221430FFF712FED4
:1025D000EE2200235200A3500432A3502000FFF744
:1025E000ADFF10BDE8F1FF1FF0B58DB00591E02102
:1025F00049000293435C07001D0002200692129CD2
:10260000054000D1AEE083437B54DC235B00FB58E4
:10261000FF221900DA235B00FB58032511400793C2
:102620001A406223694353430AAEC91879182A0035
:10263000300009F0D1FC32880BA90A80B378200061
:102640008B7009A90A808B702A0009F0C5FC029BD7
:10265000002B1CD01B78012B19D17F21029B9A786B
:10266000A3780A408B431343A370029B5B78012B32
:102670000DD1DC2236315200FF31BA58795801931E
:10268000D2B2C9B200952300380009F0D6F8CE23A3
:1026900087485B00F95C483008F004FFEC235B00DE
:1026A000F85023785B061B0F0AD0069A934207DA8C
:1026B0000321200008F0A6FF102362781343637003
:1026C000CE235B00F85CFFF763FB0502059807F07B
:1026D00069F902900391280007F064F902000B00E9
:1026E0000298039906F002F80022724B05F088FC6C
:1026F00007F0E6F8CF2368435B000290F85C07F030
:1027000015F900226C4B06F03FFD6C4B002205F0E2
:10271000EDFF07F077F99E23FF33FB5C6D08061C85
:10272000022B00D19CE0032B00D1ABE00024012B55
:1027300000D09EE0B222FF32B433BA5CFF33FB58C4
:102740009207D2171340DC225200BC58DAB262233F
:102750005343FB18603318780134241A002C7CDAB8
:102760000434FBE7F4225200BA58059E94462A002E
:10277000B44500D983E0012293437B54DA235B0004
:10278000F958B223FF33FB5C184003005A1E9341F3
:102790005B4219406223C9B2594379180B00DC220D
:1027A000613352001E78BB589E4232D1CC235B006D
:1027B000FA5C002A0ED02433FB58013A0133DBB215
:1027C000934200DB2B00FB188933FF331A78DA239E
:1027D0005B00FA50DA22411E88415200BB58404249
:1027E0000340D9B262234B43FB1860331978DC23D2
:1027F0005B00F9509A23FF33FB5C002B24D1380097
:1028000008F0D2FFE02201235200B95C0B43BB5415
:10281000FBE660310978B1420CD9013B02D51F2398
:10282000BB50F2E6994201DAB950EEE69E42F7DD7E
:10283000BE50EAE601331F2B01DDBD50E5E69E42A6
:10284000F6DB9942F0DCEBE7DE235B00FB58FB187C
:102850008933FF331B78BB50D1E70120044008D0F7
:10286000280005F083FB311C05F04AFA05F05EFBF9
:102870000400029B0122E418F4235B00FC50D0B258
:102880000DB0F0BD08F08EFB290005F0F9F8080046
:1028900005F06CFB80231B06F11805F031FA05F0FA
:1028A00045FB040008F07EFBC307E2D56442E0E785
:1028B00068F0FF1F0000F83F0000494000003A4068
:1028C000D523F7B55B00C35C012B06D00024022B97
:1028D00006D1127800241A4202D0EC235B00C458BF
:1028E000F62300225B00C55C914241DDA623FF3345
:1028F000C35C090A092B07D00A2B14D02C4B994230
:102900004AD8FA20400004E02A4B994244D8962045
:102910008000C0234843C021DB00C018090104F037
:102920003FFF020024E0CBB209120193CEB2482946
:102930002FD00C21300004F0B9FF1F4FC9B249005D
:102940000637CF5FF422019878435043C217120331
:10295000120B12181215BF180520472E04D80C218F
:10296000300004F01DFFC0B205233A00181A0241DE
:10297000110412482E01AB1C002C0FD01B01C318F0
:1029800086199869F163081A210004F093FF3064F6
:10299000F7BDFA273F01D5E7094AE9E71B01C3184C
:1029A00086199961346414302900FFF7F9FBEFE7C9
:1029B00048620000E451000068C30000E8F1FF1F16
:1029C000FF0F0000F8B589230400070000251B0154
:1029D000D034C61834602000FFF7FEFC200009F058
:1029E000C6F8F62208CE52009D54F1340135FF346A
:1029F000042DEFD10023024ABB54024ABB54F8BD58
:102A0000BC080000C7080000F7B50D4BC35C002BE5
:102A100015D0FA2676005E438923F6271B01C418D9
:102A2000084D1033C31801937F00143508CC3200D1
:102A3000D95D2800FFF7B4FB019B9C42F6D1F7BD9E
:102A4000C7080000E8F1FF1FF0B5D34B8BB0C35CA3
:102A50000700002B00D14CE20023099308F070FA24
:102A6000CE4B184004D5102301385B421843013087
:102A70000024431C0493CA4B03949B6D059308AD3B
:102A80002800032108F0BEFD89231B01FE18A300C6
:102A9000F0588C231B01FB5800950693A34200D0ED
:102AA00040E1C04BFB18049A0599FFF79DFD0028F3
:102AB00011D0102208A94B7813420CD10D3A130003
:102AC0008A20634300013818C01809F085FA0123F1
:102AD00009AA135503930134042CD0D1039B002B76
:102AE00000D106E20024049606940594AC233568D0
:102AF000FF33EB5C0793023B012B09D803238A22A7
:102B000063431201FB189B189B7806987F2B23D9EF
:102B100003238A2263431201FB189B18CD229B7862
:102B200052005B06AA5C5B0E1804022A01D1403BEE
:102B30001804A623FF33EB5C072B06D80133584358
:102B40000C237F21584304F0B5FE0222079B9343D8
:102B5000012B01D1069BC018B223F061FF33EA5C60
:102B60000793530713D4B423FF33EA5C531E002AA0
:102B700002D1F6235B00EB5C032253438A22FB184D
:102B800012019B181B785B0701D5039B0593013449
:102B900004360690042CA9D1834B1A0060321278B7
:102BA000082A04D108330599D86F08F020FB7F4B21
:102BB0001A7A082A03D10599D86A08F018FB8A23E3
:102BC0001B01FB180593049B1C68079BE35C5B07D8
:102BD00000D586E1B426FF36A35D5A1E0392002B72
:102BE00003D1ED33FF33E35C0393D9235B00E25C55
:102BF000531E002A02D1F6235B00E35CD42252006C
:102C0000A55E6B4A2D049B189B00FB185B68ED18B2
:102C10009C23FF33E35C012B00D185E0022B00D124
:102C200088E0D3235B00E35C052B04D0C022053B86
:102C300012035343ED185F4BFB5C002B0AD10322B8
:102C4000039B29005A438A231B01D218BA1820007B
:102C5000FFF736FEA223FF33E35C022B22D1564A54
:102C60007D3395420BDC554A0023954207DB8023D8
:102C70001B02E918CB179BB25B181B14DBB2E422D2
:102C800018045200A050043AA158203AA25C002A2D
:102C90005DD0EC235B00401AE15804F00BFEE62304
:102CA0005B00E050A25D531E002A02D1F6235B00B8
:102CB000E35C09AAD35C002B00D112E1EE230022D1
:102CC0005B00E250039ADA3BFF3B53438A22FB1836
:102CD00012019B185978CA0648D5EA235B00E258CE
:102CE0001833002A77D0A223FF33E35C012B00D0F6
:102CF000F7E003228A21039B09015343FB185B1869
:102D00001B78134200D1B7E0002D00DBBDE02C4B57
:102D1000EA18D517ADB2AD182D14002D00DDB8E0BE
:102D20000C35FAE70023BEE6EB43DB171D402D14FC
:102D30002D0476E7EA431A4BD21715401B682D1471
:102D4000EDB25D194D352A789B189D78F0E78842E1
:102D5000A8D0E2225200A050D121A4224900FF3283
:102D6000A25C615C174808F072FA9BE7022001221E
:102D70001B781840134202D10B071B0F24D0F226F8
:102D8000760000282AD1D0235B00E35C002B57D0CB
:102D9000102B57D1A05123E0BC0800000F00008089
:102DA00068F0FF1FC4080000E8F0FF1F68F1FF1F74
:102DB0002A020000C7080000FF7F7F000180FEFF9D
:102DC0000080FFFF09090020EA21490000284ED0B9
:102DD0006350F6235B00E15C89482DE00023A3519A
:102DE000F2235B00E258103BE250039AD23BFF3BD8
:102DF00053438A22FB1812019B185E783607360F60
:102E000031D0CE237F485B00E15C483008F04AFBBC
:102E100010239E1B4643013BF01718408019CE3308
:102E20000011FF33E050EE235B00E2580433E25020
:102E300002220C33E15C72481430FFF7DBF952E7F1
:102E40000523CCE7CE236F485B00E15C483008F0F7
:102E500029FBD0230F225B00E35C4343D8171040CB
:102E6000C018001196E7EE235B00E650DBE76258DE
:102E7000002A00D037E7ACE7EA235B00E358002BD9
:102E80002FD12000FFF75AFB2BE080231B02ED1807
:102E900042E77F2D01DD0C3DFBE7E8235B00E554B5
:102EA000039ACE3BFF3B53438A22FB1812019B1827
:102EB0001B785B0754D5AE23FF33D222E35CFF328D
:102EC000A3540323039A002153438A22FB181201BF
:102ED0009B181B789A0701D5013199432000FFF711
:102EE0003FFB049B04330493049A059B934200D058
:102EF00069E68923EA261B01FD181033FB180393AA
:102F00007600B22304222C68FF33E35C13424DD1D8
:102F1000A259002A0DD0013AA251002A09D1F62364
:102F200037485B001430E15CFFF764F92000FFF7DD
:102F300005FBE62040002758002F24D0E222520053
:102F4000A35819148C46E421FB18A350490061587A
:102F5000002F08DD8B4208DD0023A150235004E040
:102F6000D6235B00A9E78B42F6DBA3581B149C45D4
:102F700009D0A422D121FF324900DBB2A25C615CFE
:102F8000214808F064F9EE235B00E358002B06D0DB
:102F9000F0235B00E758002F0ED0013FE750EC22F2
:102FA0005200A358002B27D0013BA350039B0435AC
:102FB000AB42A6D10BB0F0BDF62311485B00E15C3B
:102FC00002221430FFF716F9F2235B00E358A351F5
:102FD000A223FF33E35C012B08D1D033FF33E35C42
:102FE000FF2B03D039002000FFF7BAFAEE235B0075
:102FF000E2580433E250D2E7EE225200D5E7C04651
:10300000E8F1FF1F68F0FF1F09090020D523F0B584
:10301000284C85B05B00050001912380010002224D
:10302000254808F0D9FF89231B01EF181033EB184E
:10303000224D03933E68280031008931FF312C2254
:1030400008F0CAFF02952C3531002800622208F0F2
:10305000C3FF029B6235B533FF3362369D42F3D125
:10306000039B04379F42E5D100231A001449A05C5A
:103070000132C318DBB28A42F9D1A0210020A35447
:103080000901635CDBB2834211D10E4A0138A050C2
:1030900001980D4AA05002004A430C4822500C4AA5
:1030A0000C48A0500432A35004230120635405B0FF
:1030B000F0BDC046ECFEFF1FEEFEFF1FF0FEFF1F3F
:1030C000D4060000180A0000040A0000080A0000E4
:1030D0000C0A0000D5060000F8B5224C07002000BD
:1030E00021495030002208F052FA8923B2251F4EA0
:1030F0001B01F358FF355B5D1D495B0700D41D497B
:1031000020000122503008F042FA1B4B1849F358B6
:103110005B5D5B0700D4194920000122503008F0A4
:1031200036FA174B1249F3585B5D5B0700D415491B
:1031300020000122503008F02AFA134B0C49F358B2
:103140005B5D5B0700D41149250050352800012242
:1031500008F01DFAF969280008F0DDF9002363671B
:10316000F8BDC04668F1FF1FB9C8000024F6FF1F74
:1031700092C7000094C700009408000054C80000E3
:103180009808000096C700009C08000077C7000060
:10319000F8B5070055373B78134931330B70134CA2
:1031A00003002600002256331B78503641330500B9
:1031B00030004B708A7008F0EAF989223B7892005F
:1031C0009B180B4A9B009A58B223FF33D35C5B07D2
:1031D00004D501220749300008F0D9F92000E96937
:1031E000503008F098F9F8BD480B002068F1FF1F37
:1031F00024F6FF1F92C7000070B588780C00CD211F
:103200001500049A4900515C4006400E002915D073
:10321000012901D1002B01D0401905E00A2104F059
:1032200049FB45190A206843002398421FDA7F2191
:10323000A2780B408A431343A37070BDB221FF31C3
:10324000525CD207E8D5002BE6D10B4B1B6818184F
:103250004D3000782818C243D21710401A00CD32E2
:103260001278824200DC501EC0B218188078030029
:103270007F28DCDD7F23DAE768F0FF1F70B5836A03
:1032800004000C4D002B0FD02E00503619000022E8
:10329000300008F07CF901233000226AE16A08F06E
:1032A0008EF900236B6770BD2800226A5030E16AF6
:1032B000F5E7C04668F1FF1FF8B50500501E0E0087
:1032C00017001C00052806D804F056FA03192957E0
:1032D00082C6002B01D100270FE0622056352B78E3
:1032E00000225843CD235B000818C95C02394B42C9
:1032F00059410F23890108F032FA3800F8BD002B3C
:10330000E9D00800FFF75AF93000FFF765F8300000
:1033100008F02DFC002356352B700127EDE7002B1C
:10332000D9D00323013CE7171F405F4B3F19BF1063
:103330001C4004D50423013C5B421C4301342B0098
:1033400056331978013B1A78FBB2E4B29A4201D1A4
:103350008C42C0D0622251436B357118280008F0AE
:103360003BFE8923FFB29B00FF18504BBF002A0091
:103370002100F85808F062FBCFE7002BABD05535A1
:10338000013C2B78E4B2A342A5D08927BF00474E69
:10339000E419A400A059FFF711F92B78A059DB1903
:1033A0009B00995903000A0089338932FF33FF32A9
:1033B00070CA70C370CA70C370CA70C3B530B531FB
:1033C00030CA30C3FF313822FF3008F005FEA4E7D1
:1033D000002B00D17FE75535013C2B78E4B2A342A6
:1033E00000D178E78927BF00304EDB199B00985940
:1033F000E719FFF7E3F8BB009859FFF7DFF88923D7
:1034000029789B00CB189B009A599B19022908DD4B
:103410000321274B8C4208DA186801395860043BB5
:10342000F8E75868013101C3F0E78923BF00F25182
:103430001B01F258F623002101275B00D1541D4ADD
:103440000231B258D7541C4AB258D1541B4AC91938
:10345000B258D1542C7050E757352978002900D143
:1034600039E7012B19D1114808F09FFBA021144B1B
:1034700009015F5CFFB2002F00D02CE72A780125FC
:1034800010486D421D5010481A504A430F481A50B8
:103490000F4A104898505C542FE7022B00D01AE7CF
:1034A0000248FFF7B3FD16E70300008024F6FF1F74
:1034B000BCFEFF1F94080000980800009C08000054
:1034C000ECFEFF1F180A0000040A0000080A0000B2
:1034D0000C0A0000D50600000300F0B5563389B091
:1034E000029203931F78C36903220C00D9B26223AE
:1034F00051437B4305AEC91861180500300008F040
:103500006BFD328806A90A80B37804AE8B7002A9DD
:103510008A828B753280B370029B581E08281FD890
:10352000002204F033F90900290029001D002000C1
:10353000FF001D001D000601CD235B00E35C002B96
:1035400000D0D2E06222032157430A005A43D21925
:10355000A21892787F2A00D9C7E001331F2BF4D13B
:10356000002009B0F0BDB17803234906490E0022BE
:103570002000FEF7D1FEF3E72B690A2B30D0122B87
:103580000AD0062B7AD1029B0121022B00D149429D
:103590002000FDF773FAE3E7029B0122022B14D10E
:1035A000524239002000FEF757FF002807D00121C2
:1035B0002B6A4942013B2B622000FDF75FFA6B4802
:1035C000296A503007F0C7FFCAE739002000FEF72C
:1035D00043FF0028F3D02B6A012101332B62EBE774
:1035E000009220232022E91852420298FDF76AFA3D
:1035F0000028E4D0039B03211F78029B07A8022B1D
:103600001ED162267E4307F0FDFFA119032207A801
:1036100008F0E2FC33005D330293E11CA019891924
:10362000032208F0D9FC029B03369E42F5D16220AA
:10363000784320185D30032207A908F0CDFCBEE7CF
:1036400062267E4307F0DEFFA1195D31032207A841
:1036500008F0C2FC33005D3B0293200021005D3086
:103660005A3180198919032208F0B6FC029B033EE7
:10367000B342F2D1622078432018DCE7B2787F2A87
:1036800044D86223002203215F430B005343DB191C
:10369000E3189B787F2B0ED801321F2AF5D1CD235A
:1036A0005B00E05CFDF7DAF97F220300B07813409D
:1036B00090431843B0708023B2785B421343B370D9
:1036C0006B789B0705D53388294A1A400123134399
:1036D0003380EB690327DAB2039B200019780023BB
:1036E00000970193330008F0A8F8B178200049064C
:1036F000490E03230022FEF70FFE2800B2781C308B
:103700005206520E2100FEF72DFC29E701220299F4
:1037100013400094032900D0023A31002800FFF73B
:103720006BFDD6E72B690A2B1BD008D8062B00D0DF
:1037300016E7042359352A7813432B7010E7122B10
:1037400007D0422B00D00BE739002000FEF712FE15
:1037500006E70022054807492A62503007F017FFA4
:10376000FEE62A62014800220349F6E768F1FF1FDE
:10377000FEF0FFFF98C700009DC700000300F0B5F2
:103780009DB002AF563379627B611B78C5693B629D
:10379000EBB2FB613B6A16003B61EBB20322BB61FB
:1037A00062230400386AE9B251434343C9187B6A73
:1037B0002820591808233818C01808F00DFC3223A7
:1037C00036213A8EFB18BA861B78791828200B70A0
:1037D0003C21381841180A808B70BA852E22701E41
:1037E000BA18137008280DD803F0D0FF09007A002A
:1037F0007A000C00BC020F00BF000C00BF000023C9
:1038000065642362BD461BB0F0BD2369212B21D026
:103810000CD8032B27D0112BF4D1022320002364D2
:103820002A331C30F918FEF725FCEBE7412B23D097
:10383000812BE7D1CF237A6A5B00CE4DD15C503526
:1038400021622800002207F075FE2800E16907F0D8
:1038500062FED7E703232000236429331C30F918C4
:10386000FEF722FCCEE70123200023642B331C301B
:10387000F918FEF733FCC5E7B2237A6AFF33D35C4D
:103880003A6A9B07DB171A403A6262223B6A5A4344
:103890007B6A9A181300613260331B781278934266
:1038A00002DD190013000A00032562260020AC4641
:1038B0003D69511C6E43C91A396293420BDC1F2BC0
:1038C00009DC65465D43796AAD196D5C01210D40E7
:1038D00040195B18F1E7396A2062FEF717FC91E79F
:1038E0002369212B00D195E041D8032B00D1C7E0FB
:1038F000112B5CD0236A032E00D0B1E1002B00DC39
:1039000072E11E2D31DC622301353A6AE9B253437C
:103910007143C9187B6A28205918102338183200BF
:10392000C018E56108F058FB3A223E213B8FBA18D7
:10393000BB871278791828200A703C213818411862
:103940000B808A702E217918BB850A7002221343DE
:103950002A32BA1813700023009601932C33EAB26E
:10396000FB18396A786A07F068FF002350E0412BA2
:1039700000D1A4E0812BBDD10025210000954B236F
:10398000192220313000FDF79DF8A84200D139E717
:10399000CF23226A796A774E5B00CA545036216A77
:1039A00030002A0007F0C6FDE16930004FE72C2304
:1039B000282000253C21FB181B7838185B061B0FBC
:1039C0007B6641180F232A0000953000FDF77AF836
:1039D0000F237A6E78211340DA002C23FB181B7812
:1039E0008B4313432C22BA181370E369DAB27B6954
:1039F00019780323019500932933FB18786A07F09F
:103A00001CFF2C232000F9181C30FEF733FB022387
:103A10002364F7E62D230022FB181B7830001B07D8
:103A20001B0F7B6600920F23FDF74CF82D230F220E
:103A3000FB181B78796E934311400B432D217918A5
:103A40000B70134207D02C23FB181A780123134361
:103A50002C22BA181370E3690325DAB27B6919784E
:103A60000023009501932C33FB18786A07F0E5FEDC
:103A70002C232000F9181C30FEF716FB2564C1E644
:103A8000033E2C21724256417918B2000E7804216F
:103A90008E4316432C22BA181670002200932C2352
:103AA0000192FB18FA69396A786A07F0C6FE2C237E
:103AB0002000F9181C30FEF711FB0123A8E7B22300
:103AC0007A6AFF33D35C3A6A9B07DB171A4062239A
:103AD00053437A6AD3181A006133603212781B7824
:103AE0003A629A4201DD3B621300002521003A6AE6
:103AF00001339B1AFB610095FB692A0020313000DD
:103B0000FCF7E0FFA84200D17CE623005633197889
:103B10006B46BB60FB69226AAB4201DBAA4204DA56
:103B2000BB68F9699D46206AD7E66846FB69013B98
:103B3000BB61FB690733DB08DB00C31A9D46092024
:103B400002AB3B611D70FB696844023B002B03DB49
:103B50000570013B0130F9E7002601203300FD69C3
:103B6000B54209D09B189D4202DC5B1B3D69A855FC
:103B70000136F4E768F1FF1F62234B43FB6020230B
:103B80007B61FB687B6003253B6A02215D43FB6828
:103B9000E8187B6A181807F035FD7B68BA69ED18DC
:103BA0003B69995C7B6A4A1E91410122EB5C93431D
:103BB0007A6A0B43AB5455190F226B7893436B70A1
:103BC0003B6A01333B621F2B01DD00233B62BB6973
:103BD0000133BB619E4201DC0023BB617B69013B79
:103BE0007B61002BCFD19BE7636C9D4235D1622373
:103BF0003A6AB96953437143C9187B6A2820591836
:103C0000182338183200C01808F0E6F9402344227F
:103C1000FB181B88BA18138042224621BA18127862
:103C2000791828200A703C21381841180B808A70B6
:103C30002E217918BB850A70022213432A32BA1842
:103C40001370002300960193396A1300786AFA69A9
:103C500007F0F3FD0123236287E60135E56184E681
:103C6000002B37DA002D00DC7FE6282220230325F5
:103C7000BA18D618B9693A6A423353436943C91826
:103C80007B6A2A005918300008F0A6F9242328225C
:103C9000BA18D118338828200B80B27838188A7067
:103CA0003C2141180B808A702E217918BB850A703F
:103CB000FD221340D13ABA181370002300950193E6
:103CC000396A1300786AFA6907F0B7FDE369013BC6
:103CD000E3614AE6626C6223954231D128220325D2
:103CE000B9188E183A6AB96953436943C9187B6A8F
:103CF0002A005918300008F06FF928222C23BA182E
:103D0000D118338828200B80B27838188A703C216B
:103D100041180B808A702E217918BB850A70FD220C
:103D20001340D13ABA181370002300950193396AF1
:103D30001300786AFA6907F080FD01235B428AE785
:103D400028213022032579188E183A6AB96953431D
:103D50006943C9187B6A2A005918300008F03CF9F9
:103D6000342394E7266C002E00D04BE5282238231C
:103D70000324BA18D518B9693A6A2A335343614300
:103D8000C9187B6A22005918280008F025F9282252
:103D90003C23BA18D3182A8828201A80A978381802
:103DA00099703423C31828201A8099700125302374
:103DB0003818C31828009970D1B28843A943014329
:103DC00019700F21120A8A435A7001960094FA69F9
:103DD000396A786A07F031FD14E5C046F0B5040091
:103DE0008BB0501E0391160008281BD803F0C4FCAA
:103DF0000562621A1C301A1AC600E3690322D9B29E
:103E0000230056331878622351434343C918039B58
:103E100006AD5918280008F0DFF82A88AB78683416
:103E20002280A3700BB0F0BD230054331A78D20760
:103E30000CD4220055321278A26422005632127835
:103E4000E264E269226505221A70EBE70022FBE7D3
:103E50002369442B14D0842BE4D10422A31DDA77E8
:103E60004F331A784C21531C236205232363484B9C
:103E700031325A70002219709A70A362454B14E0D7
:103E80000322A31DDA774F3319785A788B00013358
:103E90009B182362112323633F4B41325A70002247
:103EA000313119709A70A3623C4BE3622000FFF736
:103EB000E5F9B7E723690227052B03D0013F062B5D
:103EC00000D0023723000125543304931B782B4282
:103ED00010D12A003100200007F073FE2300E269B0
:103EE000563421786833D2B201950097039807F0D1
:103EF000A4FC97E78922A36C92009B18284A9B0098
:103F00009858FF23216DE26C19401A4094460B002B
:103F1000032253436221059363465943059B591875
:103F2000411808A808F058F804AA118A09AB1980AA
:103F3000927C9A7007AB19809A7006AB19802100A9
:103F40009A70E26956310978D2B2039801950097C8
:103F500007F073FC2A003100200007F032FE210038
:103F60001F230022503100953000FCF7ABFD049B6D
:103F70001A7802231343049A137053E754342278B7
:103F8000930700D54EE70423134323704AE7C04646
:103F90004B0B002065C70000480B002021C7000024
:103FA00024F6FF1F70B50400901E0D0016000728B0
:103FB0000DD803F0E1FB27270C040D0C0C3FE3693F
:103FC0005634DAB221780323280007F099FC70BD3B
:103FD0002369482B07D0882BF9D10223A21DD37760
:103FE0000022226205E00122A31DDA77002323626A
:103FF00002332363184B2000A362184BE362FFF7E0
:104000003DF9E4E72200563211782369E269D2B221
:10401000092B0BD00A2B0BD1093B280007F070FCB1
:1040200001223100200007F0CCFDD0E70223F4E7A5
:104030000323F2E7230059331B789B07C7D4E369B6
:104040002800DAB2230056331978032307F058FC0E
:1040500001220921E6E7C04613C7000019C7000086
:10406000F0B50400501EA5B00F001500082819D89F
:1040700003F08CFB09001A001A0018001800B100A8
:1040800018001800F6002300622220005633197829
:104090006B305143791807F09FFF754B5B6D63637D
:1040A0000023236225B0F0BD2100002623692031C2
:1040B0000096302B22D1343332002800FCF702FD69
:1040C000B04208D0636B226A38009A182300563336
:1040D000197807F02FFC216A664C00222500230086
:1040E00050355133DA772800643207F0F1F9812333
:1040F0005B006B84FA239B006367D3E7642264232D
:1041000052422800FCF7DEFC0028E4D02500220003
:10411000563529786B32380007F090FC2B786225F1
:104120005D437B190693B023FF33FB5C626B0793FF
:10413000CD235B00FB5C0392226A023B05925A424C
:1041400053419B01089306F0FBFE0990039806F08B
:10415000D3FE039604950323039A5343049A9B18B2
:10416000FB189E7806F0ECFE050006F0E9FEFF2144
:10417000059B0D400840281A584303F09BFB760628
:10418000760E86197F2E22DD7F260323039A534362
:10419000049A9B18FB1899784A06520EB24208D02E
:1041A00080207F2240420843C0B21640904306431D
:1041B0009E70039B01330393202BCCD10698089A61
:1041C000079907F039FA099806F096FE83E7F0435D
:1041D000C0170640D9E72369142B3BD01ED8112BFA
:1041E0003AD00025122B00D05CE7260056363378F3
:1041F000AB4200D156E70BA807F010FA62223178E3
:104200000BA85143791807F0E7FEE9B20BAA380072
:1042100007F014FC174D0022503512E0182B1DD06A
:10422000502B00D03EE7230062222000563319783D
:104230006B305143791807F0CFFE00220D4D2262FA
:10424000503528000C4907F0A2F9E169280007F071
:1042500062F927E70225C8E70125C6E70325C4E779
:10426000220056346B322178380007F0E7FB19E75B
:1042700068F0FF1F68F1FF1F0EC7000070B5050052
:10428000501E0C001100082812D803F075FA051210
:10429000121108251111B900EB69AB6308E02B007E
:1042A00056331A78DA235B00E250EA690433E250AD
:1042B00070BD2800002207F084FCE969AB6BE9635C
:1042C0005E48994206DDC91A00220131503007F0DC
:1042D00031F9EDE7591AF7E72B69282B55D007D8A4
:1042E000222B77D0242B77D0212BE1D101234DE055
:1042F000602B12D0A02B3BD0302BD9D1504A693340
:10430000FF33E252200007F04FFADE2300225B0069
:104310004A484C49E250503014E09A23DE21FF33E2
:10432000E65C56354548013B4900002E0DD0C426B9
:1043300000227600A255E252625029781C33E150E7
:104340004149503007F023F9B2E72A78C025AD0083
:10435000E5526650D7214900615C914204D30121A6
:10436000E154C4235B00E254503000223749E9E7AE
:10437000C423002202215B00E254FF311033E152DA
:104380002433E2502D483249C5E70323D722297E42
:104390005200DBB2A25C294801291FD8CC21C025DC
:1043A0000026AD0049006552453DFF3D66519A42E9
:1043B00022D3012262548832FF32A35450300022AB
:1043C0002449050007F0E3F8CC235B00E15C0122FF
:1043D00028007CE70023D9E70223D7E79A420BD3D2
:1043E000CC214900625C0F2A06D8551CA2188932DC
:1043F000FF3265541370E1E7503000221649A1E7FF
:10440000EB6B002B15DBB22228006221FF32A25C8D
:10441000563003789207D21713404B43AE6BE31824
:1044200060331E70037813404B43E418EB6B613428
:10443000237001235B42EB632FE7C04668F1FF1F47
:10444000010200005AC600005FC6000064C60000FA
:1044500069C600006EC6000070C60000F0B504001A
:10446000501E85B00D00160008280AD803F084F904
:10447000050F0F090B2909099300D7235B00CB5CBB
:10448000236205B0F0BD2000FEF782FEF9E72300AD
:1044900059331B789B0707D5002221000092032384
:1044A00020313000FCF70EFB4B4D00235035280027
:1044B000226A4A4907F083F8E169280007F02BF8DF
:1044C000DFE72369442B33D00AD8412B4ED0002696
:1044D000422B2ED004235434227813432370D0E788
:1044E000482B45D0C02BF5D105220021A31DDA773A
:1044F000E1624F331B782263581C20624C20384AFB
:1045000010701800313050709170A262022B09D0E7
:10451000032B09D0012B09D1324BE3622000FEF7B7
:10452000ADFED7E7304BF8E7304BF6E7304BF4E71A
:104530000226D7277F00E85D86421BDD622301301B
:10454000C0B258433933FF33E95C2A0002394B4289
:1045500059412B00603261331B7828188901127889
:1045600007F0FDF8EB5D0133EB55E4E70126E0E7EA
:104570000326DEE7230056331E70EB5D23629A2389
:10458000FF33EB5C002B02D1B533FF33EE5020003C
:10459000FEF7FEFD9EE7D7266227236A7600029388
:1045A000A95D029B8B420DDD4B1CDBB218007943E9
:1045B0007843691828186222039307F00DFD039BC6
:1045C000AB55EDE7029BAB55236A563422789342F4
:1045D00000DB56E782E7C04668F1FF1F86C6000091
:1045E0004B0B00209AC60000B7C60000D4C60000DE
:1045F000F1C6000010B5042A02D0062A10D010BD62
:1046000057300378022BFAD94D22314931480A70CC
:1046100000222E3350304B708A7006F0B8FFEEE760
:104620000100002357310B7003692B4CA34245D086
:1046300029D82A4CA3423AD01DD8294A934239D0CE
:104640000A78002ADBD00621831DD9770023C362B4
:10465000013303620233036347311D4B022A33D116
:1046600052321A705970002283629A701D4BC362D5
:10467000FEF704FEC3E71C4CA3421DD01B4CA34213
:10468000DED10A70DCE781229201934218D004D86F
:10469000174A9342D4D108230AE08222920193421E
:1046A00010D0A02212029342CAD1022300E00323B9
:1046B0000B70C5E70423FBE70523F9E70723F7E7BA
:1046C0000923F5E70A23F3E72E3219705A70CAE777
:1046D000450B002068F1FF1F1020000002200000A1
:1046E0000120000075C60000042000000820000022
:1046F0002020000003008922F0B5070001248DB0BE
:10470000553301931B7892009B18BD4ABD4D9B0009
:104710009B582800009306F093FD7B78234234D009
:10472000CD23009A5B00D35C002B10D0022B29D044
:10473000012600237642B44AB4490F2E25DC0C2E04
:1047400001D8B0001150002B1FD0F618F5E7D82380
:10475000009A5B00D65CB2233000FF33D35C0F308D
:10476000DB0707D5072103F0A5F807235843361ABE
:104770000C36E0E70C2103F09DF80C23241A5C436F
:10478000A619D8E700234026D5E78022FB69120648
:10479000DA400021D4439E4B186801312040186054
:1047A000186C04331043D8630D29F5D13B003A004F
:1047B00054331B785632DB0716D5019BB96C1B7836
:1047C000994211D11378F96C99420DD180232800B8
:1047D000396D1B06CB40DC300168194301602900AC
:1047E000FC31086A03430B62DC2300995B00C95863
:1047F000802328001B06CB40E4300168FC351943B8
:104800000160A96A0B43AB62FB6B0393002B00DAD8
:104810007FE0BB6B04930023802402932406019362
:10482000049B039A934200DC8DE01300019A9342AB
:104830000EDC049B93420BDB0321029A714B0A426C
:104840007CD1E4331A6822431A60029B013B029335
:104850003B0056331E7803216223019A7343514370
:10486000C918009B0AAD59180322280007F0B4FBB1
:104870002B880BA90B80AA788A7009A90B808A70F3
:104880005906090F06911905090F079108A90B8010
:10489000CD238A705006009A5B00D35C400E0593CE
:1048A000012B6AD10A2102F07BFF0C23C0B2181A37
:1048B000DC23009A5B00D258019900238A420CD174
:1048C0004F49544A8A5C9A4207D0B533009AFF3365
:1048D000D3589B1B5E427341DBB20C280DD8002BD2
:1048E00062D00100474A3A3189008D582A30254369
:1048F0008D508000815821431150032108AA12785D
:10490000386C1140032800D98EE002F035FF66E4D0
:1049100087E2B2231178009AFF33D25C503B9207B2
:10492000D2171140FF3B4B43009AD3181A00613352
:10493000603212781B78049203936CE7FC339A6A16
:1049400022439A6281E7049B019A934200DD7FE74C
:10495000039B934200DA7BE70321029A294B0A4228
:1049600006D1E4331A6822431A60029B01336EE7D2
:10497000FC339A6A22439A62F7E7059A0300002AF9
:104980000AD1B2220099FF328A5CD20704D5224AAA
:104990001068C0184D3003780C20C01AD823009A34
:1049A0005B00D35C181883E708AA9578E143154AA1
:1049B0007F2D0AD905002A35AD0056593A302643D5
:1049C000565180001558294096E705003A35AD004C
:1049D00056592A3026435651F3E702211140D20797
:1049E0001FD500297AD1074A1000E0321568FC3043
:1049F000416A2543002B71D1A1431560416213E048
:104A000024F6FF1F98090020800A002088888888E3
:104A1000400A0020BC08000068F0FF1F069A002A28
:104A2000DFD1002900D08FE0019B6408013301939E
:104A3000202B00D0F4E63B0059331B785B0726D5CA
:104A4000D823009A5B00D05C059B002B08D1B223D1
:104A5000FF33D35CDB0703D5424B1B681818807803
:104A60000C2102F027FF032401213F4A156801347D
:104A70000D431560156C04328D43D5630D2CF5D1B3
:104A800046233A4A181A80008358194381505837F0
:104A90003B78002B31D0354B03221900FC31486A9A
:104AA00010434862886A1043886219001800E03198
:104AB0000C68E43094430C60016891430160B232A9
:104AC0000098FF328058032817D802F055FE1233A1
:104AD000363A079AA3E75207A3D582E7234B19007A
:104AE000E0310A68FC3322430A605A6A22435A6260
:104AF0009AE70222E03322431A60A0231C4A1B01DA
:104B0000D35C002B14D0194B03221800A830016885
:104B1000114301601800AC300168114301601800B6
:104B2000E8300168EC331143016019680A431A60E8
:104B30000DB0F0BDE0330122DDE70222E4330A4389
:104B4000DAE7E4330122FAE7084A1000FC32556A3A
:104B5000E03001682543002BC0D1A14301605562BC
:104B600062E7C04668F0FF1F4C0A00209809002049
:104B7000ECFEFF1F013870B50C00082852D802F077
:104B8000FBFD0A1F2B302B263C2E2E007C3B59426E
:104B90004B410132E41A002A04D01378002B01D0D3
:104BA000002CF3D100232148D15C002904D07C29BA
:104BB00002D0C1540133F7E70022C2541B4870BD34
:104BC00000230222481C194907F006F8F6E70023E3
:104BD000022216492000F7E700230322F9E7012308
:104BE000F6E7124D002301222900200006F0F4FF11
:104BF00056236B700023AB70E0E7CB1707210B4007
:104C00001B190A4ADB100A4841331370044004D5CB
:104C10000820013C404204430134002331345470E5
:104C20009370CBE70022014B1A70C7E73C0B0020C2
:104C300007000080F0B58DB006000F0014000021C1
:104C4000142207A807F0D1F90020874269DBF82376
:104C50005B00F35CBB4264DD0C25F6237D435B0007
:104C6000F3585D192B680593834261D0FA235B00EA
:104C7000F3580490BB421CD1FE230122FF33F35CA6
:104C80000492022B15D1F832FF32B7580493002654
:104C9000059BB200013B0136995D00290ED005232A
:104CA0000293002307A8009001932648FCF7C2FF57
:104CB000EEE72879FCF744F80700E8E76879AA6886
:104CC0003900FFF757FF10250600052731781D48EA
:104CD00000290CD07C290AD0002307AA0092029751
:104CE0002A000193FCF7A6FF01360435EEE7230006
:104CF00000222A339B00C31801251000170007AEBD
:104D0000A1180F2909D804989100895901280AD0BF
:104D1000196402280AD01F60280001320433052AD2
:104D2000EED10DB0F0BD080C000418641960F3E773
:104D30000F2CF6D801223A34024BA4005242E25022
:104D40000120EEE798090020FE23F7B55B00C35C65
:104D50000700002B59D02D4806F072FAFA230526D9
:104D60005B00FC58F43BFF3B013C0093002C1CDB38
:104D7000009B002B19D00C25F62365435B00FB58E4
:104D800001935D192879FCF7A1F800280BD02A6857
:104D90000623002A00D1043BF61A32002100380015
:104DA000FFF748FF0090013CE0E7FA2305255B0090
:104DB000FC58F43BFF3B0093F8235B00FB5CA342F1
:104DC0001FDD009B002B1CD00C23F62663437600CE
:104DD0000193019ABB599B181879FCF777F80028C2
:104DE0000DD02A0021003800FFF724FFBB59019A9B
:104DF00000909A580623002A00D1043BED18013494
:104E0000DAE7FE2300225B00FA54F7BD9809002080
:104E100070B50400081F1500172826D802F0ACFC56
:104E20000C79505781313436383F484A2E3A44463F
:104E30004C7B7D4E8B8D8F9BD5B2012D16D0002DD6
:104E400001D0022D07D1B0230122FF33E254A62363
:104E50000732FF33E254CD235B002000E55406F017
:104E6000D5FC00212000FDF785FA70BDB023022299
:104E7000FF33E254A6239218FF33EBE79C23FF3362
:104E800057E0CE235B0054E09E23F8E7CF23F9E7F9
:104E9000D023F7E72000FDF751FBA223EFE7200026
:104EA000FDF74CFBD123EDE7D623EBE7AE23E6E796
:104EB000A423E4E7D223E5E7A623E0E7D523E1E74F
:104EC000B023FF33E254200006F0A0FCCDE7002A17
:104ED00014D02300210060331A7862331A70613BCA
:104EE0001B78C3310B709221490062542621FF3197
:104EF0006354613162548822FF32A354B2220123E9
:104F00000221FF322B40A55C5B008D431D43A5545D
:104F1000ABE7AC23B3E7D323B4E7D4235B00E2527F
:104F2000A3E7B2230121551EAA41FF33E55C8D435F
:104F30001543E55499E7D923A4E7B4239FE7F62363
:104F40005B00E25C074B9200D3185D6100211320E7
:104F5000FCF79EF889E7F6235B00E35C014A043323
:104F60009B00F1E7E8F1FF1F233970B5030014003F
:104F70000800082919D802F0FFFB0519242A303E41
:104F8000363A2200100004F0D1FC00221C4B03F042
:104F900089FE00221B4B03F085FE00221A4B03F012
:104FA000A5FB1A4DA865E9656C6570BDD1B2180006
:104FB000FCF718FF00210B20FCF76AF8F5E75A70A0
:104FC000F3E71248D1B20830FCF7F0FEF2E70F48E1
:104FD000D1B2603006F08BF9ECE70C48D1B260300A
:104FE000FCF7F2FEE6E70A48D1B20830F2E70848DB
:104FF000D1B20830F4E7064B30331A70D5E7C0461B
:105000000000384000007040004CED40E8F0FF1F09
:1050100068F1FF1FF8B50400481E16000C2859D887
:1050200002F0AAFB07778AA458585858585858587D
:10503000B200FA235B00E558FE23FF33E35C013B3B
:10504000012B1ED9F6277F00002E60DA013D002DCE
:1050500040DBF8235B00E35CAB423BDD0C236B439E
:10506000E259D3181A68002AEED01879FBF72EFF00
:105070000028E9D0FA235B00E55008330122E2540E
:1050800028E0FC235B00E058ED3BFF3B5D43E13350
:10509000FF33E35816185D1968790022431FDBB20D
:1050A000042B02D83D4A1E32D256964212DB0138FA
:1050B000082828D802F060FB0F29051C1E27212391
:1050C00025007F239E4205DCFC23354A5B00E65029
:1050D0000433E252F8BD0023A9680029F2D00A780F
:1050E000002AEFD07C3A5042424101319B18F4E74C
:1050F0000823E7E796235B00E4E72723E2E763233F
:10510000E0E71823DEE70023DCE70F23DAE70135C9
:105110009DE7022ADED1FA230C225B00E158083B0E
:105120004A43E3589B181879FBF70AFEFC235B00FF
:10513000E050FE23FF33A1E7FE25FF35635D022B20
:1051400011D10C22F333FF33E158083B4A43E358B3
:105150009B181879FC235B00E158FCF7D5F8FE2377
:1051600001225B00E25400236355B3E7100081384D
:10517000072809D802F000FB0B04080D0808080FE7
:1051800000210C20FBF784FFFE235B0076E7012162
:10519000F7E70221F5E70321F3E7C04668C3000003
:1051A0000102000007B51100062A07D0092A46D0DF
:1051B000012A02D100230530C37707BD0369254AC0
:1051C00093422BD00ED8244A93421AD0234A9342BA
:1051D0001FD0234A9342F0D10223224A0093012197
:1051E000214B13E0214A93421DD0214A934220D003
:1051F000204A9342E1D103231F4A00931D211F4BF4
:1052000004E00223082100931D4A1E4B06F014FD02
:10521000D3E703231C4A00931C4BF7E702211C4BE6
:1052200000911C4AF2E702231B4A009307211B4B03
:10523000ECE702231A4A00931E211A4BE6E70023EB
:10524000421DD377FA228362C362174B92005A67DA
:10525000B3E7C04608800000028000000480000020
:105260000180000008C6000000C600002080000089
:1052700040800000108000003BC600002EC60000E9
:10528000FAC50000F2C500001AC600000EC60000F4
:1052900020C6000028C6000048C6000040C6000026
:1052A00055C600004EC6000068F1FF1FF8B50400A7
:1052B000501E0B0008280BD802F05EFA05161C0AD7
:1052C0000A4C0A1E0B0001225934237893432370A1
:1052D000F8BD59342378DB07FAD50022324B51331D
:1052E000DA77FBF763FEF3E7012149421800FBF789
:1052F000C5FBEDE70121F9E7230059331B78DB07F4
:10530000E6D56369042B1FD007D8012B19D0022BD7
:1053100010D02000FDF7E0FEDAE7082B17D0402B75
:10532000F7D12300892255331B7892009B189B00EC
:105330001E4A02E089231D4A1B01985806F026FCEC
:10534000E7E71A4A1A4BF8E7184A1A4BF5E7174AE3
:10535000194BF2E725000122593529781140B7D1C0
:10536000042726003B00543630780343337023690A
:10537000842B14D007D8812B0FD0822BA8D10C20DE
:10538000FBF786FEA4E7882B0BD0C02BA0D1B84337
:10539000307029780A432A70BBE71100EFE7022139
:1053A000EDE70321EBE7C04668F1FF1F24F6FF1F7E
:1053B00094080000980800009C08000073B50400E1
:1053C0001500012A05D102000420543213788343CA
:1053D0001370A61DF27F002A30D0022D37D3032D83
:1053E00002D9092D0FD073BD00222100236B20317B
:1053F000013B00922800FBF765FB0028F3D020005A
:10540000FDF73CFFEFE7236A2000FDF755FF344B23
:1054100000280ED0503318000022324906F0B7F8A9
:105420000023F3770422543423781340DBD1237014
:10543000D9E75133D877FBF7B9FDF1E7A368102B13
:1054400039D010D8022B27D004D8012B29D0092D10
:10545000C9D1E7E7042B29D0082BF8D12A00200076
:10546000FEF7A0FDF3E7802B2FD008D8202B27D004
:10547000402BECD12A002000FEF7F0FFE7E7802266
:105480009201934226D0802212029342DFD12A0059
:105490002000FFF787FEDAE72A002000FEF71CF85D
:1054A000D5E72A002000FEF769F9D0E72A0020009E
:1054B000FEF794FCCBE72A002000FEF7D1FDC6E7FB
:1054C0002A002000FEF7DAFEC1E72A002000FFF7DD
:1054D000EDFEBCE72A002000FFF78CF8B7E7C046D6
:1054E00068F1FF1F0EC70000F8B5150002000400A8
:1054F00089205532137880001B18434F9B00481EAB
:10550000DE590E281BD802F037F94308243E392112
:105510001A1A1A1A1A5E1A7B7700A268002A0FD18B
:10552000002D0CD021000220A56059310B78834357
:105530000B702276013231002000FFF73FFFF8BDEB
:10554000237E2561013323760622F4E76561082274
:10555000F1E723692B4206D0072231002000FFF734
:105560002DFF00232361A368AB42E8D1092231005B
:105570002000FFF723FF0023A360E0E7A3680422D5
:10558000AB42DCD1D7E7A3680522AB42D7D1D2E743
:10559000E943A368C90F0231002B0AD00A0020009A
:1055A0003100FFF70BFF0223593422781343237095
:1055B000C5E72000012206F004FB1448E1695030E1
:1055C00005F0A9FFBBE7032DB9D889239B00EB1891
:1055D0009B00F9589A231570FF33CA5C00239A4246
:1055E00003D1B533FF33CB58DBB2220056321370F0
:1055F0002000FDF7CDFDA2E7002356341370D6E757
:10560000002363669BE7C04624F6FF1F68F1FF1F77
:1056100000221300F0B585B00291514C5149009021
:10562000C85C01338218D2B2A342F9D10878AA2803
:1056300000D07FE04878012800D07BE0CB5C93422B
:1056400000D077E002224849009806F0C5FC892284
:10565000464B12010193009B9C18009A8A239446A2
:1056600027001B01634403933D6801992800B53965
:105670008930FF302C22FF3906F0AEFC019E893EB6
:10568000FF3E31002800622206F0A6FC019B623634
:1056900062359E42F5D1B536039BFF36043701963D
:1056A0009F42E1D1AF2227000025009B92009E1867
:1056B0003300ED3BFF3B3B60357001CFF1360135E8
:1056C00006F055FAFF36042DF2D18C230122009901
:1056D0001B015242CA500023254A8B52254A8B5443
:1056E000029B002B1BD0022B0DD0B223FF3322686C
:1056F000D25C52071CD4039A04349442F7D11E4959
:105700001E48002208E001CC06F0C0F9039B9C4231
:10571000F9D1002219481A49503005F038FF009895
:10572000FCF70CFD00210B20FBF7B2FC05B0F0BD2F
:105730001449E5E7029B002BF4D0104C022B09D151
:105740000098FDF73FF9200000220D49503005F088
:105750001EFFE7E72000002250300B49F7E7C04664
:10576000D4060000ECFEFF1FEEFEFF1FA400002089
:10577000C4080000C6080000ABC7000068F1FF1FA6
:10578000AEC70000A2C70000B3C7000070B5CD1FB0
:1057900004000C2D10D8280001F0EEFF0B1E0B0E9C
:1057A0000E0E0E0E2A0E210E07002000FDF72CF91A
:1057B00070BD0122194BE25489231B01E6181033F6
:1057C000E4183368082D1DD8280001F0D5FF181FF4
:1057D0001B1B181B1B1B2300104B0022EBE7002A8E
:1057E000EAD00F4800220F49503005F0D0FEE3E721
:1057F000002AE1D011002000FFF70AFFDCE71800C3
:1058000006F06BF90436B442DBD1D1E71800FCF79F
:10581000D5FEF7E7180006F0AAF9F3E7BC08000088
:1058200068F1FF1FABC70000F7B5070040373B78B2
:105830000500DBB2002B4BD1060050222836327116
:10584000574C584AA2580263022232738362A02343
:105850001B01E05C013805282FD801F08DFF0355AE
:105860005E4C1762012373714F4BAC63E358EB63DB
:105870004E4A002329004E4801F074FC32002900F2
:105880004B4801F099FC01233B7021E0494AA35C9D
:10589000DBB20193002B1CD047484849436D01936C
:1058A000635C9C466B461B79634506D0436DDBB257
:1058B0006354A35C013BDBB2A3543F490B0070333C
:1058C0001A7AD2B2012A48D0002A2ED0032A48D010
:1058D000F7BD354BE358002B09DC394B1120E1585B
:1058E000FBF7D6FBA023019A1B01E254E5E7A022B7
:1058F00004231201A35400237371A1231B01E35855
:10590000E418AC634023B2E70F202D4BE158FBF7BE
:10591000BFFBA02300221B01E7E7294B1020E15821
:10592000F5E7274B1220E158F1E78F221A70012387
:10593000EB63002360227031AB622B63AA852148A0
:1059400033731A4AA963290001F00CFC32002900C4
:105950001C4801F031FC022396E7CF201870EA635F
:10596000E7E70F20DA8914120440D2B21C705A7093
:105970001A8A14120440D2B29C70DA709A891412F6
:105980000440D2B21C715A715A8914122040D2B20A
:105990009871DA710822EA63063A1A72C9E7C046BA
:1059A000ECFEFF1F080A00000C0A0000030B0000B9
:1059B00000700640150A000068F0FF1F140A00007E
:1059C000040A00000060064070B5A02504002D0107
:1059D0002000FFF729FF230040331B78002BF7D16D
:1059E000024B5B5D002BF3D170BDC046ECFEFF1F88
:1059F000F7B52B4FA026381DFFF7E6FF002536012F
:105A0000032200236A43274CD2B2D118E154013358
:105A1000B342FAD1A35DDBB2002B0FD10121224AA0
:105A20004942A150214A2249A55032006A4362509E
:105A3000204AA6500432A3500433A355381D013523
:105A4000FFF7C2FF0C2DDBD1A02600253601032372
:105A50006B43DBB20193A35D002B0DD10122124BEE
:105A60005242E250114B124AE55033006B43A350AF
:105A7000104BE6500123A355381DFFF7A5FF002367
:105A8000019AE15CD218D2B2914207D10133B342FC
:105A9000F6D101350C2DDAD10120FEBD0020FCE746
:105AA00068F0FF1FECFEFF1F180A0000040A000048
:105AB000080A00000C0A0000F0B593B00790082215
:105AC00000210BA806F091FACE490DA8FCF728F9A1
:105AD000002304930293CC4B48330693069B1B7A16
:105AE000002B00D179E10024069B09AD082221009A
:105AF00028001C7206F079FA0223C44E77681F4012
:105B0000A74206D020000321FAF782FF07000134E4
:105B10002C7001227368134207D007210420FAF782
:105B200077FF012207436A70A41873685B0707D5E3
:105B30000B210820FAF76CFF01230743AB70E41830
:105B400073681B0707D50F210C20FAF761FF0123AB
:105B50000743EB70E41810207368034206D013214A
:105B6000FAF756FF0123002407432B7173689B0645
:105B700007D517211420FAF74BFF01230024074310
:105B80006B7173685B0607D51B211820FAF740FF7D
:105B9000012300240743AB7173681B0607D51F213F
:105BA0001C20FAF735FF012300240743EB71002581
:105BB0000BAE09ABEB5C0093009A337893420DD0A7
:105BC0002A00009B2432D2B29148002B00D109E177
:105BD0007F23002105F04FFB009B33700135013618
:105BE000082DE6D18022894B92015968114000911D
:105BF00000D1FBE0874A01340592874A00920122D6
:105C00005B6801925B040AD5824B009A00241A4318
:105C10000092814B059A1A430123059201937B4B15
:105C20005A6880231B021A40039200D0E1E0052C41
:105C300000D0002479480026143005F0EEFAB04276
:105C400004D117211420FAF7E3FE060073481C3034
:105C500005F0E3FA002804D11B211830FAF7D8FE2A
:105C600006436F4805F0D9FA002804D11F211C30E3
:105C7000FAF7CEFE0643654A1100983294310B685C
:105C8000106809681B1A1160049A9B18002B00DA2F
:105C9000B5E01F2213400493002C05D061490DA8E4
:105CA000FCF73EF800230193584D00222B002800FA
:105CB000A0331A7005F0C4FA019B002B00D1C3E099
:105CC0000026594B039A02361A605A60009A08332C
:105CD0009A63059ADA63102EF4D14C4D01222B0001
:105CE000A0331A70002C09D00798FFF781FE4F49A6
:105CF000002800D14E490DA8FCF712F8C0274448EF
:105D000006F056F8280005F0B7FF029B494EBF0089
:105D10001F4030007C1EFF3C63425C417942794168
:105D2000343005F064FA4448E4B27830210005F0DC
:105D30005EFA424B3000FD186B425D41EDB27830A7
:105D4000290005F054FA354E79427941300024306B
:105D500005F04DFA30002100303005F048FA4022BD
:105D6000374B002F00D09DE05A6021000120FAF748
:105D70005BFE29000220FAF757FE324B0320F91888
:105D80004B425941C9B2FAF74FFE029B2A4D1A06FF
:105D90001435120D002128001C01FCF701FA8023A4
:105DA000DB00E2181205120D01212800FCF7F8F9BA
:105DB00080231B01E2181205120D02212800FCF7B6
:105DC000EFF9C0231B01E2181205120D0321280070
:105DD000FCF7E6F9029B013302930B480430FFF70E
:105DE00023FD7BE6009905F05AFAF5E6009A059244
:105DF00006E701235B4203930233019319E7203343
:105E000044E7C046DEC5000068F0FF1F9809002087
:105E10000909002055555555AAAAAAAA68F2FF1FDC
:105E2000C0F2FF1FE3C50000400A0020E8C50000E3
:105E3000EDC5000068F1FF1FE8F1FF1F00FEFFFF46
:105E400000F00F4000FDFFFF2A000F99B0321160F3
:105E50002A001099B43211602A0000911199B832C9
:105E6000116029000D9AA83132430A602A000E9B66
:105E7000AC32334313602A00E0321368E4353B430D
:105E800013602B683B432B60049B074D591C180083
:105E9000FAF7BEFD019B2A680133024304C5102BAB
:105EA000F9D11AE79A6060E7800A0020F0B502266F
:105EB00085B006F086F806F07FF806F081F8C84A4B
:105EC000012413686946334313606B46C5481C7050
:105ED00001F014FA8023C44AC44DDB031360EB685D
:105EE00000273343EB6005F0EDFFFA21890001F054
:105EF00057FC22006860EB68BD48234301ACEB60AF
:105F0000210027720192029701F0BAF9B94B0121E1
:105F10003C33180005F06BF9B74EB348330031003D
:105F2000FC33DB6AA4310B6080230A0002211B04CE
:105F30000360EB690B43EB61136801226B61EB6952
:105F40001343EB61FBF79CFCAA4B0121483318007B
:105F500005F04DF9A9483A00A949503005F017FB62
:105F6000200000F059FFA74B0220636005F0AEFF50
:105F70008025A54F02002100380000F091FFBB787A
:105F80006D422B43DBB2BB70022005F09FFF9F4F99
:105F900021000200380000F083FFBB7820001D4381
:105FA000EDB2BD7005F0F5FF0122994B022001937F
:105FB000E271227205F08AFF21000200954801F08B
:105FC00063FA8A219348090301F0D0FA80238648B6
:105FD000914C5B0103602000FCF7F4FCFBF7C6FB6F
:105FE0008E480430FFF7F0FC73689B0409D5736892
:105FF0005B0406D573681B0403D57E485430FFF755
:106000005BFD874A002310000325FA2659300178EA
:1060100013719360D360136153619362D36213630E
:10602000136293847F4AA9430170A35476007B4B8B
:106030001A004832117A002900D10BE100217A4C74
:106040001172586D230028331A78022A0AD1626A25
:106050008A4207D0904205D90122082061621A7055
:10606000FBF716F82000603005F0F3F9634D0027C8
:106070002800083005F0EDF96748FCF7E5FC6B4CAB
:106080003434E168002914D06368A268CB186360D7
:10609000002905DA934205DC00236260E36001E039
:1060A0009342F9DA636861481A14F9B21430FCF7C4
:1060B00077F82378022B0DD16378002B0AD0013BAF
:1060C000DBB26370002B05D101332370F8B20121DC
:1060D000FAF7AAFC01371034042FD2D1544805F046
