:1006000000300020CD060000150700000D48000056
:1006100000000000000000000000000000000000DA
:1006200000000000000000000000000019070000AA
:1006300000000000000000001B0700001D07000074
:1006400021070000290700003107000039070000DA
:10065000410700004907000051070000590700004A
:1006600061070000690700007107000079070000BA
:10067000550C000089070000910700009907000051
:10068000A1070000A9070000B1070000B90700009A
:10069000C1070000C9070000C10B0000B10B00003A
:1006A0003D0C0000E9070000F1070000F907000019
:1006B000010800000908000008A0000000F0FF1F6A
:1006C0006800000068F0FF1F8016000010B572B6C9
:1006D00004F03EFE0C4C0D4B9C4206D2A2686168B1
:1006E000206800F095F80C34F5E7094B9C4205D2E0
:1006F0006168206800F098F80834F6E707F0AEFF6C
:1007000062B603F021FBFEE7B8060000C406000055
:10071000CC060000FEE7FEE7FEE7FEE7FEE7FEE7A9
:1007200010B5FFF7FCFF10BD10B5FFF7F8FF10BDC7
:1007300010B5FFF7F4FF10BD10B5FFF7F0FF10BDC7
:1007400010B5FFF7ECFF10BD10B5FFF7E8FF10BDC7
:1007500010B5FFF7E4FF10BD10B5FFF7E0FF10BDC7
:1007600010B504F02DFC10BD10B504F035FC10BD23
:1007700010B504F019FD10BD10B504F01DFD10BD3D
:1007800010B504F0BBFD10BD10B504F0C5FD10BDE3
:1007900010B504F0CFFD10BD10B5FFF7C0FF10BDC0
:1007A00010B5FFF7BCFF10BD10B5FFF7B8FF10BDC7
:1007B00010B5FFF7B4FF10BD10B5FFF7B0FF10BDC7
:1007C00010B5FFF7ACFF10BD10B5FFF7A8FF10BDC7
:1007D00010B5FFF7A4FF10BD10B5FFF7A0FF10BDC7
:1007E00010B5FFF79CFF10BD10B5FFF798FF10BDC7
:1007F00010B5FFF794FF10BD10B5FFF790FF10BDC7
:1008000010B5FFF78CFF10BD10B5FFF788FF10BDC6
:10081000030030B5091ACC181D1AAA4203D91D6865
:1008200004332560F7E730BD0300002210B51C1A21
:10083000A14202D91A600433F9E710BDFFFFFFFFA0
:10084000FFFFFFFFFFFFFFFFFFFFFFFFFFFFFFFFB8
:10085000FFFFFFFFFFFFFFFFFFFFFFFFFFFFFFFFA8
:10086000FFFFFFFFFFFFFFFFFFFFFFFFFFFFFFFF98
:10087000FFFFFFFFFFFFFFFFFFFFFFFFFFFFFFFF88
:10088000FFFFFFFFFFFFFFFFFFFFFFFFFFFFFFFF78
:10089000FFFFFFFFFFFFFFFFFFFFFFFFFFFFFFFF68
:1008A000FFFFFFFFFFFFFFFFFFFFFFFFFFFFFFFF58
:1008B000FFFFFFFFFFFFFFFFFFFFFFFFFFFFFFFF48
:1008C000FFFFFFFFFFFFFFFFFFFFFFFFFFFFFFFF38
:1008D000FFFFFFFFFFFFFFFFFFFFFFFFFFFFFFFF28
:1008E000FFFFFFFFFFFFFFFFFFFFFFFFFFFFFFFF18
:1008F000FFFFFFFFFFFFFFFFFFFFFFFFFFFFFFFF08
:10090000FFFFFFFFFFFFFFFFFFFFFFFFFFFFFFFFF7
:10091000FFFFFFFFFFFFFFFFFFFFFFFFFFFFFFFFE7
:10092000FFFFFFFFFFFFFFFFFFFFFFFFFFFFFFFFD7
:10093000FFFFFFFFFFFFFFFFFFFFFFFFFFFFFFFFC7
:10094000FFFFFFFFFFFFFFFFFFFFFFFFFFFFFFFFB7
:10095000FFFFFFFFFFFFFFFFFFFFFFFFFFFFFFFFA7
:10096000FFFFFFFFFFFFFFFFFFFFFFFFFFFFFFFF97
:10097000FFFFFFFFFFFFFFFFFFFFFFFFFFFFFFFF87
:10098000FFFFFFFFFFFFFFFFFFFFFFFFFFFFFFFF77
:10099000FFFFFFFFFFFFFFFFFFFFFFFFFFFFFFFF67
:1009A000FFFFFFFFFFFFFFFFFFFFFFFFFFFFFFFF57
:1009B000FFFFFFFFFFFFFFFFFFFFFFFFFFFFFFFF47
:1009C000FFFFFFFFFFFFFFFFFFFFFFFFFFFFFFFF37
:1009D000FFFFFFFFFFFFFFFFFFFFFFFFFFFFFFFF27
:1009E000FFFFFFFFFFFFFFFFFFFFFFFFFFFFFFFF17
:1009F000FFFFFFFFFFFFFFFFFFFFFFFFFFFFFFFF07
:100A0000FFFFFFFFFFFFFFFFFFFFFFFFFFFFFEFFF7
:100A100070B505008026044C200008F0C0FE30426E
:100A2000F9D0E57170BDC04600A00640902370B5B6
:100A30000D00184314007F26FFF7EAFF280030401E
:100A4000FFF7E6FF20003040FFF7E2FF70BD902384
:100A500010B518430C00FFF7DBFF7F202040FFF7A5
:100A6000D7FF0020FFF7D4FF10BD00B5032806D83C
:100A7000084B04F025FD0205080B40225A6000BD1A
:100A800080221205FAE78022D204F7E7802252057D
:100A9000F4E7C04600F00F4000B5032806D8084B25
:100AA00004F00EFD0205080B40229A6000BD802272
:100AB0001205FAE78022D204F7E780225205F4E714
:100AC00000F00F40002804D0023843425841800112
:100AD0007047044B1B681A00703212789B18987884
:100AE000F6E7C04668F0FF1F0238434258418001D4
:100AF000704770B5E1256D00415D0400FF2906D007
:100B0000D0235B00C05CFFF7A2FFFF23635570BDDD
:100B1000CD235B00C35C10B5002B01D0022B0BD1A1
:100B2000AC23FF33C25C511800224C1C03D00A00D6
:100B3000722900DD7222C25410BD10B5029C022839
:100B40000ED0032816D10868984203DA01300860F5
:100B5000012010BD00208442FBD00A600130F8E77C
:100B60000868824201DA0138F1E700208442F0D0BF
:100B70000B60F3E70020ECE705494B6C002B05D038
:100B80001A610A6CDA6000221A754A647047C0461E
:100B900068F0FF1F022170B5044C0122236D08008C
:100BA000DDB2483403F06CFF257070BD68F0FF1FA4
:100BB00010B5024800F0C4F910BDC0462005002061
:100BC0000122F8B51A4B1B4C1A61636F9B186367BF
:100BD000194B1A76A06DE16D226E636E04F08EFFE4
:100BE00020666166206E616E06F060FB266E676EA1
:100BF000050006F091FB0B0002003900300006F002
:100C00000DF820666166A36EED18A566A06EE36E12
:100C1000000A98420AD00122074B06215A76E06664
:100C200004F0D2FD002901D1FFF7B4FFF8BDC046A2
:100C3000FC70034068F0FF1FC0F0FF1F044B9A6870
:100C4000120703D5042299680A439A607047C04688
:100C500000900740F8B50E4C200008F0A0FD2823B6
:100C6000184213D0E6790B4C1F2125002935E87F67
:100C7000E718013004F0A8FD2A34E37FC9B2F6B2C8
:100C8000994203D0EB7FDBB2FE54E977F8BDC04652
:100C900000A00640E8F0FF1F0122034B0433DA777F
:100CA000024BFF335A777047E8F0FF1F6CF1FF1FCC
:100CB000094B10B55C331B780A00002B02D0012BC6
:100CC00005D010BD0100054802F0ECFEF9E7010077
:100CD000034802F099FFF4E7E8F0FF1F8CF2FF1FD2
:100CE0006CF1FF1F8E2370B53E4D02001B010238D0
:100CF000EC5C082800D973E004F0E2FB057217727F
:100D0000122F435C6C008022D201914206D0364BF8
:100D1000994236D00220FFF7CBFF16E0002C1CD101
:100D200001223249EA54002227E0802913D1304AB7
:100D3000304B5C321178012908D0012111701A0062
:100D40000020FF32FE335075D98370BD0020107033
:100D50001A00FF32F6E70420DDE70024EC541425E6
:100D6000E0B2FFF799FE2B006343234A01349B183E
:100D700000221A70042CF3D120491D4807F07BFE95
:100D8000E3E700221E491A4807F075FE0022002002
:100D900000211C4B9A6618665966DA6658335A76F3
:100DA000FFF7F8FE280008F055F98E2301221B01F9
:100DB000EA54CAE7002200200021124B9A66186606
:100DC0005966DA6658335A76FFF7E4FE280008F0D1
:100DD00041F9BAE70A000C480A2102F063FEB4E7C1
:100DE000100098E73CF3FF1F02400000F69B000054
:100DF000E8F0FF1F6CF1FF1F20FCFF1FED9B0000C0
:100E0000F29B000068F0FF1F8CF2FF1FF7B5002572
:100E10002F002E001C4B58330193019B1B4C1B7E53
:100E2000002B2CD00023019A137622005032117827
:100E3000B3B2012905D9218F994202D0022123871B
:100E40001170220050321178012907D921004C314C
:100E50000888984202D00B80022313700C4B013695
:100E60009E4200DD00260135322D08DD7B425F41C8
:100E7000FFB23A000321200000F0FCFB0025200017
:100E800000F02CFCC9E7C04668F0FF1F20FCFF1FE4
:100E9000FF0F0000802310B59B010A4CC918A14226
:100EA00002DCCC43E4170C40E0231843FFF7B0FD0D
:100EB0007F202040E411FFF7ABFDE0B2FFF7A8FD73
:100EC00010BDC046FF3F000070B50D00CD210400ED
:100ED00049008078595C4006400E002910D0012955
:100EE00001D1002A01D0401905E00A2104F086FB57
:100EF00045190A2068430023984217DB7F2211E03E
:100F0000D62149005B5CDB07EDD5002AEBD10B4B0A
:100F10001B6818184C3000782818C0B21818CC3349
:100F200080781A780300904200DD13007F21A278B8
:100F30000B408A431343A37070BDC04668F0FF1F87
:100F4000F7B501219B4B04001962DA698A43DA6123
:100F50009C225200825C01938A425BD0002A09D015
:100F6000022A00D187E0019BDA6901231343019A29
:100F7000D361F7BD0700FC37BB6B8F4D0093002B8F
:100F800014D10600A0363378002B07D00100802250
:100F9000A831103008F019FC009B337080238022A8
:100FA0009B0592026B60AA606A60AB60F8238020A8
:100FB0001F219C46000163460726BA6B0E40134072
:100FC00033430726324066460E40324380263606BB
:100FD000D64004339B001B59334219D068608023EC
:100FE000DB00AB606B600139E5D280220223920204
:100FF0006B60AA606A6080225202AA606A60012265
:10100000AB603733FF33E2543B6B019A5361AAE77D
:10101000A860E4E70222684B80265A6005321F2050
:10102000944636012500F8226746FC35A96B074037
:101030000A403A4367463940F8270740394380273A
:101040003F06CF401432920012593A4211D05E60EE
:101050008022D2009A605A600138E3D28022520284
:101060009A605A6002229A609C235B00E254EB6A09
:10107000CBE79E60ECE7504B1F205A6080221201A4
:10108000F82794462100FC318A6B00910721160055
:101090000A40010039400A43802107250906D14052
:1010A00005403E402E43B600A6193569366D0D4009
:1010B00062462E423FD05A608022D2009A605A6027
:1010C0000138DFD2802252029A605A6002228020C8
:1010D0009A601A6940040240504242411869520025
:1010E000810101D40120024320009030057895420F
:1010F00031D0250091352E7896422CD0260092369C
:10110000032A21D10778022F05D12F78002F02D191
:101110003778012F11D00778012F15D12F78002FA4
:1011200012D13778022F0FD194218C46A444614606
:101130000F68013F07E09A60BEE794218C46A44403
:1011400061460F6801370F602F78FFB2377006785D
:10115000F6B22E700270009A1869926B410207D4A1
:1011600016000125083EB5402088284380B2208023
:101170001B69DB0405D401209040638803439BB2C4
:10118000638001320F2A08DC009B9A639C230022B3
:101190005B00E254009B5B6B37E70023009A93638C
:1011A000628892B262602288606802436260238033
:1011B0006380EBE7FC70034000F00F40F0B585B0B2
:1011C0000A9D0B9E2E295BD047DC24295CD009DCCC
:1011D0001A2423290BD008003038092856D8103992
:1011E0000C0004E02B2949D02A242D29F3D1072112
:1011F000A143890001911C2149428C46591D02914D
:10120000E110142461439800264C091A64181C212B
:1012100094448A1A0392002B3FDB0C9999423CDDDF
:10122000019F21586246F9400F2739400F00D740EF
:10123000002A02DA039A91400F00002D02D02958AB
:1012400039432950002E02D0325817433750029AA2
:10125000013304309342DED11FE03E2912D005DC79
:101260003A2909D01D243D29C1D0B4E73F2916D021
:101270002F247E29BBD0AEE71C24B8E72E24B6E786
:101280002B24B4E72C24B2E72D24B0E70C00413C1A
:10129000192CACD961391929A2D905B0F0BD1B248C
:1012A000A5E7C0465C98000030B50D000B4985B03D
:1012B0000E2204007831684608F087FA6B46585DC4
:1012C00065682468000206F061F822002B0004F033
:1012D00031FF05F0EBFF05B030BDC0465C98000063
:1012E000F0B50024471C44608460C460046144611C
:1012F0000460FB7F85B00500A3422ED0C21CD27FC4
:10130000022A12D0032A02D11034E41A6400802287
:101310001206E240200000219B001B19013B834282
:1013200007DD114301305208F9E70824E41AA4004C
:10133000EDE700262960FB7FB2001219B3420CDDF5
:10134000AB19197E052302930023281D00900193F9
:101350000348FFF733FF0136EDE705B0F0BDC046A7
:1013600020050020CD2370B5060008005B00C55C99
:1013700011002F4C012D50D0002D06D0022D47D04A
:101380003168200007F035FB70BDD5B20122631C27
:10139000DA7723230C216376280004F02BF9C8B2F6
:1013A00001380A280AD8022304F08AF806201E22EF
:1013B00026242A282E2C3000621CD3774323237640
:1013C0000C21280004F090F8C1B20122013920005C
:1013D00007F0ECFA0122231DDA770222E31CDA7708
:1013E000FA239B006362CBE7621CD3774423E6E7D2
:1013F0004523E4E7621CD3774623E0E7621CD377FA
:101400004723DCE7621CD3774123D8E74223D6E7A2
:101410004039200007F010FBB2E70022631CDA77A6
:101420002000643207F0C2FA231DDD77D5E7C046FD
:10143000E8F0FF1F70B50E000500094C00222000E7
:10144000084907F018FB3178012289062000090FAE
:1014500007F0DEFA2968200007F0CBFA70BDC0461D
:10146000E8F0FF1FB39B000070B50E000500094CAB
:1014700000222000084907F0FEFA717801220907CE
:101480002000090F07F0C4FA2968200007F0B1FA1C
:1014900070BDC046E8F0FF1FC99B000070B5214C2D
:1014A000002221490600200007F0E5FA8D231F4D98
:1014B0001B01EA58D6235B00D35C1D495B0700D4AF
:1014C0001C490122200007F0D6FA1B4B1B49EA58A1
:1014D000D6235B00D35C5B0700D4164901222000B1
:1014E00007F0C9FA164B1749EA58D6235B00D35CBC
:1014F0005B0700D40F490122200007F0BCFA124B11
:101500001249EA58D6235B00D35C5B0700D4094933
:101510000122200007F0AFFA3168200007F069FAD5
:1015200070BDC046E8F0FF1FB39C00003CF3FF1FF6
:10153000CE9B0000D09B0000D40800009A9D0000C4
:10154000D8080000D29B0000DC080000B19B00001E
:1015500070B50D00084C01000022200007F058FA79
:1015600020000122054907F086FA29000122200007
:1015700007F04EFA70BDC046E8F0FF1F9A9A0000CF
:1015800070B50E000500094C00222000084907F044
:1015900072FA7278012312092000064907F086FAD0
:1015A0002968200007F025FA70BDC046E8F0FF1F4B
:1015B000B89B0000BD9B00000023026C70B50400C6
:1015C0000E009A421ED1020009782C32117053701D
:1015D0007288012502630200317934321170B268D9
:1015E00001008263F2688362C263074A074803F01E
:1015F00071FC22002664283235752100034803F06F
:1016000093FC2B00180070BD790B000000600640B1
:1016100073B56A46154B06000093154BCC36938084
:1016200001239371002302784478337061B200295A
:101630001ADB3178492917D84518AC701D004C3594
:1016400045199C4204D301332970DBB20135F8E718
:101650006D46AD5C01326419D2B2E4B2062A00D9FB
:10166000002201313170E1E773BDC0460202010280
:101670000202000070B5142403004C431C1900231F
:101680002678080015006370964205D0012A18D00C
:101690009A4202D0022A04D070BDFFF7FDF92570EE
:1016A000FAE7012E0DD1FFF7F7F9320005213000DE
:1016B00025706570084C636DDDB203F0E1F94C34C0
:1016C000EDE7FFF7D2F901202070034C0200636DB3
:1016D0000521DDB2F1E7C046E8F0FF1F284B70B5E9
:1016E0005A6C002A08D1040050342278012A12D002
:1016F000002A02D0022A1BD070BD02008F21513275
:1017000011700125010073321560B831181DFFF703
:1017100053FF2570F0E70100CF2551310D70733173
:101720000A600C39181DFFF747FF03232370E3E716
:1017300002004C32158806000F2229121140513642
:101740003170010052310D70058F29121140B170B6
:10175000010054310D70858C291211403171010046
:1017600056310D70058A29120A40010057310A705E
:10177000020008215832D16601001570B831D1E756
:1017800068F0FF1FF0B587B003900D001700541AE2
:1017900000D52034002C46DD032633006B43039A2A
:1017A0007743D31898784006400E05F0EFFD039B71
:1017B00000900191DF19B87837004006400E05F01F
:1017C000ABFD009A019B05F029FA049005912000D9
:1017D00005F0A2FD02000B000498059904F0AAFC94
:1017E000049005917C36013C002C1CD001351F2D46
:1017F00000DD0025049A059B0098019904F07EF90C
:1018000000220A4B0090019104F078F904F02CF8C2
:101810003B006B43039AD318020098783240B043E0
:1018200010439870DFE707B0F0BDC0460000E03F0E
:1018300070B5CD246400045D002C0AD1AD34FF34B2
:10184000045DE40705D50F4CC9B2246861184C311A
:101850000978AC26FF36855D002A06D00A00083AD2
:10186000D443E4171440845570BD2C00CA1AAA4210
:10187000F6DBCA180C35AA42F5DD0A000C3AD2187C
:10188000EEE7C04668F0FF1FF8B5CD235B0004000B
:10189000C05C0D00FFF716F9002162230E000A005C
:1018A00003275D433B0053435B19E3189B787F2B71
:1018B00003D95B065B0EF618013101321F2AF1D104
:1018C00000290AD0300003F099FE05F025FD002222
:1018D000054B04F013F905F0E9FC01000323012294
:1018E0002000FFF7A5FFF8BD0000E03FCD23F0B5D5
:1018F0000026A7B0019102925B00C75C0400B742CA
:1019000006D11233C35C3E00DB0701D5304B1E68A5
:10191000D52300255B00E35C38000393FFF7E4F870
:1019200062232A00019904905943059103235343EC
:1019300005995B18E3189B7891007F2B43D95B06D0
:101940005B0E06A84350002E33D0F3184C331B789F
:1019500002981B1831D4CC208446B44460460078E9
:1019600083422ADAF3189B78012506A843500132F6
:10197000202ADBD1002D22D06220019B0022584377
:101980007F239C460323910006AE8E59614667462D
:1019900053431B18E3180E4099780132B943314381
:1019A0009970202AEED12018049A039907F0BBF809
:1019B00006E00298C3187F2BD6D9012FD7D0002577
:1019C000280027B0F0BD002306A84350CFE7C0464B
:1019D00068F0FF1FF8B5E0235B00C35C04000D0056
:1019E000002B00D098E0A733FF33C65C0300A42788
:1019F000BD33B21EFF33FF37012A24D89A787F2ADD
:101A000021D8EC235B00E150D2235B00E15C34334E
:101A1000052906D0C022053912034A43E15852185D
:101A2000E2509C22FF32A05CE1583D32012828D0D0
:101A3000022832D0A623FF33E35C012B45D0022BD2
:101A40003DD0002544E0CD229B7852005B06A25C8D
:101A50005B0E1804022A01D1403B1804E25D072AFC
:101A600006D8013250430C227F21504303F0C6FDBB
:101A700002239E43D733FF33012E00D14019E0509B
:101A8000C2E7002901DA0021E150A158CB179BB22F
:101A90005B181B141B04A350CCE7002901DA0021BA
:101AA000E150324BA0581968C3179BB21B181B1486
:101AB000DBB2CB184C331B78C9188B78EAE7DE22EF
:101AC0005200A25C00251A4202D0F4235B00E558C4
:101AD000FE235B00E65C243BE058E35D082B03D368
:101AE000092B1DD90A2B09D0FA23C0215B005843CA
:101AF000090303F083FDC343DB1718401422564348
:101B00001B4B01049E19002D21D07368B160C81AC7
:101B1000290003F073FDF060EC235B00E058F8BD92
:101B2000092B0ED196239B00C0215843090303F0D3
:101B300065FD002808DB0F4B9842DFDDF538FF38E4
:101B4000FAE7FA235B00EFE7F530FF30F1E7716069
:101B5000F56050331A78012ADED9328A80B2824287
:101B6000DAD0022230821A70D6E7C04668F0FF1F32
:101B700020FCFF1FFF0F0000DE235B00F7B5C75CF2
:101B80000400BB0704D0E0235B00C35C002B05D03E
:101B9000F2235B00E358002B5AD0F7BDEC235B0027
:101BA000C0588023D4221B02C118CB179BB252000D
:101BB0005B18A15C1B14DEB20D1E09D0DBB21B0446
:101BC000C01A400303F01AFDC517ADB22D182D142D
:101BD000A823FF33E05C2300BD33FF335B781B0990
:101BE000022B39D0032B3CD0012B07D105F094FBFD
:101BF00000222D4B04F0A0FD05F058FBE4235B0010
:101C00007F2830DD7F22E254E1235B00E15CBB07EB
:101C100001D5FF2929D1D0235B00E05CFEF717FF37
:101C2000E227D0237F005B000193E359AB4206D04B
:101C3000D0235B00E05C2900FFF72CF9E551E42399
:101C40005B00E25C283BE05C3100FEF7EFFE26E043
:101C50002000FEF74EFFA0E705F05EFB0022134BCD
:101C6000C8E74000CAE7E054CEE78E420BD0E42339
:101C7000D0275B007F00E05DE25CFEF7D7FEE05D11
:101C80003100FEF7E4FEE2277F00E359AB4206D0C5
:101C9000D0235B00E05C2900FFF7FCF8E551E1236D
:101CA0005B00E65479E7C0460000F43F0000F83FCF
:101CB000F0B5CB4B8FB09A6E019005921A000020C0
:101CC0005832517E507681422ED08D22DF6E120125
:101CD0003B020293019B9C18019A8E2394461B01A0
:101CE00063440493BF4B78330693CE2325685B008F
:101CF000EB5C0AAE06990E223000039307F065FDF7
:101D0000039B3800F15C03F05FFD002908D1FC2340
:101D1000059A02995B008A4200D987E00A00EA50DE
:101D2000049B04349C42E0D18E23019A1B01D35CB6
:101D3000002B00D106E1AA4BAB4D586F06F01AFDFF
:101D400006F03CFD054004D51020013D404205430E
:101D500001358D2212019446019B10326344944652
:101D60000393019B63440793039B02930023049313
:101D7000029B1C68D6235B00E35C5B0700D4A1E0F8
:101D8000FC235B00E3580693069A059B934200D21E
:101D90005FE10123FC225B425200A35090489E3336
:101DA000FF33E15C5830FFF77FFAF4235B00E0502B
:101DB000C2230022FF33E2546222113BE358DA21AE
:101DC000DBB25A43A218100049006130635807780B
:101DD000BB422ED1CC235B00E05C00280ED0203328
:101DE000E358421E0133DBB2934200DB0023E318C9
:101DF0008933FF331A78D8235B00E250D8235B0085
:101E00009C46E358DAB262235343E31860331A78EE
:101E1000DA235B00E2509A23FF33E25C002A00D011
:101E2000E6E0C2220123FF32A3540EE00122524217
:101E300075E760321678BE4200D8C4E0013B6350BB
:101E4000002B00DBB6E01F236350DA23FF225B0088
:101E5000E158043BE358032711401A4062237943B9
:101E6000534309AEC91861183A00300007F0ADFCC1
:101E7000338808AA1380B3780AAE937008A93A0091
:101E8000300007F0A2FC23003288BD33FF331A80F4
:101E9000B27801219A70C023E022FF33E15400237D
:101EA0005200A354BD33FF33E35C9B061B0F02D0EB
:101EB0009D4200DBA154C023FF33E35C002B01D023
:101EC00001230493029B04330293029A079B9342DB
:101ED00000D04DE7049B002B34D00027F625029755
:101EE0006D00039B1C68D6235B00E65C7607F61743
:101EF00000D160E102992000FFF76CFDC023FF33A1
:101F0000E35C0290002B17D000236351C133FF33F1
:101F1000E35C002B00D1A1E0F2235B00E258183310
:101F2000002A00D1E3E0A023FF33E35C012B00D1C2
:101F3000FEE0022B00D1FFE0039B01370433039343
:101F4000042FCED18D22019B12019F18103294468E
:101F500063440193F2233C685B00E258002A10D0EE
:101F6000013AE250002A0CD11833E15C1F48FFF718
:101F700081FBA023FF33E35C012B02D12000FEF79D
:101F8000B8FDEA2040002558002D00D141E1E622AD
:101F9000E8215200A35849001E14EB18A3506158C1
:101FA000002D00DC1AE1994200DB1AE10023A15068
:101FB000235016E11278934201DD625045E7027822
:101FC0009342FADB41E7013363501F2B01DD00230D
:101FD0003AE70078834201DD605036E71278EFE798
:101FE00068F0FF1F5C9800000F00008020FCFF1FBE
:101FF000DC21C426490063587600E718069363463F
:10200000BF193F78E750022A11D0032A19D0012ABC
:1020100000D006E7AA22A35DFF320133DBB2A3554D
:10202000A25C9A4200D3FCE60023A355F9E606F031
:10203000F7FBAA23FF33E15C013103F0C5FBA15597
:10204000EFE6069B0133834201DA6350E9E60023A1
:10205000FBE7C0220023FF32A3542CE7DE2302213A
:1020600001225B00E35C1940134206D12300BD331B
:10207000FF335B781B071B0F32D0FA26760000294E
:1020800037D1CF235B00E35C002B35D00F2B35D14C
:10209000A151FA235B00E258103BE2502300BD330C
:1020A000FF335E783607360F3BD0CE237B485B008C
:1020B000E15C5830FFF7F8F810239E1B4643013BC4
:1020C000F0171840801900116051F82362595B0025
:1020D000E25002220C33E15C7148FFF7CBFA22E7B1
:1020E000F220400000291ED02350FE235B00E15C5B
:1020F000F2E70023A351CCE70F23FBE7CE23674889
:102100005B00E15C5830FFF7CFF8CF230F225B0074
:10211000E35C01334343D8171040C0180011A051AD
:10212000B7E76651D1E72258002A00D0FBE6DCE78A
:102130002000FFF721FDFFE6EC235B00E158802340
:102140007F261B02C918CB179BB25B181B14B34226
:1021500003DC0026B34200DBDEB2E823D121E62215
:102160005B003004E0504900615C5200A358002934
:1021700009D0C01AF4235B00E15803F03FFAEA23C8
:102180005B00E050D8E6834200D1D5E6A223A05000
:10219000FF33E35C0493D0235B00E05CF03B184327
:1021A000FEF736FC7F20049B1840FEF731FC300020
:1021B000FEF72EFCC0E6F9B232003948FFF75AFAB2
:1021C000F8235B006651E650A023FF33E35C012B4C
:1021D00000D0B1E62000FEF78CFCADE6994200DDB0
:1021E000E4E6A5582D14AE4213D0A223FF33E35CDE
:1021F0007F260293D0235B00E05CF03B1843FEF7A0
:1022000007FC02983040FEF703FC28003040FEF740
:10221000FFFBF6235B00E358002B06D0F8225200A8
:10222000A358002B0FD0013BA350F4225200A35817
:10223000002B2FD0013BA350019B0437BB4200D0A1
:1022400088E60FB0F0BDFE235B00E15C022214487B
:10225000FFF710FAFA235B00E3580293F223029A85
:102260005B00E250A023FF33E35C002B0CD0E123A2
:102270005B00E15CFF2907D00633E25C002A03D053
:10228000283BE05CFEF7D2FBF6235B00E258043308
:10229000E250CAE7F6225200CDE7C04668F0FF1FC1
:1022A00020FCFF1F70B50600030045363278124946
:1022B00031320A70002246331B78104C413305003E
:1022C00020004B708A7006F0D6FB8D223378920086
:1022D0009B180B4A9B009A58D6235B00D35C5B0784
:1022E00004D401220749200006F0C5FBA96920009B
:1022F00006F07FFB70BDC046DE060020E8F0FF1F41
:102300003CF3FF1FD09B0000436A70B50400084DEA
:10231000002B05D019000022280006F0ACFB012399
:102320002800E269A16A06F0C1FB00236B6270BD60
:10233000E8F0FF1FF8B50500501E0026042816D847
:10234000002603F0BDF803161E507700B3420ED0EE
:10235000622446352B785C43CD235B00C85C0C19A6
:10236000FEF7C2FB0100200006F06FFC01363000D2
:10237000F8BDB342FBD00800463506F0BBFD2E7019
:10238000F4E7B342F3D00322013BDF1717404D4C73
:10239000FF18BF102340B34204DA0424013B644217
:1023A000234301332A00DCB22B0045321078463338
:1023B000FAB21B78904202D100269C42D7D062220A
:1023C00053434C35C918280007F0FFF98D23FFB29D
:1023D0009B00FF183C4BBF002A002100F85806F074
:1023E00066FD0126C3E7B342C1D04535013B2A78DB
:1023F000DBB29A42BBD08D24A4001B1912193249BA
:102400009B0092005858515803000A0089338932C2
:10241000FF33FF3270CA70C370CA70C370CA70C312
:102420001268B130B1311A60FF314C22FF3007F031
:10243000CCF9D6E7B3429AD04535013B2978DBB2D7
:10244000994200D193E78D2080001F4A0818800030
:1024500080588E0084460436022909DC8D279019A5
:102460003F01C719194C3F68001901310760F2E7B5
:10247000032083420ADA8D24013881005118240197
:102480000E19134C366809190E60F2E78D2160466B
:1024900089005918890050508D2109015058FE219A
:1024A0000024012649004454094802341058465477
:1024B00008481058445408481258032050542B70B0
:1024C00055E7C046030000803CF3FF1FCC08000026
:1024D000D4080000D8080000DC0800000300F0B5B4
:1024E00046338BB003931B780326029383690C0059
:1024F000D9B262231700029A71435343C9183200BC
:102500006118050007A807F060F902AB9B8A08A9CB
:102510000B8002AB9B7D32008B7006A807F055F94B
:1025200002AB1B8A05AE338002AB9B7C781EB37076
:1025300005280DD8002102F0C3FFC60E0E0B03D9EB
:10254000B17803234906490E00222000FFF770F9F5
:1025500000200BB0F0BD2A690A2A26D0122A09D021
:10256000062A72D10121022F00D149422000FEF734
:10257000CFFAEDE70122022F0ED15242029920003C
:10258000FFF7B4F9002802D0EB69013BEB61E96980
:10259000624806F051FADBE702992000FFF7A6F93E
:1025A0000028F4D0EB690133F0E7009120222900E4
:1025B000202352421C313800FEF7BFFA0028E6D033
:1025C000039B03211B7809A80293022F20D106F058
:1025D00090FA029B60375F43E6193100032209A895
:1025E00007F0F3F8300026005D36F619C71C032209
:1025F000390007F0EAF83800B742F7D16220029BB1
:10260000584320185D30032209A907F0DEF8BEE721
:10261000622706F06EFA029B03225F433E00E11937
:102620005D3109A807F0D1F85A36E31EA619DF1963
:10263000F01C31000322033E07F0C7F8B742F7D180
:102640006220029B58432018DDE7B3787F2B43D8E4
:10265000622700220321029B5F430B005343DB19D7
:10266000E3189B787F2B0ED801321F2AF5D1CD239A
:102670005B00E05CFEF726FA7F220300B07813408F
:1026800090431843B0708023B2785B421343B37019
:102690002B789B0703D50123327813433370AB6942
:1026A0000327DAB2039B20001978002300970193D7
:1026B000330006F005FBB1783B004906490E0022C5
:1026C0002000FFF7B5F82800B27818305206520EF5
:1026D0002100FEF747FE3BE7012123000A40032FBC
:1026E00000D002393000FEF7EFFBD8E72B69122B40
:1026F00008D0422B0DD00A2B00D029E70022084930
:10270000EA6102E00022E9610649044806F0B3F9F3
:102710001EE702992000FFF7B7F819E7E8F0FF1F5E
:10272000E89B0000E39B0000F0B50400501E8DB054
:102730000E001500062824D802F0C2FE04626223AF
:102740002530BC00A3690325D9B2230046331A788B
:1027500062236943534307AFC91871182A00380030
:1027600007F033F83B8808A90B80BB782A008B70F0
:1027700006A807F02AF820002A00493006A907F029
:1027800024F80DB0F0BD230044331A78002A00D09D
:1027900096E0A269226401221A70F2E72369442BB1
:1027A00014D0842BEDD10422A31CDA7743331A789A
:1027B0004C21531CE3610523E362434B31325A70D1
:1027C000002219709A706362404B14E00322A31C2C
:1027D000DA77433319785A788B0001339B18E36119
:1027E0001123E3623A4B41325A70002231311970A1
:1027F0009A706362374BA3622000FFF785FDC0E744
:10280000022223690392052B05D0013A0392062B7D
:1028100001D00323039323002700443305931B783F
:102820004637002B11D129002000012206F041FC7F
:1028300001202300A2693978019003984933009060
:10284000D2B2300006F03CFA9BE73B7803220493B7
:10285000236C0498D9B26223514343430AAFC91889
:102860007118380006F0B1FF39880BAB1980BA78BF
:1028700001279A7009AB19809A7008AB19809A7079
:10288000A2690399D2B2009130000499019706F031
:1028900017FA3A002900200006F00BFC21001F2344
:1028A0000022403100972800FEF747F90223059ADD
:1028B000137066E7230044331B78022B00D060E7D7
:1028C0000023443423705CE7E10600209F9B000056
:1028D000DE0600205B9B000070B50400901E0D001A
:1028E000160005280CD802F0EBFD26260B030C3E43
:1028F000A3694634DAB221780323280006F042FAAD
:1029000070BD2369482B07D0882BF9D10223A21C64
:10291000D3770022E26105E00122A31CDA770023CD
:10292000E3610233E362174B20006362164BA3623C
:10293000FFF7EAFCE4E7230046331978A369DAB22B
:102940002369092B0BD00A2B0BD1093B280006F079
:1029500019FA01223100200006F0ABFBD0E7022378
:10296000F4E70323F2E7237D002BC9D1A3692800F4
:10297000DAB2230046331978032306F003FA012262
:102980000721E8E74D9B0000539B0000F0B50400D1
:10299000501EA3B00D001700062814D802F090FDB9
:1029A00004151513139FE200230062222000463312
:1029B00019784C305143691806F007FF6D4B5B6F77
:1029C00023630023E36123B0F0BD210000262369C7
:1029D0001C310096302B22D1343332003800FEF700
:1029E000ACF8B04208D0236BE26928009A182300A3
:1029F0004633197806F0E6F90022E1695E4C631C63
:102A0000DA772000643205F0D1FF0122231DDA7746
:102A1000E31C9218DA77FA239B006362D3E76422FF
:102A2000642352423800FEF788F80028E4D02700DB
:102A30002200463739784C32280006F038FA3B78C5
:102A400062275F43EB190493D523E2695B0003928D
:102A5000EB5C0593CD235B00E85CFEF745F807903F
:102A6000206B05F087FE029703237343029A9B189D
:102A7000EB1898784006430E069305F09FFE07007A
:102A800005F09CFEFF21039B0F400840381A584375
:102A900002F0B4FD069BC0187F281CDD7F200322B6
:102AA0007243029BD218AA1897787906490E814280
:102AB00008D080237F215B423B43DBB208408B433D
:102AC000184390700136202ECED1079A05990498AC
:102AD00006F029F890E7C343DB171840DFE72369C6
:102AE000142B39D01DD8112B38D00026122B00D032
:102AF00069E7270046373B78B34200D163E709A86E
:102B000006F003F86222397809A85143691806F0E3
:102B10005CFE09AA2800F1B206F0C9F9164D0022A0
:102B200011E0182B1CD0502B00D04CE72300622260
:102B30002000463319784C305143691806F045FEA1
:102B400000220D4DE26128000C4905F094FFA169B7
:102B5000280005F04EFF36E70226CAE70126C8E73F
:102B60000326C6E7220046344C322178280006F0BE
:102B70009EF928E768F0FF1FE8F0FF1F489B000060
:102B800070B50500501E0C001100062811D802F087
:102B900097FC041111100723A000AB696B6308E0D8
:102BA0002B0046331A78D8235B00E250AA6904331D
:102BB000E25070BD2800002206F07BFAA9696B6B19
:102BC000A9636248994205DDC91A0022013105F066
:102BD0001FFFEEE7591AF8E72B69282B65D007D8B5
:102BE000222B22D0242B5ED0212BE2D101231DE009
:102BF000602B3ED0A02B4AD0302BDAD1CC23544AC4
:102C00005B00E25205F00CFEAA23FF33E15C0131C8
:102C100002F0DAFDC42300225B00E15430334D4959
:102C2000E2504A4805F027FFC3E70023AA22697D46
:102C3000FF32DBB2A25C454D012938D8CC21C0203F
:102C400000268000490060524938FF3826509A42D9
:102C50003BD3012262548832FF32A35400223E4902
:102C6000280005F008FFCC235B00E15C012228006E
:102C7000ADE7C42300225B00E2541033E25220335C
:102C8000E25046352978083BE1503449C9E7C4236E
:102C9000002202215B00E254FF311033E152203365
:102CA000E2502F49BDE70223C0E70323BEE79A4263
:102CB0000BD3CC214900625C0F2A06D8501CA21805
:102CC0008932FF3260541370C8E70022254928007A
:102CD000A8E7AB6B002B22DB6B6BDAB2D6235B0071
:102CE000E35C9B071FD4230060331A7062331A70B1
:102CF00092235B00E2546233E254D6225200AB6B63
:102D0000A25CDBB2920717D42200613213706232E8
:102D100013702622FF32A3548822FF32A3540123CA
:102D20005B42AB633AE72B004633197862234B438F
:102D3000E31860331A70E0E72A0046321178622205
:102D40004A43A41861342370E9E7C046E8F0FF1F46
:102D500001020000AA9A0000B99A0000AF9A000090
:102D6000B49A0000BB9A0000F0B50400501E85B074
:102D70000D001600062809D802F0A2FB040A0A0872
:102D80007D218100AA23FF33CB5CE36105B0F0BD58
:102D9000237D002B07D000222100009203231C3149
:102DA0003000FDF7CAFE464D00232800E269454980
:102DB00005F07CFEA169280005F01BFEE6E723690B
:102DC000442B47D01CD8412B46D00026422BDDD1C6
:102DD000AA27FF37EB5D9E4240DD62220133DBB262
:102DE0005343EB180293CD235B00E85CFDF77CFEB8
:102DF0000100029805F029FFEB5D0133EB55E7E791
:102E0000482B1FD0C02BC1D105220021A31CDA778B
:102E1000A16243331B78E262581CE0614C202A4ACD
:102E2000107018003130507091706262022B0BD01C
:102E3000032B0BD0012B0BD1244BA3622000FFF7F7
:102E400063FAA3E70326C3E7214BF6E7214BF4E738
:102E5000214BF2E70226BBE70126B9E72300463300
:102E60001E70EB5DE3619A23FF33EB5C002B02D114
:102E7000B133FF33EE502000FFF714FA86E76227E4
:102E8000E3690293AA26FF36A95D029B8B420DDD02
:102E90004B1CDBB21800794378436918281862226A
:102EA000039306F092FC039BAB55EBE7029BAB55FB
:102EB000E36946342278934200DB67E7237065E7D5
:102EC000E8F0FF1FC09A0000E1060020D49A00003D
:102ED000F19A00000E9B00002B9B000070B50400CF
:102EE000501E0D00052807D802F0EAFA03070D0668
:102EF000060F0022314B1A7070BD01214942280093
:102F0000FDF706FEF8E70121F9E72C4A206913785E
:102F1000002B25D08138072817D802F0D1FA1B1DC5
:102F2000161F1616160403238D22D621042592009F
:102F30009B18234A9B0098584900425C5307DB17B3
:102F400001339B00AA431343435420001830FEF77B
:102F5000A5FAD1E70123E7E70023E5E70223E3E74A
:102F600084281BD013D881281AD08228C4D12200EB
:102F7000453213709A22FF32A95C220046320029A2
:102F800012D0002313702000FFF78CF9B4E78828D3
:102F900008D0C028B0D101231370D6E70223E6E79A
:102FA0000123E4E70323E2E78D2189005B1804494C
:102FB0009B005958D8235B00CB58E3E7D906002083
:102FC0003CF3FF1F00B5012919D002291BD08D2227
:102FD0004530037892009B18264A9B00C81E9B58D8
:102FE0000021122830D802F06BFA113B2A35411823
:102FF0001A1C1E202C31153F2628223D2400007863
:103000004008014020E001780120FAE7CD2252007B
:10301000995C19E09C22FF32FAE7CE22F7E7CF2233
:10302000F5E7D022F3E7A222F5E7D122EFE7A422C9
:10303000F1E7A622EFE7A822EDE7D422E7E7D522C1
:10304000E5E70D4B1B681978080000BD0A4B1B68AB
:103050005978F9E7D6225200995C8907C90FF3E73E
:10306000D322D4E7D222D2E7A022D4E7D62252003C
:10307000995CC9E73CF3FF1F68F0FF1F10B50129F9
:1030800018D002291FD0453003788D2080001B18EE
:1030900042489B001C58C81E122813D802F010FA90
:1030A000196F5364753F434547495A603C734F510C
:1030B0004B714D00531E9A410221530002788A43FE
:1030C0001A43027010BD130001215A1E9341027869
:1030D000F5E7D2B2012A17D0002A0CD0022A0AD072
:1030E000CD235B002000E25405F0D2FD002120003A
:1030F000FEF7CAFBE6E7D52301215B00E154A423D8
:103100000731FF33E154EBE7D52302215B00E154A3
:10311000A4234918FF33F5E79C23FF3301E0CE23B6
:103120005B00E254CEE7CF23FAE7D023F8E7A223EF
:10313000F3E7D123F4E7A423EFE7A623EDE7A823E1
:10314000EBE7D423ECE7D5235B00E254200005F045
:103150009FFDB7E7124B18680270FEF759FAB1E706
:103160000F4B18684270F8E7D6210123022049006E
:103170001340625C5B0082431A436254A2E7D3238C
:10318000CEE7D223CCE7A023C7E7D6210120490010
:10319000531E9A41635C8343EEE7C0463CF3FF1F36
:1031A00068F0FF1F07B51100062A07D0072A34D0A0
:1031B000012A02D100230130C37707BD03691C4AED
:1031C00093421FD00DD81B4A934215D01A4A9342FE
:1031D000F3D1022307210093184A194B06F088F90E
:1031E000EBE7184A934213D0174A9342E5D10223E2
:1031F000164A0093164BF1E70223164A0093012169
:10320000154BEBE70323154A00930521144BE5E723
:103210000221144B0091144AE0E70023421CD377AB
:10322000FA2243628362114B92005A62C5E7C0469C
:10323000048000000180000002800000689A000005
:10324000609A00000880000020800000A49A00001E
:103250009C9A0000769A00006E9A0000889A0000FE
:103260007C9A00008E9A0000969A0000E8F0FF1FFA
:1032700003008D22F0B545331B7892009B18BB4CA0
:10328000BB4A9B009D588FB0060080220021200081
:1032900006F0A4FACD235B00EB5C04933378DB07E4
:1032A00030D5049B002B11D0022B28D001270023FE
:1032B0007F42B049B0480F2F24DC0C2F02D8BA004F
:1032C000E8328850002B1DD0FF18F4E7AC23FF3301
:1032D000EF5C01333800EB5C0F30DB0707D50721CB
:1032E00002F08CF9072358433F1A0C37E1E70C2111
:1032F00002F084F90C235843181AC719D9E70023A0
:103300004027D6E78022B3691206DA40994BD743AB
:103310001800DC30216839402160216C04341143ED
:10332000E163A042F6D1320044321278002A0DD077
:1033300080221800316C1206CA40DC30016811434B
:1033400001601900FC31086A02430A62DA22520065
:10335000AA5818000692802206991206CA40E43044
:103360000168FC3311430160996A0A439A62B36BA6
:103370000193002B7EDB736B039300238024029365
:1033800024060093039B019A934200DC90E0130013
:10339000009A93420FDC039B93420CDB0321029AB9
:1033A000744B0A4200D07EE0E4331A6822431A606C
:1033B000029B013B0293330046331B7803210593A4
:1033C0006223059A0CAF5343009A38005143C91841
:1033D0006918032206F0F9F93B880DA90B80BA7829
:1033E0008A700BA90B808A709906090F0791190A38
:1033F000080709090891000F0AA909900B808A7033
:10340000049B5006400E012B6CD10A2102F06CF88F
:103410000C23C0B2181A069A009900238A420DD1D3
:103420008E22534912018A5C9A4207D0B133FF338E
:10343000059AEB589B1A5A425341DBB20C280DD81F
:10344000002B63D001004B4A3A3189008F582A3053
:1034500027438F5080008158214311500AAA1178C8
:103460000322F06B0A40032800D98EE002F028F80E
:103470006AB788B5D6235B00EB5C9B070DD533009C
:1034800046331A7862235343EB181A0060321278DD
:10349000039261331B7801936FE72B0060331B7835
:1034A00003932B00F5E7FC339A6A22439A627FE785
:1034B000039B009A934200DD7DE7019B934200DA73
:1034C00079E70321029A2B4B0A4206D1E4331A68AA
:1034D00022431A60029B01336CE7FC339A6A224351
:1034E0009A62F7E7049B002B09D1AD33FF33EB5C05
:1034F000DB0704D5214B1B6818184C3000780C23CF
:10350000181AAC23FF33EB5C181884E7E2430592EA
:103510000AAA9778174A7F2F0CD907002A37BF00CD
:10352000D1593A302143D151E743800011580F401F
:10353000390092E707003A37BF00D1592A302143BA
:10354000D151F1E702220A40C9071CD5002A65D1F2
:10355000084A1000E0321768FC30416A2743002B0C
:103560005CD1A143176041620FE0C046C80500204E
:103570003CF3FF1F200500201111111168F0FF1FFF
:1035800007990029E2D1002A3FD1009B640801334A
:103590000093202B00D0F5E648363378002B24D05A
:1035A000244B03221900FC31486A10434862886AA0
:1035B0001043886219001800E0310C68E43094432D
:1035C0000C6001689143AE32FF320160A8580328B5
:1035D0000BD801F075FF060C0F130999D1E7089974
:1035E000CFE70222E03322431A600FB0F0BDE03390
:1035F0000122F8E70222E4330A43F5E7E43301222B
:10360000FAE7A04338605162BFE70A4A1700FC326C
:10361000516AE03738682143002BF2D0054B19007E
:10362000E0310A68FC3322430A605A6A22435A6234
:10363000ABE7C0462005002010B50100152803D8CF
:103640000D48FFF7BFFC10BD00201A29FBD8173921
:103650000329F8D80800094B01F032FF0206090BD4
:10366000986F02F0E1F9EEE75D33D87FEBE75E3368
:10367000FBE75F33F9E7C0468CF2FF1F68F0FF1FDE
:1036800000B515282ED8431E012B32D98D221E4B92
:10369000920045331B7804389B181C4A9B009B58AA
:1036A0000E2826D801F00CFF1B25252525250816F8
:1036B00016252525250F0F00A022FF329B5C581EE2
:1036C0008341180000BDA022FF329B5C013B5842A1
:1036D0004341F6E7A022FF329B5C023BF7E7FE2264
:1036E0005200EBE700231A28EBD8172803D019283B
:1036F00005D00123E5E7064B5D33DB7FE7E7044BAD
:103700005D33DB7FE9E7C0468CF2FF1F3CF3FF1F10
:1037100068F0FF1F013810B50B0006284ED801F0E5
:10372000CFFE0E212B2D2B2738001178002913D026
:10373000002B06D07C394842414101325B1A002AF5
:10374000F3D100231F4CD15C002906D07C2904D082
:103750000133581E2154F6E70B000021194AD154B9
:10376000184810BD0222481C164905F0E2FEF7E792
:10377000022214491800F8E70322FAE7114C180056
:103780000122210005F0D5FE562363700023A370AB
:10379000E6E70720DA170240D2180A49D2100A4891
:1037A00041320A70034004D50820013B40420343E4
:1037B000013331334B7000238B70D1E70022014B72
:1037C0001A70CDE7D006002007000080F0B58FB05A
:1037D000059206000F001422002109A805F0FEFF43
:1037E0000020162F6CD80C247C43341925688542A0
:1037F00000D174E03300FF335A7D0490BA421DD1EA
:1038000001229B7F0492022B18D13200FC32D26934
:1038100004930692AB075B1B0793079B2978EA1872
:10382000920000290FD005230293002309A80090DD
:1038300001933048FDF7C2FC0135EEE72079FFF730
:10384000FBFE0690E6E70C235F43F6196079B26849
:103850000699FFF75FFF1024050005262978002947
:103860000DD07C290BD0002309AA009202962200D9
:1038700001932048FDF7A2FC01350434EEE7059BD7
:1038800001259A00002318009C461A4C05995918E6
:103890000F2911D8142604A88019990041580498BA
:1038A00001280FD0022815D0A0180600E836316094
:1038B0006146A8300160280001330432052BE5D1B0
:1038C0000FB0F0BDA01807000E0CE83736043E60BC
:1038D000A830EFE7A0180600E8363160F8E7059B4E
:1038E0000F2BEDD801213A33024A9B0049429950EF
:1038F0000120E5E72005002073B50400A51C100099
:10390000EA7F002A27D0022803D3032802D90728F8
:103910000ED073BD00222100E36A0092013B1C31EE
:10392000FDF70BF90028F4D02000FEF7EDFCF0E7DE
:10393000E3692000FEF7FEFC021E504806D000227C
:103940004F4905F098F80023EB77E2E70130C277A2
:10395000FDF7A2F9F7E7A368102B36D012D8022B97
:1039600029D006D8012BD4D10200200005F0ACFBF1
:10397000CFE7042B24D0082BCBD102002000FEF788
:10398000ABFFC6E7802B2AD008D8202B22D0402BB3
:10399000BFD102002000FFF7E7F9BAE78026B601A1
:1039A000B34221D0802212029342B2D10200200001
:1039B000FFF7F8FBADE702002000FEF78FFDA8E758
:1039C00002002000FEF7B0FEA3E702002000FEF791
:1039D000DDFF9EE702002000FFF7D2F899E7020022
:1039E0002000FFF77BFA94E7062800D091E7230038
:1039F00047331A70226923498A4237D00AD82249AC
:103A00008A422ED021498A422ED021498A4208D1A9
:103A1000022227E01F498A422CD019D81E498A4227
:103A200026D01A78002A00D173E70623EB77053BEE
:103A3000E3610233E362194B30325A703A224D216E
:103A40009A7000221970DA706362154BA3626BE7FB
:103A5000812189018A420FD040318A42E1D1082276
:103A600000E001221A70DCE70322FBE70422F9E7F9
:103A70000522F7E70622F5E70722F3E7E8F0FF1F44
:103A8000489B0000082000000220000004200000E5
:103A9000012000002020000010200000DA06002095
:103AA000D49B000070B50400250008008D21453529
:103AB0002B7889005B1832499B0001385958092836
:103AC00011D801F0FDFC3005172B261010101047FF
:103AD000A368002B08D1002A05D0A2600122A3828E
:103AE0002000FFF709FF70BD637D2261013363751C
:103AF0000622F5E72369134201D000232361A3685E
:103B00009342F0D107222000FFF7F6FE0023A360C6
:103B1000E9E7A3689342E6D10422E1E7A368934270
:103B2000E1D10522DCE7D343A268DB0F0233002A90
:103B300006D01A002000FFF7DFFE01232375D2E72D
:103B400019002000012205F0B4FAA1690D4804F023
:103B500050FFC8E7032AC6D82100D3B200224C2068
:103B600046312B700A70074D074931330870280021
:103B70004B708A7004F07FFFA1692800E7E7C04618
:103B80003CF3FF1FE8F0FF1FE106002010B50A001C
:103B9000152804D801001748FFF770FA10BD1A283D
:103BA000FCD817380328F9D8134C01F089FC021708
:103BB0001E20080001F058FFA06703F019FC002246
:103BC0000E4B02F0B9FD00220D4B02F0B5FD0022B4
:103BD0000C4B02F0AFFAA065E165DFE75D34E277F8
:103BE00000210920FDF77EF8D8E75E34F7E75F345F
:103BF000E177D3E78CF2FF1F68F0FF1F0000184049
:103C000000007040004CED40F8B50400481E16005E
:103C1000032827D801F054FC025565782700FF37A8
:103C2000BB7F7D7D013B012B35D82100FC31CB6969
:103C3000D6180C236B43E3185879052800D17BE094
:103C4000002E0FDB0138062821D801F039FC0C04C6
:103C5000221C20201E000F239E4203DC394BFE3421
:103C6000CE61E383F8BD0C235D4300236519A8688A
:103C70000028F1D00278002AEED07C3A55426A4101
:103C800001309B18F4E70823E6E72723E4E7002345
:103C9000E2E77F23E0E7002E11DA013D162DE1D89F
:103CA0000C236B43E3181A68002AF4D01879FFF745
:103CB000E7FC0028EFD001237D757B77D2E7013543
:103CC000ECE7022ACED125000C23FF356A7D534351
:103CD000E3181879FFF7B0FC0123FC34E061AB77FF
:103CE000C0E72500FF35AB7F022B0BD12200697D99
:103CF0000A334B43FC32E4182079D169FFF746FFC1
:103D000001236B770023EAE710008138072809D8E0
:103D100001F0D6FB0C04080E0808081000210A2048
:103D2000FCF7E0FF0123FF3463779BE70121F6E70F
:103D30000221F4E70321F2E71D2E00DC92E796232F
:103D40005B0089E701020000F0B50225012687B07B
:103D500005F030FD05F029FD05F02BFDD34AD448D0
:103D60001368D44F2B43136002AB19001E7001F08F
:103D70007DF98023D04CDB033B60E3682B43E36099
:103D800005F096FCFA21890001F0AEFB6060E36863
:103D900003AD3343E36000232900C8482B726B60F6
:103DA000039601F025F932003100002000F068FE92
:103DB000C34BC34AFC33DB6AA43213608023022165
:103DC0001B043B60E3690F200B43E361136800228F
:103DD0006361E3691E43E6610197161C0021B94C3B
:103DE000B94B08341E700094B54F009C8B001C59D1
:103DF000FB18A827BC469C446746E8333C608142D8
:103E000063DB1C6001311029EED10123AE490B7038
:103E1000AE49313358310E76AD4C247E002CFBD0A8
:103E2000013B002BF7D10138D8D201220221042016
:103E300000F026FE280000F0A1FE022005F03CFC68
:103E4000A44C29000200200000F0E2FE8022A378AA
:103E500028001343A370012405F091FC9E4B02201F
:103E60000393EC712C7205F027FC290002009B489B
:103E700001F0C0F982219948090301F02DFA80234D
:103E8000019A5B011360964805F04DF88C4B009445
:103E90005B688E4B58331A7E002A00D1F8E000256B
:103EA0008F481D76FDF704FF8E4C2600E16800293F
:103EB0001CD06368A268CB186360002907DA9342BC
:103EC00007DC00236260E36003E01A609AE7934234
:103ED000F7DA320050321378012B07D96368218A50
:103EE0001B0C994202D02382022313702378022BE9
:103EF0000CD16378002B09D0013BDBB26370002B3F
:103F000004D1009BE8B22370FCF7AFFD01351434F7
:103F1000042DCBD1744C25002A352300210022002A
:103F20002A332931D87FC97F283288421BD0DB7FD2
:103F3000DBB2D35CDBB2FB2B0FD0FC2B10D0FA2B07
:103F400003D100210820FCF7CDFEE87F1F210130BE
:103F500001F03AFCC9B2E977DFE700210620F2E779
:103F600000210720EFE7614D8D222B0045331B78A0
:103F700092009B185A4A9B00D3589A22FF329A5CAF
:103F8000002A09D0C222FF329B5C2A004832002B53
:103F900000D181E064231370494805F0EFFA636AA9
:103FA000002B07D0013B6362002B03D1621CD37747
:103FB000FCF772FE0021424BA033197023005C33E2
:103FC0001B788B426ED0012B00D191E04648051D35
:103FD000EB7F002B03D0FDF783F90023EB772068FC
:103FE0000021C5430234E37F354A2A339B003E4C0F
:103FF000D3181A68661876682A4032431A601A6C19
:10400000043102431A6404331429F2D12C4B009A70
:10401000A033133904201A7000F068FD051E00D18A
:10402000BFE0230060331A78002A08D0013AD2B2E8
:104030001A70002A03D10321022000F021FD230081
:104040004C331A78002A08D0013AD2B21A70002AEA
:1040500003D10521009800F013FD1C4B48331A785A
:10406000002A08D0013AD2B21A70002A03D10221E4
:10407000080000F005FD70342278002A08D0013ACB
:10408000D2B22270002A03D10521022000F0F8FCF0
:104090001448FDF723FBFCE61378002B00D17BE7E7
:1040A000013B78E72800FFF7E3F88FE7148004402E
:1040B0000070034000E100E0FC7003400090074006
:1040C00020050020DC980000C005002068F0FF1FDC
:1040D000C0F0FF1F00600640127A000000A00640FA
:1040E0003CF3FF1F20FCFF1FE8F0FF1F8CF2FF1FB7
:1040F000304F3D00FF356B7F002B00D166E78022FB
:104100002D4805F06BFB6B7D0C255D430C3DED19D7
:1041100005275E1E009B0193731C17D0019B002B8B
:1041200014D02B68002B08D02879FFF7A9FA0623B2
:10413000002803D1013E0C3DEEE70223FF1A3A00AE
:1041400031001C48FFF742FB0190F3E7194B0C25A7
:104150001A000527FF32567D7543ED18009B019329
:10416000162E19DC019B002B16D02B68002B04D0D7
:104170002879FFF785FA00280BD03A0031000D4866
:10418000FFF724FB2A6801900223002A00D00433A1
:10419000FF1801360C35E3E70022064BFF335A7750
:1041A00014E702000221042000F06AFC280007B096
:1041B000F0BDC0466CF1FF1FC8050020F0B500241B
:1041C000012685B003AD2A00052103202E706C70F6
:1041D00000F06AFC31002A0002202E706C7000F0A2
:1041E00063FC21002A0002202E706C7000F05CFC41
:1041F00030002A0003212E706C7000F055FC300056
:104200002A0002212E706C7000F04EFC310020005C
:104210002A002E706C7000F047FC2A000621022054
:104220002C706C7000F040FC30002A0004212C70CF
:104230006C7000F039FC21002A0003202C706C7097
:1042400000F032FC31002A0003202C706C7000F06A
:104250002BFCFC4E012330005B42210080221030F9
:10426000348074807460B360347305F0B7FA300042
:1042700021000322903005F0B1FA330094331C6022
:10428000330098331C6033009C331C603300A03330
:104290001C703300A4331C6037009C23FC375B0088
:1042A000F454BC633C647C64BC6405F001FA3222C3
:1042B0000023210001F0AEFAE34A002301F08AFA5C
:1042C000F86205F0F5F9962200235200210001F072
:1042D000A1FADD4A002301F07DFA386305F0E8F920
:1042E000C82200235200210001F094FAD64A00238C
:1042F00001F070FA0121C8220A23D44E7863316597
:10430000B26529702A000431012073656C7000F0D9
:10431000CBFB0121C8220A23CD4F2970F96449182B
:1043200008007A652A003B656C7000F0BDFB012136
:10433000C8220A237166F26629702A00023102201F
:10434000B3666C7000F0B0FB210020002A002C70D6
:104350006C7000F0A9FB0121C8220A237167F26783
:1043600029702A0004310220B3676C7000F09CFBB6
:104370003A005D32D4773A0001215E32D1773A00BB
:104380003B005F32D177B348B34958337C671C7622
:10439000B865F96500200021B04ABC66BA67386686
:1043A0007966FC665C76FCF7F5FBAD4B74623362B4
:1043B0002100301D142205F011FAAA4BAA4A21004F
:1043C0009818182234607C6405F008FAA54AA74BB7
:1043D0002000D45433002A362933DC77F4770126C1
:1043E0002A0006212E706C7000F05EFB03212A006B
:1043F00008002E706C7000F057FB2A000221032089
:104400002E706C7000F050FB2A00042103202E70E7
:104410006C7000F049FB964E21005022300005F0F0
:10442000DDF9330050331C7033006022B8331A704A
:104430003300BA331C803300BC331C7033008D4A08
:10444000C0331A6033006422C4331A603300CC36A0
:10445000C8331C603470884E3470747030003E6015
:10446000FDF7D6F8854C23008933FF330193009480
:104470000027009804F049FB0F22009B60331F7057
:10448000009B61331A70009B62330093009A019B7A
:104490009342EDD12000BD30FF30032104F029FB11
:1044A00080239B00E418764B9C42DCD18D23734A19
:1044B0001B01F250734A744B0321F250734A744B40
:1044C0007448F250744B754AF25004F012FB744871
:1044D00004F01BFB734BF0211A000126AC320901DA
:1044E000118002211A78704C32430A431A705A180C
:1044F000D7779A19D777012252425A639A631632B4
:104500005F629F62DF621F63DF631F645F64390065
:10451000FF3220001F719F60DF601F611F759F6168
:10452000DF6105F05BF9614A0421A260604A614BDA
:10453000E26009222274604A236062615F4A0323B9
:10454000A261082222775E4A237122625D4A667167
:1045500062622200283211702200293216705A4AF3
:104560001321E262594A6674E263220040321170FC
:10457000220041321670564A04396264554A667701
:10458000A26422004C32117022004D321670524A41
:104590000D212265514A0E206265220058321170A9
:1045A000210064310870210065310E704C490630DD
:1045B000A1664C492200E16621007031087021009B
:1045C00071310E7048498019616748495932A167B5
:1045D00021007C31087021001670454A7D31E2656A
:1045E000444A0E7044492266221DD1672200434985
:1045F0009032116022001021943211702200953205
:10460000167022003E499832116022003D499C32CA
:10461000116022000A21A03211702200A13216700E
:1046200022003949A432116022003849A8321160B1
:1046300022000B21AC3211702200AD321370220027
:1046400066E0C0462005002040420F00E8F0FF1F52
:1046500068F0FF1FFA7E6ABC749308400000F042C5
:1046600000020200F4FCFF1F0C08000024080000F8
:1046700020FCFF1F71FCFF1F3CF3FF1F0CF4FF1F0A
:104680000CFCFF1F0CF6FF1FD40800000CF8FF1FE6
:10469000D8080000D5F2FF1FDC0800000CFAFF1F4D
:1046A000D8F2FF1F8CF2FF1F6CF1FF1FFE9B000072
:1046B0000C9C0000FA9B0000109C0000409C000035
:1046C000449C00006C9C0000709C0000829C0000D8
:1046D000869C0000A39C0000A79C0000649A000038
:1046E000DC9C0000F99C0000FD9C00001E9D000069
:1046F000B59C0000D89C0000229D00002E9D00006B
:10470000329D00003F9D0000439D00003C9D000045
:104710003349B432116022000C21B83211702200EA
:10472000B932167022002F49BC32116022002E4986
:10473000C032116022001121C43211702200C53232
:1047400013702300294ACC331A6023001222D0337D
:104750001A702300D1331E702300254AD4331A6007
:104760002300244AE4331A6023001822E8331A7025
:104770002300E9331E7023001F4AEC331A60230024
:104780001E4AF0331A6023001722F4331A702300F4
:10479000123AF5331A702200194BFC3213602300D1
:1047A0001848FF33D0601A20083159701649FE347A
:1047B00058739E7091609E735161E6832A000221B6
:1047C00016385F752E706F7000F06EF92A00310098
:1047D00004202F706F7000F067F905B0F0BDC0467F
:1047E0006A9D00006E9D0000759D0000799D00008F
:1047F0007D9D00009C9D0000A09D0000AD9D0000DF
:10480000B19D0000C39D0000B49D000004207146CE
:10481000084202D0EFF3098001E0EFF308808169DC
:104820000A88044B9A4200D0FEE7023181612021C0
:1048300001607047ABBE0000084B186800280CD020
:10484000074B084A1B7812789B065B0FD84052072B
:1048500003D5063B012B00D94009704774060020A0
:1048600000400640005006400020044B1B785BB21D
:10487000834201DA024B18687047C0460050064078
:1048800074060020C0228021037892051B07134084
:104890004278490412060A40802113438278490372
:1048A00012050A401343054A5362C378E020516859
:1048B000C0021B0403400B43536070470080044058
:1048C000102310B5074A00205178194207D11279F8
:1048D0001A4205D1FFF7B0FFA023DB00584310BDFB
:1048E0000148F9E7004006407C92000010B50B4CEF
:1048F00023791B079B0F012B05D0002B08D0022B1F
:1049000009D0002000E0064863785B09D84010BD5C
:10491000FFF7D6FFF8E7034B1868F5E700400640BD
:104920007C9200007406002010B5084CFFF7DEFFF3
:10493000616A8900890F013100F0D6FD616AC90101
:10494000C90F013100F0D0FD10BDC0460080044009
:1049500010B5FFF7CBFF044B596A8900890F01316D
:1049600000F0C2FD10BDC0460080044010B5FFF746
:10497000BDFF044B596AC902C90F013100F0B4FDF3
:1049800010BDC04600800440054B18780223184033
:1049900043425841034B40421840034BC0187047F4
:1049A00000400640846DFFFF7C92000010B5094B6B
:1049B0001B79DB0606D4FFF73FFF041E03D100245A
:1049C000200010BD044CFFF791FF8008A042F6D3F1
:1049D000F6E7C046004006407C92000030B549250D
:1049E0000D49047943790A7823432A4013438022EE
:1049F00000681202824292415242920013430B70AD
:104A0000002C07D00B785BB2002B03DA01230A7865
:104A10001A42FCD030BDC0460050064010B53824C4
:104A2000154AC90013782140353C234019431170C1
:104A30001F21537840010B401843C0B20F495070FA
:104A400008781300C20603D5012208781042FCD072
:104A5000102219791142FCD103211A7992080A42D5
:104A6000FBD1402219791142FCD080211A79002013
:104A70000A431A7110BDC04600400640005006406F
:104A8000830810B5074C9B001C590323184098401D
:104A9000023B41188B40002A01D1A36010BD636026
:104AA000FCE7C0463099000070B583080E4C9B00AF
:104AB0001C59032301250340DB005B189D4013783C
:104AC000002B07D1EA43636913406361A569154070
:104AD000A56170BD5278FFF7D3FF63692B43636113
:104AE000A3691D43F4E7C04630990000064A8308D5
:104AF0009B009B580322104090401B694118CB40FB
:104B00001800012318407047309900001023194203
:104B100002D0C3700448704701200840034901389F
:104B2000034B0840C018F6E74F040000B2FBFFFF3C
:104B30004E040000C37810B5DB0602D483789B06D0
:104B400005D5044B1B689847BFF34F8F10BD024B30
:104B5000F8E7C0468006002084060020054A0023AE
:104B6000904204D0044BC018431E9841431C1800C7
:104B70007047C046006006400090F9BF10B50400C1
:104B80000C22002104F02AFE034B636000236370B3
:104B900023720133237010BDA0860100F0B50024FC
:104BA0000126270085B0029001910392009476427D
:104BB0000025164A6B00D15A0398A14000F094FCDE
:104BC000019B984210D2181AB04213D30135402DE0
:104BD000EFD1022C17D13C00009DA4012543029B7C
:104BE000EDB25D7005B0F0BD019BC01AB042EDD2D0
:104BF000002803D0009527000600E7E7022CECD13F
:104C000000952700E7E70134D2E7C046E0990000AD
:104C1000F8B504000D001700FFF7A0FF1B4B800044
:104C2000C1581B4B0A0CD218012389B28B40106863
:104C30007F26034313600022FF2322706270A2705C
:104C4000E370AF3B6271A371E271A2782000324041
:104C5000A270A2791A43A271A2791343A3711223FD
:104C6000E3703A006968FFF799FF0F216A78A3792A
:104C7000D201334013432A7ADBB28B430A401343F9
:104C8000A3712B78DB01DBB2A370F8BD3C99000067
:104C90000080044070B505000E00140004F05FFDB4
:104CA000202318400BD1AA7810331343013CAB707A
:104CB00063425C4176003443E4B22C7170BD01481C
:104CC000FCE7C0464C04000070B505000E0014005F
:104CD00004F045FD2023184202D0AA781A4218D0C9
:104CE0003F226B78DBB21A406A701422A9780A431B
:104CF000AA706B70C046C046C046C046C046C0469B
:104D0000013C63425C41002076003443E4B22C71E4
:104D100070BD0148FCE7C0464C040000022300229D
:104D2000F0B5C370C37885B0DBB2019302ABDF1D71
:104D30003A700B7F05000C00032B42D14B695A429D
:104D40005A4100923B7801990133DBB228003B7055
:104D5000FFF7DCFE5D4B0600984202D1009B013B51
:104D60001E40207F012852D1019B034200D0ABE0BE
:104D7000237B002B2BD002232377002E50D02368D7
:104D80005B0705D5514B9E4202D0514B9E4209D143
:104D9000AB789B0606D5280004F0D7FC002801D08C
:104DA0008A26F600002340212377280004F0C0FC67
:104DB000276A002F3FD0636A320021002800B847DD
:104DC00039E00092052BBDD14B69013BB7E7637910
:104DD000002B07D103332377002ED0D16369002B3A
:104DE00031D034E004232377002EC8D11822AB78C9
:104DF0009343AB706369012B03D1AA780733134344
:104E0000AB702B79DBB23B700523237713E0002EC8
:104E1000B5D1023803280ED800F048FB02E0E82F95
:104E2000237B002B09D0013BDBB2A2682373DB009C
:104E3000DA40D3B22B7105B0F0BD6379002B10D1ED
:104E40006369002B01D1002699E7032323772369A7
:104E50001B782B712369013323616369013B636113
:104E6000E9E7217901222800FFF72EFF042306003D
:104E70002377002E00D082E7DDE763695A1E626166
:104E8000002BD8D0002362699A4207D123685B07C0
:104E900015D4280004F059FC060001236269012A98
:104EA00003D1A97807320A43AA70226929791170BF
:104EB000226901322261002B00D060E7D9E710237C
:104EC000AA781343AB70E8E7014E58E74E040000A0
:104ED00051040000F8B50C001E001700FFF73EFE5D
:104EE000050028220021200004F078FC094BAA00CC
:104EF000D450094B094A27621A60094B66625B5716
:104F0000002B06DB1F2213401E3A9A401300054A6D
:104F10001360F8BD78060020800600201D4D0000BB
:104F2000C79D000000E100E0F7B50B7F0400944648
:104F30000193002B3FD1080065465279C8CDC8C007
:104F4000C8CDC8C063460D7B58698861002D03D069
:104F50005B79012B00D1019A012650230E77A079AD
:104F60001843A071A0790343A3711223E3700B6867
:104F7000334214D00223002D03D10420002A16D17D
:104F800003230B77E3785BB2002BFBDA2000FFF7FB
:104F9000C5FE2000402104F0BCFB002007E0097999
:104FA00020009B0704D5FFF78FFE0028F1D0FEBD3F
:104FB000FFF770FEF9E70148F9E7C0464C0400002E
:104FC00010B5034B03481968FFF7B4FD10BDC04688
:104FD000780600200060064010B5034B034859686E
:104FE000FFF7A8FD10BDC0467806002000700640FF
:104FF000184AF0B50023904204D0174BC3185A1E2C
:1050000093410133154A9C00A558154A2C0CA4184D
:1050100001221700ADB2AF403D0026683543256040
:10502000002484604C6844600C680460342484600C
:105030008468097AE4B2114021430224214381604B
:105040000849CB56002B04DB1F210B409A40064B2E
:105050001A60F0BD009007400060F8BF449900005E
:1050600000800440C99D000000E100E0022210B56C
:105070000D4C2368134323600368934302000360CD
:105080000123FC32D4689C43D460D4699C43D4612E
:105090000A78002A03D002689A43026010BD0268B1
:1050A00013430360FAE7C0461480044030B5104C47
:1050B000032815D9012203065B0F9A400D4D013AD2
:1050C0000540AA40A940D343820304D4E2681340B8
:1050D0000B43E36030BD226913400B432361F9E7C2
:1050E00001238340814062689A4311436160F1E784
:1050F000008004401FFFFDFF10B5002B1FD00329C7
:1051000007D80123C9008A18934084682343836029
:1051100010BD072909D8184BC468C9180123C90054
:105120008A1893402343C360F2E7144B0469C918FB
:105130000123C9008A18934023430361E8E7032948
:1051400006D80124C9008A1894408368A343DEE787
:10515000072908D8084CC3680919C9008A18012111
:1051600091408B43DFE7054C03690919C9008A1890
:10517000012191408B43E0E7FCFFFF1FF8FFFF1F79
:10518000064A0378890010B58958DB0603D5044B1D
:105190001B68984710BD034BFAE7C04688060020FD
:1051A000900600209406002010B500210148FFF76A
:1051B000E7FF10BD0060074010B501210148FFF76F
:1051C000DFFF10BD00700740074A0023904208D05F
:1051D000064A0133904204D0054BC018431E984143
:1051E000831C18007047C04600A0064000B006406F
:1051F0000040F9BFF7B50F6805000E001000390137
:10520000019200F071F984B2002C00D10134210127
:10521000019800F069F92101C31B10310198009336
:1052200000F062F9009B381A984202D20134A4B20D
:1052300000906421380000F057F903235843009B85
:10524000984241D32800FFF7BFFF204B8000C15890
:105250001F4B0A0CD218012389B28B40106804211D
:10526000034313600C22EB789343EB702B781332DB
:1052700093431A00230A13431722E4B22B706C7075
:10528000AB789343B27992000A40317913430029F5
:1052900002D010220A4313432021AB7073792A787D
:1052A0005B018A430B4013432B70EB78F279DBB23E
:1052B000002A01D008221343327A002A01D00422A6
:1052C00013430020EB70FEBD0248FCE74C99000040
:1052D00000800440F5030000074B194003780A0AD8
:1052E0000B43DBB20370C378090C1343DBB2C3700A
:1052F0008379194381717047C0F00F0010B5034BDB
:10530000034A1B6811680348984710BDA406002093
:105310009806002000A0064010B5034B034A1B6806
:1053200051680348984710BDA40600209806002045
:1053300000B0064010B5034B034A1B689168034850
:10534000984710BDA40600209806002000C0064023
:105350000A4B0B4A10B55A800A4A5F215A80012233
:1053600052429A801A78114020220A431A705A78C1
:10537000D2B25A7004F018FA10BDC04600200540A1
:10538000C5200000D928000080220E4B520410B521
:105390000D485A62FFF722FB0C4B0D4A04210020F6
:1053A0001A6004F0B2F903220A490B480B789343C0
:1053B0001A00022313430B70FFF764FA074B084AE5
:1053C0001A6010BD00800440589900007406002047
:1053D00000F8240100400640CB9D000000F0FF1FB4
:1053E000006CDC027FB500256B4601246A4604216F
:1053F00001201D705D70FFF757FB01AA06210220F6
:10540000274E15705570FFF74FFB02AA01210420AB
:1054100015705570FFF748FB03AA02210420557050
:105420001470FFF741FB3000230021000422FFF736
:1054300063FE3000230006220221FFF75DFE2A00F2
:10544000300023000321FFF757FE30002300220025
:105450000321FFF751FE3000230006220321FFF74E
:105460004BFE3000230007220321FFF745FE2300F7
:10547000220030000421FFF73FFE29002520FFF71E
:1054800015FE29002720FFF711FE29002000FFF755
:105490000DFE044A044953680B4053607FBDC0466B
:1054A0000090044000800440FFFCFFFF02B47146FE
:1054B00049084900095649008E4402BC7047C0465D
:1054C00002B4714649084900095C49008E4402BC97
:1054D0007047C04603B47146490840004900095A64
:1054E00049008E4403BC7047002243088B4274D3AA
:1054F00003098B425FD3030A8B4244D3030B8B42D5
:1055000028D3030C8B420DD3FF22090212BA030CDD
:105510008B4202D31212090265D0030B8B4219D3BE
:1055200000E0090AC30B8B4201D3CB03C01A5241DE
:10553000830B8B4201D38B03C01A5241430B8B4226
:1055400001D34B03C01A5241030B8B4201D30B030F
:10555000C01A5241C30A8B4201D3CB02C01A524136
:10556000830A8B4201D38B02C01A5241430A8B42F9
:1055700001D34B02C01A5241030A8B4201D30B02E2
:10558000C01A5241CDD2C3098B4201D3CB01C01AFC
:10559000524183098B4201D38B01C01A5241430906
:1055A0008B4201D34B01C01A524103098B4201D3F4
:1055B0000B01C01A5241C3088B4201D3CB00C01A61
:1055C000524183088B4201D38B00C01A52414308D9
:1055D0008B4201D34B00C01A5241411A00D20146FE
:1055E000524110467047FFE701B5002000F0F0F887
:1055F00002BDC0460029F7D076E7704703460B434B
:105600007FD4002243088B4274D303098B425FD3BB
:10561000030A8B4244D3030B8B4228D3030C8B42E7
:105620000DD3FF22090212BA030C8B4202D31212CD
:10563000090265D0030B8B4219D300E0090AC30BA2
:105640008B4201D3CB03C01A5241830B8B4201D34F
:105650008B03C01A5241430B8B4201D34B03C01A38
:105660005241030B8B4201D30B03C01A5241C30AB0
:105670008B4201D3CB02C01A5241830A8B4201D321
:105680008B02C01A5241430A8B4201D34B02C01A0B
:105690005241030A8B4201D30B02C01A5241CDD2B0
:1056A000C3098B4201D3CB01C01A524183098B42FB
:1056B00001D38B01C01A524143098B4201D34B01E4
:1056C000C01A524103098B4201D30B01C01A524147
:1056D000C3088B4201D3CB00C01A524183088B42CE
:1056E00001D38B00C01A524143088B4201D34B00B7
:1056F000C01A5241411A00D2014652411046704729
:105700005DE0CA0F00D04942031000D3404253402D
:1057100000229C4603098B422DD3030A8B4212D3ED
:10572000FC22890112BA030A8B420CD3890192111F
:105730008B4208D3890192118B4204D389013AD05C
:10574000921100E08909C3098B4201D3CB01C01A31
:10575000524183098B4201D38B01C01A5241430944
:105760008B4201D34B01C01A524103098B4201D332
:105770000B01C01A5241C3088B4201D3CB00C01A9F
:10578000524183088B4201D38B00C01A5241D9D2B7
:1057900043088B4201D34B00C01A5241411A00D238
:1057A0000146634652415B10104601D34042002B34
:1057B00000D54942704763465B1000D3404201B5B3
:1057C000002000F005F802BD0029F8D016E7704768
:1057D0007047C046002B11D1002A0FD1002900D1FB
:1057E000002802D00021C943081C07B4024802A1C6
:1057F0004018029003BDC046D9FFFFFF03B46846BE
:1058000001B5029800F04EF8019B9E4602B00CBC18
:105810007047C046F0B5CE46474615042D0C2E0005
:1058200080B50704140C3F0C9946030C7E435D437E
:10583000674363437F19340CE4199C46A54203D99E
:1058400080235B029846C4444B4643435143250C96
:1058500036046544360C2404A4195B195918200039
:105860000CBC90469946F0BD70B500220C4B04006C
:105870000D0002F0B7FD002804D12000290001F03E
:1058800015FD70BD064B00222000290001F0C6F96D
:1058900001F00CFD80231B069C466044F1E7C046E6
:1058A0000000E041F0B54F464646D646C0B504007C
:1058B00082B00D00914698468B422FD82CD041469D
:1058C000484602F0B7FD29000600200002F0B2FDB4
:1058D000331A9C46203B9A4600D576E04B4652460A
:1058E00093401F004B46624693401E00AF4228D8AB
:1058F00025D05346A41BBD41002B00DA7BE00022DB
:105900000023009201930123524693400193012307
:1059100062469340009318E08242D0D900220023CF
:10592000009201930A9B002B01D01C605D600098DF
:10593000019902B01CBC90469946A246F0BDA34214
:10594000D7D900220023009201936346002BE9D0AF
:10595000FB079846414672080A437B0866460EE0FC
:10596000AB4201D1A2420CD8A41A9D4101202419B6
:105970006D410021013E24184D41002E06D0AB425E
:10598000EED9013E24196D41002EF8D100980199FD
:10599000534600196941002B23DB2B005246D340AC
:1059A0002A006446E2401C0053461500002B2DDB04
:1059B00026005746BE40330026006746BE403200F0
:1059C000801A994100900191ACE7624620239B1A0E
:1059D0004A46DA406146130042468A4017001F4398
:1059E00080E7624620239B1A2A0066469A402300DD
:1059F000F3401343D4E76246202300219B1A002280
:105A0000009101920122DA40019280E72023624650
:105A100026009B1ADE402F00B0466646B740464639
:105A20003B003343C8E7C04641024200C30F490A66
:105A3000120E00207E2A0DD99D2A0CD88020000449
:105A40000143952A0ADC9620821AD1404842002B55
:105A500000D108007047034A9818FBE7963A914036
:105A6000F4E7C046FFFFFF7F70B500283DD0C317A5
:105A7000C5185D40C40F280002F0BEFC9E22121A19
:105A8000962A07DCD2B2082833DD08388540680240
:105A9000400A23E0992A0BDD052329001B1AD9406F
:105AA00003001B339D402B005D1EAB4119430D00CD
:105AB000052801DD431F9D402B000F490B406E0759
:105AC00009D00F263540042D05D004335D0102D5E1
:105AD0009F220B40121A9B01580AD2B24002D205F3
:105AE000400AE4071043204370BD00240022002038
:105AF000F4E76802400AF1E7FFFFFFFBF0B54F460D
:105B00004646D6460C000903C0B5490A470F5E0059
:105B100039431F03DB0F9C4665007B0A570F1F4369
:105B20006D0DE40F760DA146C000B846D200AB1B48
:105B300064457BD0002B5FDD002E00D0A4E03E004A
:105B4000164300D112E15E1E002E00D09EE1871A9E
:105B50004346B84280410125C91A4042091A0B0246
:105B600000D431E149024E0A002E00D16EE130002E
:105B700002F042FC0300083B1F2B00DD61E1202204
:105B80003900D21A9E40D1409F400E439D4200DD15
:105B900051E15D1B6B1C1F2B00DD7CE12021C91A2C
:105BA0003D0030008F408840DD40791E8F4131003C
:105BB00007222843D940002507433A40002A09D04C
:105BC0000F233B40042B05D03B1DBB42BF417F420E
:105BD000C9191F000B0200D426E26A1CC64B5505EA
:105BE0006D0D9A4200D106E1C44AFF080A405307EE
:105BF00052023B43120B8EE0002B00D0B8E06B1C2E
:105C00005B055B0D012B00DC30E1871A4346B8428F
:105C1000B641CB1A76429E1B330200D54CE13B00C5
:105C20003343A1D100220024002570E0002B00DCCA
:105C3000E5E0002E00D183E0AF4EB54260D0802673
:105C400036043743B846382B00DC3EE14346134365
:105C50001F007A1E97413F18874280414042091831
:105C60000B0200D4B0E0A44B01359D4200D1C3E04B
:105C7000A24A7B080A4001210F401F435108D30765
:105C800007221F433A4099E79B4EB54238D0802601
:105C900036043743B846382B00DDDCE01F2B00DC30
:105CA00030E11E004746203EF740BC46202B04D082
:105CB0004026F31A46469E403243170063467A1E3A
:105CC00097411F43CCE0002B00D104E2434613432D
:105CD00000D159E14B07C00818438023C9081B03B2
:105CE000194208D04546ED081D4204D14346D0086C
:105CF000590708432900420FC9007F4D1143C000D6
:105D00004B07CA087C49C00803438D4268D0120380
:105D10006D05120B6D0D002112031800130B0A0DF7
:105D200012051A43764B2D0513402B435B00E40705
:105D30005B08234319001CBC90469946A246F0BD5F
:105D40003E00164312D05E1E002E00D000E18718E0
:105D50008742804141444042091801250B0233D556
:105D6000022585E764463300414610001D00C7E761
:105D7000002D00D0DAE00C000443F3D05C1C00D10D
:105D80009FE15D4CA64200D12FE1DB43382B00DDC3
:105D900066E11F2B00DD83E120240500E41A0F00DB
:105DA000DD40D940A0404346A7405B1A441EA041B5
:105DB00098462F433843171ABA42924143465242FB
:105DC000991A64463500CAE607223A40002A00D0F4
:105DD000F6E64B07CA084849FF083B438D4296D177
:105DE0001900114300D19EE1802109030A431203E7
:105DF000120B414D8FE71500002200238BE7002B8B
:105E000000D0C7E06B1C5F057F0D012F00DCF1E0C7
:105E1000394DAB4200D1B9E085180A00854289416D
:105E20004244494251180722CF076D082F434908C1
:105E30003A401D00C2E607223049ED1A31403A408F
:105E4000BCE63E002838864000279FE6380002F076
:105E5000D3FA20308EE6434613431F007A1E974143
:105E6000C71BB84280414042091A78E60E003B0049
:105E700006431343002D61D1002E00D0F4E0002B27
:105E800000D11BE164463900100039E71A4FBB42CC
:105E90007AD03300FFE630001F3DE840202B03D0CE
:105EA0004021CB1A9E4037437B1E9F410722074368
:105EB0003A400021002589E7171A4346BA42B64105
:105EC000591A76428E1B64464EE61F2B00DDADE06C
:105ED00020264746F61AB740B9461700B246DF40BB
:105EE0004E463E4337005646B240561EB241174317
:105EF0004246DA408918AEE6FF070000FFFF7FFF49
:105F0000FFFF0F8020264746F61AB740B946170014
:105F1000B246DF404E463E4337005646B240561E1C
:105F2000B24117434246DA40891A99E77F4CA642AC
:105F30005BD0802424045B42214327E7002E0CD150
:105F4000002B00D1CBE0644639001000774DD7E636
:105F5000764FBB4218D0330075E6002B14D04B07A8
:105F6000C00818438023C9081B03194207D0FC0846
:105F70001C4204D17907D0080843E14621004C4671
:105F8000420FC9001143C000684DB9E61D00002250
:105F90000023C0E6002D5BD10D00054300D1E2E6F1
:105FA0005D1C00D1B0E0614DAE421FD0DB43382B09
:105FB00071DC1F2B00DD96E020250F00ED1AAF40AD
:105FC000B9460700AA46DF404D463D432F005546DF
:105FD000A840D940451EA84188440743BF189742AE
:105FE00092415142414435003AE66446350041460B
:105FF000100085E60B000343002D00D063E6002B64
:10600000F5D04346134300D17AE687188742804192
:1060100007224144404209183A400B0200D4D5E619
:10602000434B01351940C9E5380069E61E00474673
:10603000203EF740BC46202B04D04026F31A4646AB
:106040009E403243170063467A1E97411F4302E683
:10605000364DAE42CAD080252D045B422943A6E7C7
:106060000843411E8841A6E6002B00D148E6871A66
:106070004346B842B641CB1A76429E1B33024BD5FB
:10608000171A4346BA429241591A5242891A0722B4
:1060900064463A4092E501430F00791E8F419DE727
:1060A0001C000F00203CE740202B03D04024E31AC3
:1060B00099400843411E884138437CE60022002471
:1060C00025E6171A4346BA429241591A5242891A92
:1060D0006446350043E541461000144D10E6802229
