:1006000000300020CD06000015070000C164000086
:1006100000000000000000000000000000000000DA
:1006200000000000000000000000000019070000AA
:1006300000000000000000001B0700001D07000074
:1006400021070000290700003107000039070000DA
:10065000410700004907000051070000590700004A
:1006600061070000690700007107000079070000BA
:10067000B50C0000890700009107000099070000F1
:10068000A1070000A9070000B1070000B90700009A
:10069000C1070000C9070000390D0000A70C0000C9
:1006A000B5120000E9070000F1070000F90700009B
:1006B000010800000908000010E0000000F0FF1F22
:1006C0006800000068F0FF1F2C1B000010B572B618
:1006D00006F050FC0C4C0D4B9C4206D2A26861689F
:1006E000206800F095F80C34F5E7094B9C4205D2E0
:1006F0006168206800F097F80834F6E709F096FF83
:1007000062B604F07FFEFEE7B8060000C4060000F3
:10071000CC060000FEE7FEE7FEE7FEE7FEE7FEE7A9
:1007200010B5FFF7FCFF10BD10B5FFF7F8FF10BDC7
:1007300010B5FFF7F4FF10BD10B5FFF7F0FF10BDC7
:1007400010B5FFF7ECFF10BD10B5FFF7E8FF10BDC7
:1007500010B5FFF7E4FF10BD10B5FFF7E0FF10BDC7
:1007600010B506F06DFA10BD10B506F075FA10BDA3
:1007700010B506F015FB10BD10B506F019FB10BD45
:1007800010B506F0CDFB10BD10B506F0D7FB10BDBF
:1007900010B506F0E1FB10BD10B5FFF7C0FF10BDAE
:1007A00010B5FFF7BCFF10BD10B5FFF7B8FF10BDC7
:1007B00010B5FFF7B4FF10BD10B5FFF7B0FF10BDC7
:1007C00010B5FFF7ACFF10BD10B5FFF7A8FF10BDC7
:1007D00010B5FFF7A4FF10BD10B5FFF7A0FF10BDC7
:1007E00010B5FFF79CFF10BD10B5FFF798FF10BDC7
:1007F00010B5FFF794FF10BD10B5FFF790FF10BDC7
:1008000010B5FFF78CFF10BD10B5FFF788FF10BDC6
:10081000002330B55C181D18934203D22D680433B1
:100820002560F7E730BD002310B51C001A188B4275
:1008300002D214600433F9E710BDFFFFFFFFFFFF92
:10084000FFFFFFFFFFFFFFFFFFFFFFFFFFFFFFFFB8
:10085000FFFFFFFFFFFFFFFFFFFFFFFFFFFFFFFFA8
:10086000FFFFFFFFFFFFFFFFFFFFFFFFFFFFFFFF98
:10087000FFFFFFFFFFFFFFFFFFFFFFFFFFFFFFFF88
:10088000FFFFFFFFFFFFFFFFFFFFFFFFFFFFFFFF78
:10089000FFFFFFFFFFFFFFFFFFFFFFFFFFFFFFFF68
:1008A000FFFFFFFFFFFFFFFFFFFFFFFFFFFFFFFF58
:1008B000FFFFFFFFFFFFFFFFFFFFFFFFFFFFFFFF48
:1008C000FFFFFFFFFFFFFFFFFFFFFFFFFFFFFFFF38
:1008D000FFFFFFFFFFFFFFFFFFFFFFFFFFFFFFFF28
:1008E000FFFFFFFFFFFFFFFFFFFFFFFFFFFFFFFF18
:1008F000FFFFFFFFFFFFFFFFFFFFFFFFFFFFFFFF08
:10090000FFFFFFFFFFFFFFFFFFFFFFFFFFFFFFFFF7
:10091000FFFFFFFFFFFFFFFFFFFFFFFFFFFFFFFFE7
:10092000FFFFFFFFFFFFFFFFFFFFFFFFFFFFFFFFD7
:10093000FFFFFFFFFFFFFFFFFFFFFFFFFFFFFFFFC7
:10094000FFFFFFFFFFFFFFFFFFFFFFFFFFFFFFFFB7
:10095000FFFFFFFFFFFFFFFFFFFFFFFFFFFFFFFFA7
:10096000FFFFFFFFFFFFFFFFFFFFFFFFFFFFFFFF97
:10097000FFFFFFFFFFFFFFFFFFFFFFFFFFFFFFFF87
:10098000FFFFFFFFFFFFFFFFFFFFFFFFFFFFFFFF77
:10099000FFFFFFFFFFFFFFFFFFFFFFFFFFFFFFFF67
:1009A000FFFFFFFFFFFFFFFFFFFFFFFFFFFFFFFF57
:1009B000FFFFFFFFFFFFFFFFFFFFFFFFFFFFFFFF47
:1009C000FFFFFFFFFFFFFFFFFFFFFFFFFFFFFFFF37
:1009D000FFFFFFFFFFFFFFFFFFFFFFFFFFFFFFFF27
:1009E000FFFFFFFFFFFFFFFFFFFFFFFFFFFFFFFF17
:1009F000FFFFFFFFFFFFFFFFFFFFFFFFFFFFFFFF07
:100A0000FFFFFFFFFFFFFFFFFFFFFFFFFFFFFEFFF7
:100A100030B5039D040002280ED00020032C0AD11B
:100A20000C689C4203DA01340C60013003E0002DB5
:100A300001D00A60012030BD0868824202DA013824
:100A40000860F7E700208542F5D00B60EDE7CD2385
:100A50005B000A00C15C10B50C00993BFF3B9C4356
:100A6000231E16D17233002908D1B221FF31415C17
:100A7000C90703D5074B1B68BF331B78D824640014
:100A8000015D8918994200DD1900CB43DB1719403D
:100A9000015510BD68F0FF1F002804D00238434202
:100AA000584180017047034B1B6858782430C0B20E
:100AB000F8E7C04668F0FF1F00B5032808D80A4BC6
:100AC00006F01CFB0207090C4022002909D05A60DD
:100AD00000BD8022F9E78022D204F6E78022520589
:100AE000F3E79A60F4E7C04600F00F40204930B5C4
:100AF0000B0044331B78D8B2012B05D0022829D033
:100B0000002344310B7030BD1A4B1B481A50183863
:100B10001C5CE5B2012C18D0042DF1D1002A17D1AC
:100B2000164C1A5940321A5108341A5940321A5187
:100B3000134C1A59403A1A514A6D124CD2B21A55F6
:100B40000A24114A9C54052200E002221A54D7E7D5
:100B50000622FBE70B0070331A7AD0B2002A03D0CA
:100B60000128CDD1032200E001221A72C8E7C04655
:100B700068F0FF1FECFEFF1F180A0000080A0000C3
:100B80000C0A0000140A0000150A0000F0B585B038
:100B900004000A9D3F2852DC392808DC23380B2842
:100BA00043D920003038092857D8203008E03A3897
:100BB0000528F6D806F098FA5AF5F54F4B031B2096
:100BC00007248443A40001941424C0106043294CDA
:100BD0000F002018541D02941C24611A1C3F03911D
:100BE000002A41DB0B9C94423EDD019C0668E640F6
:100BF0000F2426403400FC40002F02DA3400039911
:100C00008C40002B05D09600B44661469E59264381
:100C10005E50002D03D09600A9590C43AC510299A7
:100C2000013204308A42DBD11EE006F05DFA061282
:100C3000BABABABABABA0CBA210E1A20C0E72F2033
:100C40007E2CBDD0ADE72E20BAE72B20B8E72C20B4
:100C5000B6E72D20B4E71D20B2E72000413819285F
:100C6000AED920381928ABD905B0F0BD1C20A7E7B4
:100C70002A20A5E7F4D20000F7B50E0017000021E6
:100C80001422050000240BF0DDFFA100BC4209D0B6
:100C900005230022305D019300922B00FFF776FFC1
:100CA0000134F2E7F7BD10B5014800F04FFF10BD69
:100CB00098090020F7B51E4E30000BF091FF282355
:100CC0000500184215D01B4CF3792700DBB20193C5
:100CD000493738783F21013006F09EFB23004A3324
:100CE0001B78C9B2994204D03B78E418019B637227
:100CF00039702B0615D50F4B1A001C008B328C3423
:100D00001178227891420DD022783F219B184B33E5
:100D10001B78DBB2F3712078013006F07DFBC9B29D
:100D20002170F7BD80210248090206F0E9F8F8E7D2
:100D300000A0064009090020F7B501223B4B3C4CBE
:100D40001A61636DE06C9B186365230048331A7267
:100D5000A36DA56D019303685B689847854237D200
:100D6000E06C03685B68984700220023A065226658
:100D70006366A36D019A5A401300FF22934326D065
:100D8000A56D2C482D0A290060300AF03CFE2A4C43
:100D90002900200008300AF036FE22003032137895
:100DA000022B3DD8002B03D0F821244801F018F87D
:100DB000032323496943D941224B994207D8636CE5
:100DC0003434DDB2012120000AF07BFD2576F7BD29
:100DD000E06C266E676E0368DB68984702000B00C4
:100DE0003000390006F0EAFD0F00060008F016FAA0
:100DF000A36D0500C318E06C009303689B689847D7
:100E0000009B8342B5D2A365280008F03DFA02009A
:100E10000B003000390007F06FFE20666166A8E71E
:100E2000033B012BC4D85378BCE7C046FC70034099
:100E300068F0FF1FE8F0FF1F68F1FF1F090900209D
:100E4000ABAAAAAAAAAAAA0A00B51B2800D96FE0D1
:100E5000574B022809D0032800D190E0012807D180
:100E60005B785B080340180000BD5B780120F9E760
:100E7000892255331B7892009B184E4A9B000438F8
:100E80009A5800231728EED806F038F90C31292B90
:100E90003B131517191B1D1F0F3925272133352328
:100EA0003F41434BCD235B0001E09C23FF33D35CE8
:100EB000D9E7CE23F7E79E23F8E7CF23F3E7D02344
:100EC000F1E7D123EFE7A423F0E7D223EBE7A62352
:100ED000ECE7D523E7E7D623E5E7AE23E6E7B02343
:100EE000E4E7B223FF33D35C9B07DB0FBBE7AC2304
:100EF000DCE7D323D7E7D4235B00D35EB3E7A22399
:100F0000D4E7B223FF33D35CB0E7D923CBE7B423D4
:100F1000CCE7F6235B00D25C274B9200D3185B69C9
:100F2000A1E7F6235B00D35C234A04339B00F5E77B
:100F3000212810D81D380023042800D993E71D4B21
:100F400006F0DCF805031D2107001C4AAFE71C4A28
:100F5000ADE71C4AABE700232B2800D983E72338F1
:100F6000082800D97FE706F0C9F805081013161FF6
:100F7000191C0C00144B5B6D75E7144B48331B7840
:100F800071E7124B48335B786DE70F4B1B7B6AE7C9
:100F90000D4B6033F3E70C4B6033F4E70C4B1B7ADB
:100FA00061E70B4B5B7A5EE7094B3033E7E7C046FE
:100FB00054F5FF1F24F6FF1FE8F1FF1FC5080000CE
:100FC000C4080000C7080000E8F0FF1F68F0FF1F1A
:100FD00068F1FF1F030000B50120002B0CD01B2B74
:100FE00033D8022B08D91A001A3A2C49824204D865
:100FF0002B4BC85C431E984100BD8920294A8000C4
:101000005532127812189200581F8A580E2842D86A
:1010100006F074F818414141414141410813134120
:10102000410C0C00A223FF33D05CE3E7A223FF3383
:10103000D05C013843425841DEE7A223FF33D05C45
:101040000238F7E7F6235B00EEE70120212BD3D926
:1010500000202B2BD0D8233B1800072B1BD806F0E1
:101060004DF8041A081A0D1A1A170F4B483318783E
:10107000E0E70D4B483318780338DBE70B4B603360
:101080001B7800200122013BDBB29A424041B3E7CA
:10109000074B1B7AF5E70120AEE7C04624F6FF1F99
:1010A000C708000054F5FF1F68F0FF1FE8F0FF1F9E
:1010B00068F1FF1F0122044B04495433DA77FE2301
:1010C0005B00CA547047C04668F1FF1F54F3FF1F0E
:1010D00070B5294D04002B0074331A78002A09D109
:1010E000264B996A002905D09A62254B5133DA774D
:1010F000FFF7E0FF74352C70012C18D0022C27D09C
:10110000002C13D11D4B0320190059310A781C7192
:1011100082439C60DC601C615C610A709C62194ABD
:10112000DC621C631C629C84174BD45470BDF62295
:101130001421164B52009B50043299540022E13185
:10114000FF315A5004315A50FD32FF329C52EDE7C4
:10115000F6220E4B0E495200995015210432995433
:101160000022E031FF315A5004315A50FD32F83933
:10117000FF32FF399952D9E7E8F1FF1F54F5FF1FFD
:1011800068F1FF1F24F6FF1FC708000054F3FF1F7C
:1011900044F4FF1FF8B5050002380C00122800D9EE
:1011A00070E005F0ABFF0A6F156F6F484848424882
:1011B000342E6F483A483A6948008023DB0199424F
:1011C00032D0324B994254D0022000F029FA10E07C
:1011D000802904D02E4B99420CD00420F5E72D4BEA
:1011E000002074331B78013B012B00D90120FFF74D
:1011F0006FFFF8BD274B022074331B78022BF6D10A
:10120000F4E70A0024480D2103F04AFEF1E70A0042
:101210000C21224803F0B8FCEBE7214800222149C9
:1012200050300AF0E0FCE4E700241F4B1F4AD55C75
:101230006B425D4108351E4822002900483000F00D
:1012400099FE082D0DD10026124F3437F0B200213F
:10125000FFF732FC00223301DB1901361A70042E2D
:10126000F4D122002900114803F09CFF220029003C
:10127000CFE700240725DEE70A000C48132103F01E
:1012800091FFB6E7210028009FE7C046024000001A
:1012900080800000E8F1FF1F54F3FF1F54F5FF1F8B
:1012A00068F1FF1F9BD70000BC08000024F6FF1F59
:1012B00068F0FF1F1E4BF7B59A6812072ED504225F
:1012C000D968986802439A60CB0727D5194B1A4C06
:1012D0005B6D0193230028331A78022A1FD1256AF7
:1012E000019BAB4214D960695D1B07F0FDFF06004E
:1012F00028000F0007F0F8FF0B0002003900300053
:1013000006F098FE019BAD00A061E161ED186562F9
:10131000019B6269236223699B182361F7BD002149
:101320000222092061621A70FFF734FFF0E7C0461D
:101330000090074068F0FF1FE8F0FF1FF7B54C4E24
:10134000019033000833DF6F783630000C00FFB2B5
:10135000012115000AF0B5FA3776464E019A337826
:101360009A4201D0102B3ED1776E002D3CD0002543
:10137000414BBD4204DA5A5DA24201D30135F8E780
:10138000092F01DC01377766726E95422BDA29004E
:101390002800013A5A315B30521B711830180BF09B
:1013A0003EFC73195A331C70002D1CD18C2155360C
:1013B000324A337809015350314954543149515C10
:1013C000022910D12100243930290CD88921890023
:1013D0005B189B009A58D4233C3C5B0000210D20F5
:1013E000D452FFF7D7FEF7BD2A002800B84214DA1E
:1013F00033185A331B78A3420DD10100013F3A1A2A
:10140000454245415B315A30711830180BF007FCEA
:1014100038000122EDB20130E8E7002A00D07766FB
:10142000002DE0D0716E0029C0D18C23134C1B011C
:10143000E358002B12DB134AA25C022A0ED1124A97
:10144000A25C012A0AD0892292009B189B001A599B
:10145000D4235B000D20D152FFF79CFE8C23012288
:101460001B015242E2500022054BE254BBE7C0464A
:10147000E8F1FF1F54F5FF1FAEF5FF1F24F6FF1F15
:10148000C6080000C4080000C5080000F7B5324CCB
:10149000050023007834083320000121DE6F0AF0B4
:1014A00010FA28002D4BF6B25B6DF83826760193C2
:1014B000042836D805F022FE033528364400284C8F
:1014C000230030335A7D012A1BD0636BA06C1B189C
:1014D0006363022A13D0256C019BAB420FD907F03E
:1014E00003FF019B0600581B0F0007F0FDFE0200E2
:1014F0000B003000390006F09DFDA063E163019B05
:1015000023640023303419E0154C012523004433B3
:101510001B782B4205D0002107203034FFF73AFE1C
:101520006575F7BD0E4C230044331B78DB07F8D5F7
:1015300000210920FFF72EFE022330346375F0E707
:10154000074C230044331B78DB07EAD50021082031
:10155000FFF720FED5E7C046E8F1FF1F68F0FF1F48
:10156000E8F0FF1F0A0010B51B2826D8264B0228DA
:101570000CD003280FD0012813D1511E8A415100ED
:101580005A78013082430A435A7010BD4A1E914175
:1015900001205A78F6E719700E200021FFF7FAFDB6
:1015A000F3E7892155331B7889005B180100174840
:1015B0009B00185803F07CFBE7E721281AD81D3858
:1015C0000428E2D8114B05F099FD0603080D0F0021
:1015D0000F495A54D9E70F49FBE71970180000F07A
:1015E000DFFDD2E75970F9E70B4918005A5401F0B2
:1015F00047FACAE72B28C8D8084B0100483318001F
:1016000003F0FEFBC1E7C04654F5FF1F24F6FF1FA1
:10161000C5080000C4080000C708000068F0FF1FEC
:101620000A4B0A0074331B7810B5002B03D0013B22
:10163000012B05D910BD0100054803F0A5FAF9E713
:101640000100044803F02CFCF4E7C046E8F1FF1F5A
:1016500054F5FF1F54F3FF1FF7B5002426002500A3
:10166000154B48330193019B1B7A002BFBD0FA27C3
:1016700000227F006F43019B02211A720F483A003B
:1016800000F0D4FD3A0003210C4800F0CFFD802388
:1016900001355B019D4200DB00250134322CE2DD87
:1016A000724256410648F6B232000321143000F06F
:1016B000DFFD0024D7E7C04668F0FF1FFCF1FF1FE5
:1016C000E8F1FF1F024B034AD05C431E984170476C
:1016D000C708000024F6FF1FF8B5E6232C4C2D495F
:1016E0005B002022238014312B480BF08FFABC239F
:1016F0002A4EFF3363843300294D042729004833E1
:101700001B883A00A384543126480BF07FFA23004B
:10171000290020002A7B2A331A70603102222B30E4
:101720000BF074FA204D20002900022208312D30E0
:101730000BF06CFA2A002300303212782F331A7023
:10174000302120000AF0A9F9230030331870F01975
:1017500003F044FEA0221201A15CCBB200290DD1FE
:101760000120124940426050114932306350114902
:10177000635011496050C9196350A754301D03F0DC
:101780002DFE280000220D4950300AF02CFAF8BD39
:10179000ECFEFF1FE8F1FF1FEEFEFF1F68F0FF1FCA
:1017A000E8F0FF1F12FFFF1F68F1FF1F180A00007B
:1017B000040A0000080A00000C0A0000A1D700007B
:1017C000F7B5254E019333000833DF6F78360400F8
:1017D0000D00300001210092FFB20AF072F81F489C
:1017E0001F4B3776C25C002A1CD00099019A002951
:1017F00000D05242012C11D021001539032911D8F3
:10180000622D10D113006333C62B16D81A21154B45
:10181000E418A400005903F04BFA0EE0642D01D146
:10182000FFF75AFFF7BD632D0CD00F2D05D1511EC8
:10183000072902D8C25401F023F900210D20FFF737
:10184000A9FCEFE713006333C62BF6D8054B1B2129
:10185000E418A400DEE7C046E8F1FF1F24F6FF1FEE
:10186000C70800000F020000F8B5A023354C1B018B
:10187000E15CCAB200290CD10120334940426050DA
:1018800032496250324962503121324AA15001221C
:10189000E254314E301D03F0A1FD23782F48304D26
:1018A000CC2B02D16378012B0BD0202200211430E5
:1018B0000BF0C8F9280000222A4950300AF093F9A9
:1018C00039E0230020223033274914301F780BF0F1
:1018D0009DF9E31CDB7FBB2B2ED1231DDB7F012B6E
:1018E0002AD1302120000AF0D8F8B84224D1A38CA4
:1018F000483633801D4E042230001D4954300BF011
:1019000085F92300210030002A331B78022233732B
:101910002B3160300BF07AF9210028002D310222A2
:1019200008302F340BF072F9237830350021142061
:101930002B70FFF72FFCF8BD280000220D49503016
:10194000BCE7C046ECFEFF1F180A0000040A0000B6
:10195000080A00000C0A000068F0FF1FE8F1FF1FF2
:1019600068F1FF1FAAD70000EEFEFF1FE8F0FF1F7F
:1019700012FFFF1FB2D70000F8B501260F24002583
:101980007642124F40223B00FF21A43310481D70C5
:101990000BF058F900230F4A9C4215DC1660013306
:1019A0000432102BF8D1322200210F3BA4373B70B8
:1019B000094B48331972187A0028FCD0013A002AE2
:1019C000F8D1013CDDD2F8BD1560E8E798090020A8
:1019D000440A0020840A002068F0FF1FF8B50024A4
:1019E000274D00222B002800A4331A7009F093FF22
:1019F000802220211206E24023000027091B8B428F
:101A000003D0174301335208F9E780201F26621CD8
:101A10000006B61AD04013000021B446634503DA2D
:101A2000014301334008F9E7E30F60101B190F244D
:101A3000A44604005B105B423A349C44A400493342
:101A40002C199B006760EB180E4C79405F600130E9
:101A5000844502DD8300E150F9E7012314210020D1
:101A6000A4352B70084B483318721C7A002CFCD01C
:101A700001390029F8D1102A01D01400B0E7F8BDCF
:101A800098090020840A002068F0FF1F37B50B2951
:101A900006D014290DD0072901D10023836037BD5A
:101AA000002200240025431CDA770461456182612D
:101AB000F3E7044A0379019201AAD35C1B02C360D5
:101AC000EDE7C0460C06030170B50D00CD21040002
:101AD00049008078595C4006400E002915D0012944
:101AE00001D1002A01D0401905E00A2105F0AEFB22
:101AF00045190A2068437F23984220DD1800A17809
:101B0000184099430843A07070BDB221FF315B5C5F
:101B1000DB07E8D5002AE6D10B4B1B6818184D30BF
:101B200000782818C243D21710401A00CD3212781C
:101B3000904200DB501EC0B218188078DBE7C1432A
:101B4000C9170840DBE7C04668F0FF1F0122A24921
:101B5000F0B50A62CB6904009343CB619E235B001E
:101B6000C25C85B0012A5DD0022A00D18FE0002A34
:101B70004FD10300FC33DE6B984D0093002E13D140
:101B80000700A4373B78002B06D001008032AC312F
:101B900014300BF03BF83E70802380229B059202AC
:101BA0006B60AA606A60AB6007213200F8270E40C4
:101BB0001F23B4463A4001921A0001980A4002439A
:101BC00004329200A2181E00506862463E4016433E
:101BD00080221206F24080263601104220D06E602C
:101BE0008022D200AA606A60013BE5D280220223F3
:101BF00092026B60AA606A6080225202AA606A60E8
:101C00000122AB603B33FF33E254009B5B6B724AB3
:101C1000536101237049CA691343CB6105B0F0BD1C
:101C2000AE60DDE70222F8216C4BFC305A60C26BDB
:101C30008C4611400091072180260A4001921F2204
:101C40003601072511002940009D294314318900E0
:101C500061184F686146019D1140294380252D067A
:101C6000CD402F4211D05E608021C900996059603B
:101C7000013AE6D2802252029A605A6002229A60A9
:101C80009E235B00E254036BC1E79E60ECE701001A
:101C9000FC31C96BF8268C46504B31405A60604687
:101CA000009107218027014001911F213F01072555
:101CB00000980D400543AD00651968690290686D94
:101CC0000D00039001983540054380200006E84050
:101CD000050002982840039D05423FD05F608020A8
:101CE000C000986058600139E1D2802149029960B2
:101CF00059600221802099601969400401404842DE
:101D0000414149420A401969890102D401210A432B
:101D1000D2B221009431087890422DD02000953025
:101D20000578954228D025009635032A1DD10E78D6
:101D3000022E05D10678002E02D12E78012E0FD06A
:101D40000E78012E11D10678002E0ED12E78022E9B
:101D50000BD1270098373E68013E05E09F60BEE743
:101D6000270098373E6801363E600678F6B22E703E
:101D70000D78EDB205700A701A69520207D46046F8
:101D800001210838814022880A4392B222801B69CF
:101D9000DB0406D4012261468A40638813439BB268
:101DA0006380634622000133FC320F2B06DCD363D1
:101DB0009E2300215B00E154936B28E70021D1634F
:101DC0006388208803436068984200D1A360636001
:101DD00021806180ECE7C046FC70034000F00F40BA
:101DE00070B5050004008B3528780E0001303F21C6
:101DF00005F012FB23008C331B788B4205D028782A
:101E0000C9B224184B342670297080210248090277
:101E100005F064F870BDC04600A0064070B504002F
:101E200008000D0007F030FA0022074B06F0F8FB1F
:101E30000022064B06F0F4FB0022054B06F0FAF8F0
:101E40006560A060E16070BD000038400000704037
:101E5000004CED4013B50400C81F0D2813D805F041
:101E60004DF913364C120712121212121212125C92
:101E70002378072B07D00021606A09F022FD002398
:101E800023746361A36113BD2378581E07283ED8CD
:101E900005F034F90B0B3A3D3A3A04090121606A26
:101EA00009F00FFD33E00021F9E7621CD27FD20771
:101EB00001D4012B2BD10021606A09F002FD02231D
:101EC0002374E3686361A3690133A3611FE023788E
:101ED000052B05D8032B06D9200009F07DFD02E073
:101EE000073B012B04D901220134E37F934312E025
:101EF0000021606A09F0E5FCF5E72378052B03D0A3
:101F0000072BCBD0032B02D1200009F065FD012364
:101F10000134E27F1343E377B5E7054A6378019222
:101F200001AAD35C20002178E36109F03BFDAAE718
:101F30000C06030110B50E4B02290FD003290AD05D
:101F4000012913D11A004433303242601A788A438F
:101F50001A70017010BD08334360FAE71A0030327E
:101F60004260012244331C782243F1E75033F3E707
:101F7000E8F0FF1FF8B50C0017002C4E0B2903D01A
:101F8000142933D0072905D100230022036100233F
:101F90008261C36130003A0021000830FFF776FD0E
:101FA000300021006030FFF755FF214D210028004F
:101FB0000830FFF74FFF30003A002100303009F0C1
:101FC00052FC082C1BD0092C27D0072C0DD12B003C
:101FD000FD2230331B78023B134203D1FA2115480E
:101FE000FFF7FEFE012330356B70F8BD0178FFF777
:101FF000A1FF3000716D5030FFF710FFCAE72B00D2
:10200000FD2230331B78023B134203D1FC210948E7
:10201000FFF7E6FE00233035E6E72B00FD223033E4
:102020001B78FB21023B1342DCD1D8E7E8F0FF1F0D
:1020300068F1FF1F090900207FB504000E220D0082
:1020400068460B490AF0E2FD6B4660685E5D036816
:10205000DB68984704000D00300207F045F92200C4
:102060002B0005F0E7FF07F0D9F804B070BDC046BB
:10207000D4D5000070B50B00050011003B4C012BBE
:1020800000D16AE0022B5DD0002B60D1D6B22200D5
:10209000012151322300D1772322503330005A7668
:1020A0000B3105F0CFF8C8B201380A280BD805F07B
:1020B00025F806252129312D3935413D45002300DC
:1020C00002225133DA772300432250330C213000AF
:1020D0001A7605F031F826000122C1B201395036D6
:1020E000300009F0E6FC81235B007384FA239B0037
:1020F00063672CE0230002225133DA772300442265
:102100005033E3E7230045225033DFE72300022268
:102110005133DA77230046225033D7E723000222D7
:102120005133DA77230047225033CFE723000222CE
:102130005133DA77230041225033C7E7230042228C
:102140005033C3E720004039503009F030FD200003
:10215000E969503009F00BFD70BD23000022260014
:102160005133DA7750366432BAE7C04668F1FF1F60
:1021700070B50D00084C010050342000002209F019
:1021800005FD20000122054909F02DFD290001224D
:10219000200009F0FBFC70BD68F1FF1F6ED7000046
:1021A000F0B5040087B007221F4904A80AF02EFDED
:1021B00023000025CD33267867781D707BB2002B75
:1021C0002FDB2300CD331B7801934A2B29D8E3184A
:1021D0009F707B1CDBB202935B1BDBB20393029B01
:1021E00000229D4200D8039A28004D300199201802
:1021F0000AF028FD029A0023954201D86B461B7B0A
:10220000ED1804AB9B5D0136FF18F6B2EDB2FFB2DC
:10221000062E00D900262200019BCD320133137017
:10222000CCE707B0F0BDC046E3D5000010B5802470
:102230008B00C018036864011C195443E3171B0585
:102240001A0D121903691213D21880235B019A42E6
:1022500006DB054A054892B2703009F012FC10BD49
:10226000D343DB171A40F5E7FF0F000068F0FF1FAC
:10227000F8B505000B0108000021ED18AB1CD9775B
:102280006E1CF77F1400974209D0012A1AD0022A47
:1022900006D08A4203D11100FEF70EFCF477F8BD98
:1022A000012F0FD1FEF708FC0C4B0D4C2B842300A3
:1022B000390088331D687834EDB2200009F001FB45
:1022C0002576ECE70121FEF7F7FB054C0121230001
:1022D00088331D68F177EDB27834EEE70202000032
:1022E00068F1FF1FF0B585B00C0016000390551A79
:1022F00000D52035002D45DD03236343039AD31811
:1023000098784006400E06F0EFFF03235E430090EE
:102310000191039B9E19B0784006400E06F0B4FF71
:10232000009A019B06F0E8FB060028000F0006F06B
:10233000ABFF02000B003000390005F07BFE060009
:102340000F00013D002D1DD001341F2C00DD0024A5
:102350000098019932003B0005F030FB00220A4B47
:102360000090019105F02AFB05F0AAF803236343CE
:10237000039A7F21D3187F22024098788843104324
:102380009870DEE705B0F0BD0000E03F70B5CD24E9
:102390006400045D002C0AD1B224FF34045DE4071C
:1023A00005D5104CC9B2246861184D310978D8247C
:1023B0006400055D002A08D00A00083AD143D823FA
:1023C000C9170A405B00C25470BDCA1AAA42F5DBA5
:1023D0002E00CC180C362A00B442EFDD0A000C3A6D
:1023E000D218EBE768F0FF1FF8B5CD235B000400BF
:1023F000C05C0E00FEF750FB622103224E43002119
:1024000003000D0008009446A719BA787F2A08D95E
:1024100062466A439219A218927801315206520E0E
:102420008018013503371F2DEFD1002906D119007F
:10243000032301222000FFF7A9FFF8BD04F006FFE7
:1024400006F022FF0022034B05F0B8FA06F0E6FE84
:102450000100EDE70000E03FF62370B55B00C25CD1
:102460004A3BC254A4228021A23BFF3BFF3283544B
:10247000090101328152052100250232815414499B
:102480000232855004328152B0228021FF328354BF
:102490004900153A81520F49023281500821043215
:1024A0008152B221FF310400425C07208243134372
:1024B0006354D9235B00E552200009F0E6FC2900B3
:1024C0002000FFF791FF200009F032FE70BDC046EA
:1024D000647F00000B003200F0B5CD23A7B001915E
:1024E000002102925B00C65C8E4206D1B223FF330C
:1024F000C35CDB0701D5314B1968B023FF33C35CE4
:10250000B21E049353425A4193010593622300245F
:10251000019A25005A4383189C460392009306AA09
:1025200063469B787F2B46D903236B43039FDB19BC
:10253000C3189B785B065B0E1360002931D0CB1863
:102540004D331B78029FDB192FD40F00CD373F7816
:10255000BB422ADACB189B78012413600323013590
:102560009C440432202DDBD1002C20D06226002296
:102570007F279C46019B5E43634653439B19910012
:10258000C31806AD4D5999783D40B94329430132EE
:102590009970202AF0D1059A0499009809F085FBDA
:1025A00006E0029FFB187F2BD6D9012ED6D000243F
:1025B000200027B0F0BD00231360CFE768F0FF1FB5
:1025C00070B5E9256D00425D0400FF2A07D0D123D4
:1025D0005B00C15C024809F0CDF9FF23635570BD73
:1025E0000909002070B5E82504006D00002917D006
:1025F000E9235B00425DC35C93420BD0D223D1211F
:10260000FF334900C35C415C0C4809F09FF920008E
:10261000FFF7D6FFE8235B00E25C0233E25470BDB3
:10262000FFF7CEFFD223D121FF334900E35C625D87
:10263000615C024809F08AF9ECE7C046090900200C
:10264000F62310B55B000400C15C0748002214307B
:10265000FFF70EFEEE2200235200A35004322000AA
:10266000A350FFF7ADFF10BDE8F1FF1FF0B58BB031
:102670000491E02149000393435C07001E000220FF
:10268000109C05920640034200D19FE083437B5497
:10269000DA235B00FD580433FE58EDB2F6B2320087
:1026A0002900380009F008FC03041B0E2070637039
:1026B0000002039B000EA070002B17D01B78012B8B
:1026C00014D17F21039B9A78C3B20A408B431343F2
:1026D000A370039B5B78012B08D101930233009315
:1026E000320023002900380009F0FFFBCE238C487C
:1026F0005B00F95C4830FFF79FFCEC235B00F8506F
:1027000023785B061B0F0AD0059A934207DA032150
:10271000200009F0A4FA1023627813436370CE23DB
:1027200006AC5B000E2220007E49FD5C0AF06EFACA
:10273000049806F0D9FD655D04002E0230000D00FE
:1027400006F0D2FD02000B002000290005F072FC0B
:102750000022754B05F032F906F060FDCF2370437F
:102760005B000390F85C06F08FFD00226F4B06F0D3
:10277000C3F96F4B002205F05DFC06F0DBFD9E23E4
:10278000FF33FB5C7508061C022B00D19DE0032B78
:1027900000D1AFE00024012B00D09FE0B433FF3321
:1027A000F958B223FF336222FB5C9B07DB17194009
:1027B000DC23C9B24A435B00BA18FB586032127876
:1027C00001339B1A002B7BDA0433FBE7F42252001F
:1027D000BD58049AB446954200D987E0012293433C
:1027E0007B54DA235B00F958B223FF33FB5C1840BB
:1027F00003005A1E93415B4219406223C9B25943F8
:1028000079180B00DC22613352001D78BB58AB42B3
:1028100032D1CC235B00FA5C002A0ED02433FB5863
:10282000013A0133DBB2934200DB3300FB188933FA
:10283000FF331A78DA235B00FA50DA22411E88410E
:102840005200BB5840420340D9B262234B43FB18AD
:1028500060331978DC235B00F9509A23FF33FB5C6B
:10286000002B24D1380009F0DEFAE02201235200C7
:10287000B95C0B43BB540BE7603109788D420CD235
:10288000013B02D51F23BB5002E78B4201DDB9504B
:10289000FEE6AB42F7DABD50FAE601331F2B01DD4D
:1028A000BE50F5E6AB42F6DC8B42F0DBEBE7DE2315
:1028B0005B00FB58FB188933FF331B78BB50D1E713
:1028C00001221C001440134208D0280005F028F80B
:1028D000311C04F0DFFE05F003F80400039BE4184C
:1028E000F4235B00FC50E83BFF3B9C466346D8B2B8
:1028F0000BB0F0BD08F022F8290004F08DFD0800AF
:1029000005F00EF880231B06F11804F0C3FE04F056
:10291000E7FF040008F012F8C307DFD56442DDE7E3
:1029200068F0FF1FD4D500000000F83F00004940C8
:1029300000003A40F8B50300D5204000185C01289B
:1029400006D00024022806D112780024024202D0C8
:10295000EC2252009C58F62252009D5C00229142CB
:102960003EDDA622FF329B5C080A092B07D00A2B0A
:1029700014D02D4B98424AD8FA21490004E02B4B41
:10298000984244D896218900C0234843C021DB00E7
:10299000C018090104F0D0FB020021E0C6B2001209
:1029A000C7B248282DD00C21380004F04BFC013967
:1029B000C9B20A2928D81E4B49007833C85EF423CF
:1029C00046435E43361586190520472F04D80C214F
:1029D000380004F0B1FBC0B205233200181A0241DE
:1029E000144811042E01AB1C002C12D01B01C3187B
:1029F00086199869F163081A210004F027FC3064F5
:102A0000F8BDFA200001DAE7FA20C000D7E70A4A49
:102A1000E6E71B01C3188619996134642900143054
:102A2000FFF704FCECE7C04648620000E4510000F8
:102A3000F4D20000E8F1FF1FFF0F0000F8B5892372
:102A40000400070000251B01D034C61820003460A4
:102A5000FFF702FD200009F0DCFBF62208CE520051
:102A60009D54F1340135FF34042DEFD10023024A87
:102A7000BB54024ABB54F8BDBC080000C7080000A4
:102A8000F7B50D4BC35C002B15D0FA2676005E43DC
:102A90008923F6271B01094DC4181033C31801936D
:102AA0007F00143508CC3200D95D2800FFF7BEFB4B
:102AB000019B9C42F6D1F7BDC7080000E8F1FF1F5B
:102AC000F0B5CB4B0700C35C8BB0002B00D128E2E4
:102AD0000023099307F0F4FEC64C044004D51020EF
:102AE000013C4042044301340025C34B01349E6D38
:102AF000059508A809F0BFF889231B01FB1803936B
:102B0000039AAB00D0588C231B01FB580493AB42B3
:102B100000D044E108AB0093B84BFB182200310011
:102B2000FFF7A4FD002811D0102208A94B7813420A
:102B30000CD10D3A13008A206B4300013818C018DD
:102B40000AF064F8012309AA535505930135042DB1
:102B5000CFD1059B002B00D1E3E1039B00241E0095
:102B6000049303940694AC233568FF33EB5C07931E
:102B7000023B012B06D803226243A14BFB189B5C4E
:102B80007F2B25D903228A2162430901BA185218E2
:102B9000CD21A62390784900695C4006FF33420EA0
:102BA000EB5C400A022901D1403A1004072B06D8F9
:102BB000013358430C237F21584304F047FB022282
:102BC000079B9343012B00D0EDE0039B1B1803935D
:102BD000039BF361B223FF33EB5C5B0713D4B42395
:102BE000FF33EA5C531E002A02D1F6235B00EB5C44
:102BF000032253438A22FB1812019B181B785B07A0
:102C000001D5059B069301340436042CABD17D4BD2
:102C10001A0060321278082A04D108330699D86F56
:102C200008F04FFE784B1A7A082A03D10699D86A21
:102C300008F047FE8A231B01FB180593049B1C68C0
:102C4000B223FF33E35C5B0700D562E1B426FF36B5
:102C5000A35D5A1E0392002B03D1ED33FF33E35CD7
:102C60000393D9235B00E35C5A1E002B02D1ED33A2
:102C7000FF33E25CD4209C234000255E6348FF3391
:102C800012189200BA18E15C52680B332D04E35C11
:102C9000AD18012900D188E0022900D18BE0052B75
:102CA00004D0C022053B12035343ED18584BFB5C84
:102CB000002B0AD10322039B29005A438A231B01BC
:102CC000D2182000BA18FFF735FEA223FF33E35CC9
:102CD000022B23D1FF227D33D20395420BDA4D4ADA
:102CE0000023954207DB80231B02E918CB179BB218
:102CF0005B181B14DBB2E42218045200A050043A03
:102D0000A158203AA25C002A62D0EC235B00401A52
:102D1000E15804F09BFAE6235B00E050A25D531EED
:102D2000002A02D1F6235B00E35C09AAD35C002BE6
:102D300000D1EEE0EE2300225B00E250039ADA3B82
:102D4000FF3B53438A22FB1812019B185878C20696
:102D500066D5EA235B00E2581833002A00D1ADE0C3
:102D6000A223FF33E35C012B00D0D2E003228A21AF
:102D7000039B09015343FB185B181B78134200D1D6
:102D8000BFE0002D00DB03E1234BEA18D517ADB2FD
:102D9000AD182D14002D00DDFEE00C35FAE708AB70
:102DA00000930023BAE6039012E7EA43D2171540D6
:102DB0002D142D0473E7E9430F4AC9170D4012681B
:102DC0002D14EDB255194D35297852189578F0E744
:102DD0008842A3D0E2225200A050D121A42249006F
:102DE000FF32A25C615C0D4808F09CFD96E7C0468E
:102DF000BC0800000F00008068F0FF1FC40800003E
:102E0000A2080000E8F0FF1F68F1FF1F2A0200007F
:102E1000C70800000180FEFF0080FFFF09090020B5
:102E2000022101221B781940134203D10307180F16
:102E3000002B3CD0F2267600002942D1D0235B0043
:102E4000E35C002B40D0102B40D1A151F2235B005A
:102E5000E258103BE250039AD23BFF3B53438A2295
:102E6000FB1812019B185B781B071E0F002B3FD02D
:102E7000CE2386485B00E15C4830FFF7DDF8102385
:102E80009E1B4643013BF01718408019CE330011BA
:102E9000FF33E050EE235B00E2580433E25002229D
:102EA0000C33E15C7A481430FFF7E2F958E7EA2383
:102EB0005B00002920D0E050F6235B00E15C744801
:102EC000F1E70023A351C1E70523FBE7CE236F48B9
:102ED0005B00E15C4830FFF7AFF8D0230F225B00C6
:102EE000E35C4343D8171040C0180011A051ADE770
:102EF000EE235B00E650CDE7E258002A00D02FE732
:102F0000DAE7EA235B00E358002B02D12000FFF749
:102F100057FB049B04330493049A059B934200D00F
:102F20008CE68923EA261B01FD181033FB18039356
:102F30007600B22304222C68FF33E35C13427AD17B
:102F4000A259002A0DD0013AA251002A09D1F62334
:102F50004F485B001430E15CFFF78AF92000FFF76F
:102F60002FFBE62040002758002F51D0E2225200CC
:102F7000A35819148C46E421FB18A350490061584A
:102F8000002F35DD994235DA0023A150235031E07E
:102F900080231B02ED18FCE67F2D01DD0C3DFBE7D5
:102FA000E8235B00039AE554CE3BFF3B53438A2260
:102FB000FB1812019B181B785B0716D5AE23FF3355
:102FC000D222E35CFF32A3540323039A002153432C
:102FD0008A22FB1812019B181B789A0701D5013130
:102FE00099432000FFF7FEFA93E7D6235B00E7E75B
:102FF0009942C9DCA3581B149C4509D0A422D121B5
:10300000FF324900A25C615C2248DBB208F08AFC16
:10301000EE235B00E358002B06D0F0235B00E7585B
:10302000002F0FD0013FE750EC225200A358002B95
:1030300028D0013BA350039B0435AB4200D078E776
:103040000BB0F0BDF62312485B00E15C02221430A5
:10305000FFF70EF9F2235B00E358A351A223FF33DD
:10306000E35C012B08D1D033FF33E35CFF2B03D0AB
:1030700039002000FFF7B6FAEE235B00E258043374
:10308000E250D1E7EE225200D4E7C04668F0FF1FBD
:10309000E8F1FF1F0909002070B50E000500094C7A
:1030A000002250342000084908F09DFD31780122AB
:1030B00049062000090F08F069FDE969200008F0C1
:1030C00056FD70BD68F1FF1FEBD5000070B50E0016
:1030D0000500094C002250342000084908F083FD07
:1030E0007178012209072000090F08F04FFDE969F6
:1030F000200008F03CFD70BD68F1FF1FF0D5000016
:103100000B7870B5074905005B0700D40649074CEA
:1031100000225034200008F066FDE969200008F024
:1031200026FD70BDF5D50000FCD5000068F1FF1F3D
:10313000F8B5224C0700200021490022503008F049
:1031400052FD8923B2251F4E1B01F358FF355B5DED
:103150001D495B0700D41D4920000122503008F0B2
:1031600042FD1B4B1849F3585B5D5B0700D41949BE
:1031700020000122503008F036FD174B1249F35859
:103180005B5D5B0700D4154920000122503008F038
:103190002AFD134B0C49F3585B5D5B0700D41149C2
:1031A000250050352800012208F01DFD2800F9698E
:1031B00008F0DDFC00236367F8BDC04668F1FF1F1F
:1031C000AED8000024F6FF1F04D6000006D600008B
:1031D00094080000BCD700009808000008D6000042
:1031E0009C08000060D60000F8B5070003005537C2
:1031F0003A78134D134931322E000A7000225633AB
:103200001B78503641334B708A700400300008F050
:10321000EAFC89223B7892009B180B4A9B009A5843
:10322000B223FF33D35C5B0704D50122300007498A
:1032300008F0D9FC2800E169503008F098FCF8BD8E
:1032400068F1FF1F880B002024F6FF1F04D6000042
:1032500070B50500054C00225034200008F096FCA3
:10326000E969200008F083FC70BDC04668F1FF1FCB
:10327000836A70B504000C4D002B0FD02E00503621
:1032800019000022300008F0AEFC01233000226A51
:10329000E16A08F0C0FC00236B6770BD2800226A59
:1032A000E16A5030F5E7C04668F1FF1FF0B5050050
:1032B000501E0F0016001C0085B0052806D803F02C
:1032C0001DFF031A2A5883DB002B01D100260FE0D3
:1032D000622056352B7800225843CD235B00081816
:1032E000C95C02394B4259410F23890108F073FD33
:1032F000300005B0F0BD002BE8D00800FFF7A0F9C2
:103300003800FFF7A9F8380008F083FF002356358E
:103310002B700126ECE7002BD8D00323013CE617E5
:103320001E408C4B3619B6101C4004D50423013CBA
:103330005B421C4301342B0056331978013B1A7849
:10334000F3B2E4B29A4201D18C42BFD0622251431F
:103350006B357918280009F059FC8923F6B29B00D7
:10336000F6187D4BB6002A002100F05808F0B7FE91
:10337000CFE7002BAAD05535013C2B78E4B2A3420D
:10338000A4D08927BF00744EE419A400A059FFF708
:1033900057F92B78A059DB199B00995903000A00B3
:1033A00089338932FF33FF3270CA70C370CA70C369
:1033B00070CA70C3B530B53130CA30C3FF3138225E
:1033C000FF3009F023FCA4E7002B00D17EE7553540
:1033D000013C2B78E4B2A34200D177E78927BF00F4
:1033E0005D4EDB199B009859E719FFF729F9BB00DF
:1033F0009859FFF725F989222B78920098188000B8
:10340000825901920022032B02D80332D21A920071
:10341000011D7118301809F002FC0022032C02D89B
:103420000332121B92004D49032C04D889239B00C0
:10343000E118890071184A48032C03D8494BE01859
:103440008000301809F0EBFB019BBF00F35189238A
:103450001B01F258F62300215B00D154424A02209E
:10346000B1580122CA5441497158C8544049801882
:103470007158C8542C704CE757352B780293002BA9
:1034800000D123E7012C19D1334808F0E0FEA02138
:10349000384B09015A5CD6B2002A00D016E72A78C8
:1034A000012535486D421D5034481A504A4334486E
:1034B0001A50344A344898505C5419E7022C00D012
:1034C00004E7D5232B4C5B002380234B2F4E1B8816
:1034D000638000230193019A2D4B37009D583000E3
:1034E000290089312C22FF3109F090FB2C370396FB
:1034F00029003800622209F089FB039E6237B53645
:10350000FF366235B742F3D1019B04330193102B90
:10351000E1D1204D2000290008F0BFFAA02260551B
:103520001201A35CDEB2002B00D0CFE60121124BCA
:103530004942E1500299114BE1500B0053431049AD
:103540006350104B1049E1500433E6500423A35458
:10355000CEE6C0460300008024F6FF1FC0FEFF1F1A
:10356000C4FEFF1F25020000940800009808000018
:103570009C080000ECFEFF1F180A0000040A00006F
:10358000080A00000C0A0000D5060000F0FEFF1F2C
:10359000B4FEFF1FD4060000F0B50400501E0F005B
:1035A000150087B008281AD803F0A8FD0561611935
:1035B0001B2F1919B900E3693800DAB2230056331A
:1035C000197808F079FC230022006833187003048E
:1035D00000021B0E6932000E6A341370207007B0AF
:1035E000F0BD230054331A78D2070CD42200553290
:1035F0001278A264220056321278E264E2692265EF
:1036000005221A70EBE70022FBE72369442B14D054
:10361000842BE4D10422A31DDA774F331A784C218E
:10362000531C236205232363414B31325A7000221D
:1036300019709A70A3623F4B14E00322A31DDA773E
:103640004F3319785A788B0001339B18236211236A
:103650002363394B41325A700022313119709A700C
:10366000A362364B2000E362FFF702FEB7E70222B7
:1036700023690292052B05D001320292062B01D15B
:10368000053B029323000126543303931B783342F6
:1036900011D132002900200008F0E5FD2300E26985
:1036A00002985634217868330090D2B238000196DF
:1036B00008F01BFC93E78920236D8000DAB2E36CED
:1036C000D9B2A36C1B181E489B00185808F0F4FBD5
:1036D000210005AB187002040002120E000E5A7091
:1036E0009870E269029856310978D2B2009001963A
:1036F000380008F0FAFB32002900200008F0B3FD82
:1037000021001F230022280050310096FDF780F988
:10371000039B1A7802231343039A13705FE7543410
:103720002278930700D55AE704231343237056E702
:103730008B0B00204ED60000880B00200AD600001C
:1037400024F6FF1F70B50400901E0D001600072818
:103750000DD803F0D3FC27270C040D0C0C3FE369B4
:103760005634DAB228000323217808F021FC70BD1A
:103770002369482B07D0882BF9D10223A21DD377C8
:103780000022226205E00122A31DDA7700232362D2
:1037900002332363184B2000A362184BE362FFF748
:1037A00067FDE4E72200563211782369E269D2B25C
:1037B000092B0BD00A2B0BD1093B280008F0F8FB92
:1037C00001223100200008F04EFDD0E70223F4E78B
:1037D0000323F2E7230059331B789B07C7D4E3691F
:1037E0002800DAB2230056331978032308F0E0FBEF
:1037F00001220921E6E7C04662D6000068D6000033
:10380000F0B50400501E0D001700A5B0082819D807
:1038100003F088FC09001A001A0018001800A8001C
:1038200018001800F6002300622220005633197891
:103830006B305143691809F0E9F9754B5B6D6363AF
:103840000023236225B0F0BD21000026236920312A
:103850000096302B22D1320038003433FDF7D8F8EF
:10386000B04208D0636B226A28009A1823005633AE
:10387000197808F0B7FB216A664C00222500230066
:1038800050355133DA772800643208F012F9812379
:103890005B006B84FA239B006367D3E76422642395
:1038A00038005242FDF7B4F80028E4D02700220087
:1038B0005637397828006B3208F011FC226A3B78C1
:1038C000049262225A43AB180593B0230392FF334C
:1038D000EB5C676B0693CD235B00EB5C023B5A42CB
:1038E00053419B01079306F0EBFF0890380006F068
:1038F000B7FF03237343039A9B18EB189B785B066F
:103900005B0E099306F0DCFF070006F0D9FFFF21EC
:10391000049B0F400840381A584303F097FC099B5A
:10392000C0187F281ADD7F2003227243039BD21820
:10393000AA1893785B065B0E984203D080235B4203
:10394000184390700136202ED3D10598079A069916
:1039500008F0ABF9089806F083FF8CE7C343DB1748
:103960001840E1E7206918282AD8102800D869E70C
:103970001138072800D965E703F0CAFB3E00400074
:1039800064FF3C0064FF64FF64FF08000326270017
:1039900056373B78B34200D154E70BA808F072F9D0
:1039A000622239780BA85143691809F02FF92800D1
:1039B0000BAAF1B208F093FB164D0022503510E02F
:1039C000502800D03EE723006222200056331978A9
:1039D0006B305143691809F019F900220D4D22622C
:1039E000503528000C4908F0FEF82800E16908F07D
:1039F000BEF827E70226CAE70126C8E70026C6E781
:103A000022005634280021786B3208F068FB19E751
:103A100068F0FF1F68F1FF1F70D60000F8B50500C1
:103A2000501E0C001100082812D803F067FB051285
:103A3000121108251111C000EB69AB6308E02B00DF
:103A400056331A78DA235B00E250EA690433E25015
:103A5000F8BD2800002208F006FCE969AB6B62485B
:103A6000E963994206DDC91A00220131503008F09D
:103A70008DF8EDE7591AF7E7286928282FD820286C
:103A8000E6D921380728E3D803F02EFB7B7DE279C5
:103A9000E2E2E2040323D722297E5200A25C5248CC
:103AA000DBB2012971D8CC21C0250026AD00490028
:103AB0006552453DFF3D66519A4274D301226254DE
:103AC0008832FF32A354503000224849050008F0E4
:103AD0008AF8CC235B0001222800E15CC7E760285C
:103AE00012D0A0283ED03028B2D1CC23404A5B006F
:103AF000E252200008F097F9DE2300225B003A48EA
:103B00003C49E250503016E09A23CC21DE26FF33A8
:103B1000E75C5635344B49007600002F0ED0C420A8
:103B20000022400022546252A25128781C315033A6
:103B300060501800304908F056F889E7C02080002E
:103B40002A7860525338A751FF38205C904204D342
:103B500001206054C42149006254503318000022EF
:103B60002649E8E7C423002202215B00E254FF312A
:103B70001033E15224331C482149E250C2E70223AA
:103B800089E7012387E7002385E79A420BD3CC21FD
:103B90004900625C0F2A06D8551CA2188932FF32F0
:103BA000655413708FE7002216495030C3E7EB6B62
:103BB000002B15DBB22228006221FF32A25C5630B6
:103BC00003789207D21713404B43AE6BE318603370
:103BD0001E70037813405943EB6B641861342370F3
:103BE00001235B42EB6328E768F1FF1F89D60000E1
:103BF0000102000075D600007AD600007FD60000D2
:103C000084D600008BD60000F0B50400501E0D00D5
:103C1000160085B008280AD803F070FA050F0F09BE
:103C20000B2909099600D7235B00CB5C236205B002
:103C3000F0BD2000FFF7D8FAF9E7230059331B78CD
:103C40009B0707D50022210003233000009220317A
:103C5000FCF7DEFE4C4D002350352800226A4B490C
:103C600007F0D9FF2800E16907F081FFDFE720694D
:103C7000482828D8402844D94138072841D803F09B
:103C80003DFA4E50404C404040040326D7277F0069
:103C9000E85D864247DD62230130C0B258433933C4
:103CA000FF33E95C2A0002394B4259412B00603254
:103CB00061331B7812782818890108F08CF8EB5DC5
:103CC0000133EB55E4E7C0281BD10522A31DDA77A9
:103CD0004F331B782263591C21624C212C4A1170EE
:103CE0001900313151700021A2629170022B0ED067
:103CF000032B0ED0012B0ED1264B2000E362FFF7E1
:103D0000B7FA042354342278134323708FE7224BED
:103D1000F3E7224BF1E7224BEFE70226B6E7012655
:103D2000B4E70026B2E7230056331E70EB5D236232
:103D30009A23FF33EB5C002B02D1B533FF33EE50F7
:103D40002000FFF751FADCE7D7266227236A7600C6
:103D50000293A95D029B8B420DDD4B1CDBB2180068
:103D600079437843622228186918039308F04EFFBC
:103D7000039BAB55EDE7029BAB55236A5634227883
:103D8000934200DB53E7C0E768F1FF1F90D60000C5
:103D90008B0B0020A4D60000C1D60000DED60000A8
:103DA000FBD6000003008922F0B5070001248BB088
:103DB000553302931B7892009B18BA4ABA4D9B0068
:103DC0009B582800019307F0A6FD7B78234234D04E
:103DD000CD23019A5B00D35C002B0FD0022B28D19E
:103DE00000234026B14AB2490F2E26DC0C2E01D802
:103DF000B0001150002B20D0F618F5E7D823019A17
:103E00005B00D65CB2233000FF33D35C0F30DB079E
:103E100007D5072103F01AFA07235843361A0C3640
:103E2000E0E70C2103F012FA0C23241A5C43A619D4
:103E3000D8E7012600237642D4E78022FB691206E8
:103E4000DA400021D4439B4B1868013120401860B0
:103E5000186C04331043D8630D29F5D13B003A00A8
:103E600054331B785632DB0716D5029BB96C1B788E
:103E7000994211D11378F96C99420DD18023280011
:103E8000396D1B06CB40E030016819430160290001
:103E9000FC31486A03434B62DC2301995B00CB5839
:103EA00028000793802307991B06CB40E830016860
:103EB000FC3519430160E96A0B43EB62FB6B03932A
:103EC000002B6DDBBB6B0493002380241D00029349
:103ED0002406049B039A93427CDDAA420EDC049BD9
:103EE000AB420BDB0321029A6F4B0A426DD1E833E0
:103EF0001A6822431A60029B013B02933B0056332F
:103F00001E78EAB23100019807F0D6FF08AB1871AD
:103F1000030408AA1B0E5371CD230002000E9071FA
:103F2000019A5B00D35C4006400E0693012B6AD1D8
:103F30000A2103F001F90C23C0B2181A00230593DB
:103F4000079BAB420DD1574A5B4BD35C002B08D08B
:103F5000DA23019A5B00D3589E1B73425E41F3B291
:103F600005930C2810D8059B002B63D003004E4A04
:103F70003A339B00D31859682A3021438000596096
:103F8000121853682343536008AB1A790323386C23
:103F90001340032800D99EE003F0B0F86EF594F1C9
:103FA000B2231178019AFF33D25C503B9207D217AB
:103FB0001140FF3B4B43019AD3181A006133603222
:103FC00012781B78049203937EE7FC33DA6A22436B
:103FD000DA6290E7049BAB4290DC039BAB428DDB43
:103FE0000322029B134207D12F4AE832136823436E
:103FF0001360029B013380E7304B304ADB6A059344
:104000002343D362F5E7069A0300002A0AD1B222BD
:104010000199FF328A5CD20704D5294A1068C0187A
:104020004D3003780C20C01AD823019A5B00D35C72
:10403000181883E708AB9A79E1431B4B7F2A0DD907
:1040400002002A3292009A1856683A3026438000BD
:1040500056601B185A681140596095E702003A32C1
:1040600092009A1856682A30264380005660181825
:1040700043681940416087E702231340D20727D5E0
:10408000002B00D082E0084B059E1900E43318682D
:10409000FC318A6A2043002E78D1A24318608A62DC
:1040A00019E0C04624F6FF1F98090020840A00206A
:1040B00088888888440A0020BC080000940A0020F0
:1040C00068F0FF1F08AA12795206120F002AD7D1F2
:1040D000002B00D090E001356408202D00D0F8E6D8
:1040E0003B0059331B785B0727D5D823019A5B0027
:1040F000D05C069B002B08D1B223FF33D35CDB07D7
:1041000003D5444B1B68181880780C2103F09EF8E7
:1041100003220121404B1C6801320C431C601C6CC3
:1041200004338C43DC630D2AF5D139323B4B101A32
:104130008000181843681943416058373B78002BBA
:1041400033D0364B03221900FC31886A1043886251
:10415000C86A1043C86219001800E4310C68E830DE
:1041600094430C60016891430160B2320198FF32C0
:104170008058032819D802F0C1FF1435383C08AA2A
:1041800052791207A2E75207A2D579E7234B19000B
:10419000E4310A68FC3322430A609A6A22439A6235
:1041A00099E70222E43322431A60A0231C4A1B0130
:1041B000D35C002B14D0194B03221800AC300168DB
:1041C000114301601800B03001681143016018000C
:1041D000EC300168F0331143016019680A431A603A
:1041E0000BB0F0BD0122E433DDE70222E8330A43DD
:1041F000DAE70122E833FAE7084B059E1800FC33A2
:104200009A6AE43001682243002EBFD1A1430160C5
:10421000C5E7C04668F0FF1F500A0020980900203B
:10422000ECFEFF1F013870B50C00082852D802F0D0
:1042300065FF0C1F2B302B263C2E2E00002C09D0A6
:104240007C3B59424B410132E41A002A02D01378D8
:10425000002BF3D100232148D15C002904D07C2914
:1042600002D0C1540133F7E70022C2541B4870BD8D
:1042700000230222481C194908F09BFAF6E70023A4
:10428000022220001549F7E700230322F9E7012362
:10429000F6E7124D002301222900200008F089FAD8
:1042A00056236B700023AB70E0E7CB1707210B4060
:1042B0001B190A4A0A49DB10413313700C4004D51C
:1042C0000821013C49420C4301340023313454702D
:1042D0009370CBE70022014B1A70C7E77C0B0020DC
:1042E00007000080F0B58BB0029204000E0014228B
:1042F000002105A808F0A6FC0020864265DBF82313
:104300005B00E35CB34260DD0C25F62375435B0084
:10431000E3585D192B68039383425DD0FA235B0059
:10432000E3580700B34219D1FE23FF33E35C0137A2
:10433000022B13D1FC221F005200A4580026039B1D
:10434000B100013B0136985D00280CD00523002206
:104350000193009205ABFCF719FCF0E72879FCF714
:1043600073FD0400EAE721006879AA68FFF75AFFA5
:10437000102504000526207800280BD07C2809D0C1
:10438000002229000196009205ABFCF7FFFB0134E7
:104390000435F0E7029B174A2B339B009B18002241
:1043A00001241000160005AD029989180F2908D8BC
:1043B00091004959012F0AD01964022F0AD01E60BA
:1043C000200001320433052AEED10BB0F0BD080CF9
:1043D000000418641960F3E7029B0F2BF5D81A004C
:1043E000044B3A3292009A1801235B420120536039
:1043F000EBE7C04698090020FE23F7B55B00C35CDD
:104400000700002B59D02D4807F085FAFA2305261E
:104410005B00FC58F43BFF3B013C0093002C1CDB91
:10442000009B002B19D00C25F62365435B00FB583D
:1044300001935D192879FCF7CDFD00280BD02A687F
:104440000623002A00D1043BF61A3200210038006E
:10445000FFF748FF0090013CE0E7FA2305265B00E8
:10446000FC58F43BFF3B0093F8235B00FB5CA3424A
:104470001FDD009B002B1CD00C23F62563436D0031
:104480000193019A7B599B181879FCF7A3FD00282A
:104490000DD0320021003800FFF724FF7B59019A2C
:1044A00000909A580623002A00D1043BF6180134E4
:1044B000DAE7FE2300225B00FA54F7BD98090020DA
:1044C00070B50400501E0B0008280BD802F016FE31
:1044D00005161C0A0A500A1E0B00012259342378C3
:1044E0009343237070BD59342378DB07FAD500223B
:1044F000364B5133DA77FCF7DDFDF3E70121494212
:104500001800FCF7A4FAEDE70121F9E7230059337D
:104510001B78DB07E6D5606908280AD800280AD08E
:104520000138072807D802F0E9FD110A061406062B
:104530000617402813D02000FEF7FAFDD2E78923A2
:10454000234A1B01985807F073FEF4E7204A214BD9
:10455000F8E71F4A204BF5E71D4A204BF2E72300FE
:10456000892255331B7892009B189B00184AE9E773
:104570002100012359310A781A42B3D104262500BB
:10458000300054352A7810432870206988280AD8CA
:104590008028A7D981380728A4D802F0A5FD110CDE
:1045A000A313A3A3A315C0289CD1B2432A700A78F1
:1045B00013430B70BFE700210C20FCF7EBFD91E7E4
:1045C0000121F9E70221F7E70321F5E768F1FF1F71
:1045D00024F6FF1F94080000980800009C080000C3
:1045E000F0B587B004000D000292012A05D1020047
:1045F0000421543213788B431370A61DF27F002AD6
:1046000036D0029B032B10D8012B11D90022210098
:10461000236B0298013B00922031FCF7F9F9002846
:1046200006D02000FEF724FE02E0029B092B01D0F9
:1046300007B0F0BD236A29002000FEF737FEC54B06
:10464000002810D0503318000022C34907F0CBFADD
:104650000023F377543422780423110019401A42BE
:10466000E6D12170E4E75133D877FCF723FDEFE77B
:10467000A068202800D18DE117D808280ED800287E
:104680000FD0013807280CD802F04CFD6C01300027
:104690000B0072010B000B000B007801102800D1F9
:1046A00072E1029B092BD5D0C2E780239B0198427F
:1046B00000D1D0E10AD8402800D171E18028F0D1A2
:1046C00029002000029AFFF7FBFEEAE780231B0285
:1046D0009842E6D1029B062B00D167E1092B00D15D
:1046E000B0E1012BA4D10534E277A1E723005633D2
:1046F00003931F78E3693900DAB2280007F0DCFB86
:10470000030404AE1B0E307073700002029B000E97
:10471000B070581E0828C4D802F0FAFC0900260020
:104720002600C3FF1D00F000C3FFC3FF1501CD230A
:104730005B00EB5C002B00D0C1E02A0062335F43DA
:104740005D32EB19D7199A787F2A00D9B7E0033385
:10475000BB42F8D1A5E7B17803234906002228001F
:10476000490EFDF713FE9CE722690A2A34D0122A6B
:104770000ED0062A6CD1029B0121022B04D1280005
:104780004942FCF764F953E72800FCF760F988E731
:10479000029B0122022B14D1390028005242FDF75E
:1047A0009BFE002807D00121236A4942013B236276
:1047B0002800FCF74CF96748216A503007F0F7F9F8
:1047C0006FE739002800FDF787FE0028F3D0236A41
:1047D000012101332362EBE70023202200932033E1
:1047E00002985242E118FCF713F90028E3D0039B2A
:1047F00062261F78029B05A8022B15D17743EE197C
:1048000007F039FA03370322310005A808F0FEF952
:104810005D22E919300008F002FA300003225D3011
:1048200005A908F0F3F9C6E77E43AF1907F023FAAC
:10483000390003225D3105A8033608F0E7F95D224F
:104840003900A81908F0EBF90322380005A9E8E7B8
:10485000B3787F2B45D862232A005F435D32EB1982
:10486000D7199A787F2A0ED80333BB42F9D1CD23CA
:104870005B00E85CFCF710F97F220300B07813407E
:1048800090431843B0708023B2785B421343B370F7
:1048900063789B0707D50123327813430F223370C7
:1048A000737893437370E3690327DAB2039B28009C
:1048B0001978002300970193330007F016FBB178B5
:1048C0002800490603230022490EFDF75FFDCD2392
:1048D000B2785B0052062000E95C520EFDF7CAFB7D
:1048E000DFE60121029B0A40032B05D02B00023991
:1048F0003000FDF7E9F8D6E72B00F9E72369122B22
:1049000019D009D8062B0FD00A2B00D0C9E60022F7
:1049100010481249226212E0422B00D0C1E6390051
:104920002800FDF761FDBCE622000423593211780E
:104930000B431370B5E60022064809492262503045
:1049400007F051F9ADE622000421593213788B4368
:10495000EFE7C04668F1FF1F70D600001DD70000CA
:1049600018D7000029002000029A07F087FC98E67B
:1049700029002000029AFEF70FFE92E6290020008F
:10498000029AFEF7DFFE8CE629002000029AFEF76D
:1049900037FF86E629002000029AFFF73FF880E6FD
:1049A00029002000029AFFF72FF97AE623695D4A71
:1049B000934211D8834200D83AE65B4A98180728F8
:1049C00000D935E602F0A4FB2100180034FE2700D0
:1049D00034FE34FE34FE2D00544A934226D0544A0D
:1049E000934229D0534A934200D021E603231D214C
:1049F0000093514A514B04E0022308210093504A8E
:104A0000504B200007F005FF12E60223012100931E
:104A10004D4A4E4BF5E70323062100934C4A4D4B7C
:104A2000EFE702214C4B4D4A0091EAE702230721B0
:104A300000934B4A4B4BE4E702231E2100934A4A62
:104A40004A4BDEE7631DDA77A262E262FA22484B44
:104A500092005A67FEE5029B042B14D0062B00D06F
:104A60001FE6230057331A702069424A90424DD006
:104A700019D8414A8018072820D802F03FFB413E50
:104A80001F431F1F1F4557342378022B00D8CFE543
:104A90004D203A492E33087035484B708A7050309B
:104AA00007F0A1F8C4E582229201904234D01ED8CA
:104AB000334A90422CD0203290422BD01A78002AD0
:104AC00000D1B5E50623F3770023E36201332362C7
:104AD000023323634D21294B022A1FD152321A700F
:104AE00059700022A3629A70264BE36299E5A022D6
:104AF00012029042E2D1022200E003221A70DDE7A6
:104B00000422FBE70522F9E70622F7E70722F5E78B
:104B10000822F3E70922F1E70A22EFE72E321970A3
:104B20005A70DEE708800000FF7FFFFF2080000052
:104B300040800000108000006BD700005ED70000AE
:104B40002AD7000022D7000038D7000030D7000055
:104B50004AD700003ED7000050D7000058D70000C9
:104B600078D7000070D7000085D700007ED70000FE
:104B700068F1FF1F10200000FFDFFFFF850B002002
:104B8000202000008AD70000F8B5150002000400BC
:104B900089205532137880001B18434F9B00481E14
:104BA000DE590E281BD802F0A9FA4308243E392109
:104BB0001A1A1A1A1A5E1A7B7700A268002A0FD1F5
:104BC000002D0CD021000220A56059310B788343C1
:104BD0000B702276013231002000FFF701FDF8BD95
:104BE000237E0622013325612376F4E708226561DE
:104BF000F1E723692B4206D0072231002000FFF79E
:104C0000EFFC00232361A368AB42E8D10922310005
:104C10002000FFF7E5FC0023A360E0E7A36804227F
:104C2000AB42DCD1D7E7A3680522AB42D7D1D2E7AC
:104C3000E943A368C90F0231002B0AD00A00200003
:104C40003100FFF7CDFC022359342278134323703F
:104C5000C5E72000012207F006FB1448E169503047
:104C600006F085FFBBE7032DB9D889239B00EB181D
:104C70009B00F9589A231570FF33CA5C00239A42AF
:104C800003D1B533FF33CB58DBB2220056322000BC
:104C90001370FEF7A9FAA2E7002356341370D6E783
:104CA000002363669BE7C04624F6FF1F68F1FF1FE1
:104CB00070B50400081F1500172826D802F01EFA48
:104CC0000C78505780313436383F484A2E3A4446A3
:104CD0004C7A7C4E87898B97D5B20223012D15D053
:104CE0002A009A4307D1B0230122FF33E254A623BE
:104CF0000732FF33E254CD235B002000E55407F078
:104D0000C4F800212000FDF76FFB70BDB022FF3218
:104D1000A354A623AC3AFF33FF3AEBE79C23FF33BF
:104D200044E0CE235B0041E09E23F8E7CF23F9E780
:104D3000D023F7E72000FDF743FCA223EFE7200094
:104D4000FDF73EFCD123EDE7D623EBE7AE23E6E704
:104D5000A423E4E7D223E5E7A623E0E7D523E1E7B0
:104D6000B023FF332000E25407F08FF8CDE7002A8C
:104D700013D02300210060331A7801331B78C2312D
:104D80000A704B709221490062542621FF3163540E
:104D9000613162548822FF32A354B22301220221DE
:104DA000FF332A40E55C52008D431543E554ACE7E0
:104DB000AC23B4E7D323B5E7D4235B00E252A4E7E6
:104DC000531E9A41B223FF330121E55CECE7D9235E
:104DD000A8E7B423A3E7F6235B00E25C074B92004D
:104DE000D318002113205D61FCF7D4F98DE7F62379
:104DF0005B00E35C014A04339B00F1E7E8F1FF1F2D
:104E000007B523390300080008290BD802F076F90A
:104E1000050B1620263E313514001E481100503077
:104E2000FCF7FCFF07BD1800D1B2FDF783F80021A5
:104E30000B20FCF7AFF9F5E75A70F3E7164B15486E
:104E40000193027301ABD2B29B5C1B024361EEE79C
:104E50001048D1B2603006F0A5FDE8E70E4B019393
:104E60000C4B190060314A70D2B201A98A5CDA6732
:104E7000DDE70A48D1B20830EDE7074B01A90193FD
:104E8000064B5A72D2B28A5C5A62D0E7034B303377
:104E90001A70C7E7E8F0FF1F0C06030168F1FF1F57
:104EA000F8B50400481E15000C2859D802F026F960
:104EB00007778AA45858585858585858B200FA23B7
:104EC0005B00E658FE23FF33E35C013B012B1ED958
:104ED000F6277F00002D60DA013E002E40DBF8232C
:104EE0005B00E35CB3423BDD0C237343E259D31810
:104EF0001A68002AEED01879FCF76CF80028E9D07F
:104F0000FA235B00E65008330122E25428E0FC2338
:104F10005B00E258ED3BFF3B5E43E133FF33E35878
:104F2000AD189E1970790022431FDBB2042B02D802
:104F30003D4A0E32D256954212DB0138082828D855
:104F400002F0DCF80F29051C1E27212325007F23F2
:104F50009D4205DCFC23354A5B00E5500433E252F8
:104F6000F8BD0023B268002AF2D011780029EFD0F2
:104F70007C394842414101325B18F4E70823E7E7F6
:104F800096235B00E4E72723E2E76323E0E71823A7
:104F9000DEE70023DCE70F23DAE701369DE7022A8C
:104FA000DED1FA230C225B00E158083B4A43E35868
:104FB0009B181879FBF748FFFC235B00E050FE23A9
:104FC000FF33A1E7FE25FF35635D022B11D10C22D3
:104FD000F333FF33E158083B4A43E3589B181879F1
:104FE000FC235B00E158FCF7BDFAFE2301225B00C5
:104FF000E25400236355B3E710008138072809D82D
:1050000002F07CF80B04080D0808080F00210C20A2
:10501000FCF7C0F8FE235B0076E70121F7E70221E9
:10502000F5E70321F3E7C04674D300000102000056
:10503000F0B5514D514E87B0029104003100280067
:1050400006F02BFD2B78AA2B00D07FE06B78012B8C
:1050500000D07BE0AB5D834200D077E002222000ED
:10506000474907F0D3FD89231B01E3181F00039371
:105070008A233E001B01E3180493424B01933568D9
:105080002C22280089300199FF3007F0BFFD019BD9
:1050900005932C33009362222800009907F0B6FD97
:1050A000009B623562330093059BB533FF33019358
:1050B000019A009B9342EED1049B04369E42DED1BE
:1050C000AF2300259B00E6183000039AED38AB00B3
:1050D000FF38D0503570F136013507F09AF8FF36B9
:1050E000042DF1D18C2301221B015242E2500023F6
:1050F000254AA352254AA354029B002B1BD0022B06
:105100000DD0B223FF333A68D25C52071CD4049A04
:1051100004379742F7D11E4900221E4808E001CF0C
:1051200007F006F8049B9F42F9D1002219481A495A
:10513000503006F058FD2000FDF732F800210B201A
:10514000FCF728F807B0F0BD1449E5E7029B002BF7
:10515000F4D0104D022B09D12000FDF76FFC280080
:1051600000220D49503006F03EFDE7E728000022FE
:105170000B495030F7E7C046ECFEFF1FD406000095
:10518000EEFEFF1FF0FEFF1FC4080000C60800006F
:105190006FDA000068F1FF1F72DA000066DA0000C3
:1051A00077DA000070B5CD1F04000C2D10D8280050
:1051B00001F0A4FF0B1E0B0E0E0E0E0E2A0E210E7A
:1051C00007002000FDF75CFC70BD0122194BE25482
:1051D00089231B01E6181033E4183368082D1DD805
:1051E000280001F08BFF181F1B1B181B1B1B230023
:1051F0000022104BEBE7002AEAD00F4800220F49AB
:10520000503006F0F0FCE3E7002AE1D01100200066
:10521000FFF70EFFDCE7180006F0B1FF0436B442DA
:10522000DBD1D1E71800FDF70BFAF7E7180006F01D
:10523000F0FFF3E7BC08000068F1FF1F6FDA000021
:10524000F7B5070040373B780400DAB2002B28D1CD
:105250000600503328363371564D574BEB580363D5
:1052600002233373A02382621B01E85C0138052806
:105270002FD801F043FF036C756317790123737115
:105280004E4BA563EB5821004D4A4E48E363002383
:1052900001F060FC320021004A4801F085FC012346
:1052A0003B70F7BD484AAB5CD9B20191002B33D0BB
:1052B00046484749436D01936B5C9C466B461B799E
:1052C000634506D0436DDBB26B54AB5C013BDBB294
:1052D000AB543E4A13007033187AC1B2012847D04C
:1052E000032949D00029DCD18F3119700123E363F0
:1052F000002360217032A3622363A1853548337394
:105300002100A2632E4A01F025FC32002100314821
:1053100001F04AFC0223C3E7284BEB58002B09DCC1
:105320002D4B1120E958FBF735FFA023019A1B01F3
:10533000EA54CEE7A02204231201AB540023737178
:10534000A1231B01EB58ED18A56340239BE70F2019
:10535000214BE958FBF71EFFA02300221B01E7E7C2
:105360001D4B1020E958F5E71B4B1220E958F1E7D7
:10537000CF201870E163BBE70F20D9890D0A0540E3
:10538000C9B21D705970198A0D0A0540C9B29D70C5
:10539000D97099890D0A0540C9B21D715971598991
:1053A0000D0A2840C9B29871D9710821E163063904
:1053B00019729DE7ECFEFF1F080A00000C0A0000AE
:1053C000ED0A000000700640150A000068F0FF1F9B
:1053D000140A000000600640040A000070B5A02511
:1053E00004002D012000FFF72BFF230040331B7822
:1053F000002BF7D1024B5B5D002BF3D170BDC04693
:10540000ECFEFF1FF0B50226012593B007F0F3FB79
:1054100007F0ECFB07F0EEFBE64A0BAF1368390030
:1054200033431360E4483D7001F060FC8023E34A9D
:10543000E34CDB031360E3683343E36007F02BFBCB
:10544000FA21890001F078FE6060E36808AA2B4326
:10545000E360002313770E930DAB1900D9480D9527
:1054600001F006FCD84B29001433180006F029FA85
:10547000D64E022133003200FC331B6BA83213607E
:105480008023CE481B040360E3690B43E361136888
:105490006361E3692B43E361FCF76EFACA4B2900B1
:1054A0002033180006F00DFAC9480022C9495030CF
:1054B00006F099FB0DAB180001F0A0F9C64B0220D5
:1054C0000E9307F0FAFAC54C02000DA9200001F076
:1054D000DDF98021A37849420B43DBB2A37002209F
:1054E00007F0EBFABE4C0DAB02001900200001F0F2
:1054F000CDF98021A37849420B43DBB2A3700DABF9
:10550000180007F060FBB74B02200D9308ABDD7667
:105510001D7707F0D2FA0DA90200B34801F066FC2E
:105520008A21B148090301F0D9FC8023A348AF4C7C
:105530005B0103602000FDF781FAFCF795F9AC4DA3
:10554000281DFFF74BFFB3689B0400D422E2B36829
:105550005B0400D41EE2B3681B0400D41AE20023EB
:105560000422A4490DA80B930C93FBF785FB0023A1
:105570004835069303930795079B1B7A002B00D1B0
:1055800003E20027079B09AD0822390028001F729B
:1055900007F058FB02228D4CA3681A4000920222A9
:1055A000134204D0E02301371B062F700093012320
:1055B000A2681A4206D0E022009912051143009118
:1055C0006B70FF18A3685B0707D5E023009A1B04E4
:1055D0001A4301230092AB70FF18A3681B0707D57D
:1055E000E023009A1B031A4301230092EB70FF187B
:1055F000A368DB0607D5E023009A1B021A430123A8
:10560000002700922B71A3689B0607D5E023009A20
:105610001B011A430123002700926B71A3685B06EC
:1056200006D5E0230027009A1A43DF3B0092AB71B6
:10563000A3681B0606D50E230027009A1A430D3BCC
:105640000092EB7100250BAB019309ABEE5C019B63
:105650001B78B3420CD02A0024326748D2B2002E05
:1056600000D11CE17F23002106F070F9019B1E7020
:10567000019B013501330193082DE6D1A2688023F7
:1056800011009B0119400191049102911A4206D028
:105690005A4B013704935A4B0193012302934B4B0E
:1056A0009A6852040AD5554A01990027114301917D
:1056B000534A049911430122049102929A6880236B
:1056C00011001B02194005911A4200D0EBE0052F92
:1056D00000D000273C4C20002C3006F009F9431E76
:1056E000984146424748E023064020001B013430E1
:1056F000F61806F0FDF8002801D1E0231E434248C9
:1057000006F0F6F8002801D10E231E432F492F4A38
:1057100098319C320B68106809681B1A1160069A50
:105720009B18002B00DAC3E01F2213400693002FC2
:1057300006D0042235490DA8FBF79EFA00230293F8
:10574000224C002523002000A4331D7006F0E3F84E
:10575000029BAB4200D1ADE02D4B059A02351A6099
:105760005A60019A08339A63049ADA63102DF4D1CF
:105770000122164BA4331A70002F00D163E21C489B
:10578000A0250430FFF72AFE002403262D01310056
:10579000002261431F4BC9B2881898540132AA42B3
:1057A000FAD15A5DD1B2002A44D101201A4A4042AE
:1057B000985033E0148004400070034000E100E0A2
:1057C000FC7003400090074068F2FF1F980900201A
:1057D00068F1FF1FBAD7000020A107000060064053
:1057E00000700640127A000000A0064024F6FF1F59
:1057F00068F0FF1FBED70000090900205555555518
:10580000AAAAAAAA00F2FFFFBCF2FF1FC3D700009A
:10581000440A0020ECFEFF1F180A0000D74AD848AF
:105820009C502A0062431A50D64A9D500432995027
:1058300004225A55D44801340430FFF7CFFD0C2C14
:10584000A5D1A025002403272D013E00CF4B6643A0
:105850005A5DF6B2002A0DD10121CD4A4942995034
:10586000C64AC7499C502A0062435A50C54A9D50B7
:1058700001225A55C4480430FFF7B0FD0023C34944
:10588000F218C85CD2B2904200D0D7E10133AB42EB
:10589000F6D101340C2CD8D10422BE49D0E131001C
:1058A00006F068F8E2E601230293023B059310E755
:1058B000203336E78025069B2D06DD4023000F9A16
:1058C000B4331A602300109AB8331A60230001928F
:1058D000119ABC331A6022000D9BAC323343136023
:1058E000230022000E98E432B033064300991E6074
:1058F0001368E8340B4313600B00226813432360E2
:10590000A54A029B11680133294302C2102BF9D129
:105910002EE79A6080225200944200D0C7E1803A7C
:105920005A608022D2049A60C0229200944200D031
:10593000C7E1802252055A60039B934D1A067035C9
:1059400000212800120D1C0106F09BF88023A4B250
:10595000DB00E218120501212800120D06F091F873
:1059600080231B01E218120502212800120D06F007
:1059700088F8C0231B01E418220503212800120D1A
:1059800006F07FF8039B013303937F480430FFF751
:1059900057FCF1E5814A0023100003251371936041
:1059A000D3601361536159309362D36213631362FE
:1059B00093847B4A0178A354F533A943FF330170E4
:1059C0000093714B1A004832117A002900D108E186
:1059D0000021744C1172586D230028331A78022A62
:1059E0000AD1626A8A4207D0904205D90122082072
:1059F00061621A70FBF7CEFB2000603006F018F8E9
:105A0000694D00262800083006F012F8674F38006C
:105A1000FDF756F8664C3434E168002914D0636809
:105A2000A268CB186360002905DA934205DC0023E5
:105A30006260E36001E09342F9DA63685C481A143B
:105A4000F1B21430FCF7F2FB2378022B0DD163780E
:105A5000002B0AD0013BDBB26370002B05D1013370
:105A600019002370F0B2FBF727F801361034042E2A
:105A7000D2D1504806F089FF484C89222300553383
:105A80001B7892009B189A229B00FB58FF329A5C6D
:105A9000002A08D0E02252009B5C22005832DB072B
:105AA0005FD564231370444E300006F0D2FE6B6F56
:105AB000002B08D0013B6B67002B04D12A00513228
:105AC000D377FBF7F7FA33000022394FA4331A706B
:105AD0003B0074331B78934248D0013B012B49D9DA
:105AE0002C0028005434E37F5030002B03D006F004
:105AF00003F80023E377296D2B4CCB4352359C46AA
:105B0000EB7F250001222B339B00F61850356046B1
:105B10003368034090004059013203433360336CD3
:105B200004360B43F363062AF1D1234B2348A433F5
:105B3000053A54301A7005F0DBFE002842D1009B74
:105B4000013B0093002B40D1184806F080FBFBF787
:105B5000C3FDFBF743FF19480099203005F0B1FE63
:105B6000FEE71378002B9ED0013B9BE72000FEF759
:105B700019F9B5E71248FEF73FFCB1E7040A000047
:105B8000080A00000C0A000068F0FF1FECFEFF1F6F
:105B9000180A0000CDD70000840A002054F5FF1F2A
:105BA000C7080000E8F0FF1F68F1FF1F24F6FF1F81
:105BB000E8F1FF1F090900209809002068F2FF1F83
:105BC00054F3FF1FFA235B0000933800783005F090
:105BD00096FE2000783005F092FE2000343005F06B
:105BE0008EFE3A4C201DFFF72BFB22002000802365
:105BF0004932D57F364948301B04002D17D00A6939
:105C0000110019401A4200D0DBE64378022B08D07D
:105C1000032B0AD00A20012B04D000234934E37758
:105C2000CFE60920FBF7B6FAF7E70720FAE709699C
:105C3000194200D1C5E60123D377C2E604222549E3
:105C40000DA8FBF719F8C024234806F09EFE234850
:105C500006F0FFFD039B224DA4001C4067426741F4
:105C60002800661EFF3E73425E413900343005F065
:105C700028FE1C483100783005F023FE28001A4B1E
:105C80007830E1184B42594105F01BFE174D3900A1
:105C900028003C3005F015FE28003100483005F0A2
:105CA00010FE40220A4B002C00D032E65A608022BF
:105CB0009A608132FF32944200D032E68022D204D0
:105CC0005A60802252059A6036E6C04668F0FF1F8F
:105CD00000F00F40C8D700000909002098090020F3
:105CE00068F1FF1FE8F1FF1F00FEFFFF68F2FF1FD2
:105CF000F7B5FA480023052203215C3005F0D1FDF9
:105D0000F648002301220221683005F0CAFD002375
:105D1000F2481A000221743005F0C3FD002303226B
:105D20000121EF4805F0BDFDED48002302220121CD
:105D30000C3005F0B6FD0023E848190001221430AC
:105D400005F0AFFDE64806220221183005F0C1FD3E
:105D5000E34804220121203005F0BBFDE048002289
:105D60000321283005F0B5FDDD4801220321303044
:105D700005F0AFFDDB4D0123002428005B422C80A1
:105D800021006C8080226C601430AC60EB602C745D
:105D900006F058FF280021000322943006F052FF3D
:105DA0002B0098331C602B009C331C602B00A0330D
:105DB0001C602B00A4331C702B00A8331C602E0029
:105DC0009E23FC365B00EC54F4637464B464F464A6
:105DD00006F061FE32220023210001F043FB002384
:105DE000C14A01F01FFB306306F055FE96220023E6
:105DF0002100520001F036FB0023BB4A01F012FBE8
:105E0000706306F048FEC82200232100520001F012
:105E100029FB0023B44A01F005FBB44D23002F00F9
:105E20007837B06305220121380005F03AFD2B00D8
:105E300001220833DA672B000A2688331E603C767D
:105E40002B002F00C821343792188C33196038008A
:105E50002300110005F025FD0122C8213C76A44F46
:105E6000230078372A646E64A96438000232C63988
:105E700005F017FD0122C8219D4B3C760833DA67F7
:105E80009B4B220088331E60994B8C331960994BD1
:105E9000210018004930047018004A3004701800BE
:105EA0008B30047018008C3004708C481C705C704F
:105EB0001C715C719C71DC711C722C3005F009FD49
:105EC0000322864E23003C361100300005F0E9FC29
:105ED000824807220221343005F0FBFC7F4F23006B
:105EE0004837052202213800019705F0DAFC824B81
:105EF000824A00219A6001221A73C022D2005A619C
:105F00007F4AFE201A63802252009A64002299631D
:105F1000DA63991DCA8F5C670240FD380243CA8765
:105F2000784A07001A6578225A65763ADA661A00C6
:105F30000832D6671E00803632787348BA43327012
:105F400002221E006A61019A7049EA6260362A00E4
:105F50009865D96577700F20052106262832586686
:105F600099669C67DE675C631C64E8602961EC618C
:105F7000110012786F72BA43654F5033FB643B00D7
:105F800048337C651C723B000A702A00493330326A
:105F9000DC773B001470547000210022380070330D
:105FA000BC652C6239667A666E6221001C7208221A
:105FB0007A3006F047FE0121564B574A49429C5021
:105FC000564A28009C5004329C50554A6C679C5499
:105FD000544A543099503B0044331C70524B2100BA
:105FE0002B67142206F02EFE3D48230021002C656D
:105FF0003200383005F055FC3948230007220321D0
:10600000443005F04EFC3648230002220321503074
:1060100005F047FC32482300042203215C3005F0E0
:1060200040FC334D3248210040221435343006F014
:1060300009FE21002022280006F004FE3B4D2C60C2
:1060400028003D60FCF7ACF8394C2600300005F024
:1060500019FE230089336236FF33B342F6D1F1349F
:10606000344BFF349C42F0D100248A231B01E818F2
:106070000019033405F0FFFD0C2CF6D12E4805F075
:10608000FAFD2E4805F0FEFDC4212D4B89001A882B
:106090000025920A92020A431A8001225242DD61CF
:1060A0001D645D655D635D669A63DA6359331A78D2
:1060B0002900A243234C1A70261DEC22300006F062
:1060C000C1FD214B8A22236082235B00A3801F4BEA
:1060D0005200A3601E4B2900E3603BE068F2FF1F03
